:020000040020DA
:10200000A83100208D2220006FAF20006DAF20008E
:102010006DAF20006DAF20006DAF2000000000000C
:10202000000000000000000000000000A9C0200027
:102030006DAF200000000000C7C02000D1AF20001D
:10204000E3AF2000E9AF2000EFAF2000F5AF2000A4
:1020500000000000D7AF2000DDAF20006DAF2000F2
:102060006DAF200000000000000000000000000034
:1020700000000000000000006DAF20000000000024
:1020800000000000000000006DAF20006DAF2000D8
:102090006DAF20006DAF20006DAF20006DAF200050
:1020A0006DAF20006DAF20006DAF20006DAF200040
:1020B0006DAF20006DAF20006DAF20006DAF200030
:1020C0006DAF20006DAF20006DAF20006DAF200020
:1020D0006DAF2000000000000000000000000000C4
:1020E00000000000000000000000000000000000F0
:1020F00000000000000000003D3820004D382000A6
:1021000000000000000000000000000000000000CF
:1021100000000000000000000000000000000000BF
:1021200000000000000000000000000000000000AF
:10213000000000000000000000000000000000009F
:10214000000000000000000000000000000000008F
:10215000000000000000000000000000000000007F
:10216000000000000000000000000000000000006F
:10217000000000000000000000000000000000005F
:10218000000000000000000000000000000000004F
:10219000000000000000000000000000000000003F
:1021A000000000000000000000000000000000002F
:1021B000000000000000000000000000000000001F
:1021C000000000000000000000000000000000000F
:1021D00000000000000000000000000000000000FF
:1021E00000000000000000000000000000000000EF
:1021F00000000000000000000000000000000000DF
:1022000000000000000000000000000000000000CE
:1022100000000000000000000000000000000000BE
:1022200000000000000000000000000000000000AE
:10223000000000000000000000000000000000009E
:10224000000000000000000000000000000000008E
:10225000000000000000000000000000000000007E
:10226000000000000000000000000000000000006E
:102270006DAF20002137200045372000E12D2000E0
:10228000B13920000D2920006DAF2000FF22482425
:1022900008B5084B08481A60084AE3690849121A49
:1022A00098470848084A0021A369121A984700F085
:1022B0000DF8FEE7B4200D40400000201D02002074
:1022C00090CA200020020020A72900202DE9F34118
:1022D00000F06AFC00F022FD00F080FC00F07AFAC9
:1022E00001F054FB08F043FF00F010FD00F0CAF8C5
:1022F000012008F03FFE02F08BF900F041FC0020C5
:1023000000F05CFB012000F059FB0020494900F07F
:1023100021FC02F0C3FA62B6042008F02BFE464806
:1023200008F08DFE454808F08AFE00F0F1F9002023
:1023300002F060FB01F01AFA0021414802F0F4F9C2
:1023400001F09EFF08F042FE00F06EFD00F08AFDF5
:1023500007F02AFB0821684601F03EFB9DF8063095
:102360009DF80760374C46EA03266B4603CB206096
:102370006160354801F06AFB00272546DFF80081DF
:10238000404614F8011B013701F060FB072FF7D11D
:102390002E4FE9792E4801F059FBFC6A4AF6CD31FF
:1023A0000220A04731460320A0471A210120A04760
:1023B000694608227B6B0B209847264801F046FBB4
:1023C000254B186808F03BFE244801F03FFB244BE6
:1023D000186808F034FE234801F038FB224B1868D7
:1023E00008F02DFE214A2B6813606B68536007F0DC
:1023F00005F800211E4802F097F900211D4802F05F
:1024000093F91D4B01219B688120984708F06EFECF
:102410001A4808F061FE00F0B9FB022008F0AAFD9E
:1024200000F0BAFB02F00CF910F0FF0FF8D101F048
:1024300041FAF5E755482000A8C72000BAC7200098
:10244000780000209F290020DFC720006CC62000F4
:1024500003C8200009C8200034C7200010C820008D
:102460004CC7200017C8200068C72000841F002028
:102470001801002098000020F4C5200098C7200013
:10248000FDC7200008B500F0E7F80022014B1A70E4
:1024900008BD00BF10170020024B1A7810431870B7
:1024A00000F0FEB810170020034A137823EA00005A
:1024B000107000F0F5B800BF10170020024B1A781A
:1024C0005040187000F0ECB81017002018B1012827
:1024D00004D000207047034B18687047024B1878EF
:1024E000704700BF20900D401117002010B5094A19
:1024F0000020137801331370074B197802F0ECF8C1
:10250000BDE8104005490023054A0968054801F067
:10251000EDBE00BF111700209629002058020020B0
:10252000ED2420003802002008B50346812B084620
:102530002BD0B3F5807F39D0802B24D102F060F806
:102540001C4B1D4A18701368032123F00803136005
:1025500052F8203C002023F0080342F8203C52F8B7
:102560001C3C23F0080342F81C3C52F8183C43F092
:10257000080342F8183C042200F0DEFB032200218D
:102580000E4800F07DFB012008E00D4B0D491A6854
:1025900028B142F008021A6001230B6008BD22F046
:1025A00008021A600123C1F88030F7E7064B196072
:1025B000E9E700BF9629002020940D40CD2520009A
:1025C00010940D4000E100E05802002008B50F48CB
:1025D00008F0E1FDC8B108210C4808F0CAFD0C4B19
:1025E000196849B100220B4B1A700B4B1B6843B999
:1025F0000A4A0B4801F07AFEBDE80840094802F09B
:10260000C9B9074801F0B4FEF6E708BD3002002062
:10261000580200201117002020900D40ED242000CA
:1026200038020020F4C52000084A136823F0040390
:10263000136052F8203C43F0040342F8203C00228F
:10264000034B1A600122034B1A70704720C40D40DF
:1026500010C00D40121700200D4A0E49136823F0D8
:10266000C003136052F8203C43F0C00342F8203C02
:102670000022094B1A600B6823F010030B6051F81D
:10268000203C43F0100341F8203C044B1A60704793
:1026900020A40D4020C40D4000A30D4040C00D40BB
:1026A00010F0020218BFFF22084B1A6010F004025B
:1026B00018BFFF22064B10F001001A6018BFFF225E
:1026C000044B14BF1A601860704700BF00A20D4091
:1026D00000A10D4040C00D40044B1B68C3F3072010
:1026E00013F4704F04BF1030C0B270471C300D405F
:1026F000064B1868C00910F0060F03BF00F0070072
:10270000C0F1020040034FF40040704714300D4008
:102710002DE9F047482488B0FFF7DEFF164B064648
:102720001F68A36898476368804698470446FFF788
:10273000DFFF054600F08CFA814600F095FA8246EC
:1027400000F042FAAD0A07F00103A40AC7F34007FC
:10275000CDE905A003934146CDF81090029701956D
:10276000009406F00F03C6F30712044801F06EF957
:1027700008B0BDE8F08700BF1C300D4025C8200020
:102780002DE9F84300F084F810490246D1E90045EC
:10279000AC46A04238BF05F1010C6346C1E90023F5
:1027A0000B48D0E90089B8EB040169EB05048E18E9
:1027B00044EB0C07C0E9006701F08CFE18B1BDE8DE
:1027C000F84301F00BBEBDE8F88300BF28020020EB
:1027D00020020020E0210D4B0D4A5A600D4A82F87C
:1027E0002310002207219A6019600B490B6843F0FF
:1027F00001030B60094B1A60042243F80C2C0122E0
:1028000043F8082C0F22DA62704700BF10E000E0A6
:1028100047E8010000ED00E008200D400C000340F7
:10282000034BD3E90023100A40EA0360704700BF5E
:1028300028020020034BD3E90023D00B40EA434099
:10284000704700BF20020020054B186053F81C2C75
:102850001C3B42F001021A601A68D207FCD4704790
:102860002800034010B5064C236823F001032360C1
:10287000FFF786FF236843F00103236010BD00BF0C
:1028800010E000E0014B1868704700BF5C020020B8
:10289000064B18685A6808331B681B0443EA022376
:1028A000034A0343106843EA0060704740500D40FC
:1028B0004C500D40014608B5104A1368DB07FCD5A3
:1028C00072B6FFF7E5FF0B1A062BD8BFC11D0C4BE4
:1028D0000A0E1A60C1F3074243F8042CC1F3072221
:1028E00043F8082CCAB243F80C2C62B64FF40032FD
:1028F000044B1960044B1A6108BD00BF50500D40D5
:102900004C500D405C02002000E100E008B500F0F2
:10291000B9FF0022064B1A604FF40032054BC3F892
:102920009021C3F89020BDE8084001F033BF00BFFC
:102930005C02002000E100E0064B1B681B075FBF44
:10294000054B186880F00800C0F3C00048BF0020A5
:10295000704700BF18C0004018D000402C23154A13
:1029600070B503FB00234FF6BF72DC680546236C8D
:10297000626413F050020DD00F4EA369DB0600D540
:1029800070BD56F825301BB12068C0B29847F4E7F7
:102990002368F2E713F4D06FF2D04FF4407323634F
:1029A000FF236360E36AE262E362236B43F00103A7
:1029B0002363E5E704C62000600200202DE9F04F04
:1029C0000128064685B000F2B4802C2545435A4FB5
:1029D0007C1994F92090B9F1000FC0F2AA8094F903
:1029E00022B0BBF1000FC0F2A4804FF000085348A2
:1029F00000F0BAFF524978590A6894F921A00243BD
:102A00000A604A686068E56802434A608A68A068AC
:102A100094F9233002438A6022690AEBC901C5F8A0
:102A2000C88F116094F823105FFA8BF0227D019318
:102A3000CDE9020100F08AF9DDE90201082200F087
:102A40007BF901233F494FEA0B32019852F801C04C
:102A500003FA00FB4BEA0C0050504FEA093959F8D1
:102A6000012003FA0AFA4AEA020249F80120502238
:102A7000AA63AA6B94F9240042F4D062AA630222EA
:102A80006A634FF440722A63A26940456A62E26950
:102A9000AA624FF07002EA620D4614DB94F9251029
:102AA000294A41EAC0041460020354598B4023436D
:102AB0005351C9B24246C0B200F03EF9234A1368EE
:102AC00043F4004313602C2303FB067393F9264061
:102AD000002C1BDB93F827905FFA84F8012249460B
:102AE000404693F927A000F031F9012324036259ED
:102AF00003FA0AF31343635108224946404600F0A3
:102B00001BF9124A136843F4804313602C2000FB26
:102B10000676F268136B43F001031363012296F803
:102B20002830590903F01F0302FA03F3084A42F858
:102B3000213005B0BDE8F08F04C6200039292000FF
:102B400028200D4020940D4004410D4030D000401D
:102B500000E100E001289CBF014B43F820107047C2
:102B600060020020012808D82C22044B02FB003010
:102B7000C3689A699206FCD41960704704C62000A5
:102B80000022014B1A60704700500D400822014B93
:102B90001A60704700500D40A022024B1A6050226C
:102BA0001A60704700500D40014A024B9A6070470E
:102BB0000020200000ED00E0024B1868C0F38150B7
:102BC000704700BF04200D4008B5FFF7F5FF024B2A
:102BD00053F8200008BD00BF5CC6200038B5164D74
:102BE000164C2B68012223F040032B60236806213A
:102BF00023F040030320236000F09EF82B6801229D
:102C000023F080032B602368072123F080032360D7
:102C1000032000F091F80A4B0A4A0B491A600B4A4C
:102C2000134610680842FCD11A685101FCD41A6896
:102C30005201FCD538BD00BF20C40D4000C40D407A
:102C400000200D40010102000000010104200D40A0
:102C5000034B04481B6803F007031841704700BF8B
:102C600004200D400048E801034B04481B68C3F3EF
:102C700002231841704700BF04200D400048E801BE
:102C8000024B02EBC10243F82200704768020020A9
:102C9000F8B507460D460024084E06EB411647FAE4
:102CA00004F3DB07E1B204D556F824300BB1284613
:102CB00098470134082CF2D1F8BD00BF680200200B
:102CC0002DE9F8430546DFF8408000F0DBFD0C4BB2
:102CD0002E03F75856F808404FEAC50924FA09F4BC
:102CE00047EA04002946C0B2FFF7D2FFE4B2054B21
:102CF000FFB204FA09F4F75046F80840BDE8F8833B
:102D000018940D401C940D4018970D40802200210E
:102D1000014808F0DBB800BF68020020034B044AFA
:102D20001A60044B803A1A60704700BFE802002026
:102D300080400D40EC020020034B01EBC0011B68FA
:102D400043F82120704700BFE8020020034B01EB4D
:102D5000C0011B6843F82120704700BFEC0200202F
:102D60000E2870B506460BD1134B1C6844F00200C8
:102D700018601248056825F03F0343F00103036023
:102D80000F48036823F0FF031A43114331430D4AF0
:102D9000016013681B06FCD50B4B0C4A1B681068BE
:102DA00003F0FC0343EA00230E2E18B201BF034BCD
:102DB0001D60014B1C6070BD34000144F486084066
:102DC00008700D4000700D400C700D4010700D40EB
:102DD000024B1868B0FA80F04009704700B708400D
:102DE0004FF40042064B10B5064CC3F89021C3F8CF
:102DF0009020206818B101F0AFFC0023236010BDC3
:102E000000E100E0F0020020064A136843F00203EC
:102E10001360536843F002035360936843F0020366
:102E20009360704748200D4007B50C4800F09CFDAA
:102E3000FFF7EAFF0A4B1A6842F002021A6000220A
:102E40000192019A0F2A06DD1A6822F002021A6026
:102E500003B05DF804FB019A0132F1E7D12D2000A7
:102E600054200D40064A136823F002031360536890
:102E700023F002035360936823F0020393607047CA
:102E800048200D400B4B1A689207FCD41B685B0668
:102E90005FBFED22084B1A601A60084B1B6813B124
:102EA000EF22054B1A60064A0120137803F07F03D6
:102EB000137070474C860840388808402C860840BC
:102EC00015170020044B186800F02200A0F1200321
:102ED00058425841704700BF4C860840024B186862
:102EE00000F04000704700BF4C860840204B18702F
:102EF000002832D01F4A13681B03FCD51E4B1A68EA
:102F000042F002021A601A6842F001021A601A685E
:102F10005007FCD51A6822F001021A601A6851079E
:102F2000FCD41A6842F002021A601A6842F00102E8
:102F30001A601A685207FCD5104A136823F004037C
:102F40001360D2F8A83123F00403C2F8A8314FF47B
:102F500000520B4BC3F890207047084A136843F0A7
:102F6000040313604FF40052054B1A61704700BF11
:102F70001417002004200D40048808408C86084067
:102F800000E100E0084B93F90020002A09DBED2165
:102F9000064A11601160E32111601A7862F07F0225
:102FA0001A700120704700BF1517002038880840AC
:102FB000A0F10B01CBB20F2B10B5044613D80B4B6D
:102FC0001B6813F03F0302D0FFF75CFF0123084AA0
:102FD00001EB81010B3111600BB1FFF7D3FF054B02
:102FE00060B21C7010BD4FF0FF30FBE74886084010
:102FF0003C8608401A02002010B50C46002900F05B
:103000008680102800F28580DFE800F009101B227E
:10301000243B44575C727683837B7D547F003E4B18
:103020001B68003B18BF0123236024E005223B4BB3
:103030001B6803F07F030B3B93FBF2F30B33DBB214
:10304000F2E7374B1A68043B1B6843EA0223EBE7BD
:10305000344BF7E700230B60334B344A1B6803F013
:1030600001030B601268900644BF43F002030B603B
:103070002F4B1B780BB900200BE00B6843F00403C7
:10308000D2E700202B4B08601B78002BF3D00123E4
:103090000B6010BD284B29491A680023D2B201EBFE
:1030A000C3000079904202D851F83330BCE70133B5
:1030B0000E2BF4D16FF01703B6E7214B1B685BB200
:1030C000493BB1E71F4B1B6899060FD1FFF75AFF29
:1030D00001231D490A68D207FCD51C4A11684939E9
:1030E00049B20BB1FFF7CEFE2160C4E70023F0E741
:1030F000174B93F9003097E7164B1B7803F07F03CB
:1031000092E70B2390E71A238EE707238CE7022030
:10311000BFE70120BDE700BF2C8608403C86084081
:10312000CC850840D48508400086084024860840A5
:10313000141700201B02002040860840A4C620006F
:1031400058860840488608406486084060860840E3
:10315000161700201317002008B50B4B1B689906A3
:103160000FD1FFF70FFF012308490A68D207FCD5EA
:10317000074A1168C1F300110BB1FFF783FE08463F
:1031800008BD0023F0E700BF488608406486084079
:103190004C86084008B507285FD8DFE800F0040F28
:1031A0001A2124404659012903D1FFF7EBFE0020E4
:1031B0003AE0002953D1FFF765FEF8E7A1F10B03D0
:1031C0000F2B4CD8C8B2FFF7F3FE0130EFD103202C
:1031D0002AE0244BCAB2C1F307211A605960E6E71E
:1031E000214BCAB2F7E731F0070338D11F4B11F07A
:1031F000010F1A68C1F3800014BF42F0010222F0EF
:1032000001021A601A4B11F0020F1A6814BF42F043
:10321000200222F020021A60FFF768FEC7E731F0B3
:1032200001001CD1134B197008BD01F118031F2BAD
:1032300015D80D23104A52F83300814205DC02EB09
:10324000C3031A790D4B1A60B1E7013BF3D2AEE725
:103250000B4BC9B249311960A9E70120E4E702200C
:10326000E2E700BFC8850840D085084000860840D6
:10327000248608401B020020A4C620004086084087
:103280005886084038B505460C46134A13689B0714
:10329000FCD4124B93F90030002B01DBFFF772FED8
:1032A000EE220F4B691E1A601A60A21C43F8102C04
:1032B0002144022000F074FA0A49013C41EA041159
:1032C000022000F07FFA022000F086FA022000F0CF
:1032D0009BFA002038BD00BF4C860840151700201F
:1032E0003888084002C001C0F8B5224B93F900307D
:1032F000002B18DBFFF7CCFA0446FFF743FEC4F1BE
:10330000FF2404F57F04F634FFF7C2FAC442FBD46D
:103310000126194B1B7843B9184C2368990609D527
:1033200002210846F8BD0026F3E7FFF715FF002845
:10333000F2D1F5E7E9230427114D2B6023689A07A2
:1033400003D4013F17F0FF070BD123689B070CD470
:10335000EE2301212B602B60002EE2D0FFF792FDBF
:10336000DFE70620FFF770FAE8E7216811F00201B5
:10337000FBD1F1E7151700201B0200204C86084006
:10338000388808400B280DD1082A0DD161B1074BB0
:10339000074A083111F8010D43F8040B9342F9D1A3
:1033A000002070470120704702207047A885084020
:1033B000C885084070B52F4E0246306810F04000B6
:1033C00008D02D4D2868040605D5ED2200202B4B92
:1033D0001A601A6070BDC0B20428F6D9023888425B
:1033E000F3DCC4B2032C1ED12B6813702B6853700E
:1033F0002B6893702968224B493949B219702B68A0
:10340000204D18062B70E0D589B2042006F0A2FAF0
:103410002978032001F07F0106F09CFA1A4B1B78F3
:10342000CBB12046D6E711190320013900F0C0F9CD
:10343000164B611E032043EA011100F0C3F903207B
:1034400000F0CAF9032000F0DFF9032000F0E8F9EA
:103450000028FAD1CEE733685A06E2D533681B0656
:1034600003D50B4801F078F9DBE7ED22034B1A6036
:103470001A60D6E74C8608402888084038880840FB
:1034800016170020131700201417002002C0010C8B
:1034900050000020F8B52A4F3D7815F001054CD1B9
:1034A0000124F822274B7F261C605C609C60A3F5FA
:1034B0009323A3F514731A600922C3F890211522EF
:1034C0001A670B22703303F59B23C3F83C2140227B
:1034D00003F59E73A3F59B23A3F5F0731A601A6896
:1034E00042F020021A60D52243F81C5CDE62DA61E9
:1034F000154B1878FFF75CFD4FF48042134B022008
:103500001E60134B1A6100F073F91249022000F09B
:103510004FF9032000F06CF90E49032000F040F948
:103520000D4B1878FFF7E2FC0C48294601F0FCF837
:1035300020463B7823433B70F8BD0020FCE700BFEA
:1035400015170020A8200D401A020020948608407C
:1035500000E100E0288808401417002050000020F7
:1035600038B50388044653B340F20342934233D143
:103570001B4B18781A4638BB822923D1137873B9AC
:1035800006F08EF906F020F98021FFF713FF0028DE
:1035900005DD80B206F0FCF8124B1B699847124B10
:1035A0001A7852060BD500221A70104B1D68FFF7CF
:1035B00069FCFFF76FFFAB0601D0FFF7E3FC40F2B9
:1035C0000343238001200AE01B78002BFAD0064B2E
:1035D0001B785806F6D5CFE700230380032038BDBB
:1035E0001417002068C720001517002048860840DF
:1035F0000B282DE9F0470C460FD1082A79D1002974
:1036000077D03D4B3D4A4C1E53F80419934204F8C1
:10361000011FF9D10020BDE8F0870C2867D1042AEA
:1036200067D1002965D0364B36491A68DFF8E48047
:1036300022F007021A600A68334F42F008020A605B
:10364000D8F800003A681D68DFF8CCE0DFF8CCC09D
:1036500025F070051D60DEF80050DCF80060C0B297
:10366000120240EA066092B202434FEA0549274837
:1036700009F47F09D0F800A042EA09061A685FFA47
:103680008AF522F0070242F001021A600A6842F04D
:1036900008020A60D8F800203F68196821F070011C
:1036A00041F010011960DEF80010DCF800C0D3B260
:1036B0003A0243EA0C6392B213430A04016802F42B
:1036C0007F0243EA02085FFA81F9FFF7E1F8B6EBFF
:1036D000080165EB0905ED0307460023C8030C4A02
:1036E00045EA514107F06AF93F1A276092E7012045
:1036F00091E702208FE700BFC4850840A4850840F9
:103700001088084004880840188808401C88084031
:103710000048E801148808402488084020880840B0
:1037200008B5054B1B7813B9044801F015F80022C1
:10373000034B1A6008BD00BF141700205000002082
:1037400034880840064B07481A68042A1FBF0649F8
:103750000A7842F040020A7000221A6000F0FCBFB2
:103760002C880840500000201517002008B5094B90
:1037700040220021184607F0A9FB0121064A074B09
:10378000116050604FF480425A604FF400425A601A
:1037900008BD00BF0000002004F00F4000E100E081
:1037A00003289EBF014B0001195070470000002004
:1037B00003289EBF024B03EB00104160704700BF1F
:1037C0000000002003289EBF024B03EB0010816025
:1037D000704700BF00000020032806D80123034AD9
:1037E00003FA00F0116808431060704728F00F409A
:1037F000032806D80123034A03FA00F0116808439E
:103800001060704720F00F40032806D80123034AB8
:1038100003FA00F0116808431060704714F00F407D
:1038200003289FBF044B03EB0010806800F00700E3
:1038300088BF0020704700BF000000204FF0FF321B
:10384000014B1A60704700BF04F50F400122014B85
:103850001A6070474CF00F40084B19461A68D002A6
:10386000FCD4074B1A6822F480321A600A68D2032B
:10387000FCD41A6842F400321A60704704200D40EC
:1038800000200D4010B5094C226890070DD0084B60
:103890001A4619684901FCD413685B01FCD5FEF790
:1038A000E1FFFFF7D9FF0023236010BD58200D4032
:1038B00004200D4038B5264B1C6814F03F0414D189
:1038C000244D55F8043B23B1984770B10134052CC1
:1038D000F7D1214D2B7843B1FEF7D4FF0446FEF714
:1038E000D7FF201A092800D90CB930BF27E01B4B9D
:1038F0001A6822F400321A60194A11461068C00290
:10390000FCD41A6842F480321A600B68DB03FCD5E1
:10391000FEF7BEFF241A092C03D8BDE83840FFF794
:103920009BBF632C0F4C0BD92B78022B08D1236043
:1039300000F0C8FE30B1FFF78FFF0023236038BDD1
:103940000123F4E7FEF79EFF0028F4D0CDE700BF87
:1039500048860840F40200201717002000200D4080
:1039600004200D4058200D40074A10B5002314468E
:1039700052F8041B814202D011B944F8230010BD53
:103980000133052BF4D1FAE7F40200200022054BA5
:1039900005491A600B6943F004030B61034B1A706D
:1039A000704700BF58200D4000ED00E017170020C1
:1039B0004FF48032064B10B5064CC3F89021C3F883
:1039C0009020206818B100F0C7FE0023236010BDCE
:1039D00000E100E00803002070B5184B1A78431E80
:1039E00052B101F52011164A273191421AD011F82F
:1039F000010903F8010FF8E7124A1278122AF0D1F0
:103A0000114A12784B2AECD14C0804F520120C4DC7
:103A10002732AA4207D1002301F520112044273183
:103A2000A34205DB70BD12F8016903F8016FF0E7EE
:103A3000CA1A1278013300F8012BF1E72B00280095
:103A4000270028002A002800290028000FB407B505
:103A500004AA52F8041B0448019200F021F803B0B4
:103A60005DF804EB04B070476000002070B50546B7
:103A70000C460A4E102C07D874B122462B68686891
:103A80000649BDE870401847102231462B68686827
:103A9000984710B9103CEDE7204670BD45C920009D
:103AA0002DE9F04F0746154600268FB00791079B7A
:103AB0001B78002B00F09C83079B1A781C4601336F
:103AC000002A00F08583252AF7D1079B9C4205D068
:103AD00081E323784644002B00F08A836278631CDC
:103AE000002A00F085830024184610F8012B19469F
:103AF0002B2A17D00BD8202A17D0232A18D0A2F1AE
:103B0000310CBCF1080F3FD84FF0000A18E02D2A05
:103B100004D0302AF3D144F0100401E044F0010451
:103B20000346E1E744F00604FAE744F00204F7E74D
:103B300044F00804F4E70A2101FB0A2AAAF1300A3A
:103B4000194613F8012BA2F130000928F3D90B789C
:103B50002E2B37D14A784B1CA2F13000092829D8E6
:103B60004FF000081A781946A2F13000092803F135
:103B7000010319D90B786C2B6FD14B786C2B24D1A6
:103B800044F08004023123E02A2A0AD1D5F800A0AB
:103B90000146BAF1000F05F10405B8BF44F0010475
:103BA000D5E74FF0000AD2E70A2101FB0828A8F167
:103BB0003008D7E72A2A04D1D5F80080023104352D
:103BC000D8E719464FF0FF38D4E7013144F06004DC
:103BD0000B78782B0CD8572B4BD8472B08D8402B79
:103BE00000F29080002B00F00383252B00F0D3809F
:103BF0004B1C079304F4E063B3F5A06F00F0C98297
:103C000000F2CC80B3F5407F00F07282B3F5806F94
:103C100000F03682B3F5807F7FF449AFB8F1000F32
:103C2000ACBF24F010044FF0010814F4005204F06B
:103C3000E003069200F0EA80402B00F0E08000F202
:103C4000C280002B00F0DE80202B00F0C780002215
:103C50000023CDE900230023CFE0682BB8D14B78B7
:103C6000682B02D144F020048CE7013144F0400479
:103C7000AEE7583B202BBBD801A252F823F000BF7F
:103C8000493D2000F13B2000F13B2000F13B2000AA
:103C9000F13B2000F13B2000F13B2000F13B2000F4
:103CA000F13B2000733D2000F13B20007F3D2000D0
:103CB000313D20005B3D20004F3D2000673D20004E
:103CC000F13B2000313D2000F13B2000F13B200082
:103CD000F13B2000F13B2000913D20003D3D2000C4
:103CE0008B3D2000F13B2000F13B2000853D200072
:103CF000F13B2000373D2000F13B2000F13B20004C
:103D0000433D2000413B062B3FF672AF01A252F823
:103D100023F000BF793D2000F13B2000F13B200063
:103D2000F13B2000613D2000553D20006D3D20000D
:103D300044F424545CE744F4106459E744F4885490
:103D400056E744F4C85453E744F4B24450E744F40B
:103D500000744DE744F484444AE744F4024447E7DE
:103D600044F4424444E744F4813441E744F4A13448
:103D70003EE744F4C1343BE744F4E13438E744F42B
:103D8000A06435E744F4806432E744F440742FE7DC
:103D900044F4E0642CE744F4C06429E7B3F5C06F51
:103DA00007D0B3F5E06F7FF482AE2B6804351E6058
:103DB0007DE601223B68A94978689847002840F0D1
:103DC0001582013673E6602B1CD0802B7FF43FAF49
:103DD000073525F00705F5E8022303E095F90020F3
:103DE000D3170435002A73F10001BFF632AF5242F7
:103DF00063EB4303CDE900230123039317E0B5F9F7
:103E00000020EDE72A680435D317EBE7402B00F0DC
:103E1000B08000F29A80002B00F0AD80202B00F0E3
:103E2000A180069B002203930023CDE9002304F424
:103E3000C053B3F5805F00F0D580B3F5C05F00F0EC
:103E4000D680B3F5006F00F0B78000230DF1360B7C
:103E50000493049B41F20802984588BFA8EB03082D
:103E600041F6080304EA030198BF4FF000089142AD
:103E70001A4604D1B8F1010F38BF4FF00108049B76
:103E8000914203EB080040F0CC80DDE900231343AE
:103E900000F0C780724914F4804F724B4FF0020952
:103EA00018BF0B46069A72B1039A002A40F0BD80F3
:103EB00004F00602022A00F0BC80062A6A4A04BF07
:103EC0004FF00109134609EB0002924594BF4FF0F1
:103ED000000AAAEB020A14F00102009204D1E106E2
:103EE00040F1AB80D0449246B9F1000F07D04A466A
:103EF00019463C687868A047002840F0778144461E
:103F0000049B1E44102C5949D7E9003000F29F80D1
:103F10002CB1224655499847002840F06781594600
:103F20003B68049A78684E449847002840F05E81C8
:103F3000009B4644002B00F0D48051463846FFF7E2
:103F400095FD002800F0CD8050E1602B13D0802B30
:103F50007FF467AF073525F00705F5E80223CDE9C3
:103F6000002304E02A780023CDE900230435069BD2
:103F700043E72A88F7E72B68002219460435CDE984
:103F80000012F4E7DDE904010A22002306F016FD21
:103F9000DDE9040130320BF8012D00230A2206F07E
:103FA0000DFDCDE90401DDE904231343EAD10DF150
:103FB0003603A3EB0B034BE7DDE900230DF1360BD2
:103FC000CDE90423EFE702F0070130310BF8011DC2
:103FD000D10841EA4371D8080A46034652EA030170
:103FE000F1D1E4E70DF1360BDDE90023F6E7204BD4
:103FF00014F4804F0DF1360B1E4908BF1946DDE958
:10400000002352EA0300D2D002F00F00085C4FEA0E
:10401000131C0BF8010D100940EA037002466346B9
:10402000EFE74FF000094B463CE74FF00109124B18
:1040300049E74FF00109114B45E7514638460393D4
:10404000FFF714FD039B00283FF44EAFCEE0102293
:104050009847002840F0CA80103C53E743C920002D
:1040600032C9200035C920003AC9200055C92000B6
:1040700021C9200010C9200038C9200015CA20001D
:10408000D5F800900435B9F1000F2CD04B469B4673
:104090009BF800200133002AF9D1ABEB090BB8F1F2
:1040A000000F02DBC34528BFC346DA4594BF4FF07B
:1040B000000AAAEB0B0A14F0010406D15146384657
:1040C000FFF7D4FC002840F091805A4649463B68EF
:1040D00078689847002840F089805E44002C7FF47F
:1040E0002CAF5644E3E44FF0060BDFF81491D6E70B
:1040F000414B424A14F4804F08BF9C460DF13303F4
:1041000018BF944600211A462868043550EA010E6B
:1041100030D1D21A08BF30224FF0780104BF03F823
:10412000012C03F1FF3303F8011C4FF0300108BFED
:10413000012203F8021C232102F10309CA4594BF9E
:104140004FF0000AAAEB090A14F00104A3F10308D6
:1041500003F8031C05D151463846FFF787FC0028B9
:1041600044D14A4641463B687868984700283DD18B
:104170004E44B3E700F00F0E1CF80EE04FEA1118A2
:1041800003F801ED4FEA101E4EEA017E70464146EB
:10419000BCE7BAF1010F38BF4FF0010A2B6814F0E9
:1041A000010405F104058DF820300AF1FF3805D12E
:1041B00041463846FFF75AFCC0B9464401223B68E5
:1041C000786808A9984788B9002C8AD04146B5E696
:1041D000079B9C420CD0079B0799A4EB030842461F
:1041E0003B687868984700283FF473AC4FF0FF367F
:1041F00030460FB0BDE8F08F21C9200010C9200063
:104200003CC92000F8B5038805461646CBB14A2BB9
:104210002BD188291FD1174806F0CEFF0446C4B120
:10422000231D9E421FD12146124806F0CFFF124E99
:10423000626937683260A2690AB1E0699047376005
:1042400007E00C4806F0B8FF044634B901220B4BD6
:104250001A704A232B8001200AE0A168201D06F075
:104260005CFF2468F1E72468D9E70023038003207A
:10427000F8BD00BF0C030020980400201817002090
:1042800010B50024054B06481C7006F092FF21462D
:10429000BDE81040034800F047BA00BF18170020DF
:1042A0000C0300206800002070B50446E3610B4B4E
:1042B000049D1B78C4E905526BB1094D094B2E686A
:1042C000201D2B6006F029FF2E602146BDE87040BE
:1042D000054806F08EBFA160F7E700BF1817002061
:1042E00098040020680000200C03002013B5034C44
:1042F00024680094FFF7D8FF02B010BD9804002096
:1043000070B5094B04461B783BB1084D084B2E682D
:1043100004302B6006F00AFF2E602146BDE8704095
:10432000044806F066BF00BF18170020980400205C
:10433000680000200C03002070B5094B04461B7870
:104340003BB1084D084B2E6804302B6006F0F7FE99
:104350002E602146BDE87040044806F04ABF00BF09
:104360001817002098040020680000200C0300208B
:1043700010B5084B04461B7843B1043000F0B2F886
:104380002146BDE81040044806F020BFC0E90333D1
:10439000F6E700BF181700200C03002010B50D4CE5
:1043A000236813B90C4A136010BDFEF739FA22686E
:1043B000D2E900310B441B1A92681AB91844064B13
:1043C0001860F1E7D2E900142144091A8B4228BF92
:1043D0000B46F1E71403002010030020014800F011
:1043E000BBB900BF780000202DE9F84303880546DB
:1043F00053B1592B48D1872921D1002024490B687A
:1044000063B918B10B6001E0214A13605923012000
:104410002B80BDE8F88301203346F1E7D3E902643D
:104420009442F8D000B10B6019460B468968002908
:10443000ECD0C8689042F8D189689960F4E7822985
:10444000E4D1134F4FF00009B84600263C68002C19
:10445000DCD0204606F09FFE98B122468821E06815
:1044600000F03AF958B9A368E0602EB1B360C4F81F
:104470000890FFF793FFE8E7C8F80030F7E7FFF789
:10448000ADFF2646A468E2E7002303800320C0E7CF
:104490001403002010B50446FFF7A0FFE3680B4AA1
:1044A0000BB1136833B90A4B1B68E36013681460DF
:1044B000A36004E0A34206D1054A1268DA60BDE8B1
:1044C0001040FFF76BBF9B68ECE700BF14030020B0
:1044D00098040020024B1868003818BF012070476C
:1044E0001403002010B50B4A04461368834208D118
:1044F00083681360FFF752FF0023C4E9023310BD45
:104500001346002BF8D09A68A242F9D1A2689A60AB
:10451000F0E700BF1403002038B5836804460D4659
:104520009BB10A4804600220A07304F10C00984774
:104530000238012801D9832D05D121462046BDE846
:10454000384000F005B80123A37338BD980400205B
:104550002DE9F8431C4F04463D6888462B46A3428C
:1045600004D00BB9BDE8F8831B68F8E7002CF9D03C
:10457000164EA37BD6F8009063B10023A3738DB9C8
:10458000A3683BB1444505D02A468321346004F139
:104590000C0098473B68A3420ED123683B60C6F8E5
:1045A0000090DFE7A54204D022468721284606F086
:1045B000D8FD2D68E3E71346002BF0D01A68A2421D
:1045C000F9D122681A60EAE79C04002098040020D0
:1045D000002238B50125084B1A70084B1C6804B935
:1045E00038BDE37B2BB1002282212046E581FFF715
:1045F00093FF2468F3E700BF1C1700209C040020F1
:10460000024B1878421C1A70704700BF1A1700201E
:104610008A22064B1A700023054A1370054A13704C
:10462000054A1360054A1360704700BF1A1700203F
:10463000191700201B1700209C040020980400205C
:104640002DE9F0411A4D2B780BB1FFF7C1FF194C42
:10465000267896B10C221849184F0B78013E5A4320
:104660000133B81803F01F03BF5C0B702670D0E94C
:10467000018090B9124B1E6826B92B782078184417
:10468000BDE8F0812B780BB1FFF7A2FF3046424620
:10469000394606F066FD3668EEE7812F08BF012334
:1046A0004246394608BF837306F05BFDE5E700BF6D
:1046B0001C1700201B1700201917002018030020CA
:1046C0009C040020024A034B10781B781844704762
:1046D0001B1700201C170020F0B50B4E3378202B41
:1046E0000FD00C25094C0A4F24781C4404F01F04F9
:1046F0006C433D19C5E90120002001333955337061
:10470000F0BD0120FCE700BF1B1700201917002097
:104710001803002038B5034C256806F022FD2560FB
:1047200038BD00BF9804002010B40A4C0A46216826
:104730000B4683420CD04BB950B10160012120607F
:10474000817310BC81218381FFF7E4BF1B68F0E710
:1047500010BC70479C04002038B1837B013B012BC7
:104760009FBF0123014AC373137070471C170020B9
:104770000246084610B5064953600C68029B10605B
:1047800093600A600CB9FEF795F8002010BD00BFD9
:10479000A004002010B5084C206858B10023236005
:1047A000D0E901319847236823B1BDE8104018686B
:1047B000FEF780B810BD00BFA004002070B50588CA
:1047C0000446672D09D0792D2FD0002D33D1FFF766
:1047D00017FF1B4B18701B4B1D601B4E194D08E03B
:1047E0000A282B680ED07E2B03DC5A1C2A60174A3D
:1047F000D054304606F08BFD431CF1D16723238053
:1048000001201BE05A1C2A600025104A2846D55476
:104810000B4B1978FFF760FF0D4B2A46852118686E
:10482000FFF75AFF18B97923E9E78529E8D1002273
:10483000044B1A60D1E700230380032070BD00BF42
:104840009B290020A4040020A80400201D1700209C
:10485000980400200D28014610B516D00C4C237882
:1048600053B90C4806F040FD08B9012323700A48EB
:10487000FFF772FF012010BD0A28F8D1054806F0A5
:1048800033FD0028F3D00023F0E70020F3E700BF5A
:104890009D170020A80400208800002008B50549C5
:1048A0000548802206F019FDBDE8084000210348B4
:1048B000FFF73ABF9E170020A804002088000020C0
:1048C0002DE9F04104880546772C20D07E2C3DD080
:1048D000002C4ED1FFF794FE284E294B294FDFF8CC
:1048E000B08018703460336857F823202AB9264AFC
:1048F000137077232B8001203EE008F80340936873
:10490000002180209847336801333360EBE70023B0
:104910001E4A1360194A1360184B1B4A1B68127811
:104920009A4204DC194B1B68002BF0D1E1E7184ACE
:10493000D256002A19DA134A002052F82320104BCD
:104940001978FFF7C9FE28B97E23D3E70C4B1B78F3
:104950008B42D0D1094B0E491A688B5C03F07F0360
:104960008B540A4A136801331360044A13680133F5
:10497000D1E7002303800320BDE8F081B4040020C8
:104980009C290020400000201E180020B0040020B8
:104990009729002010B40A4B0A4A197800238B4249
:1049A00003DA52F8044BA04208D107490748CA5C11
:1049B00062F07F02CA5410BCFFF7CEBE0133EEE7AF
:1049C0001E18002040000020972900209800002099
:1049D000064A136843F004031360054B1868043358
:1049E0001B6840EA032080B2704700BF00700D4092
:1049F00014700D4010B5174A136823F00C031360B0
:104A00000122154B1A601A68012AFCD10822134BA7
:104A100013491A60E32203F505731A601A460B68FE
:104A2000DB07FCD50F4C102100232068013900F072
:104A3000010043EA00034FEA43039BB2F5D1002B88
:104A4000F1D00949180A03F0FE0308600B60EF2358
:104A5000136010BD00700D40A8200D402486084052
:104A6000648608409C86084014700D402DE9FF477D
:104A70006F46224D224E05F108030FCB87E80F0049
:104A8000337895F80780BBB13A221E49AA710A888B
:104A9000D21A92B20A80A2F128010812287103F1F9
:104AA00028002844C3F1040369712C3A011D1844FD
:104AB00006F0A6F900233370134806F07DFB044688
:104AC000DFF840A02CB90F4B34701C8004B0BDE857
:104AD000F087D4F80490B9F1000F09D0BAF800308B
:104AE00032782C3B3832414638469BB22A44C8477C
:104AF000204606F099FB0446E4E700BF8C1F002027
:104B000046180020781F0020B8040020F8B52C4B70
:104B10002C4C1B7904F11806E371237E04F108057F
:104B2000FF2B31D195E80F0086E80F00314628466B
:104B300000F0BEFA244D2B78BBB13A222349A27172
:104B40000A8803F12800D21A92B20A80C3F1040342
:104B5000A2F1280120440E1261712C3A011D184463
:104B6000267106F04DF900232B7081212B78283314
:104B7000E218E1520023538006F054FCC0432B7826
:104B8000134A13445880F8BD2F46124A3B4603CBC4
:104B9000B342106051601F4602F10802F6D196E858
:104BA0000F0085E80F000B4B0B4D03F110062A4652
:104BB00018685968083303C2B3421546F7D1B9E7FC
:104BC0000C1E00208C1F002046180020781F00209B
:104BD000B41F002040100020A41F002038B5044658
:104BE0000B480D4606F0E8FA08B901200FE00379FA
:104BF000A34204D143799D4204D0FF2B02D006F09A
:104C000013FBF1E78368002BEFD09847002038BDF5
:104C1000BC0400200146014806F0EBBABC040020A9
:104C20002DE9F74F474D81462B788846934653B17F
:104C3000454A9B5C3A2B0ED10023444A2B701380CB
:104C400003B0BDE8F08F424B9A793A2A03D193F929
:104C50002830002BF0DA3F4C03F058FD04F1100629
:104C60003746A2463C4A234603CBB342106051600C
:104C70001C4602F10802F6D1344E354C33882146E9
:104C800030339BB2B3F5A06F88BF4FF4A06333807D
:104C900032882B78D21A04EB4300303A303001933B
:104CA00006F0AEF86022019B22603A22002B47D02A
:104CB00084F82820294B62891B79E37123891343E7
:104CC000A2891343E2891343228A1343628A13435E
:104CD000A28A1343E28A13439BB2002BACD0204B31
:104CE0000FCB8AE80F001C4B1B78FF2B05D1B9F1C5
:104CF000040FA1D1B8F1020F9ED11749184800F056
:104D0000D7F995F800A058460AF12803E21804F8EC
:104D1000039082F8018001F04DFC124B43F80A0029
:104D20003388283B1A122271002263712B783B448E
:104D30005A8006F077FBC0432B781F4478807FE7CA
:104D4000A271B7E746180020B41F0020781F00208A
:104D50008C1F0020A41F0020401000200C1E0020EB
:104D6000941F0020B81F00202DE9F0411E4660234B
:104D70001A4D0F462B603A230446AB71184B9046F0
:104D80001B7900F1100CEB71331D1A122A716B7133
:104D900005F11802134620686168083403C36445AE
:104DA0001A46F7D10F49104CA1F1100000F080F91C
:104DB00023782C362833EA18EF54002382F8018038
:104DC000538006F02FFBC0432378084A13445880D1
:104DD000074B1E80BDE8F04102F00CBE8C1F002086
:104DE0000C1E0020A41F002046180020B41F002025
:104DF000781F002008B50448FFF70CFFBDE8084005
:104E00000248FFF707BF00BFB4000020A800002041
:104E10002DE9F341144D0446CDE900150E469046A8
:104E20001F46202203460321104806F080FA01287D
:104E300018D12B6804F11002187020462B68023339
:104E400050F8041B904243F8041BF9D12868089BD2
:104E500086744361099B80F813800777836102B0F1
:104E6000BDE8F0810020FAE7C8040020081F0020F8
:104E7000F8B507460B4E0C4D2E6060362C68B442D8
:104E800001D30020F8BD237833B1A27C3946D20883
:104E9000A01C05F00FFF10B120342C60EEE70120BC
:104EA000F0E700BF081F0020C8040020802213B5CF
:104EB000074C03460092032120220648019406F085
:104EC00036FA10B9206802B010BD0020FBE700BF21
:104ED000C0040020241E002030B5044648F2FE0520
:104EE0000A490B4A116060311068884201D30020E2
:104EF00030BD03783BB1631C02D0837CA34202D156
:104F00004388AB42F4D020301060EDE7241E00202F
:104F1000C0040020802337B50F4D122200930446B1
:104F2000034605210D48019506F001FA01282A469D
:104F30000FD12B6818702346296804F11000023144
:104F400053F8044B834241F8044BF9D1106803B085
:104F500030BD0020FBE700BFC4040020A81E0020D5
:104F60008023F7B5214C0093054603460E461746AD
:104F7000032120221E48019406F0D9F9012832D1DC
:104F80002A46236805F1100118702368023352F88D
:104F9000040B8A4243F8040BF9D12068C774DEB9C8
:104FA000012303750122236812489A7440F2FF23FB
:104FB0000380002343808380C38003814FF4807388
:104FC0004381FF2303736B7B4373EB89C381FFF73B
:104FD000A1FF206803B0F0BD0023314603751830EF
:104FE00006F085F8DEE70020F4E700BFC0040020EB
:104FF000241E002050100020802213B5074C0346C9
:105000000092052112220648019406F090F910B989
:10501000206802B010BD0020FBE700BFC4040020E0
:10502000A81E002038B50546C8B140F2FF230C4841
:10503000002403804FF480734381FF2344808480E5
:10504000C48004810373EB7B43732B8AC381FFF716
:10505000D3FF044A106008B106F08DF92C7038BDFA
:1050600050100020C404002038B50E4D0E4C2560B1
:1050700060352068A84206D300F0FEFABDE838404B
:105080000A4806F053B8037843B1037D33B91830AA
:1050900006F034F810B12068FFF7C4FF236820330E
:1050A0002360E6E7241E0020C0040020681F0020C3
:1050B0002DE9F84F48F2FE030A8805469A428846D1
:1050C0002BD00A78FF2A28D000249B46A2461A4AF1
:1050D0001A4F02F160093A603E684E450AD30CBB94
:1050E0002C806C80AC80EC802C816C81AC81EC815C
:1050F000BDE8F88F33786BB1B37C012B0AD173888C
:105100005B4507D04046B11C06F042F982459CBF82
:105110003446824620363E60DEE70120FFF7DCFEA3
:105120000446DCE7A31C123453F8042BA34245F8D1
:10513000042BF9D1DCE700BF241E0020C0040020AE
:1051400070B5094EB0684508FFF742FC0446FFF70A
:105150003FFC2402B268A4B22044B0FBF2F302FB8D
:105160001300284470BD00BF0C1E002073B5304CE6
:1051700001F03EFA00F096F8602200212D4805F07B
:10518000A5FE00212046F42205F0A0FE20222A4B95
:1051900040261A701822294B00251A704FF4A0637C
:1051A00044F8043C264B04F80469A360FFF7C8FFE9
:1051B00042F21073236148F2FE03E0602575214C32
:1051C0002A46238031462B466580A580E58020460F
:1051D000CDE90055FFF71CFE20461B4906F0CFF82D
:1051E00029460122FFF7BCFE40F2FF264FF48073F0
:1051F0002046E38126806580A580E5802581658144
:10520000A581FFF787FE4FF4007320462680658056
:10521000A580E58025816581A581E381FFF77AFE80
:105220000C210A4802B0BDE8704005F076BF00BF0F
:10523000101E0020081F0020051F0020041F002052
:10524000C027090050100020841F0020681F002084
:105250002DE9F047054610480F46904605F0ACFF93
:105260000446DFF83890DFF838A00CB9BDE8F087C5
:10527000012D0DDC504605F0D0FF0346424639466D
:1052800028466668B047204605F0CEFF0446ECE7A6
:10529000D9F80030F2E700BF100600201406002005
:1052A0004C05002008B50B4805F0C1FF0A4805F081
:1052B00080FF0A4B0A49186804F084F9094805F090
:1052C000B6FF094805F075FFBDE80840074805F03E
:1052D00070BF00BFEC00002018060020CC000020AA
:1052E000CFB32000C00000204C0500201006002095
:1052F00008B540B1044B4168186806F06AFFBDE884
:10530000084006F098B808BDCC000020014805F020
:1053100053BF00BF1806002008B506F08EF80146FE
:1053200030B1044B186806F041FF003818BF012067
:1053300008BD00BFCC0000202DE9F04180460027C9
:10534000FFF7E4FF3D46044684B965B1124805F015
:1053500033FF854207D029460F4805F037FF29461D
:105360000D4805F053FF2846BDE8F08194F824600D
:10537000BE420AD34046F20804F1080105F09AFC47
:1053800018B9802E06D037462546204606F01BF871
:105390000446D9E72546D9E71806002038B5044663
:1053A00000283FD04368002B3CD001461E4805F042
:1053B0000DFF6368586805F0FFFE054668B3436853
:1053C0009C4226D163682946586805F0FFFE636851
:1053D000586805F0F1FE28B963685968134B1868DE
:1053E00004F09CF92146124805F045FF2946114872
:1053F00005F041FF104A20461368013B1360FFF798
:1054000077FF04F108010246BDE838400320FFF7AA
:105410001FBF284605F008FFCFE704F1080002F09F
:1054200053FCCFE738BD00BF18060020CC00002099
:10543000EC000020E00000201406002010B5044617
:1054400080B1406870B105F0B7FE30B9064B214617
:10545000BDE81040186804F061B94068FFF79EFF8E
:105460006068F0E710BD00BFCC0000202DE9F84FC8
:10547000074610468A46904605F0DFFF064618B9F3
:1054800000252846BDE8F88F3846FFF755FF05464A
:1054900060B1FFF72DFF014628B11022404605F00C
:1054A00009FC0028EDD02846FFF778FF2C4B1A683E
:1054B0009B46102AE4D02B4D3146286806F076FE34
:1054C000A946044668B9034604223146286804F018
:1054D000A9F804460028D3D000234060036005F0FB
:1054E00068FE214805F0B3FE06460028C8D00146F4
:1054F0001E4805F08BFE1E4805F0A9FE054620B9A2
:105500003146194805F0B7FEBBE7466001466068C2
:1055100005F06FFEDBF80030214601337460D9F8E6
:105520000000CBF8003004F00FF93B4606F1080408
:1055300007F11005224618685968083303C2AB42C8
:105540001446F7D1002342463946022086F824A0AB
:10555000B361F3613362FFF77BFE354691E700BF2D
:1055600014060020CC000020EC00002018060020CB
:10557000E000002038B505460D4805F01DFE044644
:1055800000B938BDAC420ED12146094805F01EFED7
:105590002146084805F06FFE221D1146BDE838403F
:1055A0000120FFF755BE204605F03EFEE7E700BFAD
:1055B0004C050020C000002038B50546084805F01D
:1055C000FBFD044608B9204638BD10222946201D9F
:1055D00005F070FB0028F6D0204605F025FEF0E728
:1055E0004C050020F8B505460E46FFF7E5FF0446DA
:1055F00040B9134805F02BFE0446E0B101461148BE
:1056000005F004FE2B46271D05F1100C3A461868DC
:105610005968083303C263451746F7D16EB1314666
:1056200004F1140005F063FD00232A4629460020FA
:105630002377FFF70DFE2046F8BD0123F5E700BFF5
:10564000C00000204C05002038B50A4805F0B4FD24
:10565000002504460CB9284638BD251D284600F013
:10566000FBFF10B1437C002BF5D1204605F0DCFD9B
:105670000446EFE74C05002038B50D4805F09CFDC9
:1056800004460B4D04B938BD237F63B904F11400FF
:1056900005F034FD38B12046FFF76CFF284605F0D1
:1056A0008BFD0446EEE7204605F0BEFDF9E700BF9E
:1056B0004C05002037B5124B124D1C782B7905F1A3
:1056C0000801C4EB03226B7913449BB2ADF806309A
:1056D000BDF806302022184480B205F07AFEBDF8ED
:1056E000062004F1280192B2294405F072FE18B197
:1056F00040BA80B203B030BD4FF6FF70FAE700BF8A
:10570000461800208C1F002002200021F8B5294FE8
:10571000294D3A78294C283253195E782070F600CA
:105720000736864202DA19B3207021E0131805EB20
:10573000030CEB5C012B06D0632B09D0D3B90130ED
:105740000121C0B2EDE7831C9CF801001844F7E783
:1057500001B1207002F05CFF08B90120F8BD227889
:105760003B78174913440B445B7802321A44227089
:105770000020F3E703F0C003802B07D0C02B0ED02E
:10578000402B12D10029E8D02070E6E701B120704B
:10579000024402210420FFF743FA0220DEE701B1B0
:1057A00020702B7EFF2BF3D1D7E79CF8013002301D
:1057B000CCE700BF461800208C1F002047180020AF
:1057C000B41F002070B5C578124B0D44EDB2DD70EA
:1057D000827802EB1122D2B29A704478B2EB112F88
:1057E0005C7006781E7005D2601CC0B2587008B993
:1057F00001361E70C9B28D420BDA0132D2B29A70F4
:105800003AB95A780132D2B25A7012B91A780132C2
:105810001A7070BD801F002010B5084C014620682A
:105820001430FFF7CFFF064A2368117819755178B5
:1058300059759178D2789975DA7510BDB024002029
:10584000801F002008B5FFF791FCFFF7D3FA01F0A5
:105850007BF8002319460F4A138053809380D3802E
:10586000138153819381D3810B4A01330A2B82F830
:10587000251002F13002F8D14FF48062074B1A80F4
:1058800000231946064A01330A2B118202F1200235
:10589000F9D108BD9C260020B4240020601000200F
:1058A000B0260020F8B5104E357845B10F4F05F100
:1058B00027033C88A34203DB00233B803370F8BD01
:1058C0000B4BA4F128021846521B591905F098FAFF
:1058D000641BA4B23C80283C2212002300F8242C34
:1058E00000F8234CEAE700BF46180020781F00208C
:1058F000B41F0020074A0023114610B532F8024BAE
:10590000844203D1002221F8132010BD0133082B5B
:10591000F4D1FAE79C26002004282DE9F74FAD4E7C
:1059200000F02081AC4FAD49AD4DAE4A0328BA46D8
:1059300089463C680D6015605ED194F8253003F00F
:105940000F03032B14D1A38B002B40F0828008227D
:10595000A54B1A7002F082F9A34B1A78A34B12F0F0
:10596000200100F0958500221A8084F8252096E019
:10597000022B6ED1002305F8073C9D4B93F8352090
:1059800042F0020283F835209A4ADA6340223280DC
:10599000602283F83420237D954D85F83030637D77
:1059A00005F1180785F83130A37D85F83230E37DA5
:1059B00085F83330237E85F82C30637E85F82D30D2
:1059C000A37E85F82E30E37E85F82F30238A2B8541
:1059D000638A6B8594E80F0087E80F00394605F16C
:1059E0000800FFF765FB94F82530DB064CBF002369
:1059F0004FF48043EB863FE3022840F09F80002372
:105A00007D4A33801370794A13807C4AD3780133FE
:105A1000DBB2D37063B993780133DBB293703BB9D7
:105A200053780133DBB2537013B913780133137019
:105A300094F8253003F0FD02052A13D194F826309E
:105A40000133DBB2782B84F8263002D1002384F8AE
:105A500025300023684A33801370694A1370624A04
:105A600013705CE1002BF4D0A28B5F49002A5ED05A
:105A700094F82620501E84F82600002AE9D194F8D4
:105A80002720082A04D0581E01280CD8052A0AD13C
:105A9000002384F8253080230B7002F0DFF81422F5
:105AA000534B00F0BCBC042A15464FF0030028BF3E
:105AB000042503F00F03A8400132013B84F82600BF
:105AC00084F82720072BC4D801A252F823F000BF86
:105AD00061612000F15A2000FB5A20001B64200065
:105AE000535A20001B642000535A20001B642000DE
:105AF00000223F4B83F835203FE704230B7002F070
:105B0000ADF8384B1B68C9F80030384B1B88002BA8
:105B100000F0DE84A38B002B00F0DA8418223C33E3
:105B20003380334B83F835205022314B31E703F07B
:105B30000F03032B8DD108230B700BE7052863D1CE
:105B4000304B1B681B8A002B83D000230C3D156053
:105B5000264A3B60138008223380234B0D601A7065
:105B600002F07CF8214B1A88002A3FF472AF02F150
:105B700030031F4C9BB23380283B19126371214BB9
:105B800008321B6852BA2171197DA2850022E17189
:105B90001121E2851A8AA17122855A8A04F1180519
:105BA00062850FCB85E80F00294604F10800FFF756
:105BB0007FFA0A4B04F13C021A6005F039FCC0433D
:105BC00080B2002800F0FB81E0856022084B1A605B
:105BD000A2E000BF781F0020B0240020AC240020E9
:105BE000C81F00207C1F0020A0240020AC2600201D
:105BF0008C1F00200204004046180020411800209D
:105C000045180020A824002015F83C3C3C3D03F03A
:105C1000F003602B7FF41DAF2A796B793088110275
:105C200003EB022282423FF714AF28330B44338048
:105C30002B7AFF2B3FF40DAFBD4BAA1D1A6000223B
:105C4000BC4FBD4C3A702270AA799846A2B9012384
:105C50002370FFF759FD01283FF4FBAE02285BD00B
:105C600050B93B7803F128022A44C8F80020527842
:105C7000083303EBC2033B70B048FFF717F9002865
:105C800040F02A81AD48FFF7B7F9002840F02481A1
:105C9000297E2B89FF2945D048F2FE002A8B8242BB
:105CA00040D0834243D069890B43A9890B43E989DA
:105CB0000B43298A0B43698A0B43A98A0B43E98A60
:105CC0000B439BB2002B3FF4C4AE6B8B1343AA8BE8
:105CD0001343EA8B13432A8C13436A8C1343AA8C15
:105CE00013439BB223B9EB8CB3F5807F3FF4B1AE85
:105CF0003388B3F5A06F06D94FF4A06200210220CB
:105D0000FEF78EFF08E0EB79012B03D80022032079
:105D10001146F5E7013BEB710022894B1A7003B085
:105D2000BDE8F08F48F2FE0293427FF492AE6A8B98
:105D30002B8B1343AA8B1343EA8B13432A8C1343F5
:105D40006A8C1343AA8C13439BB223B9EB8CB3F533
:105D5000807F3FF47EAEFF293FF47BAE7748FFF7AC
:105D600087F8024600287FF474AE02210120C7E7BD
:105D7000BBF12B0F40F0C680237813F0040140F0F4
:105D8000C1803A7843F00403237002F128032B44C6
:105D9000D878002800F0C4802A320420B0E7BBF194
:105DA0003B0F3FF456AEBBF13C0F00F0AE80BBF1B1
:105DB0003A0F40F0A78005F035FB4FF6FF7398428D
:105DC0007FF447AE3B785F4AD05C01F0EDFD3B7855
:105DD0002833EA185178E85CFEF700FF01283FF409
:105DE00038AE3388002B97D133E6FFF75BFD85F89B
:105DF00006B005F01AFB4FF6FF7398427FF429AE08
:105E0000B5F82AB0BBF1000F3FF423AE2B8D002B69
:105E10003FF41FAE4FF00A084B4C94F82520009237
:105E2000002A00F0D080228A5A4540F0CC80628A55
:105E30009A4240F0C880102221464448019304F061
:105E400039FF019B0246002840F0BD8095F83510CF
:105E50003B4B11F0040F9846CAF80040187000F050
:105E60008681202284F825001A7001F0F7FEF0E503
:105E7000FFF718FDEB8D85F806B0002B6CD16F8D08
:105E8000002F3FF4E6AD324B324CDFF8C0B0B5F82E
:105E90002880236003F5A0752168A94264D30022FD
:105EA000042163E72378D9072CD443F0010323703E
:105EB000FFF72AFC01283FF4CCAD02283FF42CAFB9
:105EC00050B93B7803F128022A44C8F800205278E0
:105ED000083303EBC2033B70D8F8002092F800B0FF
:105EE000BBF12C0F3FF4B5AD3FF659AFBBF1110F2D
:105EF000BED03FF63DAFBBF1000FD3D0BBF1060FD4
:105F00003FF473AF0121521B47E72378980704D56C
:105F10005906F7D443F04003C9E743F00203C6E74C
:105F2000C8F800305B78083202EBC3023A70D3E75E
:105F3000A42400204618002045180020A41F00209B
:105F4000A0240020B41F0020B4240020941F0020AF
:105F5000B0260020A824002005F06AFA4FF6FF734F
:105F600098427FF476AD8AE70B8A2BB39F4223D108
:105F70004B8A0BB143451FD10B682BB94B681BB93A
:105F80008B680BB9CB6833B110225846009104F0EE
:105F900091FE009980B9022033888C49303B3380D0
:105FA00000238B4A08708B49C9F800200A608A4A8E
:105FB000CAF800301380D3E5203121606CE74FF63A
:105FC000FF73E38501E6B8F1010804F130047FF4C2
:105FD00024AF95F8352002F03F02022A09D17F4A0A
:105FE00032F8021B8B4559D008F10108B8F1080FAF
:105FF000F6D195F835305C073FF52BAD3C23338067
:1060000041F2504395F8310095F82F10AB866B8E16
:1060100095F82E2095F83040EB85013195F82D301C
:1060200085F82D0095F82C00C9B285F8322085F846
:10603000313085F82C4085F8300085F8331061B98F
:106040000132D2B285F832203AB90133DBB285F899
:10605000313013B9013085F830002B8D6A8D604CDA
:106060002A856B85A4F1100595E80F0084E80F00E0
:1060700021462846FFF71CF806235A4CA3715A4BB9
:106080001B79E3713388283B1A1263710023227154
:10609000A36305F0CAF9C043208796E50024214692
:1060A000524A92F82500002834D130244F4A04FB8C
:1060B000012463824E4BA4F810B00FCB84E80F008C
:1060C0004FF48063012063844A4BA08363624A4B90
:1060D000CAF800401A7822765A7862769A78DB7885
:1060E000A276E376EB6A6361FFF796FB95F83430AE
:1060F00003F0F002502A33D900221B09053B9B0014
:10610000A91891F83C705FB3012F18D10132934266
:10611000F6DC25E0072807D17CB192F8267094F8C8
:106120002600874288BF144601310A2902F1300255
:10613000B7D1002C3FF48DACBBE71446F4E7022F37
:1061400091F83D000FD104280DD191F83E2091F82F
:106150003F3043EA0223402B28BF4023E3832384BC
:106160001022204BC6E40028FAD00244CFE733883F
:1061700095F83400283B0009A3EB800300989BB2FC
:1061800000F00F0CBCF1020F338017D101F03F007B
:10619000122833D00BB9880730D0E86A6369984277
:1061A0002CD08A0706D5BCF1010FD9D0BCF1020F63
:1061B0003FF4E3AB102385F8353032E1BCF1010F39
:1061C000E8D101F03F000228E3E700BFA02400204F
:1061D000BC1F00207C1F0020AC2600209C26002035
:1061E000A41F00208C1F00200C1E0020B4240020BF
:1061F000941F00200301030041180020CB0654D552
:10620000A18B002951D004F118000092FFF7DAFAAF
:10621000BB4B95F830C01978009A8C4545D1597818
:1062200095F83100884240D193F802E095F8321099
:1062300071453AD193F803E095F83330734534D182
:10624000E37694F8273084F818C06076A1761BBBFB
:1062500094F8261094F824B094F822E0ABEB0103F4
:10626000A3EBDE0358B200284FEADE0CBEBFACEB56
:106270000B0C614448B294F823107344A1EB9101D4
:10628000084403F0FF03C0B284F8223000EBD303CC
:1062900084F8230084F8243001219A4B197094F873
:1062A000243084F826300023A38394F82510DFF8E7
:1062B00054B201F00F03013B072B3FF6CAAB01A01C
:1062C00050F823F0E562200025632000CF63200012
:1062D000156520007565200097652000B5612000D8
:1062E000E76420009BF80030D80713D5032384F817
:1062F000253040238BF8003000233088A38320B161
:1063000042238BF80030FFF787FA00227E4B1A8079
:10631000FFF720BB95F8353003F03F03022B7FF4E5
:1063200098AB1DE79BF80030D90745D595F8353077
:1063300003F03F03122B3FD195F8343003F0F00106
:10634000502921D91B09053B9B00A91891F83CC095
:10635000BCF1000F18D0BCF1010F03D101329A42F9
:10636000F3DB11E0BCF1020F91F83D0020D10428CD
:106370001ED191F83E2091F83F3043EA0223402B92
:1063800028BF4023E3832384032384F82530EB6A6A
:1063900001206361FFF740FA422388F800300023B0
:1063A0005A4AA3831380584A3B701380FFF7D2BA2E
:1063B0000028E9D00244D2E720238BF8003001F016
:1063C0004DFC0022DAF8003083F8252011E695F81C
:1063D0003530DA0729D5CF0627D4A38B002B7FF4DD
:1063E00038AB4A4D2888013080B2FFF715FA9BF888
:1063F000003043F010028BF800202A881AB143F0D5
:1064000012038BF8003001F029FC0123A383082339
:1064100084F82530002384F8273011223C4B83F880
:1064200035203C233380FFF77FBB980610D56B8F58
:10643000D9F800205BBA95F83AC095F83B709BB24A
:1064400030881344C9F8003047EA0C23C31A33805C
:10645000308848B1CA0607D49BF8003043F00203E5
:106460008BF80030FFF7D8F995F8362095F83730DB
:1064700003EB0223228C9BB29A4202D3002B18BF5B
:106480001A469BF80030E2839B073FF4E2AA3CE700
:1064900012F0100008D019800123A383042384F88C
:1064A000271084F82530B8E7198851B1D70748BFBD
:1064B000A083A28B52B9E28B914288BF1A801B88BD
:1064C000A383002384F82730FFF71BBB1A80F8E76B
:1064D0000C4B1B789D077FF5BCAA3C231022338010
:1064E0000B4BFFF71FBB9BF80030D8077FF5B1AA15
:1064F000002384F8253010238BF80030B5E400BF6A
:10650000801F0020A0240020AC260020781F00203F
:106510008C1F0020308808B1FFF77EF995F83530E0
:106520009BF8002013F0010302F0010214D07AB1AD
:10653000072384F82530002384F82630A383012024
:10654000FFF76AF910238BF8003001F087FB31E682
:10655000062384F82530F2E72AB10522A38384F8C4
:106560002520FFF776BA124B1B88002B7FF422AE52
:10657000FFF76FBA308808B1FFF74EF995F835305C
:10658000D90706D5072384F82530002384F8263060
:10659000D5E73388E9E79BF80030DA077FF559AA99
:1065A000072384F82530002384F82630FFF751BAFA
:1065B000781F0020054BC0F3072203EA0023000CDC
:1065C00040BA134380B240EA0340704700FFFF0027
:1065D00010B5044640B102F05FF9044B2146BDE816
:1065E0001040186803F09AB810BD00BFF8000020F2
:1065F00008B503F075FA034B03491868BDE8084075
:1066000002F0E0BFF8000020D165200070B504461C
:106610000C481E469DF81020059B006803F002F808
:10662000054668B12246034604F1100152F8040BF6
:106630008A4243F8040BF9D128466E7402F02CF913
:10664000284670BDF8000020024B0146186805F08E
:10665000C0BD00BFF800002070B50C4E0546306884
:1066600002F0C4FF044675B90024204670BD102214
:106670002946204604F01EFB0028F6D0214630684B
:1066800005F079FD0446002CF1D1EDE7F80000207B
:10669000024B0146186805F089BD00BFF8000020D4
:1066A00070B5054610200E4603F06EF90849044601
:1066B00005F0BEFD58B932462946204603F0AEF932
:1066C000324629462046BDE8704002F0C7B870BD8A
:1066D000E8C920002DE9F04F8E4C8F4EE37987B04A
:1066E000FF2B40F01181337804F12C055A191279EF
:1066F000FF2A00F0098104F128010B445A78029125
:10670000002A40F00181854B854F1A60142298467B
:10671000DFF830923A7004F1080A3078814A3B7809
:1067200012882C3003449342C0F28280204404300B
:10673000FEF7BCFB7C4B9A461860002800F0E48012
:10674000628923891343A2891343E2891343228A6E
:106750001343628A1343A28A1343E28A13439BB210
:10676000002B00F0D180714F3846FEF79FFBB846F2
:10677000002840F0C98040F2FF23228B07F1100966
:106780009A4240F0AE80A28B638B1343E28B13439B
:10679000228C13439BB2002B40F0A380638CB3F593
:1067A000807F40F09E8094F82430FF2B40F0998049
:1067B00097E80F0089E80F0033781D44043595E809
:1067C0000F0087E80F00002360223370584B594FA9
:1067D000C4E9002388232385E023DAF8002084F825
:1067E0002C30931C12323D4618685968083303C593
:1067F00093422F46F7D140F202234F49A4F840308C
:106800000A684E4BC4F842204A685A600022C4F815
:106810004A209A81628504F005FE3378C043029ACB
:106820001A44502350803F4A138007B0BDE8F08FD0
:10683000E2185178002967D014F803B0BBF1010FBA
:1068400027D161892389C8F800200B43A1890B4314
:10685000E1890B43218A0B43618A0B43A18A0B43D5
:10686000E18A0B439BB2002B4ED052F8020F04ABCF
:10687000516803C35046FFF7EFFE0246C9F8000017
:1068800080B90523019000935046022304A9FFF725
:10689000BDFE3A78337813442B445B7802EBC30295
:1068A0003A703AE7FFF7D0FE034668B3D8F8000025
:1068B000194608220230039304F0FCF9039B50B1FF
:1068C0005A46184604A905F08CFCE8B1D9F8003006
:1068D00002225A74DDE7D9F800305A7C002AD8D158
:1068E000F6E71748FEF7E2FADAF8003083420BD1F8
:1068F00098E80F0089E80F0033781D44043595E8C7
:106900000F0088E80F005EE70023064A337013800B
:106910008BE700BF8C1F002046180020A408002031
:1069200048180020781F00209C080020941F002099
:1069300000283AFFBC1F0020841F0020CE1F00202B
:10694000A41F0020A00800200148FEF763B900BF83
:106950000C010020B8230B49024603FB0013002062
:1069600030B5014604465882074B9D7825B11D7805
:10697000954204BF9C70013001310C2903F1710371
:10698000F3D130BDB00800205318002008B50648E8
:1069900001F004F80122054BFD211A7000229970C4
:1069A0005A70DA7008BD00BFD96B2000491800206A
:1069B00030B513780446087A83F0020398421FD159
:1069C000487A537898421BD1887A9378984217D1A5
:1069D000C87AD378984213D1087B137998420FD1A3
:1069E000487B537998420BD1887B9379984207D1A1
:1069F000C87BD379984203D10320A040C0B230BDF8
:106A00000E4B08891D461A6860B94889B0F57F4F5A
:106A100008D18889FE2805D1C989022022F8021BE5
:106A20001A60EAE701F1080303CB083242F8080CC8
:106A300042F8041C01202A60DFE700BF200A002082
:106A400010B50E4C0220A17902F084FFA379112B1E
:106A500009D1218D638D994228BF1946BDE81040A8
:106A6000012002F077BF062BF3D03A2B03D1218D02
:106A700049BA89B2F2E70021F0E700BF8C1F00207D
:106A800010B5084C01462378012B08D10822A01C20
:106A900004F010F900280CBF2046002010BD002093
:106AA000FCE700BF4918002008B50146102002F09D
:106AB0005FFF044B00219B6803489847BDE80840EE
:106AC000FCF76AB888C72000CD6A200010B50C46D4
:106AD00011462046FFF7E4FD044B1B6813B1204626
:106AE0009B689847024B1C6010BD00BFA80800209F
:106AF000280A0020164A2DE9F041002305461646D3
:106B00009078E0B971245C433719797002F04AFE3D
:106B1000DFF844800F4B98F800103555401A1D6877
:106B2000B8700D4402F03EFE98F800200334821A3B
:106B30002946301904F0EEF8B878BDE8F081013349
:106B40000C2B02F17102DBD14FF0FF30F5E700BFF3
:106B500053180020300A00209F1D00202DE9F0412D
:106B600017090F2F08BF102702F00F040F2C8046C3
:106B70001D4608BF102417B13A4604F0CBF83A1965
:106B80000F2A06DC0021C2F1100208EB070004F016
:106B90009DF9B4B10F4DC4F110002E682246314664
:106BA000404404F0B7F8022C07D10A2F9FBFFF23FF
:106BB00088F80B30FE2388F80C3034442C60BDE894
:106BC000F081002FFBD029464046BDE8F04104F09B
:106BD000D6BB00BF200A002000232DE9F04FBF4E96
:106BE000BF4D87B033702B70044602F059FE02F09F
:106BF000EBFDBC4ABC4B1268CDE9016318600AB1D9
:106C0000FFF71EFF002C40F02881B84904A805F0CA
:106C10000AFB029B95F800B01E68B54BDFF8D8A2BE
:106C20001B883E2B40F25782B24FB31C3B600023BF
:106C30000BF1020906F809300AF11800FFF720FFEE
:106C400028B90AF10800FFF71BFF044610B18024A1
:106C5000F31C3B609AF801C09AF800004FEA1C133D
:106C600043EA0013DAB2C3F3850343EA821300F068
:106C70000F002CF00F021CF00F0F5FB29D49DBB22A
:106C800040EA020040F0EB80BAF80220002A40F00F
:106C9000E680002800F0FD8070270A6802F8013BBA
:106CA0000A60954B9879112816BF0A6847F00407C7
:106CB00002F8010BDB7918BF0A60402B00F0EB8073
:106CC000FF2B00F0EB80012B40F0EB8047F0010739
:106CD000BAF80830BAF80A20BAF80C101A430A4376
:106CE000BAF80E10DFF80C820A43BAF810100A4303
:106CF000BAF812100A43BAF814100A43BAF8161078
:106D00000A4392B2002A40F0D18044F04004DFF8F8
:106D1000E8A19AF81830FF2B40F074819AF8190016
:106D2000BAF81A100228D8F8003044F0080240F0EF
:106D30001881002940F05181BAF81EC0BAF81C1021
:106D400041EA0C01BAF820C041EA0C01BAF822C0AD
:106D500041EA0C01BAF824C041EA0C0189B20029C9
:106D600040F001819AF82610002940F0FC809AF842
:106D7000272044F00B0403F8012BC8F80030282327
:106D8000019A13705C4A9379112B35D14FF2B009F7
:106D9000B2F828C0B2F82AE04FEA1C2040EA0C20E2
:106DA00080B24FEA1E2C4CEA0E2C524920F00F0EF6
:106DB000CE450B681FFA8CFC1FFA8EF840F06881F4
:106DC0002CF00F0EC64540F06381F3201870108D33
:106DD00002334FEA102C508D000A00EB0C1000F526
:106DE000AA6003F8010C0B600B68D28D23F8022B0C
:106DF0000B603023019A13703E4B06F80B701B6832
:106E0000B3449E1B8BF801402E700DF1100A5146C1
:106E1000102002F0ADFD394B354F1B689847041E1A
:106E2000B8BF1524019A3B88167895F80090C4F1F4
:106E30007D089A1BA8EB09018A4240F32382C4F122
:106E4000780493FBF4F602F0E7FA01388642C0F2C8
:106E50005D81002007B0BDE8F08F2146D6E60A68C4
:106E6000DFF894E068B927F03F0747EA0C0C82F896
:106E700000C0BEF80230033222F8023C68270A60E4
:106E80000FE7DEF800006027106002F8043B0A609C
:106E900007E7782705E747F0020719E747F00307F8
:106EA00016E70A6802F8013B0A6011E714480393E9
:106EB000FFF7E6FD134A039B106038B3427816F8DB
:106EC0000930042043EA02130D490F4A06F809303D
:106ED000FFF76EFD60F03F04E4B218E7A01D00204C
:106EE0009F1D0020A8080020300A0020E8C92000CB
:106EF000781F0020200A00208C1F002040C720009F
:106F0000941F0020AC080020841F002048F2FE02DD
:106F1000934210D1BAF81C20BAF81A301343BAF8C9
:106F20001E2013439BB233B90420CC4ACC49FFF74F
:106F30003FFD0443D0E7D8F80020DFF824E394466F
:106F40000EF1100A734603CB5345CCF80000CCF881
:106F500004109E460CF1080CF4D11032C8F8002041
:106F6000D5E6002939D1BF49B1F81EE0B1F81CC0FF
:106F70004CEA0E0CB1F820E04CEA0E0CB1F822E01D
:106F80001FFA8CFC5CEA0E0E8E4613D191F824C0D9
:106F9000BCF1000F11D11A4602F8010B31F8250F90
:106FA00044F00A04A3F80100897804339170AE4AD2
:106FB0001360E4E6BCF1000F0FD19EF8221061B916
:106FC0001A46AA4902F8010B086844F00904C3F8FC
:106FD0000100097906331171E9E79C46DFF898E270
:106FE0000EF11008744603CC4445CCF80000CCF8F0
:106FF0000410A6460CF1080CF4D19B49103314463A
:107000000B60BCE60AF11800FFF73AFD984A1060E1
:1070100080B116F8092043780AF1180113430020C3
:1070200006F8093004AAFFF7C3FC0443E4B244F0B5
:107030000404A4E648F2FE03BAF818209A4211D1DB
:10704000BAF81C20BAF81A301343BAF81E201343BA
:107050009BB23BB904AA0AF11801FFF7A9FC04434B
:10706000E4B28CE6D8F80020DFF80CE294460EF18A
:107070001008734603CB4345CCF80000CCF804104D
:107080009E460CF1080CF4D1774B10321A6076E66C
:107090000CF47F4CBCF5704F09D1F1201870108DA5
:1070A000A3F80100508D000AD87004339BE600F469
:1070B0007F40B0F5704F07D1F2201870108D000A94
:1070C0005870508D5880F0E7F0201870906A0533A2
:1070D00043F8040C87E6412333700BF10103DBB264
:1070E0001E440AF12802534603CB9342306071607C
:1070F0009A4606F10806F6D1019B019A1B780BF11E
:10710000290B283385F800B013707EE60023DFF8E2
:107110006CB12E78CBF80030029B3246D3F8009049
:107120000436494609F1040003F06AFE3B88514ADF
:107130001B0A63F03F0389F800303B88F6B289F8F8
:107140000130138809EB0600591C118089F80330BF
:107150001A0A019B89F802201978424BA8EB060213
:10716000DFF81C8122F0070219442E70C8F80020B5
:10717000039203F0CFFD039AB01880B202F008FB2F
:1071800002F050F9374B81461E4600283FF461AEAD
:107190005046FFF789FC484602F07CF9484602F069
:1071A00063F9DBF80030012B3FF453AE043B012BB5
:1071B0007FF64FAE019B24F0070493F80090D8F8B7
:1071C0000030C8F80040994405232B70029B1FFA39
:1071D00089F91A683B881B0A63F01F0313703B8808
:1071E00053703B884B4501D8012033E6029AA3EB4C
:1071F000090310684FEAD9020271D8F800202C78F0
:107200009342B8BFC8F80030D8F8002006EB090157
:107210002044019203F07EFD019AA01880B202F092
:10722000B7FA02F0FFF8044600283FF412AE5046C9
:10723000FFF73AFC204602F02DF9204602F014F93F
:10724000D8F800309944DBF800301FFA89F9012B97
:107250003FF4FFAD043B012BC3D8FAE5841F0020A7
:10726000941F00208C1F0020200A0020AF1F002048
:10727000AC08002082110020A41F0020280A002052
:107280002C0A0020029B084918683144484403F046
:1072900041FD38884844801B80B202F079FA50469C
:1072A000FFF702FCA0E700BF8C1F00202DE9F84388
:1072B0008046894617464C4D002A3BD16B8A53BB0A
:1072C0000024B5F8CA30002B00F08A80474803F04C
:1072D00062FF10B10120FFF73DFB631C40F082808C
:1072E000B5F8CA30A3B90124B8266643AF190F20F8
:1072F000A7F81290A7F8108002F046FB0146384626
:1073000004F091FF06F118004021284403F031FFFA
:107310002046BDE8F88305F1180003F03CFF28B9CA
:107320006B8A002BCCD04FF0FF34CAE73846FFF70A
:1073300011FBF5E72B8A83420AD16B8A43B10F20F8
:1073400002F022FB0146284604F072FF002840D1DB
:10735000B5F8C83043453ED1B5F8CA30002B3AD015
:107360000F2002F011FB0146214804F061FF90B3A9
:1073700001245FFA84F839464046FFF7BBFB00283A
:107380001DDA6E8A4EB14CB31A4803F004FF06466C
:1073900018B10020FFF7DEFA0646B5F8CA3043B14F
:1073A0003CB9124803F0F7FE18B10120FFF7D2FAFA
:1073B0000644002E0FDD39464046FFF79BFB0028B0
:1073C00009DDB82303FB0455AB8A64B21844A882D4
:1073D0009EE70024CDE74FF0FF3499E72646DCE72F
:1073E000013480D000247FE7B0080020800900200D
:1073F00068090020C80800202DE9F04F002485B05E
:10740000BB4F0F20BB4D02F0BFFA02F043FB2C70C4
:107410003C7002F0D9F9DFF800A33E46CAF800003C
:10742000042002F09FFAB44B00B21860DAF8003082
:107430001A8852BA1FFA82F8C2F3072202F0F80241
:10744000C02A79D0E02A00F08F802746B846A146AE
:10745000AA4CDAF800203378D15C01F0E000602813
:1074600040F050829D1C134493F901A0A448BAF146
:10747000000F02EB050C5E78B8BF0CF10103C0F8F9
:1074800000C0B8BF0360CB0601F0080E00F1118107
:107490000368BEF1000F40F0F5809C463CF801EF18
:1074A000A4F801E09CF802C084F803C013F804CBF0
:1074B0000360CCF3830040F060004FEA9C0320702F
:1074C000607803F0300343EA8C1300F00F000343AD
:1074D000637011F0040B06D18948036813F801CBDF
:1074E00084F806C0036011F003010BBF8449854B8B
:1074F0000B685B5C09BF13F8010BE3710B60E07173
:107500007106C6F3011340F16281BAF1000FB6BFF4
:10751000525D00221209002B00F007817A480178A1
:1075200001297A4903D14578954200F0FD80002574
:107530004B460D602E4634E058883B78C8F30A0865
:1075400040BA41460433224680B23B70FFF7AEFE9C
:10755000411C074600F0F181B8246D4B4FF0010942
:1075600004FB0034223474E758881E793B7840BA13
:10757000C8F30A0832460533414680B23B70FFF734
:1075800095FE421C074600F0D881B823604A4FF0B0
:10759000010903FB00239D8A2346454534BF00258E
:1075A0000125009302F0FEF8DFF844B19BF80020BB
:1075B000824200F2C28102F0F5F89BF80010554AB1
:1075C000A0EB010AC2F800A04A4A92F800B040F2CB
:1075D00014520BEBC6065644964200F2AE81009B55
:1075E00044B14D4A10685246014404EB0B0003F0CD
:1075F00091FB009BB8F1000F00F0988143B1B823D4
:1076000043490BEB0A0203FB071392B29A821A84D6
:10761000002D00F09581B8237B433D493748CA18B7
:107620002233A2F814801944128C03F073FB002556
:107630003A4C324EA27842B123789F4205D160780D
:10764000E11C06EBC00003F065FB01350C2D04F1D5
:107650007104EFD1F8B2FFF77DF9B9F1000F03D152
:107660000BEB0A081FFA88F82D4B2E4CA3F800806C
:10767000236823B1FFF7E4F923685B68984700F0BB
:10768000A7F95AE14FF0600C84F800C093F800E0CD
:1076900003334FEA9E0C0CF0300C0EF00F0E4CEA48
:1076A0000E0C84F801C033F802CCA4F802C00360C9
:1076B0000FE7BEF1000F15D1036893F800C0CCF3BB
:1076C000830C4CF0600C84F800C013F801BBA4F8E4
:1076D00002E04FEA9B0C0CF0300C4CEA8B1C84F857
:1076E00001C0E4E76023238000236380F1E600BF4C
:1076F0009F1D0020A01D0020240A00208C1F0020B8
:10770000200A0020A3C9200049180020AC0800204E
:10771000B00800202C0A0020300A00205318002056
:10772000781F0020A8080020086004F10805002B3D
:107730004BD0854A11680231844A0F20D25C0191F6
:10774000009202F021F9DDE9002103462846FFF707
:1077500005FA06F0030206F0040316F008067C4D55
:1077600040D0ABB940F2FF23ADF80C30531E012BD3
:1077700006D878490B6813F8010B8DF80D000B60E3
:10778000002375498A5C03A904F11800FFF7E6F9A4
:10779000724E7049307800F128033370BBF1000F4E
:1077A00064D00B681A7802F0F802F02A5ED1112238
:1077B000A2711A7802F0040C02F0F302F03A032AE4
:1077C0006AD8DFE802F0416C79831946B4E7644A6D
:1077D0000F20D55C02F0D8F82A460346614904F12F
:1077E0000800B4E73BB3BAF1000FBEBF5E4B297887
:1077F0001B68DFF878A1BCBF5B189B789AF8001073
:10780000ACBF334603F00F0301294F4903D00025D5
:107810004B460D60C5E69AF801009842F7D14B4BF4
:1078200010209E5CC1F800A002F0AEF8324603467C
:107830000AF10201A8E74A4B10209E5C02F0A4F86E
:107840003246034647499FE7B3F8012005332285B6
:1078500033F8022C62850B60BCF1000F04D10B6879
:1078600033F8022BE2850B60303030703E4A0B68F3
:1078700012689B1A2B70B8F1000F3DD101F092FFF6
:107880002B78C31A30780344283B5BBAA380A379D2
:10789000112B01D1A388A3854B4600254AE6B3F8F6
:1078A00001202285DA78A2F5805292B2120242F0CB
:1078B000F00262850433CEE75A78A2F5805292B284
:1078C000120242F0F00222855A88F2E75A78023317
:1078D0001209A2F5756292B2120242F0F0022285FC
:1078E00013F8012C02F00F02A2F5756292B2120297
:1078F00042F0F0026285AEE7A8F128031A12227165
:107900006371C4E7412918D1591CC9B20A44214600
:1079100002F1280052F804CB824241F804CBF9D19D
:10792000293333702B7828332B70B5E7B9F1000F6A
:107930003FF496AE002D7FF497AE05B0BDE8F08F12
:10794000B9F1000FF9D18BE6AC080020A7C92000DF
:107950009F1D0020200A0020AFC92000A01D00208C
:10796000ABC92000A1C92000300A0020491800201E
:1079700008B5054803F0ECFB20B1BDE8084002481B
:1079800003F0DDBB08BD00BF380A0020024B1B68B6
:1079900003B1184718467047340A0020014B18609D
:1079A000704700BF340A002007B5074B8DF8070069
:1079B000186828B1054B0DF107021978FCF7AAFEEB
:1079C00003B05DF804FB00BF942600209E29002030
:1079D000002208B502210448FCF79CFE0023034A5C
:1079E0001380034A137008BD18010020781F00207F
:1079F0004618002070B52C4E33883546002B34D005
:107A0000B3F5A06F04D900232B80284A13702CE013
:107A1000274C628B238B1343A28B1343E28B1343BC
:107A2000228C1343628C1343A28C1343E28C1343C6
:107A30009BB2002BE7D000F0A3FE0028E3D0237E0A
:107A4000FF2B2BD004F11800FDF712FAF0B904F166
:107A50001800FDF771FC044640B9FDF7F5FD00285C
:107A6000D1D0FEF7F9FDA0B9288070BDFDF740FC2C
:107A70000028F6D1E36923B11B6A93F8940003F060
:107A800012FF2046BDE87040FDF788BC04F11800E5
:107A9000E7E7FEF7D9FDFFF779FFB4E70020FFF72E
:107AA00075FF00233380B0E7781F002046180020C0
:107AB0008C1F00202DE9F041038806461446002B58
:107AC00000F0938040F24B32934240F0AB800229A9
:107AD00076D00CD800296BD16CB1544B03201C60BC
