:020000040020DA
:10200000501600208D222000B3632000B163200011
:10201000B1632000B1632000B16320000000000024
:10202000000000000000000000000000036A200023
:10203000B163200000000000216A20001564200028
:10204000276420002D6420003364200039642000C0
:10205000000000001B64200021642000B163200008
:10206000B16320000000000000000000000000003C
:102070000000000000000000B1632000000000002C
:102080000000000000000000B1632000B1632000E8
:10209000B1632000B1632000B1632000B163200070
:1020A000B1632000B1632000B1632000B163200060
:1020B000B1632000B1632000B1632000B163200050
:1020C000B1632000B1632000B1632000B163200040
:1020D000B1632000000000000000000000000000CC
:1020E00000000000000000000000000000000000F0
:1020F0000000000000000000E9372000F937200050
:1021000000000000000000000000000000000000CF
:1021100000000000000000000000000000000000BF
:1021200000000000000000000000000000000000AF
:10213000000000000000000000000000000000009F
:10214000000000000000000000000000000000008F
:10215000000000000000000000000000000000007F
:10216000000000000000000000000000000000006F
:10217000000000000000000000000000000000005F
:10218000000000000000000000000000000000004F
:10219000000000000000000000000000000000003F
:1021A000000000000000000000000000000000002F
:1021B000000000000000000000000000000000001F
:1021C000000000000000000000000000000000000F
:1021D00000000000000000000000000000000000FF
:1021E00000000000000000000000000000000000EF
:1021F00000000000000000000000000000000000DF
:1022000000000000000000000000000000000000CE
:1022100000000000000000000000000000000000BE
:1022200000000000000000000000000000000000AE
:10223000000000000000000000000000000000009E
:10224000000000000000000000000000000000008E
:10225000000000000000000000000000000000007E
:10226000000000000000000000000000000000006E
:10227000B1632000CD362000F13620008D2D2000E6
:102280005D392000B9282000B1632000FF224824D6
:1022900008B5084B08481A60084AE3690849121A49
:1022A00098470848084A0021A369121A984700F085
:1022B0000DF8FEE7B4200D4040000020F80000209B
:1022C0004C722000F80000204B0E002073B500F087
:1022D00041FC00F0F9FC00F057FC00F05BFA01F063
:1022E0002BFB04F035F900F0E7FC00F0B3F8012017
:1022F00004F062F802F02AF900F018FC002000F067
:1023000033FB012000F030FB0020404900F0F8FBD7
:1023100002F062FA62B6042004F04EF83C4804F081
:10232000B0F83C4804F0ADF800F0D2F9002002F01B
:10233000FFFA01F0F1F90021374802F093F901F0BA
:1023400075FF04F065F800F045FD00F061FD02F056
:1023500037FE0821684601F015FB9DF806309DF810
:1023600007502E4C45EA0325BDF806302C48238043
:1023700001F042FB2B4E21782B4801F03DFB6178A8
:102380002A4801F039FBF46A4AF6CD310220A04711
:1023900029460320A0471A210120A04708226946A8
:1023A000736B0B209847224801F026FB214B1868DD
:1023B00004F067F8204801F01FFB204B186804F078
:1023C00060F81F4801F018FB1E4B186804F059F81C
:1023D00000211D4802F046F91C4B01219B68812019
:1023E000984704F0A5F81A4804F098F800F0A4FB08
:1023F000022003F0E1FF00F0A5FB02F0BFF810F0AF
:10240000FF0FF8D101F02CFAF5E700BF914720004B
:10241000F26F20000470200078000020420E00209F
:1024200029702000946E2000477020004D7020001D
:1024300053702000686F20005A702000906F2000B9
:1024400061702000AC6F2000980000201C6E2000FE
:10245000E86F200008B500F0DFF80022014B1A7089
:1024600008BD00BFC80C0020024B1A78104318703A
:1024700000F0F6B8C80C0020034A137823EA0000E5
:10248000107000F0EDB800BFC80C002018B1012892
:1024900004D000207047034B18687047024B18782F
:1024A000704700BF20900D40C90C002010B5094AAC
:1024B0000020137801331370074B197802F0AAF843
:1024C000BDE8104005490023054A0968054801F0A8
:1024D000E3BE00BFC90C0020440E002030010020E4
:1024E000AD2420001001002008B50346812B0846CA
:1024F0002BD0B3F5807F39D0802B24D102F01EF889
:102500001C4B1D4A18701368032123F00803136045
:1025100052F8203C002023F0080342F8203C52F8F7
:102520001C3C23F0080342F81C3C52F8183C43F0D2
:10253000080342F8183C042200F0D4FB03220021D7
:102540000E4800F073FB012008E00D4B0D491A689E
:1025500028B142F008021A6001230B6008BD22F086
:1025600008021A600123C1F88030F7E7064B1960B2
:10257000E9E700BF440E002020940D408D25200087
:1025800010940D4000E100E03001002008B50F4834
:1025900003F0E7FFC8B108210C4803F0DBFF0C4B48
:1025A000196849B100220B4B1A700B4B1B6843B9D9
:1025B0000A4A0B4801F070FEBDE80840094802F0E5
:1025C00087B9074801F072FEF6E708BD0801002050
:1025D00030010020C90C002020900D40AD242000C7
:1025E000100100201C6E2000084A136823F0040329
:1025F000136052F8203C43F0040342F8203C0022D0
:10260000034B1A600122034B1A70704720C40D401F
:1026100010C00D40CA0C00200D4A0E49136823F06B
:10262000C003136052F8203C43F0C00342F8203C42
:102630000022094B1A600B6823F010030B6051F85D
:10264000203C43F0100341F8203C044B1A607047D3
:1026500020A40D4020C40D4000A30D4040C00D40FB
:1026600010F0020218BFFF22084B1A6010F004029B
:1026700018BFFF22064B10F001001A6018BFFF229E
:10268000044B14BF1A601860704700BF00A20D40D1
:1026900000A10D4040C00D40044B1B68C3F3072050
:1026A00013F4704F04BF1030C0B270471C300D409F
:1026B000064B1868C00910F0060F03BF00F00700B2
:1026C000C0F1020040034FF40040704714300D4049
:1026D0002DE9F047482488B0FFF7DEFF164B064689
:1026E0001F68A36898476368804698470446FFF7C9
:1026F000DFFF054600F082FA814600F08BFA824641
:1027000000F038FAAD0A07F00103A40AC7F3400746
:10271000CDE905A003934146CDF8109002970195AD
:10272000009406F00F03C6F30712044801F064F9A1
:1027300008B0BDE8F08700BF1C300D406F7020006E
:102740002DE9F84300F07AF810490246D1E9004536
:10275000AC46A04238BF05F1010C6346C1E9002335
:102760000B48D0E90089B8EB040169EB05048E1829
:1027700044EB0C07C0E9006701F04AFE18B1BDE860
:10278000F84301F0C9BDBDE8F88300BF0001002097
:10279000F8000020E0210D4B0D4A5A600D4A82F8E6
:1027A0002310002207219A6019600B490B6843F03F
:1027B00001030B60094B1A60042243F80C2C012220
:1027C00043F8082C0F22DA62704700BF10E000E0E7
:1027D00047E8010000ED00E008200D400C00034038
:1027E000034BD3E90023100A40EA0360704700BF9F
:1027F00000010020054B186053F81C2C1C3B42F0D4
:1028000001021A601A68D207FCD4704728000340FE
:1028100010B5064C236823F001032360FFF790FFF7
:10282000236843F00103236010BD00BF10E000E007
:10283000014B1868704700BF34010020064B186830
:102840005A6808331B681B0443EA0223034A034304
:10285000106843EA0060704740500D404C500D40F6
:10286000014608B5104A1368DB07FCD572B6FFF7BE
:10287000E5FF0B1A062BD8BFC11D0C4B0A0E1A60C0
:10288000C1F3074243F8042CC1F3072243F8082C94
:10289000CAB243F80C2C62B64FF40032044B1960F4
:1028A000044B1A6108BD00BF50500D404C500D4004
:1028B0003401002000E100E008B500F0B9FF00227B
:1028C000064B1A604FF40032054BC3F89021C3F851
:1028D0009020BDE8084001F0FBBE00BF340100209D
:1028E00000E100E0064B1B681B075FBF054B186843
:1028F00080F00800C0F3C00048BF0020704700BF50
:1029000018C0004018D000402C23154A70B503FBB6
:1029100000234FF6BF72DC680546236C626413F037
:1029200050020DD00F4EA369DB0600D570BD56F8DE
:1029300025301BB12068C0B29847F4E72368F2E75E
:1029400013F4D06FF2D04FF440732363FF2363601E
:10295000E36AE262E362236B43F001032363E5E78A
:102960002C6E2000380100202DE9F04F012806468A
:1029700085B000F2B4802C2545435A4F7C1994F958
:102980002090B9F1000FC0F2AA8094F922B0BBF1F7
:10299000000FC0F2A4804FF00008534800F0BAFFC7
:1029A000524978590A6894F921A002430A604A689A
:1029B0006068E56802434A608A68A06894F9233039
:1029C00002438A6022690AEBC901C5F8C88F116009
:1029D00094F823105FFA8BF0227D0193CDE9020178
:1029E00000F08AF9DDE90201082200F07BF90123F9
:1029F0003F494FEA0B32019852F801C003FA00FB3D
:102A00004BEA0C0050504FEA093959F8012003FAFB
:102A10000AFA4AEA020249F801205022AA63AA6B84
:102A200094F9240042F4D062AA6302226A634FF44C
:102A300040722A63A26940456A62E269AA624FF065
:102A40007002EA620D4614DB94F92510294A41EA26
:102A5000C0041460020354598B4023435351C9B23C
:102A60004246C0B200F03EF9234A136843F40043E3
:102A700013602C2303FB067393F92640002C1BDB09
:102A800093F827905FFA84F801224946404693F96B
:102A900027A000F031F901232403625903FA0AF355
:102AA0001343635108224946404600F01BF9124A7D
:102AB000136843F4804313602C2000FB0676F26811
:102AC000136B43F001031363012296F82830590970
:102AD00003F01F0302FA03F3084A42F8213005B05D
:102AE000BDE8F08F2C6E2000E528200028200D4046
:102AF00020940D4004410D4030D0004000E100E042
:102B000001289CBF014B43F820107047380100207A
:102B1000012808D82C22044B02FB0030C3689A69B4
:102B20009206FCD4196070472C6E20000022014BE5
:102B30001A60704700500D400822014B1A60704720
:102B400000500D40A022024B1A6050221A607047BC
:102B500000500D40014A024B9A607047002020004F
:102B600000ED00E0024B1868C0F38150704700BFD1
:102B700004200D4008B5FFF7F5FF024B53F8200085
:102B800008BD00BF846E200038B5164D164C2B686A
:102B9000012223F040032B602368062123F0400329
:102BA0000320236000F09EF82B68012223F08003AD
:102BB0002B602368072123F080032360032000F0AB
:102BC00091F80A4B0A4A0B491A600B4A13461068DF
:102BD0000842FCD11A685101FCD41A685201FCD594
:102BE00038BD00BF20C40D4000C40D4000200D4082
:102BF000010102000000010104200D40034B0448C4
:102C00001B6803F007031841704700BF04200D4004
:102C10000048E801034B04481B68C3F30223184132
:102C2000704700BF04200D400048E801024B02EB52
:102C3000C10243F82200704740010020F8B5074662
:102C40000D460024084E06EB411647FA04F3DB0755
:102C5000E1B204D556F824300BB128469847013428
:102C6000082CF2D1F8BD00BF400100202DE9F84347
:102C70000546DFF8408000F0DBFD0C4B2E03F758D3
:102C800056F808404FEAC50924FA09F447EA040057
:102C90002946C0B2FFF7D2FFE4B2054BFFB204FAF7
:102CA00009F4F75046F80840BDE8F88318940D4041
:102CB0001C940D4018970D4080220021014803F01C
:102CC00027BB00BF40010020034B044A1A60044B9D
:102CD000803A1A60704700BFC001002080400D405C
:102CE000C4010020034B01EBC0011B6843F8212005
:102CF000704700BFC0010020034B01EBC0011B68FF
:102D000043F82120704700BFC40100200E2870B591
:102D100006460BD1134B1C6844F0020018601248A1
:102D2000056825F03F0343F0010303600F48036883
:102D300023F0FF031A43114331430D4A0160136826
:102D40001B06FCD50B4B0C4A1B68106803F0FC03F8
:102D500043EA00230E2E18B201BF034B1D60014B46
:102D60001C6070BD34000144F486084008700D40BA
:102D700000700D400C700D4010700D40024B186833
:102D8000B0FA80F04009704700B708404FF40042A5
:102D9000064B10B5064CC3F89021C3F8902020686C
:102DA00018B101F077FC0023236010BD00E100E0C2
:102DB000C8010020064A136843F0020313605368F9
:102DC00043F002035360936843F00203936070473B
:102DD00048200D4007B50C4800F09CFDFFF7EAFFC6
:102DE0000A4B1A6842F002021A6000220192019A0C
:102DF0000F2A06DD1A6822F002021A6003B05DF89D
:102E000004FB019A0132F1E77D2D200054200D4092
:102E1000064A136823F002031360536823F0020389
:102E20005360936823F002039360704748200D407D
:102E30000B4B1A689207FCD41B685B065FBFED2240
:102E4000084B1A601A60084B1B6813B1EF22054B40
:102E50001A60064A0120137803F07F03137070474D
:102E60004C860840388808402C860840CD0C00204D
:102E7000044B186800F02200A0F12003584258418A
:102E8000704700BF4C860840024B186800F04000B5
:102E9000704700BF4C860840204B1870002832D085
:102EA0001F4A13681B03FCD51E4B1A6842F002022E
:102EB0001A601A6842F001021A601A685007FCD5BD
:102EC0001A6822F001021A601A685107FCD41A68C5
:102ED00042F002021A601A6842F001021A601A688F
:102EE0005207FCD5104A136823F004031360D2F88C
:102EF000A83123F00403C2F8A8314FF400520B4B61
:102F0000C3F890207047084A136843F00403136025
:102F10004FF40052054B1A61704700BFCC0C0020E3
:102F200004200D40048808408C86084000E100E041
:102F3000084B93F90020002A09DBED21064A1160B5
:102F40001160E32111601A7862F07F021A7001208B
:102F5000704700BFCD0C002038880840A0F10B015D
:102F6000CBB20F2B10B5044613D80B4B1B6813F0D4
:102F70003F0302D0FFF75CFF0123084A01EB810108
:102F80000B3111600BB1FFF7D3FF054B60B21C7022
:102F900010BD4FF0FF30FBE7488608403C860840F4
:102FA000F600002010B50C46002900F0868010289D
:102FB00000F28580DFE800F009101B22243B445713
:102FC0005C727683837B7D547F003E4B1B68003BA5
:102FD00018BF0123236024E005223B4B1B6803F04C
:102FE0007F030B3B93FBF2F30B33DBB2F2E7374B80
:102FF0001A68043B1B6843EA0223EBE7344BF7E70C
:1030000000230B60334B344A1B6803F001030B6051
:103010001268900644BF43F002030B602F4B1B78ED
:103020000BB900200BE00B6843F00403D2E700204B
:103030002B4B08601B78002BF3D001230B6010BDD5
:10304000284B29491A680023D2B201EBC30000794A
:10305000904202D851F83330BCE701330E2BF4D143
:103060006FF01703B6E7214B1B685BB2493BB1E732
:103070001F4B1B6899060FD1FFF75AFF01231D490B
:103080000A68D207FCD51C4A1168493949B20BB10C
:10309000FFF7CEFE2160C4E70023F0E7174B93F95A
:1030A000003097E7164B1B7803F07F0392E70B2362
:1030B00090E71A238EE707238CE70220BFE7012061
:1030C000BDE700BF2C8608403C860840CC85084000
:1030D000D48508400086084024860840CC0C002097
:1030E000F700002040860840CC6E2000588608403B
:1030F000488608406486084060860840CE0C002060
:10310000CB0C002008B50B4B1B6899060FD1FFF7BD
:103110000FFF012308490A68D207FCD5074A116846
:10312000C1F300110BB1FFF783FE084608BD002371
:10313000F0E700BF48860840648608404C86084097
:1031400008B507285FD8DFE800F0040F1A212440F3
:103150004659012903D1FFF7EBFE00203AE0002990
:1031600053D1FFF765FEF8E7A1F10B030F2B4CD805
:10317000C8B2FFF7F3FE0130EFD103202AE0244B61
:10318000CAB2C1F307211A605960E6E7214BCAB2FF
:10319000F7E731F0070338D11F4B11F0010F1A6820
:1031A000C1F3800014BF42F0010222F001021A6054
:1031B0001A4B11F0020F1A6814BF42F0200222F0DD
:1031C00020021A60FFF768FEC7E731F001001CD14A
:1031D000134B197008BD01F118031F2B15D80D23CF
:1031E000104A52F83300814205DC02EBC3031A791E
:1031F0000D4B1A60B1E7013BF3D2AEE70B4BC9B2FE
:1032000049311960A9E70120E4E70220E2E700BFA5
:10321000C8850840D08508400086084024860840BC
:10322000F7000020CC6E20004086084058860840F9
:1032300038B505460C46134A13689B07FCD4124B5D
:1032400093F90030002B01DBFFF772FEEE220F4BEB
:10325000691E1A601A60A21C43F8102C2144022037
:1032600000F074FA0A49013C41EA0411022000F01E
:103270007FFA022000F086FA022000F09BFA00207C
:1032800038BD00BF4C860840CD0C0020388808406F
:1032900002C001C0F8B5224B93F90030002B18DBB7
:1032A000FFF7CCFA0446FFF743FEC4F1FF2404F510
:1032B0007F04F634FFF7C2FAC442FBD40126194B4F
:1032C0001B7843B9184C2368990609D50221084692
:1032D000F8BD0026F3E7FFF715FF0028F2D1F5E768
:1032E000E9230427114D2B6023689A0703D4013F7B
:1032F00017F0FF070BD123689B070CD4EE230121A5
:103300002B602B60002EE2D0FFF792FDDFE7062056
:10331000FFF770FAE8E7216811F00201FBD1F1E74D
:10332000CD0C0020F70000204C860840388808406B
:103330000B280DD1082A0DD161B1074B074A08317E
:1033400011F8010D43F8040B9342F9D100207047A6
:103350000120704702207047A8850840C8850840B2
:1033600070B52F4E0246306810F0400008D02D4D49
:103370002868040605D5ED2200202B4B1A601A6040
:1033800070BDC0B20428F6D902388842F3DCC4B25A
:10339000032C1ED12B6813702B6853702B6893700D
:1033A0002968224B493949B219702B68204D1806FB
:1033B0002B70E0D589B2042001F0D8FD29780320D4
:1033C00001F07F0101F0D2FD1A4B1B78CBB12046F2
:1033D000D6E711190320013900F0C0F9164B611E20
:1033E000032043EA011100F0C3F9032000F0CAF9F9
:1033F000032000F0DFF9032000F0E8F90028FAD1FB
:10340000CEE733685A06E2D533681B0603D50B486E
:1034100001F040F9DBE7ED22034B1A601A60D6E7B2
:103420004C8608402888084038880840CE0C002088
:10343000CB0C0020CC0C002002C0010C500000205E
:10344000F8B52A4F3D7815F001054CD10124F8223A
:10345000274B7F261C605C609C60A3F59323A3F53B
:1034600014731A600922C3F8902115221A670B22DF
:10347000703303F59B23C3F83C21402203F59E7370
:10348000A3F59B23A3F5F0731A601A6842F020029B
:103490001A60D52243F81C5CDE62DA61154B18789D
:1034A000FFF75CFD4FF48042134B02201E60134B6C
:1034B0001A6100F073F91249022000F04FF903205D
:1034C00000F06CF90E49032000F040F90D4B18781C
:1034D000FFF7E2FC0C48294601F0C4F820463B788F
:1034E00023433B70F8BD0020FCE700BFCD0C00205B
:1034F000A8200D40F60000209486084000E100E07E
:1035000028880840CC0C00205000002038B50388E3
:10351000044653B340F20342934233D11B4B187815
:103520001A4638BB822923D1137873B901F0D0FC35
:1035300001F05CFC8021FFF713FF002805DD80B25D
:1035400001F014FC124B1B699847124B1A78520673
:103550000BD500221A70104B1D68FFF769FCFFF7AE
:103560006FFFAB0601D0FFF7E3FC40F2034323807B
:1035700001200AE01B78002BFAD0064B1B78580676
:10358000F6D5CFE700230380032038BDCC0C002004
:10359000AC6F2000CD0C0020488608400B282DE998
:1035A000F0470C460FD1082A79D1002977D03D4B3E
:1035B0003D4A4C1E53F80419934204F8011FF9D1F7
:1035C0000020BDE8F0870C2867D1042A67D10029C4
:1035D00065D0364B36491A68DFF8E48022F00702DE
:1035E0001A600A68334F42F008020A60D8F80000F7
:1035F0003A681D68DFF8CCE0DFF8CCC025F0700534
:103600001D60DEF80050DCF80060C0B2120240EA33
:10361000066092B202434FEA0549274809F47F0940
:10362000D0F800A042EA09061A685FFA8AF522F08B
:10363000070242F001021A600A6842F008020A60BA
:10364000D8F800203F68196821F0700141F010019E
:103650001960DEF80010DCF800C0D3B23A0243EA89
:103660000C6392B213430A04016802F47F0243EA36
:1036700002085FFA81F9FFF7E1F8B6EB080165EBA4
:103680000905ED0307460023C8030C4A45EA5141EA
:1036900002F01CFC3F1A276092E7012091E702200C
:1036A0008FE700BFC4850840A48508401088084003
:1036B00004880840188808401C8808400048E80131
:1036C00014880840248808402088084008B5054B25
:1036D0001B7813B9044800F0DDFF0022034B1A6089
:1036E00008BD00BFCC0C00205000002034880840EA
:1036F000064B07481A68042A1FBF06490A7842F099
:1037000040020A7000221A6000F0C4BF2C880840F2
:1037100050000020CD0C002008B5094B40220021AC
:10372000184602F0F5FD0121064A074B1160506072
:103730004FF480425A604FF400425A6008BD00BF07
:103740000000002004F00F4000E100E003289EBFCD
:10375000014B0001195070470000002003289EBF54
:10376000024B03EB00104160704700BF00000020D7
:1037700003289EBF024B03EB00108160704700BF1F
:1037800000000020032806D80123034A03FA00F0B2
:10379000116808431060704728F00F40032806D8CE
:1037A0000123034A03FA00F01168084310607047D0
:1037B00020F00F40032806D80123034A03FA00F043
:1037C000116808431060704714F00F4003289FBF32
:1037D000044B03EB0010806800F0070088BF002056
:1037E000704700BF000000204FF0FF32014B1A600D
:1037F000704700BF04F50F400122014B1A6070476B
:103800004CF00F40084B19461A68D002FCD4074B05
:103810001A6822F480321A600A68D203FCD41A684B
:1038200042F400321A60704704200D4000200D4021
:1038300010B5094C226890070DD0084B1A4619683C
:103840004901FCD413685B01FCD5FEF7E1FFFFF7EB
:10385000D9FF0023236010BD58200D4004200D40E7
:1038600038B5264B1C6814F03F0414D1244D55F88C
:10387000043B23B1984770B10134052CF7D1214D99
:103880002B7843B1FEF7D4FF0446FEF7D7FF201A8A
:10389000092800D90CB930BF27E01B4B1A6822F465
:1038A00000321A60194A11461068C002FCD41A6826
:1038B00042F480321A600B68DB03FCD5FEF7BEFFD2
:1038C000241A092C03D8BDE83840FFF79BBF632CAE
:1038D0000F4C0BD92B78022B08D1236000F090FEFF
:1038E00030B1FFF78FFF0023236038BD0123F4E7D9
:1038F000FEF79EFF0028F4D0CDE700BF48860840C1
:10390000CC010020CF0C002000200D4004200D40F1
:1039100058200D40074A10B50023144652F8041BE6
:10392000814202D011B944F8230010BD0133052BA8
:10393000F4D1FAE7CC0100200022054B05491A60BA
:103940000B6943F004030B61034B1A70704700BF0F
:1039500058200D4000ED00E0CF0C00204FF48032E5
:10396000064B10B5064CC3F89021C3F89020206890
:1039700018B100F08FFE0023236010BD00E100E0CD
:10398000E001002070B5184B1A78431E52B101F5C2
:103990002011164A273191421AD011F8010903F873
:1039A000010FF8E7124A1278122AF0D1114A127860
:1039B0004B2AECD14C0804F520120C4D2732AA42B8
:1039C00007D1002301F5201120442731A34205DB54
:1039D00070BD12F8016903F8016FF0E7CA1A127896
:1039E000013300F8012BF1E72B0028002700280005
:1039F0002A002800290028000FB407B504AA52F8AD
:103A0000041B0448019200F021F803B05DF804EBB8
:103A100004B070476000002070B505460C460A4EA1
:103A2000102C07D874B122462B6868680649BDE897
:103A300070401847102231462B686868984710B9C3
:103A4000103CEDE7204670BD8F7120002DE9F04F4E
:103A50000746154600268FB00791079B1B78002B61
:103A600000F09C83079B1A781C460133002A00F063
:103A70008583252AF7D1079B9C4205D081E32378D3
:103A80004644002B00F08A836278631C002A00F011
:103A900085830024184610F8012B19462B2A17D0CD
:103AA0000BD8202A17D0232A18D0A2F1310CBCF150
:103AB000080F3FD84FF0000A18E02D2A04D0302A12
:103AC000F3D144F0100401E044F001040346E1E7BF
:103AD00044F00604FAE744F00204F7E744F008046F
:103AE000F4E70A2101FB0A2AAAF1300A194613F861
:103AF000012BA2F130000928F3D90B782E2B37D1F6
:103B00004A784B1CA2F13000092829D84FF0000850
:103B10001A781946A2F13000092803F1010319D9D6
:103B20000B786C2B6FD14B786C2B24D144F0800434
:103B3000023123E02A2A0AD1D5F800A00146BAF1C1
:103B4000000F05F10405B8BF44F00104D5E74FF0BC
:103B5000000AD2E70A2101FB0828A8F13008D7E7BC
:103B60002A2A04D1D5F8008002310435D8E7194655
:103B70004FF0FF38D4E7013144F060040B78782B24
:103B80000CD8572B4BD8472B08D8402B00F29080ED
:103B9000002B00F00383252B00F0D3804B1C0793F0
:103BA00004F4E063B3F5A06F00F0C98200F2CC80AA
:103BB000B3F5407F00F07282B3F5806F00F036827B
:103BC000B3F5807F7FF449AFB8F1000FACBF24F0AC
:103BD00010044FF0010814F4005204F0E0030692C0
:103BE00000F0EA80402B00F0E08000F2C280002B61
:103BF00000F0DE80202B00F0C78000220023CDE9FA
:103C000000230023CFE0682BB8D14B78682B02D17A
:103C100044F020048CE7013144F04004AEE7583B07
:103C2000202BBBD801A252F823F000BFF53C2000A6
:103C30009D3B20009D3B20009D3B20009D3B2000A4
:103C40009D3B20009D3B20009D3B20009D3B200094
:103C50001F3D20009D3B20002B3D2000DD3C20002F
:103C6000073D2000FB3C2000133D20009D3B200031
:103C7000DD3C20009D3B20009D3B20009D3B200023
:103C80009D3B20003D3D2000E93C2000373D2000C9
:103C90009D3B20009D3B2000313D20009D3B2000AE
:103CA000E33C20009D3B20009D3B2000EF3C20009A
:103CB000413B062B3FF672AF01A252F823F000BF42
:103CC000253D20009D3B20009D3B20009D3B20008A
:103CD0000D3D2000013D2000193D200044F42454F6
:103CE0005CE744F4106459E744F4885456E744F41C
:103CF000C85453E744F4B24450E744F400744DE729
:103D000044F484444AE744F4024447E744F4424418
:103D100044E744F4813441E744F4A1343EE744F4F9
:103D2000C1343BE744F4E13438E744F4A06435E7B8
:103D300044F4806432E744F440742FE744F4E064D0
:103D40002CE744F4C06429E7B3F5C06F07D0B3F59E
:103D5000E06F7FF482AE2B6804351E607DE60122A1
:103D60003B68A94978689847002840F015820136D9
:103D700073E6602B1CD0802B7FF43FAF073525F016
:103D80000705F5E8022303E095F90020D317043571
:103D9000002A73F10001BFF632AF524263EB4303D6
:103DA000CDE900230123039317E0B5F90020EDE7E7
:103DB0002A680435D317EBE7402B00F0B08000F2FF
:103DC0009A80002B00F0AD80202B00F0A180069B94
:103DD000002203930023CDE9002304F4C053B3F57C
:103DE000805F00F0D580B3F5C05F00F0D680B3F5FA
:103DF000006F00F0B78000230DF1360B0493049B95
:103E000041F20802984588BFA8EB030841F6080371
:103E100004EA030198BF4FF0000891421A4604D10A
:103E2000B8F1010F38BF4FF00108049B914203EB3A
:103E3000080040F0CC80DDE90023134300F0C78088
:103E4000724914F4804F724B4FF0020918BF0B46B1
:103E5000069A72B1039A002A40F0BD8004F006026F
:103E6000022A00F0BC80062A6A4A04BF4FF001090A
:103E7000134609EB0002924594BF4FF0000AAAEBEB
:103E8000020A14F00102009204D1E10640F1AB8075
:103E9000D0449246B9F1000F07D04A4619463C6813
:103EA0007868A047002840F077814446049B1E4470
:103EB000102C5949D7E9003000F29F802CB12246DE
:103EC00055499847002840F0678159463B68049A55
:103ED00078684E449847002840F05E81009B464435
:103EE000002B00F0D48051463846FFF795FD00289E
:103EF00000F0CD8050E1602B13D0802B7FF467AFB2
:103F0000073525F00705F5E80223CDE9002304E095
:103F10002A780023CDE900230435069B43E72A884D
:103F2000F7E72B68002219460435CDE90012F4E7C3
:103F3000DDE904010A22002301F0C8FFDDE90401E4
:103F400030320BF8012D00230A2201F0BFFFCDE92A
:103F50000401DDE904231343EAD10DF13603A3EB99
:103F60000B034BE7DDE900230DF1360BCDE904230C
:103F7000EFE702F0070130310BF8011DD10841EAEB
:103F80004371D8080A46034652EA0301F1D1E4E737
:103F90000DF1360BDDE90023F6E7204B14F4804FDA
:103FA0000DF1360B1E4908BF1946DDE9002352EA20
:103FB0000300D2D002F00F00085C4FEA131C0BF88C
:103FC000010D100940EA037002466346EFE74FF027
:103FD00000094B463CE74FF00109124B49E74FF00F
:103FE0000109114B45E7514638460393FFF714FD8D
:103FF000039B00283FF44EAFCEE0102298470028E4
:1040000040F0CA80103C53E78D7120007C71200085
:104010007F712000847120009F7120006B7120004F
:104020005A712000827120005F702000D5F8009046
:104030000435B9F1000F2CD04B469B469BF800206D
:104040000133002AF9D1ABEB090BB8F1000F02DB09
:10405000C34528BFC346DA4594BF4FF0000AAAEB18
:104060000B0A14F0010406D151463846FFF7D4FC80
:10407000002840F091805A4649463B687868984746
:10408000002840F089805E44002C7FF42CAF564419
:10409000E3E44FF0060BDFF81491D6E7414B424AB8
:1040A00014F4804F08BF9C460DF1330318BF9446AB
:1040B00000211A462868043550EA010E30D1D21A80
:1040C00008BF30224FF0780104BF03F8012C03F140
:1040D000FF3303F8011C4FF0300108BF012203F841
:1040E000021C232102F10309CA4594BF4FF0000AC4
:1040F000AAEB090A14F00104A3F1030803F8031C56
:1041000005D151463846FFF787FC002844D14A467E
:1041100041463B687868984700283DD14E44B3E754
:1041200000F00F0E1CF80EE04FEA111803F801ED35
:104130004FEA101E4EEA017E70464146BCE7BAF1D6
:10414000010F38BF4FF0010A2B6814F0010405F18C
:1041500004058DF820300AF1FF3805D14146384674
:10416000FFF75AFCC0B9464401223B68786808A9A9
:10417000984788B9002C8AD04146B5E6079B9C42F7
:104180000CD0079B0799A4EB030842463B6878686C
:10419000984700283FF473AC4FF0FF3630460FB01D
:1041A000BDE8F08F6B7120005A71200086712000ED
:1041B000F8B5038805461646CBB14A2B2BD1882982
:1041C0001FD1174802F0DEF90446C4B1231D9E42F8
:1041D0001FD12146124802F0DFF9124E626937689A
:1041E0003260A2690AB1E0699047376007E00C4885
:1041F00002F0C8F9044634B901220B4B1A704A2365
:104200002B8001200AE0A168201D02F092F92468A9
:10421000F1E72468D9E7002303800320F8BD00BF3D
:10422000E401002070030020D00C002010B5002411
:10423000054B06481C7002F0A2F92146BDE810406B
:10424000034800F00FBA00BFD00C0020E4010020AA
:104250006800002070B50446E3610B4B049D1B7899
:10426000C4E905526BB1094D094B2E68201D2B6026
:1042700002F05FF92E602146BDE87040054802F06B
:104280009EB9A160F7E700BFD00C002070030020AA
:1042900068000020E401002013B5034C246800945A
:1042A000FFF7D8FF02B010BD7003002010B5084B17
:1042B00004461B7843B1043000F0B2F82146BDE853
:1042C0001040044802F068B9C0E90333F6E700BFC4
:1042D000D00C0020E401002010B50D4C236813B968
:1042E0000C4A136010BDFEF77BFA2268D2E9003158
:1042F0000B441B1A92681AB91844064B1860F1E770
:10430000D2E900142144091A8B4228BF0B46F1E779
:10431000EC010020E8010020014800F0BBB900BF1B
:10432000780000202DE9F8430388054653B1592B46
:1043300048D1872921D1002024490B6863B918B1DD
:104340000B6001E0214A1360592301202B80BDE856
:10435000F88301203346F1E7D3E902649442F8D0B0
:1043600000B10B6019460B4689680029ECD0C8687B
:104370009042F8D189689960F4E78229E4D1134F1B
:104380004FF00009B84600263C68002CDCD02046DF
:1043900002F0E7F898B122468821E06800F03AF987
:1043A00058B9A368E0602EB1B360C4F80890FFF775
:1043B00093FFE8E7C8F80030F7E7FFF7ADFF2646C0
:1043C000A468E2E7002303800320C0E7EC0100209B
:1043D00010B50446FFF7A0FFE3680B4A0BB1136862
:1043E00033B90A4B1B68E36013681460A36004E0F0
:1043F000A34206D1054A1268DA60BDE81040FFF713
:104400006BBF9B68ECE700BFEC010020700300204D
:10441000024B1868003818BF01207047EC010020DB
:1044200010B50B4A04461368834208D183681360B1
:10443000FFF752FF0023C4E9023310BD1346002BDF
:10444000F8D09A68A242F9D1A2689A60F0E700BF5A
:10445000EC01002038B5836804460D469BB10A483C
:1044600004600220A07304F10C0098470238012870
:1044700001D9832D05D121462046BDE8384000F002
:1044800005B80123A37338BD700300202DE9F8435C
:104490001C4F04463D6888462B46A34204D00BB906
:1044A000BDE8F8831B68F8E7002CF9D0164EA37B13
:1044B000D6F8009063B10023A3738DB9A3683BB114
:1044C000444505D02A468321346004F10C00984706
:1044D0003B68A3420ED123683B60C6F80090DFE73B
:1044E000A54204D022468721284602F02BF82D68E9
:1044F000E3E71346002BF0D01A68A242F9D12268F4
:104500001A60EAE77403002070030020002238B527
:104510000125084B1A70084B1C6804B938BDE37BB1
:104520002BB1002282212046E581FFF793FF24680A
:10453000F3E700BFD40C002074030020024B18786E
:10454000421C1A70704700BFD20C00208A22064B12
:104550001A700023054A1370054A1370054A136048
:10456000054A1360704700BFD20C0020D10C002018
:10457000D30C002074030020700300202DE9F041CB
:104580001A4D2B780BB1FFF7C1FF194C267896B165
:104590000C221849184F0B78013E5A430133B818C2
:1045A00003F01F03BF5C0B702670D0E9018090B947
:1045B000124B1E6826B92B7820781844BDE8F0818C
:1045C0002B780BB1FFF7A2FF30464246394601F087
:1045D000B9FF3668EEE7812F08BF0123424639460E
:1045E00008BF837301F0AEFFE5E700BFD40C0020E5
:1045F000D30C0020D10C0020F00100207403002017
:10460000024A034B10781B7818447047D30C0020E3
:10461000D40C0020F0B50B4E3378202B0FD00C2596
:10462000094C0A4F24781C4404F01F046C433D19C4
:10463000C5E901200020013339553370F0BD012058
:10464000FCE700BFD30C0020D10C0020F0010020BB
:1046500038B5034C256801F075FF256038BD00BFF3
:104660007003002010B40A4C0A4621680B468342AE
:104670000CD04BB950B1016001212060817310BC96
:1046800081218381FFF7E4BF1B68F0E710BC70470E
:104690007403002038B1837B013B012B9FBF0123B2
:1046A000014AC37313707047D40C002002460846B9
:1046B00010B5064953600C68029B106093600A6055
:1046C0000CB9FEF7CDF8002010BD00BF7803002024
:1046D00010B5084C206858B100232360D0E901319F
:1046E0009847236823B1BDE810401868FEF7B8B8B2
:1046F00010BD00BF7803002070B505880446672D03
:1047000009D0792D2FD0002D33D1FFF717FF1B4B88
:1047100018701B4B1D601B4E194D08E00A282B68B2
:104720000ED07E2B03DC5A1C2A60174AD054304628
:1047300001F0C5FF431CF1D16723238001201BE05A
:104740005A1C2A600025104A2846D5540B4B19786C
:10475000FFF760FF0D4B2A4685211868FFF75AFFC7
:1047600018B97923E9E78529E8D10022044B1A60BA
:10477000D1E700230380032070BD00BF490E002055
:104780007C03002080030020D50C00207003002053
:104790000D28014610B516D00C4C237853B90C489F
:1047A00001F07AFF08B9012323700A48FFF772FF6E
:1047B000012010BD0A28F8D1054801F06DFF00283E
:1047C000F3D00023F0E70020F3E700BF550D0020F1
:1047D000800300208800002008B505490548802294
:1047E00001F053FFBDE8084000210348FFF73ABF3E
:1047F000560D002080030020880000202DE9F041A4
:1048000004880546772C20D07E2C3DD0002C4ED13C
:10481000FFF794FE284E294B294FDFF8B08018701F
:104820003460336857F823202AB9264A1370772357
:104830002B8001203EE008F803409368002180208F
:104840009847336801333360EBE700231E4A136057
:10485000194A1360184B1B4A1B6812789A4204DCF1
:10486000194B1B68002BF0D1E1E7184AD256002AF9
:1048700019DA134A002052F82320104B1978FFF759
:10488000C9FE28B97E23D3E70C4B1B788B42D0D1CD
:10489000094B0E491A688B5C03F07F038B540A4A5C
:1048A000136801331360044A13680133D1E700230E
:1048B00003800320BDE8F0818C0300204A0E002015
:1048C00040000020D60D002088030020450E002067
:1048D00010B40A4B0A4A197800238B4203DA52F8C3
:1048E000044BA04208D107490748CA5C62F07F0226
:1048F000CA5410BCFFF7CEBE0133EEE7D60D002040
:1049000040000020450E002098000020064A136851
:1049100043F004031360054B186804331B6840EA36
:10492000032080B2704700BF00700D4014700D402E
:1049300010B5174A136823F00C0313600122154BBE
:104940001A601A68012AFCD10822134B13491A6015
:10495000E32203F505731A601A460B68DB07FCD5E2
:104960000F4C102100232068013900F0010043EAB8
:1049700000034FEA43039BB2F5D1002BF1D0094964
:10498000180A03F0FE0308600B60EF23136010BDEC
:1049900000700D40A8200D40248608406486084021
:1049A0009C86084014700D400378407840EA03204C
:1049B000054B00FA01F1985CC2F1080200EA2120DF
:1049C0001041C0B2704700BFE0712000F8B5064644
:1049D0000A480D46174601F0D5FD044630B93A465F
:1049E00029463046BDE8F84002F006B8A3680BB18E
:1049F00028469847204601F0FDFDEEE79003002091
:104A000038B500F00DF90546094801F0BBFD044634
:104A100028B95DB12846BDE8384001F0E8BF6368B9
:104A200003B19847204601F0E5FDF0E738BD00BF2F
:104A30009003002010B5044600F000F938B100F0F2
:104A4000B1F9034B034821469B689847012010BDEC
:104A5000D86F2000CD49200070B50B4C0023616E4B
:104A60000A4A04F13800FFF717FCFFF74FFF656EA5
:104A70000023B0FBF5F1064A01FB150104F1180013
:104A8000BDE87040FFF708BC94030020954A200061
:104A9000AD4A2000044B5A6E196E5200914294BFE9
:104AA00059665A66FFF7D8BF9403002010B500F08E
:104AB0000FFA00F09BF900230380044600F06EF823
:104AC0002288930008B1017B51B9023398B200F0FB
:104AD0004DF9238873B1BDE81040074800F044B891
:104AE000818823445980C18801329980228001F055
:104AF00081FDE5E710BD00BF940300209DF8003064
:104B0000012B04D1024B9A6D5A66FFF7A5BF70477F
:104B100094030020F8B50F4616461D46064C014684
:104B2000064A204600F00EF8C4E9167625660448C9
:104B3000BDE8F84000F02CB894030020746F20000A
:104B4000FD4A200070B505460C461646044A00F0A2
:104B50008BF820466E610349BDE8704001F037BF15
:104B60007C6F2000EE71200010B5044604491A2025
:104B700000F00AFA2046BDE8104001F036BF00BF41
:104B8000420E0020014801F0FABC00BF00040020E2
:104B9000014B1860704700BF04040020014801F079
:104BA000F1BC00BF000400202DE9F04105460C488F
:104BB0000C46164601F0E6FC08B9BDE8F081838892
:104BC000A34209D18768002FF7D0334622462946F1
:104BD000BC46BDE8F041604701F00CFDECE700BFCA
:104BE00000040020014801F0CABC00BF08040020F6
:104BF00081800146014801F0E2BC00BF08040020AA
:104C000010B50446054801F0BDFC00B910BD83880D
:104C1000A342FBD001F0EEFCF7E700BF0804002040
:104C2000054B10B51B689847044618B181880120D0
:104C300000F09CF9204610BD5C6F200038B5064B93
:104C400005465B6898470446A988012000F08EF964
:104C5000201E18BF012038BD5C6F2000014B9B68EF
:104C6000184700BF5C6F200070B505460C4616461D
:104C7000FFF7BEFF20462E610249BDE8704001F0FB
:104C8000A6BE00BFF271200008B5044801F0B5FCD3
:104C9000BDE80840024801F0B0BC00BFB4000020ED
:104CA000A800002038B50E4801F0B7FC054650B109
:104CB0000C4801F0B2FC0446286030B92946084887
:104CC00001F0BFFC2546284638BD00F097F804F1F6
:104CD000B601A4F8800004F1820000F01FF9F2E7A9
:104CE000A8000020B400002010B501460446074883
:104CF00001F0BDFC48B12168054801F0A2FC214645
:104D0000BDE81040014801F09CBC10BDA800002087
:104D1000B400002010B501460446094801F0A7FC84
:104D200068B12468B4F88010204600F0E1F804F17E
:104D3000B60104F18200BDE8104000F003B910BDD7
:104D4000A800002010B507490B88834208DB064CF9
:104D500080B222880244181A08800120228010BDE7
:104D60000020FCE7C00C0020C20C0020014B188082
:104D7000704700BFC00C0020004870472C04002082
:104D8000014B1888704700BFC00C0020034A044B39
:104D900010781B781844C0B2704700BFE70D0020A0
:104DA000C20C00202DE9F0410C4F3A8872B100246A
:104DB0000B4B0C4EB3F800800B4B1D78354421B2E1
:104DC000414504F1010403DB00233B80BDE8F08191
:104DD000FFF7DCFF3044435C6B54F0E7C20C00206B
:104DE000C00C00202C040020E70D002008B5FFF7C0
:104DF000CDFF014B184408BD2C040020F8B50C4B26
:104E000004461E780B4B1F88F519802D0DDC3246A9
:104E1000094901F007FAFFF7E9FF344401463A4631
:104E2000204601F0FFF92846F8BD0025FBE700BF4A
:104E3000E70D0020C00C00202C04002008B5FFF76F
:104E4000A5FF024B1B88184480B208BDC00C00208F
:104E500010B50146FFF7F2FF4318802B12DC431E0A
:104E6000094A1BB21A44481C002B05DA074B187874
:104E700001440120197010BD12F80149013B14547E
:104E80001BB2F1E70020F6E72C040020E70D00201C
:104E900038B50C4D0C4C342200210C4801F038FA86
:104EA0002946204601F0E2FD2946A01C01F0DEFD66
:104EB0002946201D01F0DAFD2946A01DBDE8384035
:104EC00001F0D4BDF06F2000060E00200E0E002071
:104ED0000023044A1380044A1380044A1370FFF726
:104EE000D7BF00BFC20C0020C00C0020E70D00207F
:104EF00038B50C460546FFF7EBFF802C28BF802411
:104F000029462246034801F08DF9034B20461C80B8
:104F100038BD00BF2C040020C00C002010B5074B8A
:104F200003F1340253F8044B934240F8044BF9D197
:104F3000034A13680B6053684B6010BD0E0E0020CF
:104F4000060E002010B5074B00F1340250F8044B58
:104F5000904243F8044BF9D10B68034A13604B6845
:104F6000536010BD0E0E0020060E0020024B23F8E9
:104F700010100120704700BF0E0E0020014B33F8C7
:104F8000100070470E0E002008B5044B1A3803EBD2
:104F9000400001F06BFD012008BD00BF060E00209F
:104FA000024B1A3803EB4000704700BF060E00208A
:104FB0000149024801F05DBDF06F2000080E00209D
:104FC000084B10B51B689847074B5B689847074B21
:104FD0005B689847064B5B689847BDE81040054BF7
:104FE0005B681847946E2000AC6F2000D86F2000DB
:104FF000906F2000686F2000F8B5FDF7F1FB114DB0
:10500000064600242F461A20FFF7CAFF294601F062
:1050100030FD80B10A20FFF7B1FF0C2303FB0474BD
:10502000237A83420CD16068301AB0F5206F8CBFB0
:1050300000200120F8BD0134102C05F10C05E2D14F
:105040000020F7E7AC04002070B5184D00242E4670
:105050001A20FFF7A5FF294601F00BFD013418B90E
:10506000102C05F10C05F3D10C23621E03FB046424
:10507000A4F10C057AB90A20FFF780FF3072FDF722
:10508000AFFB70601A20FFF78BFFBDE87040014650
:10509000064801F0EBBC2B4654F8180D013A616844
:1050A00003C3A0682C461860E2E700BFAC040020F0
:1050B000014B1888704700BFF40000202DE9F04331
:1050C000012906468846144687B003DC002007B055
:1050D000BDE8F08303A901F00CFE03AB03CB1B88F2
:1050E000206123839DF811306161002B47D0B71CEC
:1050F00002AA01A903A801F0C4FC9DF81350002DD9
:105100004ED0029B2BB17A7817F8023B03EB0223B7
:105110009BB2022DA38336D13D462046324901F091
:10512000A5FC7B78237015F8023B63709DF8159001
:10513000B9F1000F4ED0019B002B38D02F466A7872
:1051400017F8023B03EB0223029A9BB2E38302B9F6
:10515000A383B9F1020F2ED13D46234904F1080083
:1051600001F084FC7B78237215F8023B6372A81B64
:10517000A8EB00038045C4E90E53A7DBA7E7B3788B
:10518000F71CA376B4E7032D0FD107F108052B46D2
:10519000621E13F8011D9F4202F8011FF9D1C5E7F5
:1051A0002046114901F062FCA5833D46BEE7A38B72
:1051B0002F46E383CDE7B9F1030F13D107F10805BB
:1051C0002B4604F1080213F8011DBB4202F8011B33
:1051D000F9D1CCE7044904F1080001F047FCA4F838
:1051E0001E90C4E73D46C2E7F06F200030B591B095
:1051F0000546FFF75DFF4FF6FF73984204D14FF06D
:10520000FF34204611B030BD40220021684601F035
:105210007FF8404B1A782AB901221A70FFF776FB03
:105220003D4B18701420FFF7A9FE8DF810001320D5
:10523000FFF7A4FE8DF81200FFF7BAFE044600281F
:1052400048D000238DF813308DF815300023012449
:105250008DF814308DF818404DB10A20FFF78EFEFE
:1052600000283FD00A20FFF789FE8DF81A0002249B
:105270008DF81940FFF71CFFADF81C00FFF798FEF2
:1052800000283CD04FF6FF738DF81740ADF8003082
:10529000FFF70EFFADF81E001A20FFF781FE014652
:1052A00002A801F0E3FBFFF7A1FD0E90FFF768FDF8
:1052B0000F90684601F08FFC0446002DA1D0FFF747
:1052C000C7FD00289BD0FFF757FD0146684601F057
:1052D000CAFC96E70B20FFF751FE8DF815408DF8BC
:1052E0001300B3E70C4B1A7802B91C7019780A2026
:1052F0004A1C1A708DF81A10FFF738FEB7E71B200A
:10530000FFF74EFE0146684601F0B0FB8DF81740EE
:10531000BEE700BFE80D0020E90D0020014BDB686F
:10532000184700BFD86F2000014B5B69184700BFCA
:10533000AC6F2000014B9B69184700BFAC6F200089
:10534000024BD86900B10047704700BFAC6F200026
:1053500070B590F829400F4B042C214628BF04213A
:105360000124DB698C4005469847012838BF01209D
:10537000013C444305D0FFF7C9FAB0FBF4F303FB4B
:1053800014042B46214605F10800034ABDE870408D
:10539000FEF782BFAC6F20000D5520002DE9F041D3
:1053A00006461B200F46FFF7FBFD494B05461A78C2
:1053B000484C22B901221A70FFF7A8FA20802388EE
:1053C0000BB90123238021880A204B1C2380FFF77F
:1053D000CDFD414801F0D6F80446002847D13F48AA
:1053E00001F01BF90446002868D02946201D01F071
:1053F0003DFB002304F12C00C4E90B30238501F0B0
:10540000BEF82146344801F0DAF8206B01F0EBF8E1
:10541000072853DC324801F000F90546002841D046
:10542000304801F0FAF8A860C0B3FFF73BFC6860B1
:1054300080B30920D5F80880FFF7A0FD08BB08233A
:1054400088F808300D20C8E90067FFF797FD0128AC
:105450002946206B1BD101F0BFF8206B01F092F8B8
:10546000854233D12046BDE8F041FFF771BF2946A0
:10547000201D01F0FEFA0028C7D1204601F0BAF83D
:10548000AAE70920FFF77AFD88F80800DAE701F0BB
:1054900096F8E2E7A968134801F0D3F829461048C6
:1054A00001F0CFF8206B01F09EF838B921460A4888
:1054B00001F072F82146094801F0C3F83946304638
:1054C000BDE8F0410123042201F033BCBDE8F081C6
:1054D000EA0D0020C40C0020CC050020CC000020E8
:1054E000D8000020C000002008B5054801F085F86C
:1054F000044801F082F8BDE80840034801F07DB897
:10550000D8000020C0000020CC00002013B50446C5
:1055100068B1006B01F036F8024640B12146054BF8
:105520000548DB68019302B0BDE81040184702B09F
:1055300010BD00BFAC6F2000B95520002DE9F04729
:105540000D4614468B680646D3E90078106B92F836
:10555000289001F021F86868FFF7C6FBA968124897
:1055600001F06FF82946114801F06BF8206B01F04B
:1055700009F860B1002320462385FFF7E9FE4B467A
:10558000324641463846BDE8F04701F0D2BB04F14F
:105590000800FEF78BFE2146054800F0FDFF21467E
:1055A000044801F04EF8EAE7C0000020D8000020CF
:1055B000CC050020CC0000202DE9F0410E46174616
:1055C000044620B1006B00F0DDFF054608B9BDE8D8
:1055D000F0810A21686801F043FA80460A20FFF74B
:1055E000CDFC804546D0284601F004F8EDE794F85C
:1055F000282000203A4484F828202946224684F8AE
:105600002900BDE8F041FFF799BF002384F8293055
:1056100094F82830DA19D2B284F828200B7A934211
:105620001CD8224629460220EBE794F82930DA19E3
:10563000D2B2052A84F8292007D9002294F828300C
:1056400084F82920013384F8283094F828200B7A34
:105650009A4203D3224629460120D2E72046FFF78B
:1056600077FE6868BDE8F04101F0E6B922462946B8
:105670003046C6E7A9680029A9D0032EF6D801A3B1
:1056800053F826F0EF5520002B5620000B56200033
:10569000CF55200013B50024094B1C70094B1C800A
:1056A000FDF7CCF8012200F58051074B0094074824
:1056B000FEF7FCFF0122064B1A7002B010BD00BFBE
:1056C000020E0020C60C0020A95B2000BC060020B2
:1056D000FD0D0020074B82B01B784BB1064B1A78AA
:1056E00032B901221A70054B1B6A019302B01847A8
:1056F00002B07047FD0D0020020E0020946E2000C5
:10570000094B82B01B786BB1084B1A7852B1084A2A
:10571000127802F0FF012AB91970064B5B6A0193F7
:1057200002B0184702B07047FD0D0020020E0020A5
:10573000FE0D0020946E200008B5FFF7E1FF002267
:10574000014B1A6008BD00BFCC060020044B1B783B
:1057500023B9044B1B680BB9FFF7D2BF704700BFDA
:10576000040E0020CC0600200022094B82B01A70E3
:10577000084BC2B21A70084A084B28B101211B6AB3
:105780001170019302B018475B6A1070F9E700BF0F
:10579000FD0D0020FE0D0020020E0020946E200062
:1057A00037B50B4B1A7802F0FF056AB901241C705B
:1057B000084B1D70FDF742F8224600F58051064B5C
:1057C00006480095FEF772FF012003B030BD00BF10
:1057D000FD0D0020FE0D0020A95B2000BC0600206E
:1057E00037B50B4B05461B780C4673B1FDF726F811
:1057F000231A022B4FF0000348BF841C00930122A0
:1058000021462846034BFEF751FF03B030BD00BFD1
:10581000FD0D0020A95B200013B5224C22680AB9B7
:10582000FFF76EFFFFF7ACFA032823D0FFF706FB64
:1058300000B31D4B9B68984700281BDBFFF7A0FABD
:10584000C0B1FFF7FBFAA8B11B20FFF7A9FB17496E
:1058500001F00FF950B11320FFF790FB206058B909
:10586000FFF74EFF1248FEF721FD0DE0FFF7A0FB0A
:105870000028F0D102B010BDFFF72CFF0023042157
:105880000C4A0B48FEF708FDFFF7B6FB0028F1D1E4
:10589000FFF7DAFB084BDB68019302B0BDE810406C
:1058A000184700BFCC060020CC6F2000420E00201D
:1058B0009806002039572000906F20002DE9F04F06
:1058C000784E8BB0337805903BB9774B1B7823B972
:1058D000052420460BB0BDE8F08FFFF7AFFA002893
:1058E000F6D072491A20FFF74FFBFFF761FB07461E
:1058F0000C20FFF743FBB8B1FFF7A0FA80464FF04A
:1059000001096B4D6C68FFF737FA4146A047694CB7
:10591000AB6984F8009002939847019470B100231A
:10592000019A13700124D4E701210B20FFF71EFB1D
:10593000614B5B6898470028DEDAC9E7EB6903939F
:10594000984704460028EAD1FFF7DAFE337886F854
:105950000090DBB20493059B83BB4FF006096FF008
:10596000030A6FF00F0BFCF769FF0690FFF7B2FE1A
:105970000698AAEB00030693FCF760FF069BC34260
:10598000F9D46B69984750B90290FFF7B9FEDDE989
:1059900001301870FFF7B4FE049B3370C2E7FFF7C5
:1059A000AFFEFCF74BFFABEB00030693FCF746FFA3
:1059B000069BC342F9D4B9F10109D4D10FB9FFF75D
:1059C00089FE0A20FFF7DAFAC3B20693FDF7BAF8A8
:1059D000FCF734FF8146DFF8E4B0ABEB000BDFF8F7
:1059E000E0A0AAEB090AFCF729FF1AEB000F4AD541
:1059F000FDF7A8F8002F3ED0AB6840469847FCF76B
:105A00001DFF6FF00C031B1A0793FCF717FF079B92
:105A1000C342F9D4002FE6D1029B9847002836D024
:105A2000FCF70CFF6FF01408A8EB0008FCF706FF6A
:105A300018EB000FFAD403212B6909A89847032813
:105A40002ED19DF82630069A934229D100254FF099
:105A50000108FFF755FE049B019A33700023137071
:105A6000002D7FF45FAF002F7FF433AF984514BF54
:105A70001C4602242DE7059B002BBDD0FCF7DEFE63
:105A80001BEB000FB8D400254FF00008E1E7039BA3
:105A900098470028C4D16B69984700289FD1BFE779
:105AA0000125F1E7FD0D0020FE0D0020420E002033
:105AB000946E2000040E0020CC6F2000DEFDFFFF5E
:105AC000B0EFFFFF2DE9F14F06460F461446002ABE
:105AD00061D0324BD3F80090B9F1000F0BD0506871
:105AE000FFF718F901231A463946304601B0BDE8E0
:105AF000F04F01F01EB91546DFF8A4A0DFF8A4B0FE
:105B0000284600F077FDA8460546D8F80400FFF7C0
:105B100001F90C20FFF732FAE0B91DB10121132081
:105B2000FFF724FA51461A20FFF72EFA01210B2025
:105B3000FFF71CFADBF804309847002802DA01234B
:105B40000522D1E701210C20FFF710FAD8F8040054
:105B500000F078FF002DD3D1204600F04BFD254604
:105B600004466868FFF7D6F81320FFF707FA804667
:105B70004846FFF7A3FE032805460CD00246012342
:105B80003946304601F0D5F82DB924B14FF001095E
:105B9000B8F1000FE0D101B0BDE8F08FCC060020D5
:105BA000420E0020CC6F200040F2E3122DE9F347B3
:105BB0006F4C0546238893423AD0B3F5F27F08D262
:105BC000002B00F08A8040F2B11293420BD00023E8
:105BD00093E040F202229342F9D10023654A137008
:105BE000654A137007E0644A13780133DBB2012B76
:105BF000137000F28680614B1A78002A74D1604AD3
:105C00001268002A70D11B780BB9FFF763FD5D4B5A
:105C10005B699847002865D10122564B1A70FCF742
:105C20000DFE594B594A186000231370584A1370DF
:105C3000524B584F1B7803F0FF06002B7FD13B7867
:105C4000002B7CD0FCF7FAFD6FF4CC724E4B1B6836
:105C5000C01A1044002872DADFF82881DFF82C918E
:105C6000D8F81430984718B199F800600136F6B2A8
:105C700089F80060464ED8F818A0337801333370A5
:105C8000D047002855D0002389F800303378D8F861
:105C90001C800A2B04D9D04710B9C04700284CD02B
:105CA000C04700284BD13C4B1B789BB12E68FCF7BA
:105CB000C5FD331A13F1120F4FF0000348BF811CCA
:105CC00000934FF001022846344B58BF06F11401EF
:105CD000FEF7ECFC40F2E3130FE0FCF7AFFD304BB6
:105CE00018607AE7FFF732FDFCF7A8FD00F110011C
:105CF0002846FFF775FD40F2B113238002B0BDE8DE
:105D0000F0871C4B1B78002B89D1254E336803F597
:105D100080533360FCF792FD3368C3F1A003C342A4
:105D20007FF55BAF28463168FFF75AFD40F202234A
:105D3000E3E799F80030052BA8D9FFF707FD3B787A
:105D4000002BE2D00F4EB369984760B1FCF776FDA7
:105D50000D4B1B68C01A6FF4CC7318440028D4DBB9
:105D6000FFF7F4FCD1E7F36998470028EED1F7E795
:105D7000C60C0020000E0020FF0D0020040E0020A5
:105D8000CC060020946E2000C8060020030E0020E0
:105D9000010E0020020E0020FD0D0020A95B200056
:105DA000B806002008B5024B1B689847023008BDB2
:105DB000846F200038B50C4B9B689847041E02DAAC
:105DC0004FF0FF3038BDFFF711F803780546002B80
:105DD000F6D10220FEF7B6FF0028F1D06878FEF772
:105DE000C5FFA01CEEE700BF846F200070B5022045
:105DF000FFF72EF810B94FF0FF3070BDFEF7BCFF73
:105E0000002606700446FEF7BBFF6070FFF716F829
:105E10000446FFF7C7FF20442A2812DCC0F12B00FC
:105E2000C4B2FEF7E3FF0546FEF7AAFF224631465D
:105E3000284400F06DFAFEF7A3FF204480B2FEF77D
:105E400095FF044B5B689847041ED4DBFEF7AAFF5E
:105E5000A01CD2E7846F2000014B9B68184700BF4D
:105E6000686F200070B504460D4614200121FFF72D
:105E70007DF8034B29462046BDE870409B681847D3
:105E8000906F200070B5038804462BB1422B13D0CD
:105E900000230380032012E0094800F0F2FA0948C9
:105EA00000F0EFFA0525084E294630460135FDF78A
:105EB000A3FDB5F53F6FF7D142230120238070BDCC
:105EC0000C722000287220003472200053B94AB9A5
:105ED000002908BF00281CBF4FF0FF314FF0FF30F2
:105EE00000F06EB9ADF1080C6DE904CE00F006F8D3
:105EF000DDF804E0DDE9022304B070472DE9F04746
:105F0000089E0D4604468E46002B40F083808A4250
:105F1000174647D9B2FA82F34BB1C3F1200105FA13
:105F200003FE20FA01F19F4041EA0E0E9C404FEA29
:105F30001748BEFBF8FC1FFA87F908FB1CE20CFBB4
:105F400009F0210C41EA024290420AD9BA180CF138
:105F5000FF3180F01881904240F21581ACF1020CC3
:105F60003A44121AB2FBF8F008FB102200FB09F1C8
:105F7000A4B244EA0244A14209D93C1900F1FF321B
:105F800080F00381A14240F2008102383C44641A4F
:105F9000002140EA0C401EB10022DC40C6E900426C
:105FA000BDE8F08702B9FFDEB2FA82F3002B4FD1D1
:105FB0008D1A01214FEA124E1FFA82F8B5FBFEFC42
:105FC0000EFB1C5508FB0CF0220C42EA0545A842CA
:105FD00007D97D190CF1FF3202D2A84200F2E98004
:105FE00094462D1AB5FBFEF00EFB105508FB00F889
:105FF000A4B244EA0544A04507D93C1900F1FF3298
:1060000002D2A04500F2D9801046A4EB080440EA71
:106010000C40C0E78B4208D9002E00F0B18000216F
:10602000C6E900050846BDE8F087B3FA83F1002908
:106030004BD1AB4202D3824200F2B980841A65EBA5
:10604000030301209E46002EAAD0C6E9004EA7E712
:106050009F40C3F12002D1404FEA174EB1FBFEF042
:106060001FFA87F80EFB101124FA02F29D4000FB84
:1060700008FC2A43150C45EA0145AC4504FA03F433
:1060800009D97D1900F1FF3180F08F80AC4540F2D5
:106090008C8002383D44A5EB0C05B5FBFEF10EFBF0
:1060A000115C01FB08F995B245EA0C45A94507D9F1
:1060B0007D1901F1FF3274D2A94572D902393D44EC
:1060C000A5EB090541EA004178E7C1F120078B40C3
:1060D00022FA07FC4CEA030C25FA07F44FEA1C4E9F
:1060E000B4FBFEF91FFA8CF80EFB194420FA07F3F3
:1060F00009FB08FA8D401D432B0C43EA0444A245DA
:1061000002FA01F200FA01F309D91CEB040409F1C7
:10611000FF3048D2A24546D9A9F102096444A4EB54
:106120000A04B4FBFEF00EFB104400FB08FAADB20B
:1061300045EA0444A24508D91CEB040400F1FF35EC
:106140002DD2A2452BD90238644440EA0940A0FB75
:106150000289A4EB0A044C45C6464D4619D316D015
:106160005EB1B3EB0E0264EB050404FA07F722FA02
:1061700001F31F43CC40C6E900740021BDE8F0875D
:10618000314630460CE78C46EBE61046FFE64345C9
:10619000E6D2B8EB020E69EB0C050138E0E72846C1
:1061A000D3E711468CE78146B9E7084673E708460E
:1061B00049E7ACF1020C3D4413E702383C4424E7C4
:1061C000704700BF032A70B412D940EA0105AD0739
:1061D00004460B4620D11946204653F8045B54F878
:1061E000046BAE4218D1043A032A20461946F2D86D
:1061F000541E72B103780A789A4208BF241806D058
:106200000CE010F8013F11F8012F934206D1A04293
:10621000F7D1002070BC7047541EEBE7981A70BC91
:10622000704700BF844641EA000313F0030349D1DD
:10623000403A23D30B6803604B6843608B688360EC
:10624000CB68C3600B6903614B6943618B698361F0
:10625000CB69C3610B6A03624B6A43628B6A8362D8
:10626000CB6AC3620B6B03634B6B43638B6B8363C0
:10627000CB6BC36340304031403ADBD230320BD37A
:106280000B6803604B6843608B688360CB68C360B6
:1062900010301031103AF3D20C3205D351F8043BD0
:1062A00040F8043B043AF9D2043208D0D2071CBFAC
:1062B00011F8013B00F8013B01D30B8803806046D5
:1062C000704700BF082A13D38B07B1D010F0030327
:1062D000AED0C3F10403D21ADB071CBF11F8013B97
:1062E00000F8013BA4D331F8023B20F8023B9FE7C2
:1062F000043AD9D3013A11F8013B00F8013BF9D235
:106300000B7803704B7843708B78837060467047CE
:10631000F0B4860746D0541E002A3CD0CAB20346C9
:1063200002E014F1FF3436D303F8012B9D07F8D1B6
:10633000032C29D9CDB245EA05250F2C45EA0545A0
:1063400033D9A4F11006360903F1200707EB06172D
:1063500003F1100242E9045542E902551032BA42F3
:10636000F8D1721C14F00C0F03EB021204F00F06AC
:1063700013D0331F23F003030433134442F8045BA8
:106380009342FBD106F003042CB1C9B21C4403F8BC
:10639000011B9C42FBD1F0BC704734461346002CD5
:1063A000F3D1F8E714460346C2E71A462646E0E76B
:1063B000FEE708B5FBF76AFFF7B500240646254659
:1063C00027463046FCF750F80197019BAB4215DB9E
:1063D0003046FCF751F8C5F5C8750197019B9D4201
:1063E00011DC0134B4F5487F01D103B0F0BDB4F540
:1063F000C87FD4BF2546C4F54875E2E700BF019BBE
:1064000001330193E1E700BF019B01330193E5E70D
:10641000FCF7EAB8FCF794B970470020FCF774BAAF
:106420000120FCF771BA0020FCF720BC0120FCF72A
:106430001DBC0220FCF71ABC0320FCF717BC10B5EA
:106440000C46FCF7F5FE2046BDE81040FCF722BFE5
:1064500010B50446C1B20020FCF75AFB204610BD1F
:1064600070B50E460025441E631C02D014F8010FBF
:1064700008B9284670BDB542FBD0FFF7E9FF0135EA
:10648000F2E738B505460024285D20B90A20FFF759
:10649000DFFF204638BDFFF7DBFF0134F4E70020C3
:1064A00070470120704710B50446302200210E20AD
:1064B000FCF72CFC6CB1012C0CD142F210730011D2
:1064C000A0F28E5058432A2390FBF3F000F5C3400E
:1064D000283010BD4FF00040FBE70020704701203E
:1064E000704710B50446302200210F20FCF70EFC47
:1064F0005CB1012C03BF40F6F253584347F6F073EA
:106500004FF0004008BF90FBF3F010BD084608B5FF
:1065100011460AB1FFF7A4FF002008BD10B5041F03
:1065200054F8040F00B910BD0021FEF79BF8F7E7FF
:10653000704710B5044600F00DF82046BDE8104045
:10654000FDF746BF837BDB0701D5FDF783BF7047AF
:10655000FFF762BF10B541600446FCF741F92060C7
:1065600010BD10B50446FCF73BF92368C3F10103E5
:106570000344606898422CBF0020012010BD002316
:106580000360704700687047006820B103460068E8
:106590000028FBD118467047036810B53BB10024B2
:1065A00099421A6806D11CB9026000221A6010BD17
:1065B0002260FAE71C46002AF9D01346F0E738B506
:1065C0000546FFF7E9FF00230B60FFF7DDFF08B981
:1065D000296038BD0160FCE738B5FFF7DDFF0368CF
:1065E0000B60016038BD0368002003B970471B6869
:1065F0000130FAE700B10068704710B504464288E0
:1066000000214068FFF784FE23886288A06800218B
:10661000BDE810405A43FFF77BBE002310B5418808
:10662000994201DC002009E04268D418D25C32B9FA
:10663000012222700288806803FB020010BD013332
:10664000EEE7002330B5826844889C4201DCFF20DD
:1066500008E08A4207D14168CA5C0AB1013ACA54CB
:106660004268D05C30BD058801332A44EDE782687A
:106670008A4208D84388008800FB032081422CBF4F
:10668000002001207047002070470023013A01607C
:10669000027143718371704710B54279837904792F
:1066A000D31A34EA030308D0036899544379027972
:1066B000013313404371012010BD0020FCE78379B2
:1066C00042790179D21A0A421FBF0268D25C0133B3
:1066D0000B401ABF837110464FF0FF307047831C88
:1066E000002013F8022C023302B9704713F8032C70
:1066F0001044F6E7072B2DE9F84306460F461546EA
:106700001C4607DC1A4629463846FEF74DF930701C
:10671000BDE8F8834FEAE3087AB97B5D735501352C
:10672000A845FADC14F00702F2D0002107EB0800BC
:10673000FEF73AF906F80800EAE74FF0000907EB20
:10674000090008222946FEF72FF906F8090009F189
:106750000109C845F3DC14F00702D9D02946E5E762
:106760002DE9F743FEF742FB04460220FEF7EAFA62
:1067700020B90025284603B0BDE8F083637820786F
:1067800000EB032080B2FEF73BFA05460028F0D06C
:10679000FEF72CFB0746287B10F0070318BF0123E8
:1067A00003EBD000FEF7CEFA0028E2D00026B14677
:1067B000AC68023414F8023C002BDBD0192B14F81F
:1067C000018C07EBE60106F007020BD901A843464E
:1067D000FFF790FF14F8020C01A9FEF7D5FB464421
:1067E0000234E7E7434601A8ADF80490FFF782FFC3
:1067F0009DF805109DF8043014F8020C43EA0121BD
:10680000FEF7B4FBEBE7072B2DE9F0410FDC147822
:10681000C1F11001CB1A04FA03F30178C3F3072284
:106820000A43417802700B434370BDE8F081DC10ED
:10683000C9B9555C45540131A142FADB13F0070395
:10684000F3D0125DC3F108052A41C3F11003055DC1
:1068500002FA03F3C3F307222A43011902554A78C7
:1068600013434B70E1E705460026C1F1080E975D22
:1068700095F800C007FA0EF7C7F307284CEA080C92
:1068800005F801CB95F800C001364CEA0707A6428F
:106890002F70ECDB13F00703C7D0125DC3F10806BD
:1068A00031440A41D2B2C3F11003015D02FA03F38D
:1068B000C3F307220A43051902556A7813436B7024
:1068C000B3E72DE9F743057B044615F0070218BF2F
:1068D000012202EBD505A81CFEF7BAFAA8B1FEF713
:1068E0004BFAA3880370A3881B0A4370FEF744FA8F
:1068F0002A460025861C00213046FFF709FDA468C2
:10690000023414F8020C18B9012003B0BDE8F0837A
:10691000192814F8017C06EBE50805F007090AD9E7
:10692000FEF73EFB3B46024649464046FFF76BFFFB
:106930003D440234E5E7FEF721FB3B46ADF8040099
:1069400001AAF1E710B5FEF79FF9FEF7C1FAFEF7CD
:1069500019F900F048F8BDE810404FF4E1234FF476
:10696000F0524FF400710220FEF7D4B87047F8B52A
:106970000E46FEF73BFA07880446FEF701FABB0015
:106980000233834203D800250234AF4200DCF8BD55
:1069900054F8041B30460A0C89B2FEF705F901359C
:1069A000F3E743695B6803B11847704713B50446C2
:1069B0001A20FEF7F5FA014601A800F057F86369BE
:1069C0001B6813B1204601A9984702B010BD38B525
:1069D0000D46FEF715F9044620B185602846FEF7FE
:1069E0003DF9207338BDFEF7FDB8FEF723B8036903
:1069F0001B6803B11847704703695B6803B1184708
:106A000070470EF00F000D2808BF00F00EB8009878
:106A10002DE9F04F00F1240181F3098890E8F08F0F
:106A20000EF00F000D2818BF7047EFF3098020E922
:106A3000F04F0990BDE8F08F006800F1B601823098
:106A4000FEF76CBA10B5046804F1B60104F18200D7
:106A5000FEF764FA2046FEF7D1F9A4F8800010BDD5
:106A6000036803EB4103B3F8820070470B8803808F
:106A70007047022208B5FFF7A5FBB0FA80F0400985
:106A800008BD30B530B3037A022B2CD1C579437AD7
:106A900004792DB9002B4AD1012C48D1204615E0AC
:106AA00053EA04001DD0032D2FD1032B2FD1B4FAAC
:106AB00084F04009002309E0181E18BF0120002CB3
:106AC000F8D1023B012B8CBF0023012301B10B60E5
:106AD00002B1106030BD023B012B8CBF00230123AB
:106AE000DCE701201BE00378022B22D0037953B9A5
:106AF000437A13F0030318BF0123C07910F0030099
:106B000018BF0120E2E70023F7E7022DD4D0A3F15C
:106B1000020CDCF1000040EB0C00002CCAD1022D6D
:106B2000CFD0032DC6D19C1E63426341CEE7002C1B
:106B3000D1D000200346C9E7002337B50B608B8016
:106B4000437D0D46D9075CBF01232B70037E0446AD
:106B5000012B0BD8C37D9A072CD0437E9B0729D0ED
:106B6000C28B838B9A4225D101232375694601AAE2
:106B700004F11000FFF785FF009B0BB10223EB70BF
:106B8000019B0BB102236B70E37D03F00303022B27
:106B900003D0032B14BF00230823AB70637E03F0E4
:106BA0000303022B03D0032B14BF002308232B71F4
:106BB00003B030BD0023D8E702280CBF022308230E
:106BC0000B448B4201D10120704713F8012DFF2A9D
:106BD000F7D00020704707B56946FFF7ADFF9DF875
:106BE00000309DF80100023303449DF80200034485
:106BF0009DF8030003449DF8040003449DF805003C
:106C0000184403B05DF804FB43788278DB0012017E
:106C100002F0100203F008031343027802F00702A7
:106C20001343C278520102F0200213430279920109
:106C300002F0400213430B704379427A03F00103E0
:106C400043EA82138279520002F002021343C279AE
:106C5000920002F00C021343027A120102F0300299
:106C600013434B70704737B504460D466946FFF72E
:106C700063FF294604F11000FFF7C6FF9DF80030BE
:106C80009DF80120012B09BFA37E0223AB700323D3
:106C9000022A08D1A18B5A1CE954A18BD2B202332B
:106CA000090ADBB2A9549DF802201344DBB2991AF9
:106CB000C9B2B2B99DF80320022A08D1E18B5A1C4F
:106CC000E954E18BD2B20233090ADBB2A9549DF830
:106CD000042008341344D8B2831ADBB22AB903B0B3
:106CE00030BD013AA05C6854E1E7013AA15CE95487
:106CF000F2E70278437802F007000870C2F3C000A0
:106D00004870C2F300108870C2F34010C2F38012C2
:106D10000A7103F001024A71C3F340028A71C3F39E
:106D20008102CA71C3F301129B09C8700A724B72C7
:106D3000704710B40446084611461A4614B123465B
:106D400010BC184710BC704730B591B0FEF74EF834
:106D50000446FEF715F86A4601462046FEF7AEF9EE
:106D6000044620B94FF0FF34204611B030BDFDF786
:106D7000E9FF0028F6D014209DF81010FEF7F6F871
:106D80009DF81730ABB1BDF81C50FEF791F9854264
:106D900005D04FF6FF73BDF81C209A42E2D1694638
:106DA0009DF81700FFF708FF18B969461B20FEF78A
:106DB000EBF802A91A20FEF7E7F813209DF812104D
:106DC000FEF7D4F89DF8153053B99DF81A100A2033
:106DD000FEF7CCF89DF81A100E20FEF7C7F8C3E7AF
:106DE0004FF6FF71F3E70120FEF700BA0020FEF72F
:106DF000FDB91020704770B5044600200D46FEF71F
:106E00005DFD0328024606D029462046BDE87040B5
:106E10000123FFF78EBF70BD70470000687020002F
:106E20008D242000E9242000000000000100000063
:106E3000010000000100000000C0004000410D40C2
:106E400000000000080000002C000000000000010D
:106E5000FFFFFFFF0500000002000000020000002D
:106E60000200000000D0004008410D400200000078
:106E7000080000002C00000002010200FFFFFFFFDD
:106E80000600000003712000077120001671200029
:106E90001A71200041342000313220009532200048
:106EA0003F6420006133200005312000712E200056
:106EB000892E2000312F2000312E2000A52F200008
:106EC000413120009D3520003133200007000000B3
:106ED000FF00000005000000ED00000003000000BE
:106EE000D500000001000000C50000000000000007
:106EF000B6000000FFFFFFFFB0000000FDFFFFFF36
:106F0000A1000000FBFFFFFF91000000F9FFFFFF61
:106F100088000000F7FFFFFF72000000F5FFFFFF91
:106F200062000000F3FFFFFF58000000F1FFFFFFC9
:106F300042000000E8FFFFFF000000004171200058
:106F4000A76420009F642000A364200055712000E6
:106F5000E3642000DB642000DF6420006167200020
:106F6000C3682000DF662000E97120004569200029
:106F7000014A20006F6920006D692000AD69200082
:106F8000A3692000ED6D2000E76D2000496D200011
:106F9000F4712000E95420009D5320001D5320006F
:106FA000295320003553200041532000F97120005F
:106FB00095562000F76D2000C55A20001958200072
:106FC000A157200069572000F36D2000A55D200027
:106FD000ED5D2000B55D200004722000196E2000D8
:106FE000655E2000595E2000E400002000000000E3
:106FF0000000436F6E74696B692D386438633237F3
:10700000333135005A6F6C65727469612052452DB9
:107010004D6F7465207265766973696F6E204220CA
:10702000706C6174666F726D0052696D6520636F7C
:107030006E6669677572656420776974682061643B
:1070400064726573732000253032783A002530323F
:10705000780A00204E65743A2000204D41433A20C2
:1070600000205244433A2000427574746F6E00430E
:1070700043323533383A2049443A20307825303489
:107080006C782C207265762E3A20504725642E2588
:10709000642C20466C6173683A20256C75204B691E
:1070A000422C205352414D3A20256C75204B6942A9
:1070B0002C204145532F5348413A2025752C20451B
:1070C00043432F5253413A2025750A53797374650F
:1070D0006D20636C6F636B3A20256C7520487A0ACB
:1070E000492F4F20636C6F636B3A20256C752048E5
:1070F0007A0A52657365742063617573653A202559
:10710000730A00504F520045787465726E616C20AE
:1071100072657365740057445400434C44206F7289
:1071200020736F6674776172652072657365740091
:107130006363323533382052462064726976657253
:10714000004F6E2D436869702054656D70657261E3
:10715000747572650056444433003031323334352F
:1071600036373839414243444546003031323334B2
:1071700035363738396162636465660030580030EF
:1071800078002D002B00286E756C6C2900250020DE
:1071900020202020202020202020202020202030DF
:1071A00030303030303030303030303030303043CC
:1071B00074696D65722070726F63657373004576D4
:1071C000656E742074696D65720053657269616CD7
:1071D000206472697665720053656E736F72730016
:1071E0000080C0E0F0F8FCFEFF52696D65001A10E7
:1071F0000000000043534D4100436F6E74696B699A
:107200004D4143006E756C6C736563000A506C6190
:1072100074666F726D205A6F6C657274696120526A
:10722000452D4D6F74650D0048656C6C6F20776F50
:10723000726C640025640A004C6573736F6E2031B4
:0C7240003A20446562756767696E67005C
:10724C004C6F20001C6E20003C6F200000000000E2
:10725C0000000000307120000D35200000000000FF
:10726C000D6520000000000000000000AF71200040
:10727C00B14120000000000000000000BE712000A1
:10728C00254320000000000000000000CA7120000F
:10729C00F94620000000000000000000D87120001A
:1072AC00FD4720000000000004000800D70D00205E
:1072BC000C040020BE000800DF0D0020D0060020CA
:1072CC000C000800EB0D00206C05002034000200BF
:1072DC00F30D0020D00500200C000800F50D002057
:1072EC00380600200000000038722000855E200067
:0872FC0000000000CDAB1A01F7
:08730400F8EBFF7F010000001F
:020000040027D3
:10FFD400FFFFFFF30000000000202000FFFFFFFFF1
:10FFE400FFFFFFFFFFFFFFFFFFFFFFFFFFFFFFFF1D
:0CFFF400FFFFFFFFFFFFFFFFFFFFFFFF0D
:040000050027FFD4FD
:00000001FF
