:020000040020DA
:10200000F81800203D232000FF7C2000FD7C2000EC
:10201000FD7C2000FD7C2000FD7C200000000000F5
:102020000000000000000000000000008583200088
:10203000FD7C200000000000A3832000657D2000BF
:10204000777D20007D7D2000837D2000897D20001C
:10205000000000006B7D2000717D2000FD7C2000D1
:10206000FD7C2000000000000000000000000000D7
:102070000000000000000000FD7C200000000000C7
:102080000000000000000000FD7C2000FD7C20001E
:10209000FD7C2000FD7C2000FD7C2000FD7C2000DC
:1020A000FD7C2000FD7C2000FD7C2000FD7C2000CC
:1020B000FD7C2000FD7C2000FD7C2000FD7C2000BC
:1020C000FD7C2000FD7C2000FD7C2000FD7C2000AC
:1020D000FD7C200000000000000000000000000067
:1020E00000000000000000000000000000000000F0
:1020F000000000000000000069392000793920004C
:1021000000000000000000000000000000000000CF
:1021100000000000000000000000000000000000BF
:1021200000000000000000000000000000000000AF
:10213000000000000000000000000000000000009F
:10214000000000000000000000000000000000008F
:10215000000000000000000000000000000000007F
:10216000000000000000000000000000000000006F
:10217000000000000000000000000000000000005F
:10218000000000000000000000000000000000004F
:10219000000000000000000000000000000000003F
:1021A000000000000000000000000000000000002F
:1021B000000000000000000000000000000000001F
:1021C000000000000000000000000000000000000F
:1021D00000000000000000000000000000000000FF
:1021E00000000000000000000000000000000000EF
:1021F00000000000000000000000000000000000DF
:1022000000000000000000000000000000000000CE
:1022100000000000000000000000000000000000BE
:1022200000000000000000000000000000000000AE
:10223000000000000000000000000000000000009E
:10224000000000000000000000000000000000008E
:10225000000000000000000000000000000000007E
:10226000000000000000000000000000000000006E
:10227000FD7C20004D382000713820000D2F2000FB
:10228000DD3A2000292A2000FD7C2000000000000B
:10229000F8B5044634F8025901462346002200F1FD
:1022A0004E0733F8026FB542B8BF354632449F42FD
:1022B00092B2F6D12823B2FBF3F36FF0040293FB42
:1022C000F2F301222B4430F8025B9D4202DC0588C8
:1022D0009D4210DC0132282AF5D10022501C34F82E
:1022E00010509D4203DC31F810509D4207DC013054
:1022F0002828F4D101E0272AF0D1002014E0002A98
:10230000FBD088B18242F8D0801A04F057FE08A3AF
:10231000D3E9002304F0BCFE02460B460020064928
:1023200004F0E0FF05F0C6F8F8BD00BFAFF3008091
:102330009A9999999999A93F00004E40FF22482403
:1023400008B5084B08481A60084AE3690849121A98
:1023500098470848084A0021A369121A984700F0D4
:102360000DF8FEE7B4200D4040000020940100204D
:102370005C93200098010020F110002073B500F05C
:10238000A1FC00F059FD00F0B7FC00F0BBFA01F031
:1023900093FB05F08AFD00F047FD00F0B3F8012043
:1023A00005F0B0FC02F09AF900F078FC002000F093
:1023B00093FB012000F090FB0020404900F058FC06
:1023C00002F0D2FA62B6042005F09CFC3C4805F00D
:1023D00000FD3C4805F0FDFC00F032FA002002F060
:1023E0006FFB01F059FA0021374802F003FA01F0BF
:1023F000E5FF05F0B5FC00F0ADFD00F0C9FD02F011
:10240000D5FE0821684601F07DFB9DF806309DF859
:1024100007502E4C45EA0325BDF806302C48238092
:1024200001F0B2FB2B4E21782B4801F0ADFB617817
:102430002A4801F0A9FBF46A4AF6CD310220A047F0
:1024400029460320A0471A210120A04708226946F7
:10245000736B0B209847224801F096FB214B1868BC
:1024600005F0B7FC204801F08FFB204B186805F001
:10247000B0FC1F4801F088FB1E4B186805F0A9FC52
:1024800000211D4802F0B6F91C4B01219B688120F8
:10249000984705F0F5FC1A4805F0E8FC00F004FC4C
:1024A000022005F02FFC00F005FC02F02FF910F0DF
:1024B000FF0FF8D101F094FAF5E700BF21492000A1
:1024C0000A8A20001C8A200078000020E8100020E2
:1024D000418A2000748820005F8A2000658A2000DD
:1024E0006B8A200048892000728A200078892000A9
:1024F000798A20009489200098000020FC87200021
:10250000D089200008B500F03FF90022014B1A7075
:1025100008BD00BFEC0E0020024B1A781043187063
:1025200000F056B9EC0E0020034A137823EA0000AD
:10253000107000F04DB900BFEC0E002008B50B4B39
:102540001B7803420FD020280BD004280BD1022087
:10255000074B80211A7800F099FC20EAE07000B265
:1025600008BD0520F4E74FF00040F9E7EE0E00202B
:10257000ED0E0020802810B50C4605D0B0F5807F08
:1025800029D04FF0004025E08B1E222BF9D8184AA5
:10259000136823EA0103136052F8203C23EA010385
:1025A00042F8203C8A0604D501220521002000F0D3
:1025B00051FC630704D501220221002000F04AFCEF
:1025C00000F05CFC30220B4B1A700B4B1878204348
:1025D0001870002010BDC8B2202803D005D810F014
:1025E000EF0FCED1034B1870F4E73028FAD0C8E7CC
:1025F00020940D40ED0E0020EE0E002018B10128B1
:1026000004D000207047034B18687047024B1878BD
:10261000704700BF20900D40EF0E002010B5094A12
:102620000020137801331370074B197802F0BAF8C1
:10263000BDE8104005490023054A0968054801F036
:10264000F3BE00BFEF0E0020EA100020D0010020F2
:102650001D262000B001002008B50346812B084646
:102660002BD0B3F5807F39D0802B24D102F02EF807
:102670001C4B1D4A18701368032123F008031360D4
:1026800052F8203C002023F0080342F8203C52F886
:102690001C3C23F0080342F81C3C52F8183C43F061
:1026A000080342F8183C042200F0D4FB0322002166
:1026B0000E4800F073FB012008E00D4B0D491A682D
:1026C00028B142F008021A6001230B6008BD22F015
:1026D00008021A600123C1F88030F7E7064B196041
:1026E000E9E700BFEA10002020940D40FD262000FD
:1026F00010940D4000E100E0D001002008B50F4823
:1027000005F0DCFBC8B108210C4805F0D0FB0C4BF0
:10271000196849B100220B4B1A700B4B1B6843B967
:102720000A4A0B4801F080FEBDE80840094802F063
:1027300097B9074801F082FEF6E708BDA80100201E
:10274000D0010020EF0E002020900D401D2620001B
:10275000B0010020FC872000084A136823F004031E
:10276000136052F8203C43F0040342F8203C00225E
:10277000034B1A600122034B1A70704720C40D40AE
:1027800010C00D40F00E00200D4A0E49136823F0D2
:10279000C003136052F8203C43F0C00342F8203CD1
:1027A0000022094B1A600B6823F010030B6051F8EC
:1027B000203C43F0100341F8203C044B1A60704762
:1027C00020A40D4020C40D4000A30D4040C00D408A
:1027D00010F0020218BFFF22084B1A6010F004022A
:1027E00018BFFF22064B10F001001A6018BFFF222D
:1027F000044B14BF1A601860704700BF00A20D4060
:1028000000A10D4040C00D40044B1B68C3F30720DE
:1028100013F4704F04BF1030C0B270471C300D402D
:10282000064B1868C00910F0060F03BF00F0070040
:10283000C0F1020040034FF40040704714300D40D7
:102840002DE9F047482488B0FFF7DEFF164B064617
:102850001F68A36898476368804698470446FFF757
:10286000DFFF054600F082FA814600F08BFA8246CF
:1028700000F038FAAD0A07F00103A40AC7F34007D5
:10288000CDE905A003934146CDF81090029701953C
:10289000009406F00F03C6F30712044801F074F920
:1028A00008B0BDE8F08700BF1C300D409C8A2000B6
:1028B0002DE9F84300F07AF810490246D1E90045C5
:1028C000AC46A04238BF05F1010C6346C1E90023C4
:1028D0000B48D0E90089B8EB040169EB05048E18B8
:1028E00044EB0C07C0E9006701F05AFE18B1BDE8DF
:1028F000F84301F0D9BDBDE8F88300BFA001002076
:1029000098010020E0210D4B0D4A5A600D4A82F8D3
:102910002310002207219A6019600B490B6843F0CD
:1029200001030B60094B1A60042243F80C2C0122AE
:1029300043F8082C0F22DA62704700BF10E000E075
:1029400047E8010000ED00E008200D400C000340C6
:10295000034BD3E90023100A40EA0360704700BF2D
:10296000A0010020054B186053F81C2C1C3B42F0C2
:1029700001021A601A68D207FCD47047280003408D
:1029800010B5064C236823F001032360FFF790FF86
:10299000236843F00103236010BD00BF10E000E096
:1029A000014B1868704700BFD4010020064B18681F
:1029B0005A6808331B681B0443EA0223034A034393
:1029C000106843EA0060704740500D404C500D4085
:1029D000014608B5104A1368DB07FCD572B6FFF74D
:1029E000E5FF0B1A062BD8BFC11D0C4B0A0E1A604F
:1029F000C1F3074243F8042CC1F3072243F8082C23
:102A0000CAB243F80C2C62B64FF40032044B196082
:102A1000044B1A6108BD00BF50500D404C500D4092
:102A2000D401002000E100E008B500F0C1FF002261
:102A3000064B1A604FF40032054BC3F89021C3F8DF
:102A40009020BDE8084001F00BBF00BFD40100207A
:102A500000E100E0064B1B681B075FBF054B1868D1
:102A600080F00800C0F3C00048BF0020704700BFDE
:102A700018C0004018D000402C23154A70B503FB45
:102A800000234FF6BF72DC680546236C626413F0C6
:102A900050020DD00F4EA369DB0600D570BD56F86D
:102AA00025301BB12068C0B29847F4E72368F2E7ED
:102AB00013F4D06FF2D04FF440732363FF236360AD
:102AC000E36AE262E362236B43F001032363E5E719
:102AD0000C882000D80100202DE9F04F012806467F
:102AE00085B000F2B4802C2545435A4F7C1994F9E7
:102AF0002090B9F1000FC0F2AA8094F922B0BBF186
:102B0000000FC0F2A4804FF00008534800F0C2FF4D
:102B1000524978590A6894F921A002430A604A6828
:102B20006068E56802434A608A68A06894F92330C7
:102B300002438A6022690AEBC901C5F8C88F116097
:102B400094F823105FFA8BF0227D0193CDE9020106
:102B500000F08AF9DDE90201082200F07BF9012387
:102B60003F494FEA0B32019852F801C003FA00FBCB
:102B70004BEA0C0050504FEA093959F8012003FA8A
:102B80000AFA4AEA020249F801205022AA63AA6B13
:102B900094F9240042F4D062AA6302226A634FF4DB
:102BA00040722A63A26940456A62E269AA624FF0F4
:102BB0007002EA620D4614DB94F92510294A41EAB5
:102BC000C0041460020354598B4023435351C9B2CB
:102BD0004246C0B200F03EF9234A136843F4004372
:102BE00013602C2303FB067393F92640002C1BDB98
:102BF00093F827905FFA84F801224946404693F9FA
:102C000027A000F031F901232403625903FA0AF3E3
:102C10001343635108224946404600F01BF9124A0B
:102C2000136843F4804313602C2000FB0676F2689F
:102C3000136B43F001031363012296F828305909FE
:102C400003F01F0302FA03F3084A42F8213005B0EB
:102C5000BDE8F08F0C882000552A200028200D4068
:102C600020940D4004410D4030D0004000E100E0D0
:102C700001289CBF014B43F820107047D801002069
:102C8000012808D82C22044B02FB0030C3689A6943
:102C90009206FCD4196070470C8820000022014B7A
:102CA0001A60704700500D400822014B1A607047AF
:102CB00000500D40A022024B1A6050221A6070474B
:102CC00000500D40014A024B9A60704700202000DE
:102CD00000ED00E0024B1868C0F38150704700BF60
:102CE00004200D4008B5FFF7F5FF024B53F8200014
:102CF00008BD00BF6488200038B5164D164C2B68FF
:102D0000012223F040032B602368062123F04003B7
:102D10000320236000F09EF82B68012223F080033B
:102D20002B602368072123F080032360032000F039
:102D300091F80A4B0A4A0B491A600B4A134610686D
:102D40000842FCD11A685101FCD41A685201FCD522
:102D500038BD00BF20C40D4000C40D4000200D4010
:102D6000010102000000010104200D40034B044852
:102D70001B6803F007031841704700BF04200D4093
:102D80000048E801034B04481B68C3F302231841C1
:102D9000704700BF04200D400048E801024B02EBE1
:102DA000C10243F822007047E0010020F8B5074651
:102DB0000D460024084E06EB411647FA04F3DB07E4
:102DC000E1B204D556F824300BB1284698470134B7
:102DD000082CF2D1F8BD00BFE00100202DE9F84336
:102DE0000546DFF8408000F0E3FD0C4B2E03F7585A
:102DF00056F808404FEAC50924FA09F447EA0400E6
:102E00002946C0B2FFF7D2FFE4B2054BFFB204FA85
:102E100009F4F75046F80840BDE8F88318940D40CF
:102E20001C940D4018970D4080220021014804F0A9
:102E3000ABBD00BFE0010020034B044A1A60044B05
:102E4000803A1A60704700BF6002002080400D4049
:102E500064020020034B01EBC0011B6843F82120F2
:102E6000704700BF60020020034B01EBC0011B68EC
:102E700043F82120704700BF64020020024A136813
:102E800043F030031360704700700D400E2870B59A
:102E900006460BD1134B1C6844F002001860124820
:102EA000056825F03F0343F0010303600F48036802
:102EB00023F0FF031A43114331430D4A01601368A5
:102EC0001B06FCD50B4B0C4A1B68106803F0FC0377
:102ED00043EA00230E2E18B201BF034B1D60014BC5
:102EE0001C6070BD34000144F486084008700D4039
:102EF00000700D400C700D4010700D40024B1868B2
:102F0000B0FA80F04009704700B708404FF4004223
:102F1000064B10B5064CC3F89021C3F890202068EA
:102F200018B101F07FFC0023236010BD00E100E038
:102F300068020020064A136843F0020313605368D6
:102F400043F002035360936843F0020393607047B9
:102F500048200D4007B50C4800F09CFDFFF7EAFF44
:102F60000A4B1A6842F002021A6000220192019A8A
:102F70000F2A06DD1A6822F002021A6003B05DF81B
:102F800004FB019A0132F1E7FD2E200054200D4090
:102F9000064A136823F002031360536823F0020308
:102FA0005360936823F002039360704748200D40FC
:102FB0000B4B1A689207FCD41B685B065FBFED22BF
:102FC000084B1A601A60084B1B6813B1EF22054BBF
:102FD0001A60064A0120137803F07F0313707047CC
:102FE0004C860840388808402C860840F30E0020A4
:102FF000044B186800F02200A0F120035842584109
:10300000704700BF4C860840024B186800F0400033
:10301000704700BF4C860840204B1870002832D003
:103020001F4A13681B03FCD51E4B1A6842F00202AC
:103030001A601A6842F001021A601A685007FCD53B
:103040001A6822F001021A601A685107FCD41A6843
:1030500042F002021A601A6842F001021A601A680D
:103060005207FCD5104A136823F004031360D2F80A
:10307000A83123F00403C2F8A8314FF400520B4BDF
:10308000C3F890207047084A136843F004031360A4
:103090004FF40052054B1A61704700BFF20E00203A
:1030A00004200D40048808408C86084000E100E0C0
:1030B000084B93F90020002A09DBED21064A116034
:1030C0001160E32111601A7862F07F021A7001200A
:1030D000704700BFF30E002038880840A0F10B01B4
:1030E000CBB20F2B10B5044613D80B4B1B6813F053
:1030F0003F0302D0FFF75CFF0123084A01EB810187
:103100000B3111600BB1FFF7D3FF054B60B21C70A0
:1031100010BD4FF0FF30FBE7488608403C86084072
:103120008A01002010B50C46002900F08680102886
:1031300000F28580DFE800F009101B22243B445791
:103140005C727683837B7D547F003E4B1B68003B23
:1031500018BF0123236024E005223B4B1B6803F0CA
:103160007F030B3B93FBF2F30B33DBB2F2E7374BFE
:103170001A68043B1B6843EA0223EBE7344BF7E78A
:1031800000230B60334B344A1B6803F001030B60D0
:103190001268900644BF43F002030B602F4B1B786C
:1031A0000BB900200BE00B6843F00403D2E70020CA
:1031B0002B4B08601B78002BF3D001230B6010BD54
:1031C000284B29491A680023D2B201EBC3000079C9
:1031D000904202D851F83330BCE701330E2BF4D1C2
:1031E0006FF01703B6E7214B1B685BB2493BB1E7B1
:1031F0001F4B1B6899060FD1FFF75AFF01231D498A
:103200000A68D207FCD51C4A1168493949B20BB18A
:10321000FFF7CEFE2160C4E70023F0E7174B93F9D8
:10322000003097E7164B1B7803F07F0392E70B23E0
:1032300090E71A238EE707238CE70220BFE70120DF
:10324000BDE700BF2C8608403C860840CC8508407E
:10325000D48508400086084024860840F20E0020ED
:103260008B01002040860840AC882000588608402A
:10327000488608406486084060860840F40E0020B6
:10328000F10E002008B50B4B1B6899060FD1FFF714
:103290000FFF012308490A68D207FCD5074A1168C5
:1032A000C1F300110BB1FFF783FE084608BD0023F0
:1032B000F0E700BF48860840648608404C86084016
:1032C00008B507285FD8DFE800F0040F1A21244072
:1032D0004659012903D1FFF7EBFE00203AE000290F
:1032E00053D1FFF765FEF8E7A1F10B030F2B4CD884
:1032F000C8B2FFF7F3FE0130EFD103202AE0244BE0
:10330000CAB2C1F307211A605960E6E7214BCAB27D
:10331000F7E731F0070338D11F4B11F0010F1A689E
:10332000C1F3800014BF42F0010222F001021A60D2
:103330001A4B11F0020F1A6814BF42F0200222F05B
:1033400020021A60FFF768FEC7E731F001001CD1C8
:10335000134B197008BD01F118031F2B15D80D234D
:10336000104A52F83300814205DC02EBC3031A799C
:103370000D4B1A60B1E7013BF3D2AEE70B4BC9B27C
:1033800049311960A9E70120E4E70220E2E700BF24
:10339000C8850840D085084000860840248608403B
:1033A0008B010020AC8820004086084058860840E9
:1033B00038B505460C46134A13689B07FCD4124BDC
:1033C00093F90030002B01DBFFF772FEEE220F4B6A
:1033D000691E1A601A60A21C43F8102C21440220B6
:1033E00000F074FA0A49013C41EA0411022000F09D
:1033F0007FFA022000F086FA022000F09BFA0020FB
:1034000038BD00BF4C860840F30E002038880840C5
:1034100002C001C0F8B5224B93F90030002B18DB35
:10342000FFF7C4FA0446FFF743FEC4F1FF2404F596
:103430007F04F634FFF7BAFAC442FBD40126194BD5
:103440001B7843B9184C2368990609D50221084610
:10345000F8BD0026F3E7FFF715FF0028F2D1F5E7E6
:10346000E9230427114D2B6023689A0703D4013FF9
:1034700017F0FF070BD123689B070CD4EE23012123
:103480002B602B60002EE2D0FFF792FDDFE70620D5
:10349000FFF768FAE8E7216811F00201FBD1F1E7D4
:1034A000F30E00208B0100204C860840388808402D
:1034B0000B280DD1082A0DD161B1074B074A0831FD
:1034C00011F8010D43F8040B9342F9D10020704725
:1034D0000120704702207047A8850840C885084031
:1034E00070B52F4E0246306810F0400008D02D4DC8
:1034F0002868040605D5ED2200202B4B1A601A60BF
:1035000070BDC0B20428F6D902388842F3DCC4B2D8
:10351000032C1ED12B6813702B6853702B6893708B
:103520002968224B493949B219702B68204D180679
:103530002B70E0D589B2042001F00EFE297803201B
:1035400001F07F0101F008FE1A4B1B78CBB1204639
:10355000D6E711190320013900F0C0F9164B611E9E
:10356000032043EA011100F0C3F9032000F0CAF977
:10357000032000F0DFF9032000F0E8F90028FAD179
:10358000CEE733685A06E2D533681B0603D50B48ED
:1035900001F048F9DBE7ED22034B1A601A60D6E729
:1035A0004C8608402888084038880840F40E0020DF
:1035B000F10E0020F20E002002C0010C500000208D
:1035C000F8B52A4F3D7815F001054CD10124F822B9
:1035D000274B7F261C605C609C60A3F59323A3F5BA
:1035E00014731A600922C3F8902115221A670B225E
:1035F000703303F59B23C3F83C21402203F59E73EF
:10360000A3F59B23A3F5F0731A601A6842F0200219
:103610001A60D52243F81C5CDE62DA61154B18781B
:10362000FFF75CFD4FF48042134B02201E60134BEA
:103630001A6100F073F91249022000F04FF90320DB
:1036400000F06CF90E49032000F040F90D4B18789A
:10365000FFF7E2FC0C48294601F0CCF820463B7805
:1036600023433B70F8BD0020FCE700BFF30E0020B1
:10367000A8200D408A0100209486084000E100E067
:1036800028880840F20E00205000002038B503883A
:10369000044653B340F20342934233D11B4B187894
:1036A0001A4638BB822923D1137873B901F006FD7D
:1036B00001F092FC8021FFF713FF002805DD80B2A6
:1036C00001F04AFC124B1B699847124B1A785206BC
:1036D0000BD500221A70104B1D68FFF769FCFFF72D
:1036E0006FFFAB0601D0FFF7E3FC40F203432380FA
:1036F00001200AE01B78002BFAD0064B1B785806F5
:10370000F6D5CFE700230380032038BDF20E00205A
:1037100094892000F30E0020488608400B282DE9EC
:10372000F0470C460FD1082A79D1002977D03D4BBC
:103730003D4A4C1E53F80419934204F8011FF9D175
:103740000020BDE8F0870C2867D1042A67D1002942
:1037500065D0364B36491A68DFF8E48022F007025C
:103760001A600A68334F42F008020A60D8F8000075
:103770003A681D68DFF8CCE0DFF8CCC025F07005B2
:103780001D60DEF80050DCF80060C0B2120240EAB2
:10379000066092B202434FEA0549274809F47F09BF
:1037A000D0F800A042EA09061A685FFA8AF522F00A
:1037B000070242F001021A600A6842F008020A6039
:1037C000D8F800203F68196821F0700141F010011D
:1037D0001960DEF80010DCF800C0D3B23A0243EA08
:1037E0000C6392B213430A04016802F47F0243EAB5
:1037F00002085FFA81F9FFF7D9F8B6EB080165EB2B
:103800000905ED0307460023C8030C4A45EA514168
:1038100003F098FE3F1A276092E7012091E702200B
:103820008FE700BFC4850840A48508401088084081
:1038300004880840188808401C8808400048E801AF
:1038400014880840248808402088084008B5054BA3
:103850001B7813B9044800F0E5FF0022034B1A60FF
:1038600008BD00BFF20E0020500000203488084040
:10387000064B07481A68042A1FBF06490A7842F017
:1038800040020A7000221A6000F0CCBF2C88084069
:1038900050000020F30E002008B5094B4022002103
:1038A000184604F071F80121064A074B1160506078
:1038B0004FF480425A604FF400425A6008BD00BF86
:1038C0000000002004F00F4000E100E003289EBF4C
:1038D000014B0001195070470000002003289EBFD3
:1038E000024B03EB00104160704700BF0000002056
:1038F00003289EBF024B03EB00108160704700BF9E
:1039000000000020032806D80123034A03FA00F030
:10391000116808431060704728F00F40032806D84C
:103920000123034A03FA00F011680843106070474E
:1039300020F00F40032806D80123034A03FA00F0C1
:10394000116808431060704714F00F4003289FBFB0
:10395000044B03EB0010806800F0070088BF0020D4
:10396000704700BF000000204FF0FF32014B1A608B
:10397000704700BF04F50F400122014B1A607047E9
:103980004CF00F40084B19461A68D002FCD4074B84
:103990001A6822F480321A600A68D203FCD41A68CA
:1039A00042F400321A60704704200D4000200D40A0
:1039B00010B5094C226890070DD0084B1A461968BB
:1039C0004901FCD413685B01FCD5FEF7D9FFFFF772
:1039D000D9FF0023236010BD58200D4004200D4066
:1039E00038B5264B1C6814F03F0414D1244D55F80B
:1039F000043B23B1984770B10134052CF7D1214D18
:103A00002B7843B1FEF7CCFF0446FEF7CFFF201A18
:103A1000092800D90CB930BF27E01B4B1A6822F4E3
:103A200000321A60194A11461068C002FCD41A68A4
:103A300042F480321A600B68DB03FCD5FEF7B6FF58
:103A4000241A092C03D8BDE83840FFF79BBF632C2C
:103A50000F4C0BD92B78022B08D1236000F098FE75
:103A600030B1FFF78FFF0023236038BD0123F4E757
:103A7000FEF796FF0028F4D0CDE700BF4886084047
:103A80006C020020F50E002000200D4004200D40A7
:103A900058200D40074A10B50023144652F8041B65
:103AA000814202D011B944F8230010BD0133052B27
:103AB000F4D1FAE76C0200200022054B05491A6098
:103AC0000B6943F004030B61034B1A70704700BF8E
:103AD00058200D4000ED00E0F50E00204FF480323C
:103AE000064B10B5064CC3F89021C3F8902020680F
:103AF00018B100F097FE0023236010BD00E100E044
:103B00008002002070B51C4B1A78431E52B101F59B
:103B100020121A4C2732A2421AD012F8015903F887
:103B2000015FF8E7164A1278122AF0D1154A127886
:103B30004B2AECD14C0804F52012104D2732AA4232
:103B40000ED1002301F5201205192732A3420CDB08
:103B50000623014401F8013C002301F8023C70BD3A
:103B600012F8016903F8016FE9E7D61A36780133D4
:103B700005F8016BEAE700BF2B00280027002800AA
:103B80002A002800290028000FB407B504AA52F81B
:103B9000041B0448019200F021F803B05DF804EB27
:103BA00004B070476000002070B505460C460A4E10
:103BB000102C07D874B122462B6868680649BDE806
:103BC00070401847102231462B686868984710B932
:103BD000103CEDE7204670BDBC8B20002DE9F04F76
:103BE0000746154600268FB00791079B1B78002BD0
:103BF00000F09C83079B1A781C460133002A00F0D2
:103C00008583252AF7D1079B9C4205D081E3237841
:103C10004644002B00F08A836278631C002A00F07F
:103C200085830024184610F8012B19462B2A17D03B
:103C30000BD8202A17D0232A18D0A2F1310CBCF1BE
:103C4000080F3FD84FF0000A18E02D2A04D0302A80
:103C5000F3D144F0100401E044F001040346E1E72D
:103C600044F00604FAE744F00204F7E744F00804DD
:103C7000F4E70A2101FB0A2AAAF1300A194613F8CF
:103C8000012BA2F130000928F3D90B782E2B37D164
:103C90004A784B1CA2F13000092829D84FF00008BF
:103CA0001A781946A2F13000092803F1010319D945
:103CB0000B786C2B6FD14B786C2B24D144F08004A3
:103CC000023123E02A2A0AD1D5F800A00146BAF130
:103CD000000F05F10405B8BF44F00104D5E74FF02B
:103CE000000AD2E70A2101FB0828A8F13008D7E72B
:103CF0002A2A04D1D5F8008002310435D8E71946C4
:103D00004FF0FF38D4E7013144F060040B78782B92
:103D10000CD8572B4BD8472B08D8402B00F290805B
:103D2000002B00F00383252B00F0D3804B1C07935E
:103D300004F4E063B3F5A06F00F0C98200F2CC8018
:103D4000B3F5407F00F07282B3F5806F00F03682E9
:103D5000B3F5807F7FF449AFB8F1000FACBF24F01A
:103D600010044FF0010814F4005204F0E00306922E
:103D700000F0EA80402B00F0E08000F2C280002BCF
:103D800000F0DE80202B00F0C78000220023CDE968
:103D900000230023CFE0682BB8D14B78682B02D1E9
:103DA00044F020048CE7013144F04004AEE7583B76
:103DB000202BBBD801A252F823F000BF853E200083
:103DC0002D3D20002D3D20002D3D20002D3D2000CB
:103DD0002D3D20002D3D20002D3D20002D3D2000BB
:103DE000AF3E20002D3D2000BB3E20006D3E200058
:103DF000973E20008B3E2000A33E20002D3D20005A
:103E00006D3E20002D3D20002D3D20002D3D200049
:103E10002D3D2000CD3E2000793E2000C73E2000F1
:103E20002D3D20002D3D2000C13E20002D3D2000D5
:103E3000733E20002D3D20002D3D20007F3E2000C0
:103E4000413B062B3FF672AF01A252F823F000BFB0
:103E5000B53E20002D3D20002D3D20002D3D2000B1
:103E60009D3E2000913E2000A93E200044F42454B1
:103E70005CE744F4106459E744F4885456E744F48A
:103E8000C85453E744F4B24450E744F400744DE797
:103E900044F484444AE744F4024447E744F4424487
:103EA00044E744F4813441E744F4A1343EE744F468
:103EB000C1343BE744F4E13438E744F4A06435E727
:103EC00044F4806432E744F440742FE744F4E0643F
:103ED0002CE744F4C06429E7B3F5C06F07D0B3F50D
:103EE000E06F7FF482AE2B6804351E607DE6012210
:103EF0003B68A94978689847002840F01582013648
:103F000073E6602B1CD0802B7FF43FAF073525F084
:103F10000705F5E8022303E095F90020D3170435DF
:103F2000002A73F10001BFF632AF524263EB430344
:103F3000CDE900230123039317E0B5F90020EDE755
:103F40002A680435D317EBE7402B00F0B08000F26D
:103F50009A80002B00F0AD80202B00F0A180069B02
:103F6000002203930023CDE9002304F4C053B3F5EA
:103F7000805F00F0D580B3F5C05F00F0D680B3F568
:103F8000006F00F0B78000230DF1360B0493049B03
:103F900041F20802984588BFA8EB030841F60803E0
:103FA00004EA030198BF4FF0000891421A4604D179
:103FB000B8F1010F38BF4FF00108049B914203EBA9
:103FC000080040F0CC80DDE90023134300F0C780F7
:103FD000724914F4804F724B4FF0020918BF0B4620
:103FE000069A72B1039A002A40F0BD8004F00602DE
:103FF000022A00F0BC80062A6A4A04BF4FF0010979
:10400000134609EB0002924594BF4FF0000AAAEB59
:10401000020A14F00102009204D1E10640F1AB80E3
:10402000D0449246B9F1000F07D04A4619463C6881
:104030007868A047002840F077814446049B1E44DE
:10404000102C5949D7E9003000F29F802CB122464C
:1040500055499847002840F0678159463B68049AC3
:1040600078684E449847002840F05E81009B4644A3
:10407000002B00F0D48051463846FFF795FD00280C
:1040800000F0CD8050E1602B13D0802B7FF467AF20
:10409000073525F00705F5E80223CDE9002304E004
:1040A0002A780023CDE900230435069B43E72A88BC
:1040B000F7E72B68002219460435CDE90012F4E732
:1040C000DDE904010A22002303F03CFADDE90401E2
:1040D00030320BF8012D00230A2203F033FACDE928
:1040E0000401DDE904231343EAD10DF13603A3EB08
:1040F0000B034BE7DDE900230DF1360BCDE904237B
:10410000EFE702F0070130310BF8011DD10841EA59
:104110004371D8080A46034652EA0301F1D1E4E7A5
:104120000DF1360BDDE90023F6E7204B14F4804F48
:104130000DF1360B1E4908BF1946DDE9002352EA8E
:104140000300D2D002F00F00085C4FEA131C0BF8FA
:10415000010D100940EA037002466346EFE74FF095
:1041600000094B463CE74FF00109124B49E74FF07D
:104170000109114B45E7514638460393FFF714FDFB
:10418000039B00283FF44EAFCEE010229847002852
:1041900040F0CA80103C53E7BA8B2000A98B200066
:1041A000AC8B2000B18B2000CC8B2000988B2000A2
:1041B000878B2000AF8B2000738E2000D5F80090F5
:1041C0000435B9F1000F2CD04B469B469BF80020DC
:1041D0000133002AF9D1ABEB090BB8F1000F02DB78
:1041E000C34528BFC346DA4594BF4FF0000AAAEB87
:1041F0000B0A14F0010406D151463846FFF7D4FCEF
:10420000002840F091805A4649463B6878689847B4
:10421000002840F089805E44002C7FF42CAF564487
:10422000E3E44FF0060BDFF81491D6E7414B424A26
:1042300014F4804F08BF9C460DF1330318BF944619
:1042400000211A462868043550EA010E30D1D21AEE
:1042500008BF30224FF0780104BF03F8012C03F1AE
:10426000FF3303F8011C4FF0300108BF012203F8AF
:10427000021C232102F10309CA4594BF4FF0000A32
:10428000AAEB090A14F00104A3F1030803F8031CC4
:1042900005D151463846FFF787FC002844D14A46ED
:1042A00041463B687868984700283DD14E44B3E7C3
:1042B00000F00F0E1CF80EE04FEA111803F801EDA4
:1042C0004FEA101E4EEA017E70464146BCE7BAF145
:1042D000010F38BF4FF0010A2B6814F0010405F1FB
:1042E00004058DF820300AF1FF3805D141463846E3
:1042F000FFF75AFCC0B9464401223B68786808A918
:10430000984788B9002C8AD04146B5E6079B9C4265
:104310000CD0079B0799A4EB030842463B687868DA
:10432000984700283FF473AC4FF0FF3630460FB08B
:10433000BDE8F08F988B2000878B2000B38B200086
:10434000F8B5038805461646CBB14A2B2BD18829F0
:104350001FD1174803F0C3FD0446C4B1231D9E427C
:104360001FD12146124803F0C4FD124E626937681E
:104370003260A2690AB1E0699047376007E00C48F3
:1043800003F0ADFD044634B901220B4B1A704A23E9
:104390002B8001200AE0A168201D03F072FD246833
:1043A000F1E72468D9E7002303800320F8BD00BFAC
:1043B0008402002010040020F60E002010B5002416
:1043C000054B06481C7003F087FD2146BDE81040F0
:1043D000034800F00FBA00BFF60E00208402002050
:1043E0006800002070B50446E3610B4B049D1B7808
:1043F000C4E905526BB1094D094B2E68201D2B6095
:1044000003F03FFD2E602146BDE87040054803F0F3
:1044100083BDA160F7E700BFF60E00201004002066
:10442000680000208402002013B5034C2468009427
:10443000FFF7D8FF02B010BD1004002010B5084BE4
:1044400004461B7843B1043000F0B2F82146BDE8C1
:104450001040044803F04DBDC0E90333F6E700BF48
:10446000F60E00208402002010B50D4C236813B90D
:104470000C4A136010BDFEF76BFA2268D2E90031D6
:104480000B441B1A92681AB91844064B1860F1E7DE
:10449000D2E900142144091A8B4228BF0B46F1E7E8
:1044A0008C02002088020020014800F0BBB900BF48
:1044B000780000202DE9F8430388054653B1592BB5
:1044C00048D1872921D1002024490B6863B918B14C
:1044D0000B6001E0214A1360592301202B80BDE8C5
:1044E000F88301203346F1E7D3E902649442F8D01F
:1044F00000B10B6019460B4689680029ECD0C868EA
:104500009042F8D189689960F4E78229E4D1134F89
:104510004FF00009B84600263C68002CDCD020464D
:1045200003F0CCFC98B122468821E06800F03AF90B
:1045300058B9A368E0602EB1B360C4F80890FFF7E3
:1045400093FFE8E7C8F80030F7E7FFF7ADFF26462E
:10455000A468E2E7002303800320C0E78C02002068
:1045600010B50446FFF7A0FFE3680B4A0BB11368D0
:1045700033B90A4B1B68E36013681460A36004E05E
:10458000A34206D1054A1268DA60BDE81040FFF781
:104590006BBF9B68ECE700BF8C020020100400207A
:1045A000024B1868003818BF012070478C020020A9
:1045B00010B50B4A04461368834208D18368136020
:1045C000FFF752FF0023C4E9023310BD1346002B4E
:1045D000F8D09A68A242F9D1A2689A60F0E700BFC9
:1045E0008C02002038B5836804460D469BB10A480A
:1045F00004600220A07304F10C00984702380128DF
:1046000001D9832D05D121462046BDE8384000F070
:1046100005B80123A37338BD100400202DE9F84329
:104620001C4F04463D6888462B46A34204D00BB974
:10463000BDE8F8831B68F8E7002CF9D0164EA37B81
:10464000D6F8009063B10023A3738DB9A3683BB182
:10465000444505D02A468321346004F10C00984774
:104660003B68A3420ED123683B60C6F80090DFE7A9
:10467000A54204D022468721284603F010FC2D686D
:10468000E3E71346002BF0D01A68A242F9D1226862
:104690001A60EAE71404002010040020002238B554
:1046A0000125084B1A70084B1C6804B938BDE37B20
:1046B0002BB1002282212046E581FFF793FF246879
:1046C000F3E700BFFA0E002014040020024B187814
:1046D000421C1A70704700BFF80E00208A22064B59
:1046E0001A700023054A1370054A1370054A1360B7
:1046F000054A1360704700BFF80E0020F70E002037
:10470000F90E002014040020100400202DE9F041CF
:104710001A4D2B780BB1FFF7C1FF194C267896B1D3
:104720000C221849184F0B78013E5A430133B81830
:1047300003F01F03BF5C0B702670D0E9018090B9B5
:10474000124B1E6826B92B7820781844BDE8F081FA
:104750002B780BB1FFF7A2FF30464246394603F0F3
:104760009EFB3668EEE7812F08BF0123424639469B
:1047700008BF837303F093FBE5E700BFFA0E002048
:10478000F90E0020F70E00209002002014040020F3
:10479000024A034B10781B7818447047F90E00202A
:1047A000FA0E0020F0B50B4E3378202B0FD00C25DD
:1047B000094C0A4F24781C4404F01F046C433D1933
:1047C000C5E901200020013339553370F0BD0120C7
:1047D000FCE700BFF90E0020F70E00209002002039
:1047E00038B5034C256803F05AFB256038BD00BF7F
:1047F0001004002010B40A4C0A4621680B4683427C
:104800000CD04BB950B1016001212060817310BC04
:1048100081218381FFF7E4BF1B68F0E710BC70477C
:104820001404002038B1837B013B012B9FBF01237F
:10483000014AC37313707047FA0E002002460846FF
:1048400010B5064953600C68029B106093600A60C3
:104850000CB9FEF7BDF8002010BD00BF1804002001
:1048600010B5084C206858B100232360D0E901310D
:104870009847236823B1BDE810401868FEF7A8B830
:1048800010BD00BF1804002070B505880446672DD0
:1048900009D0792D2FD0002D33D1FFF717FF1B4BF7
:1048A00018701B4B1D601B4E194D08E00A282B6821
:1048B0000ED07E2B03DC5A1C2A60174AD054304697
:1048C00003F0AAFB431CF1D16723238001201BE0E6
:1048D0005A1C2A600025104A2846D5540B4B1978DB
:1048E000FFF760FF0D4B2A4685211868FFF75AFF36
:1048F00018B97923E9E78529E8D10022044B1A6029
:10490000D1E700230380032070BD00BFEF1000201B
:104910001C04002020040020FB0E002010040020B6
:104920000D28014610B516D00C4C237853B90C480D
:1049300003F05FFB08B9012323700A48FFF772FFF9
:10494000012010BD0A28F8D1054803F052FB0028C9
:10495000F3D00023F0E70020F3E700BF7B0F002037
:10496000200400208800002008B505490548802261
:1049700003F038FBBDE8084000210348FFF73ABFC9
:104980007C0F002020040020880000202DE9F04149
:1049900004880546772C20D07E2C3DD0002C4ED1AB
:1049A000FFF794FE284E294B294FDFF8B08018708E
:1049B0003460336857F823202AB9264A13707723C6
:1049C0002B8001203EE008F80340936800218020FE
:1049D0009847336801333360EBE700231E4A1360C6
:1049E000194A1360184B1B4A1B6812789A4204DC60
:1049F000194B1B68002BF0D1E1E7184AD256002A68
:104A000019DA134A002052F82320104B1978FFF7C7
:104A1000C9FE28B97E23D3E70C4B1B788B42D0D13B
:104A2000094B0E491A688B5C03F07F038B540A4ACA
:104A3000136801331360044A13680133D1E700237C
:104A400003800320BDE8F0812C040020F01000203A
:104A500040000020FC0F002028040020EB10002064
:104A600010B40A4B0A4A197800238B4203DA52F831
:104A7000044BA04208D107490748CA5C62F07F0294
:104A8000CA5410BCFFF7CEBE0133EEE7FC0F002086
:104A900040000020EB10002098000020064A136818
:104AA00043F004031360054B186804331B6840EAA5
:104AB000032080B2704700BF00700D4014700D409D
:104AC00010B5174A136823F00C0313600122154B2D
:104AD0001A601A68012AFCD10822134B13491A6084
:104AE000E32203F505731A601A460B68DB07FCD551
:104AF0000F4C102100232068013900F0010043EA27
:104B000000034FEA43039BB2F5D1002BF1D00949D2
:104B1000180A03F0FE0308600B60EF23136010BD5A
:104B200000700D40A8200D4024860840648608408F
:104B30009C86084014700D400378407840EA0320BA
:104B4000054B00FA01F1985CC2F1080200EA21204D
:104B50001041C0B2704700BF0D8C2000F8B506466A
:104B60000A480D46174603F0BAF9044630B93A46EA
:104B700029463046BDE8F84003F0EEBBA3680BB110
:104B800028469847204603F0E2F9EEE7300400207B
:104B900038B500F013F90546094803F0A0F90446BA
:104BA00028B95DB12846BDE8384003F0D0BB636842
:104BB00003B19847204603F0CAF9F0E738BD00BFBB
:104BC0003004002010B5044600F006F938B100F0BA
:104BD000DFF9034B034821469B689847012010BD2D
:104BE000C08920005D4B200070B50B4C0023616E26
:104BF0000A4A04F13800FFF717FCFFF74FFF656E14
:104C00000023B0FBF5F1064A01FB150104F1180081
:104C1000BDE87040FFF708BC34040020254C20009C
:104C20003D4C2000044B5A6E196E5200914294BFC5
:104C300059665A66FFF7D8BF3404002010B500F05B
:104C40003DFA00F0C9F900230380044600F06EF835
:104C50002288930008B1017B51B9023398B200F069
:104C60007BF9238873B1BDE81040074800F044B8D1
:104C7000818823445980C18801329980228003F0C1
:104C800066F9E5E710BD00BF340400209DF8003050
:104C9000012B04D1024B9A6D5A66FFF7A5BF7047EE
:104CA00034040020F8B50F4616461D46064C014652
:104CB000064A204600F00EF8C4E916762566044838
:104CC000BDE8F84000F02CB83404002054892000DE
:104CD0008D4C200070B505460C461646044A00F07F
:104CE00091F820466E610349BDE8704003F01DBB9A
:104CF0005C8920001B8C200010B5044604491A2052
:104D000000F038FA2046BDE8104003F01EBB00BF9B
:104D1000E8100020014803F0DFB800BFA004002025
:104D2000014B1860704700BFA4040020014803F045
:104D3000D6B800BFA00400202DE9F04105460C487C
:104D40000C46164603F0CBF808B9BDE8F08183881D
:104D5000A34209D18768002FF7D03346224629465F
:104D6000BC46BDE8F041604703F0F1F8ECE700BF56
:104D7000A0040020014803F0AFB800BFA804002041
:104D800081800146014803F0C7B800BFA804002095
:104D90000146014803F0ADB8A804002010B5044650
:104DA000054803F09CF800B910BD8388A342FBD0EE
:104DB00003F0CDF8F7E700BFA8040020054B10B5BD
:104DC0001B689847044618B18188012000F0C4F997
:104DD000204610BD3C89200038B5064B05465B686F
:104DE00098470446A988012000F0B6F9201E18BF94
:104DF000012038BD3C892000014B9B68184700BF4B
:104E00003C89200070B505460C461646FFF7B8FFF2
:104E100020462E610249BDE8704003F086BA00BF0B
:104E20001F8C200070B504461B200D4600F0AEF923
:104E3000064903F0DFFA38B1A3691B6823B129469C
:104E40002046BDE87040184770BD00BFE810002044
:104E500070B505460C461646044AFFF73BFF204650
:104E6000AE610349BDE8704003F05FBA6489200079
:104E7000218C200008B5044803F06CF8BDE8084018
:104E8000024803F067B800BFB4000020A80000206B
:104E900038B50E4803F06EF8054650B10C4803F0E3
:104EA00069F80446286030B92946084803F076F8C6
:104EB0002546284638BD00F097F804F1B601A4F85D
:104EC000800004F1820000F01FF9F2E7A800002042
:104ED000B400002010B501460446074803F074F8FA
:104EE00048B12168054803F059F82146BDE8104053
:104EF000014803F053B810BDA8000020B400002002
:104F000010B501460446094803F05EF868B124680C
:104F1000B4F88010204600F0E1F804F1B60104F185
:104F20008200BDE8104000F003B910BDA8000020C9
:104F300010B507490B88834208DB064C80B22288F3
:104F40000244181A08800120228010BD0020FCE7CE
:104F5000940E0020960E0020014B1880704700BF71
:104F6000940E002000487047CC040020014B1888A4
:104F7000704700BF940E0020034A044B10781B7842
:104F80001844C0B2704700BF0D100020960E0020DC
:104F90002DE9F0410C4F3A8872B100240B4B0C4EB6
:104FA000B3F800800B4B1D78354421B2414504F124
:104FB000010403DB00233B80BDE8F081FFF7DCFF49
:104FC0003044435C6B54F0E7960E0020940E0020B2
:104FD000CC0400200D10002008B5FFF7CDFF014BD9
:104FE000184408BDCC040020F8B50C4B04461E78CC
:104FF0000B4B1F88F519802D0DDC3246094902F054
:105000004DFCFFF7E9FF344401463A46204602F0E2
:1050100045FC2846F8BD0025FBE700BF0D10002029
:10502000940E0020CC04002008B5FFF7A5FF024B2A
:105030001B88184480B208BD940E002010B50146AC
:10504000FFF7F2FF4318802B12DC431E094A1BB204
:105050001A44481C002B05DA074B1878014401203C
:10506000197010BD12F80149013B14541BB2F1E74D
:105070000020F6E7CC0400200D10002038B50C4DC0
:105080000C4C342200210C4802F07EFC29462046BC
:1050900003F0ADF92946A01C03F0A9F92946201D0B
:1050A00003F0A5F92946A01DBDE8384003F09FB9DB
:1050B000088A2000AC100020B41000200023044A0D
:1050C0001380044A1380044A1370FFF7D7BF00BF50
:1050D000960E0020940E00200D10002038B50C46CE
:1050E0000546FFF7EBFF802C28BF80242946224687
:1050F000034802F0D3FB034B20461C8038BD00BFA1
:10510000CC040020940E002010B5074B03F13402AC
:1051100053F8044B934240F8044BF9D1034A136807
:105120000B6053684B6010BDB4100020AC10002021
:1051300010B5074B00F1340250F8044B904243F88D
:10514000044BF9D10B68034A13604B68536010BDE0
:10515000B4100020AC100020024B23F810100120E6
:10516000704700BFB4100020014B33F810007047A7
:10517000B410002008B5044B1A3803EB400003F0CC
:1051800036F9012008BD00BFAC100020024B1A38D0
:1051900003EB4000704700BFAC10002001490248FB
:1051A00003F028B9088A2000AE100020084B10B583
:1051B0001B689847074B5B689847074B5B689847A5
:1051C000064B5B689847BDE81040054B5B68184785
:1051D0007488200094892000C089200078892000EC
:1051E00048892000F8B5FDF7B3FB114D06460024B1
:1051F0002F461A20FFF7CAFF294603F0FBF880B1BB
:105200000A20FFF7B1FF0C2303FB0474237A8342C7
:105210000CD16068301AB0F5206F8CBF00200120DF
:10522000F8BD0134102C05F10C05E2D10020F7E7A0
:105230004C05002070B5184D00242E461A20FFF7AB
:10524000A5FF294603F0D6F8013418B9102C05F152
:105250000C05F3D10C23621E03FB0464A4F10C05BE
:105260007AB90A20FFF780FF3072FDF771FB70609A
:105270001A20FFF78BFFBDE870400146064803F097
:10528000B6B82B4654F8180D013A616803C3A068FC
:105290002C461860E2E700BF4C050020014B18883F
:1052A000704700BF880100202DE9F0430129064620
:1052B0008846144687B003DC002007B0BDE8F083C1
:1052C00003A903F0D7F903AB03CB1B882061238329
:1052D0009DF811306161002B47D0B71C02AA01A9CB
:1052E00003A803F08FF89DF81350002D4ED0029BB9
:1052F0002BB17A7817F8023B03EB02239BB2022D05
:10530000A38336D13D462046324903F070F87B78BE
:10531000237015F8023B63709DF81590B9F1000FEA
:105320004ED0019B002B38D02F466A7817F8023BED
:1053300003EB0223029A9BB2E38302B9A383B9F180
:10534000020F2ED13D46234904F1080003F04FF827
:105350007B78237215F8023B6372A81BA8EB00034D
:105360008045C4E90E53A7DBA7E7B378F71CA37603
:10537000B4E7032D0FD107F108052B46621E13F881
:10538000011D9F4202F8011FF9D1C5E720461149CE
:1053900003F02DF8A5833D46BEE7A38B2F46E3839C
:1053A000CDE7B9F1030F13D107F108052B4604F13E
:1053B000080213F8011DBB4202F8011BF9D1CCE72A
:1053C000044904F1080003F012F8A4F81E90C4E7A1
:1053D0003D46C2E7088A200030B591B00546FFF788
:1053E0005DFF4FF6FF73984204D14FF0FF34204623
:1053F00011B030BD40220021684602F0C5FA404B92
:105400001A782AB901221A70FFF748FB3D4B187031
:105410001420FFF7A9FE8DF810001320FFF7A4FE5B
:105420008DF81200FFF7BAFE0446002848D000238A
:105430008DF813308DF81530002301248DF81430C9
:105440008DF818404DB10A20FFF78EFE00283FD09E
:105450000A20FFF789FE8DF81A0002248DF8194002
:10546000FFF71CFFADF81C00FFF798FE00283CD0AA
:105470004FF6FF738DF81740ADF80030FFF70EFFC1
:10548000ADF81E001A20FFF781FE014602A802F0C7
:10549000AEFFFFF7A1FD0E90FFF768FD0F90684685
:1054A00003F05AF80446002DA1D0FFF7C7FD0028ED
:1054B0009BD0FFF757FD0146684603F095F896E745
:1054C0000B20FFF751FE8DF815408DF81300B3E760
:1054D0000C4B1A7802B91C7019780A204A1C1A70F1
:1054E0008DF81A10FFF738FEB7E71B20FFF74EFEC6
:1054F0000146684602F07BFF8DF81740BEE700BF0B
:105500000E1000200F100020014BDB68184700BF71
:10551000C0892000014B5B69184700BF94892000B7
:10552000014B9B69184700BF94892000024BD86942
:1055300000B10047704700BF9489200070B590F813
:1055400029400F4B042C214628BF04210124DB698C
:105550008C4005469847012838BF0120013C444350
:1055600005D0FFF79BFAB0FBF4F303FB14042B46C2
:10557000214605F10800034ABDE87040FEF754BF1C
:1055800094892000F95620002DE9F04106461B20A1
:105590000F46FFF7FBFD494B05461A78484C22B9E8
:1055A00001221A70FFF77AFA208023880BB90123B1
:1055B000238021880A204B1C2380FFF7CDFD414822
:1055C00002F08DFC0446002847D13F4802F0D2FC8F
:1055D0000446002868D02946201D02F008FF002359
:1055E00004F12C00C4E90B30238502F075FC214640
:1055F000344802F091FC206B02F0A2FC072853DC37
:10560000324802F0B7FC0546002841D0304802F08D
:10561000B1FCA860C0B3FFF73BFC686080B3092011
:10562000D5F80880FFF7A0FD08BB082388F80830EC
:105630000D20C8E90067FFF797FD01282946206B78
:105640001BD102F076FC206B02F049FC854233D17D
:105650002046BDE8F041FFF771BF2946201D02F04A
:10566000C9FE0028C7D1204602F071FCAAE7092034
:10567000FFF77AFD88F80800DAE702F04DFCE2E770
:10568000A968134802F08AFC2946104802F086FCFB
:10569000206B02F055FC38B921460A4802F029FC7B
:1056A0002146094802F07AFC39463046BDE8F0410F
:1056B0000123042202F0FEBFBDE8F081101000209B
:1056C000980E00206C060020CC000020D80000209E
:1056D000C000002008B5054802F03CFC044802F078
:1056E00039FCBDE80840034802F034BCD800002073
:1056F000C0000020CC00002013B5044668B1006B48
:1057000002F0EDFB024640B12146054B0548DB683F
:10571000019302B0BDE81040184702B010BD00BFB1
:1057200094892000A55720002DE9F0470D46144626
:105730008B680646D3E90078106B92F8289002F047
:10574000D8FB6868FFF7C6FBA968124802F026FC80
:105750002946114802F022FC206B02F0C0FB60B128
:10576000002320462385FFF7E9FE4B46324641469B
:105770003846BDE8F04702F09DBF04F10800FEF78F
:105780005DFE2146054802F0B4FB2146044802F0C4
:1057900005FCEAE7C0000020D80000206C060020CD
:1057A000CC0000202DE9F0410E461746044620B1FA
:1057B000006B02F094FB054608B9BDE8F0810A21B0
:1057C000686802F00EFE80460A20FFF7CDFC804597
:1057D00046D0284602F0BBFBEDE794F828200020D5
:1057E0003A4484F828202946224684F82900BDE856
:1057F000F041FFF799BF002384F8293094F828304E
:10580000DA19D2B284F828200B7A93421CD82246A7
:1058100029460220EBE794F82930DA19D2B2052A9A
:1058200084F8292007D9002294F8283084F8292008
:10583000013384F8283094F828200B7A9A4203D355
:10584000224629460120D2E72046FFF777FE686806
:10585000BDE8F04102F0B1BD224629463046C6E718
:10586000A9680029A9D0032EF6D801A353F826F081
:10587000DB57200017582000F7572000BB572000A7
:1058800013B50024094B1C70094B1C80FDF78EF8E2
:10589000012200F58061074B00940748FEF7CEFF18
:1058A0000122064B1A7002B010BD00BF2810002064
:1058B0009A0E0020955D20005C0700202310002038
:1058C000074B82B01B784BB1064B1A7832B90122D4
:1058D0001A70054B1B6A019302B0184702B070475B
:1058E000231000202810002074882000094B82B06B
:1058F0001B786BB1084B1A7852B1084A127802F043
:10590000FF012AB91970064B5B6A019302B0184770
:1059100002B070472310002028100020241000201F
:105920007488200008B5FFF7E1FF0022014B1A60E0
:1059300008BD00BF6C070020044B1B7823B9044B43
:105940001B680BB9FFF7D2BF704700BF2A100020B9
:105950006C0700200022094B82B01A70084BC2B2BB
:105960001A70084A084B28B101211B6A1170019373
:1059700002B018475B6A1070F9E700BF23100020DF
:1059800024100020281000207488200037B50B4B0D
:105990001A7802F0FF056AB901241C70084B1D70CB
:1059A000FDF704F8224600F58061064B0648009595
:1059B000FEF744FF012003B030BD00BF23100020DC
:1059C00024100020955D20005C07002037B50B4BAC
:1059D00005461B780C4673B1FCF7E8FF231A022B2F
:1059E0004FF0000348BF841C009301222146284643
:1059F000034BFEF723FF03B030BD00BF2310002090
:105A0000955D200013B5224C22680AB9FFF76EFF9E
:105A1000FFF7ACFA032823D0FFF706FB00B31D4BBA
:105A20009B68984700281BDBFFF7A0FAC0B1FFF77F
:105A3000FBFAA8B11B20FFF7A9FB174902F0DAFC1B
:105A400050B11320FFF790FB206058B9FFF74EFFCD
:105A50001248FEF7F3FC0DE0FFF7A0FB0028F0D1A1
:105A600002B010BDFFF72CFF002304210C4A0B48A5
:105A7000FEF7DAFCFFF7B6FB0028F1D1FFF7DAFBFF
:105A8000084BDB68019302B0BDE81040184700BF27
:105A90006C070020B4892000E8100020380700209F
:105AA00025592000788920002DE9F04F784E8BB0E1
:105AB000337805903BB9774B1B7823B905242046F2
:105AC0000BB0BDE8F08FFFF7AFFA0028F6D07249AF
:105AD0001A20FFF74FFBFFF761FB07460C20FFF78B
:105AE00043FBB8B1FFF7A0FA80464FF001096B4DB8
:105AF0006C68FFF737FA4146A047694CAB6984F8F8
:105B0000009002939847019470B10023019A13709A
:105B10000124D4E701210B20FFF71EFB614B5B68DA
:105B200098470028DEDAC9E7EB69039398470446F3
:105B30000028EAD1FFF7DAFE337886F80090DBB26E
:105B40000493059B83BB4FF006096FF0030A6FF0C7
:105B50000F0BFCF72BFF0690FFF7B2FE0698AAEB9F
:105B600000030693FCF722FF069BC342F9D46B693E
:105B7000984750B90290FFF7B9FEDDE9013018707F
:105B8000FFF7B4FE049B3370C2E7FFF7AFFEFCF7EC
:105B90000DFFABEB00030693FCF708FF069BC34227
:105BA000F9D4B9F10109D4D10FB9FFF789FE0A2060
:105BB000FFF7DAFAC3B20693FDF77CF8FCF7F6FEBE
:105BC0008146DFF8E4B0ABEB000BDFF8E0A0AAEB16
:105BD000090AFCF7EBFE1AEB000F4AD5FDF76AF84D
:105BE000002F3ED0AB6840469847FCF7DFFE6FF0D1
:105BF0000C031B1A0793FCF7D9FE079BC342F9D489
:105C0000002FE6D1029B9847002836D0FCF7CEFE45
:105C10006FF01408A8EB0008FCF7C8FE18EB000FA3
:105C2000FAD403212B6909A8984703282ED19DF89F
:105C30002630069A934229D100254FF00108FFF73C
:105C400055FE049B019A337000231370002D7FF4DE
:105C50005FAF002F7FF433AF984514BF1C4602247A
:105C60002DE7059B002BBDD0FCF7A0FE1BEB000F22
:105C7000B8D400254FF00008E1E7039B98470028BF
:105C8000C4D16B69984700289FD1BFE70125F1E790
:105C90002310002024100020E81000207488200029
:105CA0002A100020B4892000DEFDFFFFB0FBFFFFBB
:105CB0002DE9F14F06460F461446002A61D0324BBB
:105CC000D3F80090B9F1000F0BD05068FFF718F926
:105CD00001231A463946304601B0BDE8F04F02F0C4
:105CE000E9BC1546DFF8A4A0DFF8A4B0284602F00E
:105CF0002EF9A8460546D8F80400FFF701F90C2054
:105D0000FFF732FAE0B91DB101211320FFF724FAA1
:105D100051461A20FFF72EFA01210B20FFF71CFA3B
:105D2000DBF804309847002802DA01230522D1E786
:105D300001210C20FFF710FAD8F8040002F043FB11
:105D4000002DD3D1204602F002F9254604466868AA
:105D5000FFF7D6F81320FFF707FA80464846FFF70B
:105D6000A3FE032805460CD00246012339463046DF
:105D700002F0A0FC2DB924B14FF00109B8F1000FD9
:105D8000E0D101B0BDE8F08F6C070020E8100020E2
:105D9000B489200040F2E3122DE9F3476F4C054629
:105DA000238893423AD0B3F5F27F08D2002B00F05B
:105DB0008A8040F2B11293420BD0002393E040F26C
:105DC00002229342F9D10023654A1370654A137089
:105DD00007E0644A13780133DBB2012B137000F241
:105DE0008680614B1A78002A74D1604A1268002AB2
:105DF00070D11B780BB9FFF763FD5D4B5B6998476A
:105E0000002865D10122564B1A70FCF7CFFD594B83
:105E1000594A186000231370584A1370524B584F58
:105E20001B7803F0FF06002B7FD13B78002B7CD042
:105E3000FCF7BCFD6FF4CC724E4B1B68C01A1044CB
:105E4000002872DADFF82881DFF82C91D8F81430B6
:105E5000984718B199F800600136F6B289F80060E9
:105E6000464ED8F818A0337801333370D047002855
:105E700055D0002389F800303378D8F81C800A2BDD
:105E800004D9D04710B9C04700284CD0C0470028DB
:105E90004BD13C4B1B789BB12E68FCF787FD331A26
:105EA00013F1120F4FF0000348BF811C00934FF015
:105EB00001022846344B58BF06F11401FEF7BEFC20
:105EC00040F2E3130FE0FCF771FD304B18607AE706
:105ED000FFF732FDFCF76AFD00F110012846FFF7DD
:105EE00075FD40F2B113238002B0BDE8F0871C4B72
:105EF0001B78002B89D1254E336803F5806333600E
:105F0000FCF754FD3368C3F1A003C3427FF55BAFD8
:105F100028463168FFF75AFD40F20223E3E799F87B
:105F20000030052BA8D9FFF707FD3B78002BE2D006
:105F30000F4EB369984760B1FCF738FD0D4B1B68F5
:105F4000C01A6FF4CC7318440028D4DBFFF7F4FCBC
:105F5000D1E7F36998470028EED1F7E79A0E0020C1
:105F600026100020251000202A1000206C07002099
:105F700074882000680700202910002027100020C6
:105F80002810002023100020955D200058070020D5
:105F900008B5024B1B689847023008BD6C89200089
:105FA00038B50C4B9B689847041E02DA4FF0FF305F
:105FB00038BDFFF711F803780546002BF6D1022013
:105FC000FEF7B6FF0028F1D06878FEF7C5FFA01CE9
:105FD000EEE700BF6C89200070B50220FFF72EF8B5
:105FE00010B94FF0FF3070BDFEF7BCFF0026067001
:105FF0000446FEF7BBFF6070FFF716F80446FFF794
:10600000C7FF20442A2812DCC0F12B00C4B2FEF7DF
:10601000E3FF0546FEF7AAFF22463146284401F079
:10602000B3FCFEF7A3FF204480B2FEF795FF044BBC
:106030005B689847041ED4DBFEF7AAFFA01CD2E7DA
:106040006C892000014B9B68184700BF48892000DD
:1060500070B504460D4614200121FFF77DF8034B6F
:1060600029462046BDE870409B6818477889200083
:1060700070B5404B404D5B78832904460E462B702B
:1060800002D13E4802F04FF92388002B56D040F24F
:10609000011293426AD13A4B2A781B789A4252D124
:1060A000862E01D0882E4ED100F014FD0646002821
:1060B00053D00420FCF730FA00F024FD002847D02C
:1060C0003049314801F08EFD0122304B1A6000F05A
:1060D000F9FD002286212E48FEF764FB2D4B0E2190
:1060E000DE6A0120B0476FF008010620B0470F219B
:1060F0002548FEF7F3FF2148FEF7FEFD22496FF029
:1061000008030E222448FDF73FFD00F0EBFD064694
:1061100000F0CEFC2878F1B200F06EFD2EB1012225
:106120001A4B1E481A60FDF72FFD4FF400711C48F2
:1061300001F0A7FE0420FCF7F7F904E08121194AD9
:106140000E48FEF7C7FD40F201130120238070BD09
:1061500015490D4801F046FDBBE71448FDF714FD55
:10616000324686211248FEF71DFBECE70023032090
:106170002380ECE7E81000202B100020700700209F
:106180008C0100203F8C20006B100020DC070020D9
:106190003401002074882000568C20009F8C200041
:1061A000E0070020F88920004B8C2000D28C2000D2
:1061B00004010020832938B504460D4602D12A483F
:1061C000FDF7E2FC2388F3B1B3F5E47F48D1862DD7
:1061D00023D1264B187800F0F1FE0022244B00F06A
:1061E00057FF0022234B00F053FF0022224B00F008
:1061F0004FFF01F087F90146204801F042FE0220DE
:10620000FCF78AF904E01E4B0E210120DB6A984757
:106210004FF4E4730120238038BD882DF8D102208B
:10622000FCF782F9154801F035FE0028F0D000F0A7
:10623000C7FC0028ECD01348FDF7A6FC0B4B002050
:106240001A78114B1A7000F0C1FC002000F06AFCB3
:1062500000F038FD002286210C48FEF7A3FAD7E7AC
:10626000002303202380D7E7FF8C20002B10002081
:106270000000E03F0000104000006040B807002030
:1062800074882000388D20008C01002054010020EB
:10629000F7B5374A374F5278832904460D463A708E
:1062A00002D1354802F062F8238803B3C62B5BD1D4
:1062B000862D33D100F016FD304E054600F0F8FB78
:1062C0003368F3B12E48FDF75FFC2E492E4801F0EC
:1062D00089FC002333602D4B3A7800212C481A703A
:1062E0005D7501F0CEFD0120FCF716F904E0922166
:1062F000284A2148FEF7ACFDC6230120238003B0C5
:10630000F0BD3DB12448FDF73FFC24491E4801F093
:1063100069FCE0E72248FDF737FCEDE7882DEBD17B
:106320001B4801F0B7FD0028E6D000238DF80430AB
:106330001C4B0E211B7801208DF805301A4BDD6AAD
:10634000A8476FF008010620A84764210F48FEF710
:10635000C5FE01A9084802F00BF81448FDF714FC2B
:106360000120FCF7E1F8C7E7002303202380C6E7FC
:10637000E81000202B100020540800200008002006
:10638000818D2000AA8D20009510002094100020FF
:1063900088070020008A2000B18D2000DF8D2000BA
:1063A000E58D20008C010020748820000A8E2000DA
:1063B00037B504200C46FCF7AFF8FEF70DFE01F0F0
:1063C0006FFC05460420FEF7CFFE00B20090627815
:1063D0002178134CEBB225461248FDF7D5FB204639
:1063E000FEF702FE15F8011B0F48FDF7CDFB29460D
:1063F0000E48FDF7C9FB617D0D48FDF7C5FB207810
:1064000000F0F0FB2078617D00F0F6FB0122042013
:10641000084B1A6003B0BDE83040FCF785B800BFF8
:10642000551000202A8E2000648E2000758E2000DA
:10643000898E2000DC070020832970B504460D46B4
:1064400002D1304801F06FFF23886BB140F279121E
:10645000934252D1862D11D10320FCF75DF8002123
:10646000294801F00EFD04E08121284A2548FEF765
:1064700031FC40F279130120238070BD882DF8D1C2
:10648000214801F007FD0028F3D0214D214E22497B
:10649000284601F0A7FB307800F076FB1F4B024640
:1064A0001978307088421FD085F828001C48FDF705
:1064B0006BFB1C4B0E21DE6A0120B0476FF0080118
:1064C0000620B04764212846FEF708FE0D48FEF777
:1064D00013FC002286211448FEF764F900F0F2FB59
:1064E0000320FCF721F8C4E7032000F01BFB002287
:1064F00086210E48FEF756F9F2E700230320238099
:10650000BBE700BF70070020A8070020F889200023
:106510006B1000208C0100209B8E20002B1000208F
:10652000A58E200074882000F40000205401002073
:1065300038B50D460C4B044658780C4B187000F0DB
:1065400063FB832D02D10A48FDF71EFB25883DB968
:106550000848FDF719FB2A4686210748FEF722F96D
:1065600000230320238038BDE81000202B100020DA
:10657000DB8E2000058F20001401002083292DE9E7
:10658000F04104460D4602D13B4801F0CCFE238881
:106590005BB140F23F1293426AD1862D10D14FF485
:1065A000C071364801F06DFC04E09521344A324850
:1065B000FEF790FB40F23F1301202380BDE8F081FD
:1065C000882DF7D12D4801F065FC0028F2D02D4D23
:1065D0002B68002BEED00120FBF79EFF2A4800F02D
:1065E00029FB0026284FDFF8B880404617F8011B2A
:1065F0000136FDF7C9FA062EF7D12448FDF7C4FA93
:106600000026234FDFF89880404657F8041B0136D8
:10661000FDF7BAFA062EF7D11C48FDF7B5FA0026A9
:106620001C4FDFF87C80404617F8011B0136FDF750
:10663000ABFA062EF7D11548FDF7A6FA164B0D2139
:10664000DF6A0120B84703213046B84764210E486D
:10665000FEF744FD0848FEF74FFB1048FDF794FA9B
:1066600000232B6000F022FB0120FBF75DFFA1E778
:10667000002303202380A1E7700700209807002053
:10668000F8892000DC0700202C080020018F200062
:10669000340800204C08002074882000328F20002D
:1066A0002E8F20008329F8B504460D46164602D1E8
:1066B0003B4801F038FE23888BB1B3F5FB7F6AD1EC
:1066C000384B1B78AB4225D1374B9E4215D1002069
:1066D0007568A847B0B90120FBF71EFF0DE04FF425
:1066E0008071314B08469B6898472D4895212F4A69
:1066F000FEF7F0FA2E4800F0BBFA4FF4FB730120CE
:106700002380F8BD0020A8470828F6D10720FBF712
:106710000BFFF2E7274B1B78AB42EED10025244E4E
:10672000254F384616F8011B0135FDF72DFA062DC9
:10673000F7D12248FDF728FA0025214E1E4F384692
:1067400056F8041B0135FDF71FFA062DF7D11B483B
:10675000FDF71AFA00251B4E174F384616F8011B95
:106760000135FDF711FA062DF7D11448FDF70CFAA3
:10677000154B0D21DE6A0120B04703212846B047A2
:1067800064210B48FEF7AAFC0548FEF7B5FA0F484E
:10679000FDF7FAF9B1E7002303202380B1E700BF3A
:1067A00070070020F0100020FC872000F8892000EE
:1067B00004080020EA1000202E8F2000018F200006
:1067C0000C0800202408002074882000618F20001D
:1067D000F8B5038804464BB3B3F50A7F3BD188294B
:1067E0002DD11F4B20205B6898471E4A1E4E136810
:1067F0000011262B174626F8130029DD304601F03C
:10680000D7FF642805461FDD3046FBF741FD0646ED
:1068100001461648FDF7B8F9304601F0BFFF29469A
:106820001348FDF7B1F900233B6004E00C4B242131
:1068300080209B68984706210E4801F022FB4FF408
:106840000A7301202380F8BD022000F057FAE6E722
:1068500001331360EFE7002303800320F3E700BF59
:10686000EC872000D80700209C0E0020898F200094
:10687000B18F2000F0070020034B1878034B1B78E2
:10688000C31A5842584170472B1000208C01002039
:10689000832938B504460D4602D11E48FDF774F928
:1068A00023884BB1B3F5D37F30D1862D09D14FF476
:1068B0008061194801F0E5FA4FF4D3730120238079
:1068C00038BD882DF8D1144801F0E4FA0028F3D03F
:1068D00000F076F90028EFD100F072F918B9FFF74F
:1068E000CBFF054618B10D48FDF74EF9E4E701204E
:1068F00000F06CF9FF220A4B0A481A70FDF744F9C0
:106900002A4686210848FDF74DFFD5E700230320DE
:106910002380D5E7C78F2000C8070020F68F20000E
:106920008C0100202090200014010020054B1B78D2
:10693000834205D1044A1078C01A18BF012070475D
:10694000002070478C0100202B10002037B502205A
:106950000C46FBF7E1FDFEF73FFB01F0A1F9054610
:106960000420FEF701FC00B2009062782178EBB2BF
:106970003548FDF709F90220FBF7D6FD00F020F9B4
:1069800068B16278314B32481A70FDF7FDF8002289
:1069900086213048FDF706FF002000F017F96078E7
:1069A000FFF7C4FF00284CD02B4C2046FEF71CFB01
:1069B00021462A48FDF7E8F82046294901F034F835
:1069C000054660B92A4686212248FDF7EBFE2A4695
:1069D0008621244803B0BDE83040FDF7E3BE2046E1
:1069E000214901F021F8054618B901221F4B1A6010
:1069F000E8E720461E4901F017F80546D8B90246D7
:106A000086211448FDF7CEFE94F828101948FDF7AA
:106A1000BBF894F828300D4A1370174A12789A423E
:106A20000FD11648FDF7B0F8284600F07BF82A464B
:106A300086211348CEE7134803B0BDE83040FDF788
:106A4000A3B803B030BD00BF509020008C010020DF
:106A50008C902000F40000202C100020BE9020001C
:106A60004B8C2000640100203F8C20000008002097
:106A70009B8E2000C49020002B100020CF9020007F
:106A800054010020DC902000064B1A680A2353436F
:106A9000054A126893FBF2F3044AC3F10D03137025
:106AA000704700BF78010020740100208D01002094
:106AB0000128064A08BF0648136808BF016803F1A9
:106AC000010304BF013101601360704774010020AD
:106AD0007801002010B5084B1C783CB1611EC9B28A
:106AE00006481970FDF750F8012010BD0448FDF765
:106AF0004BF82046F9E700BF8D01002015922000D9
:106B000051922000064A1368042B03D1032301206D
:106B1000136070470BB90423F9E7013BF7E700BFA7
:106B2000800100200422104B002810B50F4C1A6081
:106B30000ED1FFF7A9FF0E48FDF726F80D4A0E49C2
:106B40002378126809680D48BDE81040FDF71CB8AD
:106B500002DD20700A48EFE703230A482370BDE8EE
:106B60001040FDF711B800BF800100208D0100200A
:106B7000869220007801002074010020AE9220004F
:106B8000D1922000F492200005280B490AD8034630
:106B900051F8232012B1094AD05C70470133DAB2B0
:106BA000062AF5D10023044A52F8041B0029F2D129
:106BB0000133062BF8D17047700800205393200052
:106BC000014B1868704700BF7C010020012802D8E3
:106BD000024B186070470248FCF7D6BF7C010020CA
:106BE000279320000122034B0138C0B243F8202034
:106BF000704700BF70080020024B0138C0B2195422
:106C0000704700BF8E010020084B094A187000230E
:106C10000138A0EB030CDCF1000103F1010341EBAF
:106C20000C01062B42F8041BF3D17047AA10002078
:106C300088080020F0B50B4A0B4D0C4C431E00F1A8
:106C40000801461D15F8017B03F8017F54F8047B09
:106C5000B34241F8047B12F8017B83F82070F1D134
:106C6000F0BD00BF8E01002053932000700800206B
:106C7000F0B50C4B0C4D197800231F460139421E0C
:106C800000F1080402F8017F55F8046B44F8046B26
:106C9000994214BF092603260133062B82F820608F
:106CA000F0D1F0BDAA100020880800200922044B72
:106CB0001A705A709A70DA701A715A71704700BF60
:106CC0008E01002000230549054A51F8040B0133C9
:106CD000062B42F8040BF8D1704700BF880800204B
:106CE00070080020034B1868012802BF024A12688E
:106CF0001A60704784010020A0080020044B18602F
:106D0000044B1A68012A08BF01201860704700BFB1
:106D1000A00800208401002081F0004102E000BFB3
:106D200083F0004330B54FEA41044FEA430594EA4B
:106D3000050F08BF90EA020F1FBF54EA000C55EA86
:106D4000020C7FEA645C7FEA655C00F0E2804FEA57
:106D50005454D4EB5555B8BF6D420CDD2C4480EA39
:106D6000020281EA030382EA000083EA010180EA69
:106D7000020281EA0303362D88BF30BD11F0004FB7
:106D80004FEA01314FF4801C4CEA113102D04042ED
:106D900061EB410113F0004F4FEA03334CEA133328
:106DA00002D0524263EB430394EA050F00F0A78040
:106DB000A4F10104D5F1200E0DDB02FA0EFC22FA3B
:106DC00005F2801841F1000103FA0EF2801843FA2F
:106DD00005F359410EE0A5F120050EF1200E012A20
:106DE00003FA0EFC28BF4CF0020C43FA05F3C0185E
:106DF00051EBE37101F0004507D54FF0000EDCF1D7
:106E0000000C7EEB00006EEB0101B1F5801F1BD37F
:106E1000B1F5001F0CD349085FEA30004FEA3C0C83
:106E200004F101044FEA445212F5800F80F09A8079
:106E3000BCF1004F08BF5FEA500C50F1000041EB7D
:106E4000045141EA050130BD5FEA4C0C404141EB81
:106E50000101013C28BFB1F5801FE9D291F0000F7C
:106E600004BF01460020B1FA81F308BF2033A3F12B
:106E70000B03B3F120020CDA0C3208DD02F1140C22
:106E8000C2F10C0201FA0CF021FA02F10CE002F15D
:106E90001402D8BFC2F1200C01FA02F120FA0CFC56
:106EA000DCBF41EA0C019040E41AA2BF01EB04519F
:106EB000294330BD6FEA04041F3C1CDA0C340EDC9D
:106EC00004F11404C4F1200220FA04F001FA02F3E0
:106ED00040EA030021FA04F345EA030130BDC4F19E
:106EE0000C04C4F1200220FA02F001FA04F340EA93
:106EF0000300294630BD21FA04F0294630BD94F044
:106F0000000F83F4801306BF81F480110134013D2A
:106F10004EE77FEA645C18BF7FEA655C29D094EA9B
:106F2000050F08BF90EA020F05D054EA000C04BF19
:106F30001946104630BD91EA030F1EBF0021002004
:106F400030BD5FEA545C05D14000494128BF41F0A3
:106F5000004130BD14F580043CBF01F5801130BD07
:106F600001F0004545F0FE4141F470014FF0000092
:106F700030BD7FEA645C1ABF194610467FEA655C43
:106F80001CBF0B46024650EA013406BF52EA0335E5
:106F900091EA030F41F4002130BD00BF90F0000FD3
:106FA00004BF0021704730B54FF4806404F132040F
:106FB0004FF000054FF0000150E700BF90F0000FC8
:106FC00004BF0021704730B54FF4806404F13204EF
:106FD00010F0004548BF40424FF000013EE700BFBF
:106FE00042004FEAE2014FEA31014FEA02701FBF4F
:106FF00012F07F4393F07F4F81F06051704732F081
:107000007F4208BF704793F07F4F04BF41F40021D7
:10701000704730B54FF4607401F0004521F0004135
:107020001CE700BF50EA010208BF704730B54FF0BF
:1070300000050AE050EA010208BF704730B511F0C0
:10704000004502D5404261EB41014FF4806404F1F8
:1070500032045FEA915C3FF4D8AE4FF003025FEA7E
:10706000DC0C18BF03325FEADC0C18BF033202EB02
:10707000DC02C2F1200300FA03FC20FA02F001FA5C
:1070800003FE40EA0E0021FA02F11444BDE600BFFF
:1070900070B54FF0FF0C4CF4E06C1CEA11541DBFAE
:1070A0001CEA135594EA0C0F95EA0C0F00F0DEF879
:1070B0002C4481EA030621EA4C5123EA4C5350EA5E
:1070C000013518BF52EA033541F4801143F48013AF
:1070D00038D0A0FB02CE4FF00005E1FB02E506F040
:1070E0000042E0FB03E54FF00006E1FB03569CF095
:1070F000000F18BF4EF0010EA4F1FF04B6F5007F9B
:1071000064F5407404D25FEA4E0E6D4146EB06060C
:1071100042EAC62141EA55514FEAC52040EA5E5095
:107120004FEACE2EB4F1FD0C88BFBCF5E06F1ED83F
:10713000BEF1004F08BF5FEA500E50F1000041EB76
:10714000045170BD06F0004646EA010140EA020023
:1071500081EA0301B4EB5C04C2BFD4EB0C0541EA45
:10716000045170BD41F480114FF0000E013C00F35A
:10717000AB8014F1360FDEBF002001F0004170BD7E
:10718000C4F10004203C35DA0C341BDC04F1140497
:10719000C4F1200500FA05F320FA04F001FA05F223
:1071A00040EA020001F0004221F0004110EBD370F0
:1071B00021FA04F642EB06015EEA430E08BF20EA1C
:1071C000D37070BDC4F10C04C4F1200500FA04F3BF
:1071D00020FA05F001FA04F240EA020001F0004151
:1071E00010EBD37041F100015EEA430E08BF20EAC4
:1071F000D37070BDC4F1200500FA05F24EEA020E0C
:1072000020FA04F301FA05F243EA020321FA04F03A
:1072100001F0004121FA04F220EA020000EBD370F1
:107220005EEA430E08BF20EAD37070BD94F0000FF1
:107230000FD101F00046400041EB010111F4801F25
:1072400008BF013CF7D041EA060195F0000F18BFD6
:10725000704703F00046520043EB030313F4801F12
:1072600008BF013DF7D043EA0603704794EA0C0FCC
:107270000CEA135518BF95EA0C0F0CD050EA4106E2
:1072800018BF52EA4306D1D181EA030101F000415F
:107290004FF0000070BD50EA410606BF1046194687
:1072A00052EA430619D094EA0C0F02D150EA013693
:1072B00013D195EA0C0F05D152EA03361CBF1046D4
:1072C00019460AD181EA030101F0004141F0FE4173
:1072D00041F470014FF0000070BD41F0FE4141F4F7
:1072E000780170BD70B54FF0FF0C4CF4E06C1CEAF7
:1072F00011541DBF1CEA135594EA0C0F95EA0C0FAC
:1073000000F0A7F8A4EB050481EA030E52EA033566
:107310004FEA013100F088804FEA03334FF0805587
:1073200045EA131343EA12634FEA022245EA1115B4
:1073300045EA10654FEA00260EF000419D4208BF65
:10734000964244F1FD0404F5407402D25B084FEA12
:107350003202B61A65EB03055B084FEA32024FF4BE
:1073600080104FF4002CB6EB020E75EB030E22BF1B
:10737000B61A754640EA0C005B084FEA3202B6EBDB
:10738000020E75EB030E22BFB61A754640EA5C008A
:107390005B084FEA3202B6EB020E75EB030E22BF1A
:1073A000B61A754640EA9C005B084FEA3202B6EB1B
:1073B000020E75EB030E22BFB61A754640EADC00DA
:1073C00055EA060E18D04FEA051545EA16754FEA3C
:1073D00006164FEAC30343EA52734FEAC2025FEA5A
:1073E0001C1CC0D111F4801F0BD141EA00014FF0E9
:1073F00000004FF0004CB6E711F4801F04BF0143BA
:107400000020B4F1FD0C88BFBCF5E06F3FF6AFAED5
:10741000B5EB030C04BFB6EB020C5FEA500C50F165
:10742000000041EB045170BD0EF0004E4EEA1131E8
:1074300014EB5C04C2BFD4EB0C0541EA045170BDEF
:1074400041F480114FF0000E013C90E645EA060E33
:107450008DE60CEA135594EA0C0F08BF95EA0C0F61
:107460003FF43BAF94EA0C0F0AD150EA01347FF4A9
:1074700034AF95EA0C0F7FF425AF104619462CE780
:1074800095EA0C0F06D152EA03353FF4FDAE1046E3
:10749000194622E750EA410618BF52EA43067FF434
:1074A000C5AE50EA41047FF40DAF52EA43057FF4C4
:1074B000EBAE12E74FEA410212F5001215D211D5D8
:1074C0006FF47873B3EB625212D94FEAC12343F0E1
:1074D000004343EA505311F0004F23FA02F018BF63
:1074E000404270474FF00000704750EA013005D12C
:1074F00011F0004008BF6FF0004070474FF00000EF
:10750000704700BF4A0011D212F5001211D20DD5FA
:107510006FF47873B3EB62520ED44FEAC12343F099
:10752000004343EA505323FA02F070474FF0000043
:10753000704750EA013002D14FF0FF3070474FF0F2
:107540000000704753B94AB9002908BF00281CBF82
:107550004FF0FF314FF0FF3000F06EB9ADF1080C85
:107560006DE904CE00F006F8DDF804E0DDE9022361
:1075700004B070472DE9F047089E0D4604468E463C
:10758000002B40F083808A42174647D9B2FA82F333
:107590004BB1C3F1200105FA03FE20FA01F19F402F
:1075A00041EA0E0E9C404FEA1748BEFBF8FC1FFA5A
:1075B00087F908FB1CE20CFB09F0210C41EA0242AE
:1075C00090420AD9BA180CF1FF3180F0188190422C
:1075D00040F21581ACF1020C3A44121AB2FBF8F0F9
:1075E00008FB102200FB09F1A4B244EA0244A142C4
:1075F00009D93C1900F1FF3280F00381A14240F229
:10760000008102383C44641A002140EA0C401EB15B
:107610000022DC40C6E90042BDE8F08702B9FFDE87
:10762000B2FA82F3002B4FD18D1A01214FEA124E8C
:107630001FFA82F8B5FBFEFC0EFB1C5508FB0CF094
:10764000220C42EA0545A84207D97D190CF1FF3208
:1076500002D2A84200F2E98094462D1AB5FBFEF052
:107660000EFB105508FB00F8A4B244EA0544A045FF
:1076700007D93C1900F1FF3202D2A04500F2D980AF
:107680001046A4EB080440EA0C40C0E78B4208D93E
:10769000002E00F0B1800021C6E900050846BDE8D3
:1076A000F087B3FA83F100294BD1AB4202D3824277
:1076B00000F2B980841A65EB030301209E46002E78
:1076C000AAD0C6E9004EA7E79F40C3F12002D140EF
:1076D0004FEA174EB1FBFEF01FFA87F80EFB1011B0
:1076E00024FA02F29D4000FB08FC2A43150C45EAEF
:1076F0000145AC4504FA03F409D97D1900F1FF31C5
:1077000080F08F80AC4540F28C8002383D44A5EB80
:107710000C05B5FBFEF10EFB115C01FB08F995B2FF
:1077200045EA0C45A94507D97D1901F1FF3274D20C
:10773000A94572D902393D44A5EB090541EA00414A
:1077400078E7C1F120078B4022FA07FC4CEA030CD2
:1077500025FA07F44FEA1C4EB4FBFEF91FFA8CF829
:107760000EFB194420FA07F309FB08FA8D401D436C
:107770002B0C43EA0444A24502FA01F200FA01F399
:1077800009D91CEB040409F1FF3048D2A24546D9BF
:10779000A9F102096444A4EB0A04B4FBFEF00EFB59
:1077A000104400FB08FAADB245EA0444A24508D9EA
:1077B0001CEB040400F1FF352DD2A2452BD9023871
:1077C000644440EA0940A0FB0289A4EB0A044C454A
:1077D000C6464D4619D316D05EB1B3EB0E0264EB2C
:1077E000050404FA07F722FA01F31F43CC40C6E967
:1077F00000740021BDE8F087314630460CE78C4626
:10780000EBE61046FFE64345E6D2B8EB020E69EB25
:107810000C050138E0E72846D3E711468CE781469E
:10782000B9E7084673E7084649E7ACF1020C3D4466
:1078300013E702383C4424E7704700BF032A70B4C2
:1078400012D940EA0105AD0704460B4620D119467E
:10785000204653F8045B54F8046BAE4218D1043A46
:10786000032A20461946F2D8541E72B103780A78CA
:107870009A4208BF241806D00CE010F8013F11F816
:10788000012F934206D1A042F7D1002070BC70476F
:10789000541EEBE7981A70BC704700BF844641EA5B
:1078A000000313F0030349D1403A23D30B6803606C
:1078B0004B6843608B688360CB68C3600B6903616E
:1078C0004B6943618B698361CB69C3610B6A036256
:1078D0004B6A43628B6A8362CB6AC3620B6B03633E
:1078E0004B6B43638B6B8363CB6BC3634030403123
:1078F000403ADBD230320BD30B6803604B684360F5
:107900008B688360CB68C36010301031103AF3D2BB
:107910000C3205D351F8043B40F8043B043AF9D249
:10792000043208D0D2071CBF11F8013B00F8013B1C
:1079300001D30B8803806046704700BF082A13D329
:107940008B07B1D010F00303AED0C3F10403D21AF9
:10795000DB071CBF11F8013B00F8013BA4D331F851
:10796000023B20F8023B9FE7043AD9D3013A11F8D1
:10797000013B00F8013BF9D20B7803704B78437060
:107980008B78837060467047F0B4860746D0541EEB
:10799000002A3CD0CAB2034602E014F1FF3436D3C9
:1079A00003F8012B9D07F8D1032C29D9CDB245EA64
:1079B00005250F2C45EA054533D9A4F110063609F3
:1079C00003F1200707EB061703F1100242E9045503
:1079D00042E902551032BA42F8D1721C14F00C0F71
:1079E00003EB021204F00F0613D0331F23F003033E
:1079F0000433134442F8045B9342FBD106F00304C2
:107A00002CB1C9B21C4403F8011B9C42FBD1F0BC51
:107A1000704734461346002CF3D1F8E7144603466A
:107A2000C2E71A462646E0E780EA010C1CF0030F85
:107A300037D110F0030C20F0030021F0030150F8BF
:107A4000042B08BF51F8043B0ED08CF0030C6FF0F0
:107A50007F434FEACC0C23FA0CFC51F8043B42EA7A
:107A60000C0243EA0C0300BFA2F1013C9A4201BFA1
:107A70002CEA020C1CF0803F50F8042B51F8043B18
:107A8000F2D04FEA02604FEA1222012828BFB0EB81
:107A9000036F08BF1B0AF4D003F0FF03000EC01AE7
:107AA000704710F0030F0AD010F8012B11F8013BBA
:107AB000012A28BF9A42F4D0A2EB030070474DF888
:107AC000045D50F8042B01F0030521F0030151F887
:107AD000043B022D26D04DD822F07F45B5EB132F65
