:020000040020DA
:10200000201C00208D2220002B712000297120002F
:102010002971200029712000297120000000000092
:10202000000000000000000000000000AF7720006A
:102030002971200000000000CD7720008D71200064
:102040009F712000A5712000AB712000B1712000AC
:102050000000000093712000997120002971200078
:1020600029712000000000000000000000000000B6
:1020700000000000000000002971200000000000A6
:1020800000000000000000002971200029712000DC
:102090002971200029712000297120002971200058
:1020A0002971200029712000297120002971200048
:1020B0002971200029712000297120002971200038
:1020C0002971200029712000297120002971200028
:1020D0002971200000000000000000000000000046
:1020E00000000000000000000000000000000000F0
:1020F0000000000000000000E9372000F937200050
:1021000000000000000000000000000000000000CF
:1021100000000000000000000000000000000000BF
:1021200000000000000000000000000000000000AF
:10213000000000000000000000000000000000009F
:10214000000000000000000000000000000000008F
:10215000000000000000000000000000000000007F
:10216000000000000000000000000000000000006F
:10217000000000000000000000000000000000005F
:10218000000000000000000000000000000000004F
:10219000000000000000000000000000000000003F
:1021A000000000000000000000000000000000002F
:1021B000000000000000000000000000000000001F
:1021C000000000000000000000000000000000000F
:1021D00000000000000000000000000000000000FF
:1021E00000000000000000000000000000000000EF
:1021F00000000000000000000000000000000000DF
:1022000000000000000000000000000000000000CE
:1022100000000000000000000000000000000000BE
:1022200000000000000000000000000000000000AE
:10223000000000000000000000000000000000009E
:10224000000000000000000000000000000000008E
:10225000000000000000000000000000000000007E
:10226000000000000000000000000000000000006E
:1022700029712000CD362000F13620008D2D200060
:102280005D392000B928200029712000FF22482450
:1022900008B5084B08481A60084AE3690849121A49
:1022A00098470848084A0021A369121A984700F085
:1022B0000DF8FEE7B4200D404000002094050020FA
:1022C0007C862000980500201B14002073B500F0C8
:1022D00041FC00F0F9FC00F057FC00F05BFA01F063
:1022E0002BFB04F0F6FF00F0E7FC00F0B3F8012050
:1022F00004F01EFF02F032F900F018FC002000F09C
:1023000033FB012000F030FB0020404900F0F8FBD7
:1023100002F058FA62B6042004F00AFF3C4804F0C8
:102320006CFF3C4804F069FF00F0D2F9002002F095
:10233000F5FA01F0F1F90021374802F09BF901F0BC
:102340007DFF04F021FF00F045FD00F061FD02F08B
:102350005BFE0821684601F015FB9DF806309DF8EC
:1023600007502E4C45EA0325BDF806302C48238043
:1023700001F04AFB2B4E21782B4801F045FB617898
:102380002A4801F041FBF46A4AF6CD310220A04709
:1023900029460320A0471A210120A04708226946A8
:1023A000736B0B209847224801F02EFB214B1868D5
:1023B00004F023FF204801F027FB204B186804F0AD
:1023C0001CFF1F4801F020FB1E4B186804F015FF8E
:1023D00000211D4802F04EF91C4B01219B68812011
:1023E000984704F061FF1A4804F054FF00F0A4FB82
:1023F000022004F09DFE00F0A5FB02F0C7F810F0EB
:10240000FF0FF8D101F02CFAF5E700BF7D4720005F
:10241000D27D2000E47D2000A804002012140020BA
:10242000097E2000447C2000277E20002D7E200095
:10243000337E2000187D20003A7E2000487D200059
:10244000417E2000647D2000C8040020CC7B200059
:10245000A07D200008B500F0DFF80022014B1A70C3
:1024600008BD00BF22120020024B1A7810431870DA
:1024700000F0F6B822120020034A137823EA000085
:10248000107000F0EDB800BF2212002018B1012832
:1024900004D000207047034B18687047024B18782F
:1024A000704700BF20900D402312002010B5094A4C
:1024B0000020137801331370074B197802F0B2F83B
:1024C000BDE8104005490023054A0968054801F0A8
:1024D000EBBE00BF2312002014140020D005002002
:1024E000AD242000B005002008B50346812B084626
:1024F0002BD0B3F5807F39D0802B24D102F026F881
:102500001C4B1D4A18701368032123F00803136045
:1025100052F8203C002023F0080342F8203C52F8F7
:102520001C3C23F0080342F81C3C52F8183C43F0D2
:10253000080342F8183C042200F0D4FB03220021D7
:102540000E4800F073FB012008E00D4B0D491A689E
:1025500028B142F008021A6001230B6008BD22F086
:1025600008021A600123C1F88030F7E7064B1960B2
:10257000E9E700BF1414002020940D408D252000B1
:1025800010940D4000E100E0D005002008B50F4890
:1025900004F0A8FEC8B108210C4804F09CFE0C4BC6
:1025A000196849B100220B4B1A700B4B1B6843B9D9
:1025B0000A4A0B4801F078FEBDE80840094802F0DD
:1025C0007DB9074801F07AFEF6E708BDA8050020AE
:1025D000D00500202312002020900D40AD242000C3
:1025E000B0050020CC7B2000084A136823F00403C8
:1025F000136052F8203C43F0040342F8203C0022D0
:10260000034B1A600122034B1A70704720C40D401F
:1026100010C00D40241200200D4A0E49136823F00B
:10262000C003136052F8203C43F0C00342F8203C42
:102630000022094B1A600B6823F010030B6051F85D
:10264000203C43F0100341F8203C044B1A607047D3
:1026500020A40D4020C40D4000A30D4040C00D40FB
:1026600010F0020218BFFF22084B1A6010F004029B
:1026700018BFFF22064B10F001001A6018BFFF229E
:10268000044B14BF1A601860704700BF00A20D40D1
:1026900000A10D4040C00D40044B1B68C3F3072050
:1026A00013F4704F04BF1030C0B270471C300D409F
:1026B000064B1868C00910F0060F03BF00F00700B2
:1026C000C0F1020040034FF40040704714300D4049
:1026D0002DE9F047482488B0FFF7DEFF164B064689
:1026E0001F68A36898476368804698470446FFF7C9
:1026F000DFFF054600F082FA814600F08BFA824641
:1027000000F038FAAD0A07F00103A40AC7F3400746
:10271000CDE905A003934146CDF8109002970195AD
:10272000009406F00F03C6F30712044801F06CF999
:1027300008B0BDE8F08700BF1C300D404F7E200080
:102740002DE9F84300F07AF810490246D1E9004536
:10275000AC46A04238BF05F1010C6346C1E9002335
:102760000B48D0E90089B8EB040169EB05048E1829
:1027700044EB0C07C0E9006701F052FE18B1BDE858
:10278000F84301F0D1BDBDE8F88300BFA0050020EB
:1027900098050020E0210D4B0D4A5A600D4A82F841
:1027A0002310002207219A6019600B490B6843F03F
:1027B00001030B60094B1A60042243F80C2C012220
:1027C00043F8082C0F22DA62704700BF10E000E0E7
:1027D00047E8010000ED00E008200D400C00034038
:1027E000034BD3E90023100A40EA0360704700BF9F
:1027F000A0050020054B186053F81C2C1C3B42F030
:1028000001021A601A68D207FCD4704728000340FE
:1028100010B5064C236823F001032360FFF790FFF7
:10282000236843F00103236010BD00BF10E000E007
:10283000014B1868704700BFD4050020064B18688C
:102840005A6808331B681B0443EA0223034A034304
:10285000106843EA0060704740500D404C500D40F6
:10286000014608B5104A1368DB07FCD572B6FFF7BE
:10287000E5FF0B1A062BD8BFC11D0C4B0A0E1A60C0
:10288000C1F3074243F8042CC1F3072243F8082C94
:10289000CAB243F80C2C62B64FF40032044B1960F4
:1028A000044B1A6108BD00BF50500D404C500D4004
:1028B000D405002000E100E008B500F0B9FF0022D7
:1028C000064B1A604FF40032054BC3F89021C3F851
:1028D0009020BDE8084001F0F1BE00BFD405002003
:1028E00000E100E0064B1B681B075FBF054B186843
:1028F00080F00800C0F3C00048BF0020704700BF50
:1029000018C0004018D000402C23154A70B503FBB6
:1029100000234FF6BF72DC680546236C626413F037
:1029200050020DD00F4EA369DB0600D570BD56F8DE
:1029300025301BB12068C0B29847F4E72368F2E75E
:1029400013F4D06FF2D04FF440732363FF2363601E
:10295000E36AE262E362236B43F001032363E5E78A
:10296000DC7B2000D80500202DE9F04F0128064629
:1029700085B000F2B4802C2545435A4F7C1994F958
:102980002090B9F1000FC0F2AA8094F922B0BBF1F7
:10299000000FC0F2A4804FF00008534800F0BAFFC7
:1029A000524978590A6894F921A002430A604A689A
:1029B0006068E56802434A608A68A06894F9233039
:1029C00002438A6022690AEBC901C5F8C88F116009
:1029D00094F823105FFA8BF0227D0193CDE9020178
:1029E00000F08AF9DDE90201082200F07BF90123F9
:1029F0003F494FEA0B32019852F801C003FA00FB3D
:102A00004BEA0C0050504FEA093959F8012003FAFB
:102A10000AFA4AEA020249F801205022AA63AA6B84
:102A200094F9240042F4D062AA6302226A634FF44C
:102A300040722A63A26940456A62E269AA624FF065
:102A40007002EA620D4614DB94F92510294A41EA26
:102A5000C0041460020354598B4023435351C9B23C
:102A60004246C0B200F03EF9234A136843F40043E3
:102A700013602C2303FB067393F92640002C1BDB09
:102A800093F827905FFA84F801224946404693F96B
:102A900027A000F031F901232403625903FA0AF355
:102AA0001343635108224946404600F01BF9124A7D
:102AB000136843F4804313602C2000FB0676F26811
:102AC000136B43F001031363012296F82830590970
:102AD00003F01F0302FA03F3084A42F8213005B05D
:102AE000BDE8F08FDC7B2000E528200028200D4089
:102AF00020940D4004410D4030D0004000E100E042
:102B000001289CBF014B43F820107047D8050020D6
:102B1000012808D82C22044B02FB0030C3689A69B4
:102B20009206FCD419607047DC7B20000022014B28
:102B30001A60704700500D400822014B1A60704720
:102B400000500D40A022024B1A6050221A607047BC
:102B500000500D40014A024B9A607047002020004F
:102B600000ED00E0024B1868C0F38150704700BFD1
:102B700004200D4008B5FFF7F5FF024B53F8200085
:102B800008BD00BF347C200038B5164D164C2B68AC
:102B9000012223F040032B602368062123F0400329
:102BA0000320236000F09EF82B68012223F08003AD
:102BB0002B602368072123F080032360032000F0AB
:102BC00091F80A4B0A4A0B491A600B4A13461068DF
:102BD0000842FCD11A685101FCD41A685201FCD594
:102BE00038BD00BF20C40D4000C40D4000200D4082
:102BF000010102000000010104200D40034B0448C4
:102C00001B6803F007031841704700BF04200D4004
:102C10000048E801034B04481B68C3F30223184132
:102C2000704700BF04200D400048E801024B02EB52
:102C3000C10243F822007047E0050020F8B50746BE
:102C40000D460024084E06EB411647FA04F3DB0755
:102C5000E1B204D556F824300BB128469847013428
:102C6000082CF2D1F8BD00BFE00500202DE9F843A3
:102C70000546DFF8408000F0DBFD0C4B2E03F758D3
:102C800056F808404FEAC50924FA09F447EA040057
:102C90002946C0B2FFF7D2FFE4B2054BFFB204FAF7
:102CA00009F4F75046F80840BDE8F88318940D4041
:102CB0001C940D4018970D4080220021014804F01B
:102CC00053B800BFE0050020034B044A1A60044BD0
:102CD000803A1A60704700BF6006002080400D40B7
:102CE00064060020034B01EBC0011B6843F8212060
:102CF000704700BF60060020034B01EBC0011B685A
:102D000043F82120704700BF640600200E2870B5EC
:102D100006460BD1134B1C6844F0020018601248A1
:102D2000056825F03F0343F0010303600F48036883
:102D300023F0FF031A43114331430D4A0160136826
:102D40001B06FCD50B4B0C4A1B68106803F0FC03F8
:102D500043EA00230E2E18B201BF034B1D60014B46
:102D60001C6070BD34000144F486084008700D40BA
:102D700000700D400C700D4010700D40024B186833
:102D8000B0FA80F04009704700B708404FF40042A5
:102D9000064B10B5064CC3F89021C3F8902020686C
:102DA00018B101F07FFC0023236010BD00E100E0BA
:102DB00068060020064A136843F002031360536854
:102DC00043F002035360936843F00203936070473B
:102DD00048200D4007B50C4800F09CFDFFF7EAFFC6
:102DE0000A4B1A6842F002021A6000220192019A0C
:102DF0000F2A06DD1A6822F002021A6003B05DF89D
:102E000004FB019A0132F1E77D2D200054200D4092
:102E1000064A136823F002031360536823F0020389
:102E20005360936823F002039360704748200D407D
:102E30000B4B1A689207FCD41B685B065FBFED2240
:102E4000084B1A601A60084B1B6813B1EF22054B40
:102E50001A60064A0120137803F07F03137070474D
:102E60004C860840388808402C86084027120020ED
:102E7000044B186800F02200A0F12003584258418A
:102E8000704700BF4C860840024B186800F04000B5
:102E9000704700BF4C860840204B1870002832D085
:102EA0001F4A13681B03FCD51E4B1A6842F002022E
:102EB0001A601A6842F001021A601A685007FCD5BD
:102EC0001A6822F001021A601A685107FCD41A68C5
:102ED00042F002021A601A6842F001021A601A688F
:102EE0005207FCD5104A136823F004031360D2F88C
:102EF000A83123F00403C2F8A8314FF400520B4B61
:102F0000C3F890207047084A136843F00403136025
:102F10004FF40052054B1A61704700BF2612002083
:102F200004200D40048808408C86084000E100E041
:102F3000084B93F90020002A09DBED21064A1160B5
:102F40001160E32111601A7862F07F021A7001208B
:102F5000704700BF2712002038880840A0F10B01FD
:102F6000CBB20F2B10B5044613D80B4B1B6813F0D4
:102F70003F0302D0FFF75CFF0123084A01EB810108
:102F80000B3111600BB1FFF7D3FF054B60B21C7022
:102F900010BD4FF0FF30FBE7488608403C860840F4
:102FA0008A05002010B50C46002900F08680102804
:102FB00000F28580DFE800F009101B22243B445713
:102FC0005C727683837B7D547F003E4B1B68003BA5
:102FD00018BF0123236024E005223B4B1B6803F04C
:102FE0007F030B3B93FBF2F30B33DBB2F2E7374B80
:102FF0001A68043B1B6843EA0223EBE7344BF7E70C
:1030000000230B60334B344A1B6803F001030B6051
:103010001268900644BF43F002030B602F4B1B78ED
:103020000BB900200BE00B6843F00403D2E700204B
:103030002B4B08601B78002BF3D001230B6010BDD5
:10304000284B29491A680023D2B201EBC30000794A
:10305000904202D851F83330BCE701330E2BF4D143
:103060006FF01703B6E7214B1B685BB2493BB1E732
:103070001F4B1B6899060FD1FFF75AFF01231D490B
:103080000A68D207FCD51C4A1168493949B20BB10C
:10309000FFF7CEFE2160C4E70023F0E7174B93F95A
:1030A000003097E7164B1B7803F07F0392E70B2362
:1030B00090E71A238EE707238CE70220BFE7012061
:1030C000BDE700BF2C8608403C860840CC85084000
:1030D000D485084000860840248608402612002037
:1030E0008B050020408608407C7C200058860840E4
:1030F0004886084064860840608608402812002000
:103100002512002008B50B4B1B6899060FD1FFF75D
:103110000FFF012308490A68D207FCD5074A116846
:10312000C1F300110BB1FFF783FE084608BD002371
:10313000F0E700BF48860840648608404C86084097
:1031400008B507285FD8DFE800F0040F1A212440F3
:103150004659012903D1FFF7EBFE00203AE0002990
:1031600053D1FFF765FEF8E7A1F10B030F2B4CD805
:10317000C8B2FFF7F3FE0130EFD103202AE0244B61
:10318000CAB2C1F307211A605960E6E7214BCAB2FF
:10319000F7E731F0070338D11F4B11F0010F1A6820
:1031A000C1F3800014BF42F0010222F001021A6054
:1031B0001A4B11F0020F1A6814BF42F0200222F0DD
:1031C00020021A60FFF768FEC7E731F001001CD14A
:1031D000134B197008BD01F118031F2B15D80D23CF
:1031E000104A52F83300814205DC02EBC3031A791E
:1031F0000D4B1A60B1E7013BF3D2AEE70B4BC9B2FE
:1032000049311960A9E70120E4E70220E2E700BFA5
:10321000C8850840D08508400086084024860840BC
:103220008B0500207C7C20004086084058860840A2
:1032300038B505460C46134A13689B07FCD4124B5D
:1032400093F90030002B01DBFFF772FEEE220F4BEB
:10325000691E1A601A60A21C43F8102C2144022037
:1032600000F074FA0A49013C41EA0411022000F01E
:103270007FFA022000F086FA022000F09BFA00207C
:1032800038BD00BF4C86084027120020388808400F
:1032900002C001C0F8B5224B93F90030002B18DBB7
:1032A000FFF7CCFA0446FFF743FEC4F1FF2404F510
:1032B0007F04F634FFF7C2FAC442FBD40126194B4F
:1032C0001B7843B9184C2368990609D50221084692
:1032D000F8BD0026F3E7FFF715FF0028F2D1F5E768
:1032E000E9230427114D2B6023689A0703D4013F7B
:1032F00017F0FF070BD123689B070CD4EE230121A5
:103300002B602B60002EE2D0FFF792FDDFE7062056
:10331000FFF770FAE8E7216811F00201FBD1F1E74D
:10332000271200208B0500204C8608403888084072
:103330000B280DD1082A0DD161B1074B074A08317E
:1033400011F8010D43F8040B9342F9D100207047A6
:103350000120704702207047A8850840C8850840B2
:1033600070B52F4E0246306810F0400008D02D4D49
:103370002868040605D5ED2200202B4B1A601A6040
:1033800070BDC0B20428F6D902388842F3DCC4B25A
:10339000032C1ED12B6813702B6853702B6893700D
:1033A0002968224B493949B219702B68204D1806FB
:1033B0002B70E0D589B2042001F0FCFD29780320B0
:1033C00001F07F0101F0F6FD1A4B1B78CBB12046CE
:1033D000D6E711190320013900F0C0F9164B611E20
:1033E000032043EA011100F0C3F9032000F0CAF9F9
:1033F000032000F0DFF9032000F0E8F90028FAD1FB
:10340000CEE733685A06E2D533681B0603D50B486E
:1034100001F048F9DBE7ED22034B1A601A60D6E7AA
:103420004C86084028880840388808402812002028
:10343000251200202612002002C0010C800400206A
:10344000F8B52A4F3D7815F001054CD10124F8223A
:10345000274B7F261C605C609C60A3F59323A3F53B
:1034600014731A600922C3F8902115221A670B22DF
:10347000703303F59B23C3F83C21402203F59E7370
:10348000A3F59B23A3F5F0731A601A6842F020029B
:103490001A60D52243F81C5CDE62DA61154B18789D
:1034A000FFF75CFD4FF48042134B02201E60134B6C
:1034B0001A6100F073F91249022000F04FF903205D
:1034C00000F06CF90E49032000F040F90D4B18781C
:1034D000FFF7E2FC0C48294601F0CCF820463B7887
:1034E00023433B70F8BD0020FCE700BF27120020FB
:1034F000A8200D408A0500209486084000E100E0E5
:1035000028880840261200208004002038B503884F
:10351000044653B340F20342934233D11B4B187815
:103520001A4638BB822923D1137873B901F0F4FC11
:1035300001F080FC8021FFF713FF002805DD80B239
:1035400001F038FC124B1B699847124B1A7852064F
:103550000BD500221A70104B1D68FFF769FCFFF7AE
:103560006FFFAB0601D0FFF7E3FC40F2034323807B
:1035700001200AE01B78002BFAD0064B1B78580676
:10358000F6D5CFE700230380032038BD26120020A4
:10359000647D200027120020488608400B282DE972
:1035A000F0470C460FD1082A79D1002977D03D4B3E
:1035B0003D4A4C1E53F80419934204F8011FF9D1F7
:1035C0000020BDE8F0870C2867D1042A67D10029C4
:1035D00065D0364B36491A68DFF8E48022F00702DE
:1035E0001A600A68334F42F008020A60D8F80000F7
:1035F0003A681D68DFF8CCE0DFF8CCC025F0700534
:103600001D60DEF80050DCF80060C0B2120240EA33
:10361000066092B202434FEA0549274809F47F0940
:10362000D0F800A042EA09061A685FFA8AF522F08B
:10363000070242F001021A600A6842F008020A60BA
:10364000D8F800203F68196821F0700141F010019E
:103650001960DEF80010DCF800C0D3B23A0243EA89
:103660000C6392B213430A04016802F47F0243EA36
:1036700002085FFA81F9FFF7E1F8B6EB080165EBA4
:103680000905ED0307460023C8030C4A45EA5141EA
:1036900003F048F93F1A276092E7012091E70220E2
:1036A0008FE700BFC4850840A48508401088084003
:1036B00004880840188808401C8808400048E80131
:1036C00014880840248808402088084008B5054B25
:1036D0001B7813B9044800F0E5FF0022034B1A6081
:1036E00008BD00BF26120020800400203488084056
:1036F000064B07481A68042A1FBF06490A7842F099
:1037000040020A7000221A6000F0CCBF2C880840EA
:10371000800400202712002008B5094B4022002118
:10372000184603F021FB0121064A074B1160506047
:103730004FF480425A604FF400425A6008BD00BF07
:103740000000002004F00F4000E100E003289EBFCD
:10375000014B0001195070470000002003289EBF54
:10376000024B03EB00104160704700BF00000020D7
:1037700003289EBF024B03EB00108160704700BF1F
:1037800000000020032806D80123034A03FA00F0B2
:10379000116808431060704728F00F40032806D8CE
:1037A0000123034A03FA00F01168084310607047D0
:1037B00020F00F40032806D80123034A03FA00F043
:1037C000116808431060704714F00F4003289FBF32
:1037D000044B03EB0010806800F0070088BF002056
:1037E000704700BF000000204FF0FF32014B1A600D
:1037F000704700BF04F50F400122014B1A6070476B
:103800004CF00F40084B19461A68D002FCD4074B05
:103810001A6822F480321A600A68D203FCD41A684B
:1038200042F400321A60704704200D4000200D4021
:1038300010B5094C226890070DD0084B1A4619683C
:103840004901FCD413685B01FCD5FEF7E1FFFFF7EB
:10385000D9FF0023236010BD58200D4004200D40E7
:1038600038B5264B1C6814F03F0414D1244D55F88C
:10387000043B23B1984770B10134052CF7D1214D99
:103880002B7843B1FEF7D4FF0446FEF7D7FF201A8A
:10389000092800D90CB930BF27E01B4B1A6822F465
:1038A00000321A60194A11461068C002FCD41A6826
:1038B00042F480321A600B68DB03FCD5FEF7BEFFD2
:1038C000241A092C03D8BDE83840FFF79BBF632CAE
:1038D0000F4C0BD92B78022B08D1236000F098FEF7
:1038E00030B1FFF78FFF0023236038BD0123F4E7D9
:1038F000FEF79EFF0028F4D0CDE700BF48860840C1
:103900006C0600202912002000200D4004200D40EC
:1039100058200D40074A10B50023144652F8041BE6
:10392000814202D011B944F8230010BD0133052BA8
:10393000F4D1FAE76C0600200022054B05491A6015
:103940000B6943F004030B61034B1A70704700BF0F
:1039500058200D4000ED00E0291200204FF4803285
:10396000064B10B5064CC3F89021C3F89020206890
:1039700018B100F097FE0023236010BD00E100E0C5
:103980008006002070B51C4B1A78431E52B101F519
:1039900020121A4C2732A2421AD012F8015903F809
:1039A000015FF8E7164A1278122AF0D1154A127808
:1039B0004B2AECD14C0804F52012104D2732AA42B4
:1039C0000ED1002301F5201205192732A3420CDB8A
:1039D0000223014401F8013C002301F8023C70BDC0
:1039E00012F8016903F8016FE9E7D61A3678013356
:1039F00005F8016BEAE700BF2B002800270028002C
:103A00002A002800290028000FB407B504AA52F89C
:103A1000041B0448019200F021F803B05DF804EBA8
:103A200004B070479004002070B505460C460A4E5D
:103A3000102C07D874B122462B6868680649BDE887
:103A400070401847102231462B686868984710B9B3
:103A5000103CEDE7204670BD6F7F20002DE9F04F50
:103A60000746154600268FB00791079B1B78002B51
:103A700000F09C83079B1A781C460133002A00F053
:103A80008583252AF7D1079B9C4205D081E32378C3
:103A90004644002B00F08A836278631C002A00F001
:103AA00085830024184610F8012B19462B2A17D0BD
:103AB0000BD8202A17D0232A18D0A2F1310CBCF140
:103AC000080F3FD84FF0000A18E02D2A04D0302A02
:103AD000F3D144F0100401E044F001040346E1E7AF
:103AE00044F00604FAE744F00204F7E744F008045F
:103AF000F4E70A2101FB0A2AAAF1300A194613F851
:103B0000012BA2F130000928F3D90B782E2B37D1E5
:103B10004A784B1CA2F13000092829D84FF0000840
:103B20001A781946A2F13000092803F1010319D9C6
:103B30000B786C2B6FD14B786C2B24D144F0800424
:103B4000023123E02A2A0AD1D5F800A00146BAF1B1
:103B5000000F05F10405B8BF44F00104D5E74FF0AC
:103B6000000AD2E70A2101FB0828A8F13008D7E7AC
:103B70002A2A04D1D5F8008002310435D8E7194645
:103B80004FF0FF38D4E7013144F060040B78782B14
:103B90000CD8572B4BD8472B08D8402B00F29080DD
:103BA000002B00F00383252B00F0D3804B1C0793E0
:103BB00004F4E063B3F5A06F00F0C98200F2CC809A
:103BC000B3F5407F00F07282B3F5806F00F036826B
:103BD000B3F5807F7FF449AFB8F1000FACBF24F09C
:103BE00010044FF0010814F4005204F0E0030692B0
:103BF00000F0EA80402B00F0E08000F2C280002B51
:103C000000F0DE80202B00F0C78000220023CDE9E9
:103C100000230023CFE0682BB8D14B78682B02D16A
:103C200044F020048CE7013144F04004AEE7583BF7
:103C3000202BBBD801A252F823F000BF053D200085
:103C4000AD3B2000AD3B2000AD3B2000AD3B200054
:103C5000AD3B2000AD3B2000AD3B2000AD3B200044
:103C60002F3D2000AD3B20003B3D2000ED3C2000DF
:103C7000173D20000B3D2000233D2000AD3B2000E0
:103C8000ED3C2000AD3B2000AD3B2000AD3B2000D3
:103C9000AD3B20004D3D2000F93C2000473D200079
:103CA000AD3B2000AD3B2000413D2000AD3B20005E
:103CB000F33C2000AD3B2000AD3B2000FF3C20004A
:103CC000413B062B3FF672AF01A252F823F000BF32
:103CD000353D2000AD3B2000AD3B2000AD3B20003A
:103CE0001D3D2000113D2000293D200044F42454B6
:103CF0005CE744F4106459E744F4885456E744F40C
:103D0000C85453E744F4B24450E744F400744DE718
:103D100044F484444AE744F4024447E744F4424408
:103D200044E744F4813441E744F4A1343EE744F4E9
:103D3000C1343BE744F4E13438E744F4A06435E7A8
:103D400044F4806432E744F440742FE744F4E064C0
:103D50002CE744F4C06429E7B3F5C06F07D0B3F58E
:103D6000E06F7FF482AE2B6804351E607DE6012291
:103D70003B68A94978689847002840F015820136C9
:103D800073E6602B1CD0802B7FF43FAF073525F006
:103D90000705F5E8022303E095F90020D317043561
:103DA000002A73F10001BFF632AF524263EB4303C6
:103DB000CDE900230123039317E0B5F90020EDE7D7
:103DC0002A680435D317EBE7402B00F0B08000F2EF
:103DD0009A80002B00F0AD80202B00F0A180069B84
:103DE000002203930023CDE9002304F4C053B3F56C
:103DF000805F00F0D580B3F5C05F00F0D680B3F5EA
:103E0000006F00F0B78000230DF1360B0493049B84
:103E100041F20802984588BFA8EB030841F6080361
:103E200004EA030198BF4FF0000891421A4604D1FA
:103E3000B8F1010F38BF4FF00108049B914203EB2A
:103E4000080040F0CC80DDE90023134300F0C78078
:103E5000724914F4804F724B4FF0020918BF0B46A1
:103E6000069A72B1039A002A40F0BD8004F006025F
:103E7000022A00F0BC80062A6A4A04BF4FF00109FA
:103E8000134609EB0002924594BF4FF0000AAAEBDB
:103E9000020A14F00102009204D1E10640F1AB8065
:103EA000D0449246B9F1000F07D04A4619463C6803
:103EB0007868A047002840F077814446049B1E4460
:103EC000102C5949D7E9003000F29F802CB12246CE
:103ED00055499847002840F0678159463B68049A45
:103EE00078684E449847002840F05E81009B464425
:103EF000002B00F0D48051463846FFF795FD00288E
:103F000000F0CD8050E1602B13D0802B7FF467AFA1
:103F1000073525F00705F5E80223CDE9002304E085
:103F20002A780023CDE900230435069B43E72A883D
:103F3000F7E72B68002219460435CDE90012F4E7B3
:103F4000DDE904010A22002302F0ECFCDDE90401B2
:103F500030320BF8012D00230A2202F0E3FCCDE9F8
:103F60000401DDE904231343EAD10DF13603A3EB89
:103F70000B034BE7DDE900230DF1360BCDE90423FC
:103F8000EFE702F0070130310BF8011DD10841EADB
:103F90004371D8080A46034652EA0301F1D1E4E727
:103FA0000DF1360BDDE90023F6E7204B14F4804FCA
:103FB0000DF1360B1E4908BF1946DDE9002352EA10
:103FC0000300D2D002F00F00085C4FEA131C0BF87C
:103FD000010D100940EA037002466346EFE74FF017
:103FE00000094B463CE74FF00109124B49E74FF0FF
:103FF0000109114B45E7514638460393FFF714FD7D
:10400000039B00283FF44EAFCEE0102298470028D3
:1040100040F0CA80103C53E76D7F20005C7F200099
:104020005F7F2000647F20007F7F20004B7F200087
:104030003A7F2000627F20002D822000D5F800907A
:104040000435B9F1000F2CD04B469B469BF800205D
:104050000133002AF9D1ABEB090BB8F1000F02DBF9
:10406000C34528BFC346DA4594BF4FF0000AAAEB08
:104070000B0A14F0010406D151463846FFF7D4FC70
:10408000002840F091805A4649463B687868984736
:10409000002840F089805E44002C7FF42CAF564409
:1040A000E3E44FF0060BDFF81491D6E7414B424AA8
:1040B00014F4804F08BF9C460DF1330318BF94469B
:1040C00000211A462868043550EA010E30D1D21A70
:1040D00008BF30224FF0780104BF03F8012C03F130
:1040E000FF3303F8011C4FF0300108BF012203F831
:1040F000021C232102F10309CA4594BF4FF0000AB4
:10410000AAEB090A14F00104A3F1030803F8031C45
:1041100005D151463846FFF787FC002844D14A466E
:1041200041463B687868984700283DD14E44B3E744
:1041300000F00F0E1CF80EE04FEA111803F801ED25
:104140004FEA101E4EEA017E70464146BCE7BAF1C6
:10415000010F38BF4FF0010A2B6814F0010405F17C
:1041600004058DF820300AF1FF3805D14146384664
:10417000FFF75AFCC0B9464401223B68786808A999
:10418000984788B9002C8AD04146B5E6079B9C42E7
:104190000CD0079B0799A4EB030842463B6878685C
:1041A000984700283FF473AC4FF0FF3630460FB00D
:1041B000BDE8F08F4B7F20003A7F2000667F200013
:1041C000F8B5038805461646CBB14A2B2BD1882972
:1041D0001FD1174803F097F80446C4B1231D9E422F
:1041E0001FD12146124803F098F8124E62693768D1
:1041F0003260A2690AB1E0699047376007E00C4875
:1042000003F081F8044634B901220B4B1A704A239B
:104210002B8001200AE0A168201D03F046F82468E5
:10422000F1E72468D9E7002303800320F8BD00BF2D
:1042300084060020100800202A12002010B5002457
:10424000054B06481C7003F05BF82146BDE81040A2
:10425000034800F00FBA00BF2A1200208406002095
:104260009804002070B50446E3610B4B049D1B7855
:10427000C4E905526BB1094D094B2E68201D2B6016
:1042800003F013F82E602146BDE87040054803F0A6
:1042900057B8A160F7E700BF2A12002010080020DD
:1042A000980400208406002013B5034C2468009471
:1042B000FFF7D8FF02B010BD1008002010B5084B62
:1042C00004461B7843B1043000F0B2F82146BDE843
:1042D0001040044803F021B8C0E90333F6E700BFFB
:1042E0002A1200208406002010B50D4C236813B953
:1042F0000C4A136010BDFEF773FA2268D2E9003150
:104300000B441B1A92681AB91844064B1860F1E75F
:10431000D2E900142144091A8B4228BF0B46F1E769
:104320008C06002088060020014800F0BBB900BFC1
:10433000A80400202DE9F8430388054653B1592B02
:1043400048D1872921D1002024490B6863B918B1CD
:104350000B6001E0214A1360592301202B80BDE846
:10436000F88301203346F1E7D3E902649442F8D0A0
:1043700000B10B6019460B4689680029ECD0C8686B
:104380009042F8D189689960F4E78229E4D1134F0B
:104390004FF00009B84600263C68002CDCD02046CF
:1043A00002F0A0FF98B122468821E06800F03AF9B7
:1043B00058B9A368E0602EB1B360C4F80890FFF765
:1043C00093FFE8E7C8F80030F7E7FFF7ADFF2646B0
:1043D000A468E2E7002303800320C0E78C060020E6
:1043E00010B50446FFF7A0FFE3680B4A0BB1136852
:1043F00033B90A4B1B68E36013681460A36004E0E0
:10440000A34206D1054A1268DA60BDE81040FFF702
:104410006BBF9B68ECE700BF8C06002010080020F3
:10442000024B1868003818BF012070478C06002026
:1044300010B50B4A04461368834208D183681360A1
:10444000FFF752FF0023C4E9023310BD1346002BCF
:10445000F8D09A68A242F9D1A2689A60F0E700BF4A
:104460008C06002038B5836804460D469BB10A4887
:1044700004600220A07304F10C0098470238012860
:1044800001D9832D05D121462046BDE8384000F0F2
:1044900005B80123A37338BD100800202DE9F843A7
:1044A0001C4F04463D6888462B46A34204D00BB9F6
:1044B000BDE8F8831B68F8E7002CF9D0164EA37B03
:1044C000D6F8009063B10023A3738DB9A3683BB104
:1044D000444505D02A468321346004F10C009847F6
:1044E0003B68A3420ED123683B60C6F80090DFE72B
:1044F000A54204D022468721284602F0E4FE2D681A
:10450000E3E71346002BF0D01A68A242F9D12268E3
:104510001A60EAE71408002010080020002238B5CD
:104520000125084B1A70084B1C6804B938BDE37BA1
:104530002BB1002282212046E581FFF793FF2468FA
:10454000F3E700BF2E12002014080020024B187859
:10455000421C1A70704700BF2C1200208A22064BA2
:104560001A700023054A1370054A1370054A136038
:10457000054A1360704700BF2C1200202B12002048
:104580002D12002014080020100800202DE9F04111
:104590001A4D2B780BB1FFF7C1FF194C267896B155
:1045A0000C221849184F0B78013E5A430133B818B2
:1045B00003F01F03BF5C0B702670D0E9018090B937
:1045C000124B1E6826B92B7820781844BDE8F0817C
:1045D0002B780BB1FFF7A2FF30464246394602F076
:1045E00072FE3668EEE7812F08BF01234246394646
:1045F00008BF837302F067FEE5E700BF2E120020BC
:104600002D1200202B1200209006002014080020FC
:10461000024A034B10781B78184470472D12002073
:104620002E120020F0B50B4E3378202B0FD00C2526
:10463000094C0A4F24781C4404F01F046C433D19B4
:10464000C5E901200020013339553370F0BD012048
:10465000FCE700BF2D1200202B1200209006002046
:1046600038B5034C256802F02EFE256038BD00BF2A
:104670001008002010B40A4C0A4621680B468342F9
:104680000CD04BB950B1016001212060817310BC86
:1046900081218381FFF7E4BF1B68F0E710BC7047FE
:1046A0001408002038B1837B013B012B9FBF0123FD
:1046B000014AC373137070472E12002010B5084CC6
:1046C000206858B100232360D0E90131984723685E
:1046D00023B1BDE810401868FEF7C2B810BD00BF96
:1046E0001808002070B505880446672D09D0792D7B
:1046F0002FD0002D33D1FFF729FF1B4B18701B4B18
:104700001D601B4E194D08E00A282B680ED07E2B29
:1047100003DC5A1C2A60174AD054304602F090FE3F
:10472000431CF1D16723238001201BE05A1C2A601F
:104730000025104A2846D5540B4B1978FFF772FF15
:104740000D4B2A4685211868FFF76CFF18B97923AD
:10475000E9E78529E8D10022044B1A60D1E700235C
:104760000380032070BD00BF191400201C08002026
:10477000200800202F120020100800200D280146DC
:1047800010B516D00C4C237853B90C4802F045FEF6
:1047900008B9012323700A48FFF784FF012010BDE8
:1047A0000A28F8D1054802F038FE0028F3D000238B
:1047B000F0E70020F3E700BFAF1200202008002040
:1047C000B804002008B505490548802202F01EFE05
:1047D000BDE8084000210348FFF74CBFB01200209D
:1047E00020080020B80400202DE9F0410488054687
:1047F000772C20D07E2C3DD0002C4ED1FFF7A6FE8A
:10480000284E294B294FDFF8B08018703460336888
:1048100057F823202AB9264A137077232B800120CA
:104820003EE008F8034093680021802098473368F1
:1048300001333360EBE700231E4A1360194A13600B
:10484000184B1B4A1B6812789A4204DC194B1B68F0
:10485000002BF0D1E1E7184AD256002A19DA134AA0
:10486000002052F82320104B1978FFF7DBFE28B9FF
:104870007E23D3E70C4B1B788B42D0D1094B0E49DA
:104880001A688B5C03F07F038B540A4A1368013368
:104890001360044A13680133D1E700230380032027
:1048A000BDE8F0812C0800201A14002070040020BC
:1048B00030130020280800201514002010B40A4BE3
:1048C0000A4A197800238B4203DA52F8044BA042BB
:1048D00008D107490748CA5C62F07F02CA5410BC7D
:1048E000FFF7E0BE0133EEE7301300207004002034
:1048F00015140020C8040020064A136843F004037E
:104900001360054B186804331B6840EA032080B22B
:10491000704700BF00700D4014700D4010B5174A6D
:10492000136823F00C0313600122154B1A601A68F8
:10493000012AFCD10822134B13491A60E32203F524
:1049400005731A601A460B68DB07FCD50F4C102163
:1049500000232068013900F0010043EA00034FEA18
:1049600043039BB2F5D1002BF1D00949180A03F09B
:10497000FE0308600B60EF23136010BD00700D4054
:10498000A8200D4024860840648608409C86084084
:1049900014700D400378407840EA0320054B00FA7C
:1049A00001F1985CC2F1080200EA21201041C0B276
:1049B000704700BFC07F2000F8B506460A480D4684
:1049C000174602F0A0FC044630B93A462946304664
:1049D000BDE8F84002F0D5BEA3680BB12846984761
:1049E000204602F0C8FCEEE73008002038B500F0A1
:1049F00013F90546094802F086FC044628B95DB162
:104A00002846BDE8384002F0B7BE636803B1984756
:104A1000204602F0B0FCF0E738BD00BF30080020AF
:104A200010B5044600F006F938B100F0DFF9034B89
:104A3000034821469B689847012010BD907D2000C7
:104A4000B949200070B50B4C0023616E0A4A04F18D
:104A50003800FFF729FCFFF74FFF656E0023B0FB1E
:104A6000F5F1064A01FB150104F11800BDE870409C
:104A7000FFF71ABC34080020814A2000994A200020
:104A8000044B5A6E196E5200914294BF59665A6691
:104A9000FFF7D8BF3408002010B500F03DFA00F051
:104AA000C9F900230380044600F06EF822889300C1
:104AB00008B1017B51B9023398B200F07BF9238829
:104AC00073B1BDE81040074800F044B88188234422
:104AD0005980C18801329980228002F04CFCE5E7C0
:104AE00010BD00BF340800209DF80030012B04D118
:104AF000024B9A6D5A66FFF7A5BF70473408002035
:104B0000F8B50F4616461D46064C0146064A204695
:104B100000F00EF8C4E9167625660448BDE8F840B2
:104B200000F02CB834080020247D2000E94A200041
:104B300070B505460C461646044A00F091F820462A
:104B40006E610349BDE8704002F004BE2C7D200078
:104B5000CE7F200010B5044604491A2000F038FA30
:104B60002046BDE8104002F005BE00BF1214002030
:104B7000014802F0C5BB00BFA0080020014B18602F
:104B8000704700BFA4080020014802F0BCBB00BF72
:104B9000A00800202DE9F04105460C480C461646B9
:104BA00002F0B1FB08B9BDE8F0818388A34209D1C6
:104BB0008768002FF7D0334622462946BC46BDE819
:104BC000F041604702F0D7FBECE700BFA0080020EF
:104BD000014802F095BB00BFA80800208180014673
:104BE000014802F0ADBB00BFA80800200146014803
:104BF00002F093BBA808002010B50446054802F057
:104C000082FB00B910BD8388A342FBD002F0B3FB46
:104C1000F7E700BFA8080020054B10B51B689847B0
:104C2000044618B18188012000F0C4F9204610BD67
:104C30000C7D200038B5064B05465B689847044656
:104C4000A988012000F0B6F9201E18BF012038BD48
:104C50000C7D2000014B9B68184700BF0C7D200095
:104C600070B505460C461646FFF7B8FF20462E6184
:104C70000249BDE8704002F06DBD00BFD27F200048
:104C800070B504461B200D4600F0AEF9064902F04F
:104C9000B8FD38B1A3691B6823B129462046BDE899
:104CA0007040184770BD00BF1214002070B5054653
:104CB0000C461646044AFFF73BFF2046AE61034907
:104CC000BDE8704002F046BD347D2000D47F200056
:104CD00008B5044802F052FBBDE80840024802F063
:104CE0004DBB00BFE4040020D804002038B50E48B6
:104CF00002F054FB054650B10C4802F04FFB04464D
:104D0000286030B92946084802F05CFB2546284651
:104D100038BD00F097F804F1B601A4F8800004F162
:104D2000820000F01FF9F2E7D8040020E40400201C
:104D300010B501460446074802F05AFB48B1216805
:104D4000054802F03FFB2146BDE81040014802F053
:104D500039BB10BDD8040020E404002010B5014682
:104D60000446094802F044FB68B12468B4F8801096
:104D7000204600F0E1F804F1B60104F18200BDE83C
:104D8000104000F003B910BDD804002010B5074949
:104D90000B88834208DB064C80B222880244181A32
:104DA00008800120228010BD0020FCE71C1200209A
:104DB0001E120020014B1880704700BF1C120020FB
:104DC00000487047CC080020014B1888704700BF8E
:104DD0001C120020034A044B10781B781844C0B200
:104DE000704700BF411300201E1200202DE9F04142
:104DF0000C4F3A8872B100240B4B0C4EB3F8008074
:104E00000B4B1D78354421B2414504F1010403DB0D
:104E100000233B80BDE8F081FFF7DCFF3044435CBA
:104E20006B54F0E71E1200201C120020CC0800205A
:104E30004113002008B5FFF7CDFF014B184408BD12
:104E4000CC080020F8B50C4B04461E780B4B1F888D
:104E5000F519802D0DDC3246094901F00FFFFFF7EF
:104E6000E9FF344401463A46204601F007FF284650
:104E7000F8BD0025FBE700BF411300201C120020F5
:104E8000CC08002008B5FFF7A5FF024B1B8818448B
:104E900080B208BD1C12002010B50146FFF7F2FFDA
:104EA0004318802B12DC431E094A1BB21A44481CCB
:104EB000002B05DA074B187801440120197010BD4A
:104EC00012F80149013B14541BB2F1E70020F6E748
:104ED000CC0800204113002038B50C4D0C4C342276
:104EE00000210C4801F040FF2946204602F086FCD4
:104EF0002946A01C02F082FC2946201D02F07EFCFF
:104F00002946A01DBDE8384002F078BCD07D2000C5
:104F1000D6130020DE1300200023044A1380044A25
:104F20001380044A1370FFF7D7BF00BF1E12002082
:104F30001C1200204113002038B50C460546FFF72F
:104F4000EBFF802C28BF802429462246034801F02D
:104F500095FE034B20461C8038BD00BFCC080020C6
:104F60001C12002010B5074B03F1340253F8044B18
:104F7000934240F8044BF9D1034A13680B6053681D
:104F80004B6010BDDE130020D613002010B5074B78
:104F900000F1340250F8044B904243F8044BF9D12D
:104FA0000B68034A13604B68536010BDDE1300208A
:104FB000D6130020024B23F810100120704700BFC9
:104FC000DE130020014B33F810007047DE13002081
:104FD00008B5044B1A3803EB400002F00FFC012027
:104FE00008BD00BFD6130020024B1A3803EB400067
:104FF000704700BFD61300200149024802F001BCEF
:10500000D07D2000D8130020084B10B51B689847AE
:10501000074B5B689847074B5B689847064B5B6894
:105020009847BDE81040054B5B681847447C20005A
:10503000647D2000907D2000487D2000187D2000A8
:10504000F8B5FDF7CDFB114D064600242F461A207A
:10505000FFF7CAFF294602F0D4FB80B10A20FFF710
:10506000B1FF0C2303FB0474237A83420CD16068E4
:10507000301AB0F5206F8CBF00200120F8BD01343C
:10508000102C05F10C05E2D10020F7E74C090020B7
:1050900070B5184D00242E461A20FFF7A5FF2946AB
:1050A00002F0AFFB013418B9102C05F10C05F3D157
:1050B0000C23621E03FB0464A4F10C057AB90A20D8
:1050C000FFF780FF3072FDF78BFB70601A20FFF74F
:1050D0008BFFBDE870400146064802F08FBB2B46AF
:1050E00054F8180D013A616803C3A0682C46186093
:1050F000E2E700BF4C090020014B1888704700BF51
:10510000880500202DE9F04301290646884614460B
:1051100087B003DC002007B0BDE8F08303A902F0EC
:10512000B0FC03AB03CB1B88206123839DF81130B7
:105130006161002B47D0B71C02AA01A903A802F0A5
:1051400068FB9DF81350002D4ED0029B2BB17A784E
:1051500017F8023B03EB02239BB2022DA38336D147
:105160003D462046324902F049FB7B78237015F812
:10517000023B63709DF81590B9F1000F4ED0019B72
:10518000002B38D02F466A7817F8023B03EB022336
:10519000029A9BB2E38302B9A383B9F1020F2ED125
:1051A0003D46234904F1080002F028FB7B78237276
:1051B00015F8023B6372A81BA8EB00038045C4E905
:1051C0000E53A7DBA7E7B378F71CA376B4E7032D4C
:1051D0000FD107F108052B46621E13F8011D9F42EF
:1051E00002F8011FF9D1C5E72046114902F006FB7C
:1051F000A5833D46BEE7A38B2F46E383CDE7B9F1F8
:10520000030F13D107F108052B4604F1080213F828
:10521000011DBB4202F8011BF9D1CCE7044904F19E
:10522000080002F0EBFAA4F81E90C4E73D46C2E77E
:10523000D07D200030B591B00546FFF75DFF4FF6F9
:10524000FF73984204D14FF0FF34204611B030BDB7
:1052500040220021684601F087FD404B1A782AB9A8
:1052600001221A70FFF748FB3D4B18701420FFF71E
:10527000A9FE8DF810001320FFF7A4FE8DF8120090
:10528000FFF7BAFE0446002848D000238DF81330FB
:105290008DF81530002301248DF814308DF8184056
:1052A0004DB10A20FFF78EFE00283FD00A20FFF7FD
:1052B00089FE8DF81A0002248DF81940FFF71CFFB3
:1052C000ADF81C00FFF798FE00283CD04FF6FF73A6
:1052D0008DF81740ADF80030FFF70EFFADF81E0057
:1052E0001A20FFF781FE014602A802F087FAFFF7B5
:1052F000A1FD0E90FFF768FD0F90684602F033FBAA
:105300000446002DA1D0FFF7C7FD00289BD0FFF772
:1053100057FD0146684602F06EFB96E70B20FFF74B
:1053200051FE8DF815408DF81300B3E70C4B1A7839
:1053300002B91C7019780A204A1C1A708DF81A10CC
:10534000FFF738FEB7E71B20FFF74EFE0146684621
:1053500002F054FA8DF81740BEE700BF4213002058
:1053600043130020014BDB68184700BF907D2000ED
:10537000014B5B69184700BF647D2000014B9B69AE
:10538000184700BF647D2000024BD86900B1004778
:10539000704700BF647D200070B590F829400F4B26
:1053A000042C214628BF04210124DB698C400546DA
:1053B0009847012838BF0120013C444305D0FFF73E
:1053C0009BFAB0FBF4F303FB14042B46214605F1D2
:1053D0000800034ABDE87040FEF766BF647D200008
:1053E000555520002DE9F04106461B200F46FFF7DA
:1053F000FBFD494B05461A78484C22B901221A7028
:10540000FFF77AFA208023880BB9012323802188B3
:105410000A204B1C2380FFF7CDFD414801F073FFAC
:105420000446002847D13F4801F0B8FF0446002851
:1054300068D02946201D02F0E1F9002304F12C0078
:10544000C4E90B30238501F05BFF2146344801F0AD
:1054500077FF206B01F088FF072853DC324801F00A
:105460009DFF0546002841D0304801F097FFA86015
:10547000C0B3FFF73BFC686080B30920D5F8088013
:10548000FFF7A0FD08BB082388F808300D20C8E905
:105490000067FFF797FD01282946206B1BD101F01B
:1054A0005CFF206B01F02FFF854233D12046BDE821
:1054B000F041FFF771BF2946201D02F0A2F9002834
:1054C000C7D1204601F057FFAAE70920FFF77AFD70
:1054D00088F80800DAE701F033FFE2E7A96813482B
:1054E00001F070FF2946104801F06CFF206B01F0BD
:1054F0003BFF38B921460A4801F00FFF2146094811
:1055000001F060FF39463046BDE8F0410123042236
:1055100002F0D7BABDE8F081441300202012002029
:105520006C0A0020FC04002008050020F004002084
:1055300008B5054801F022FF044801F01FFFBDE84F
:105540000840034801F01ABF08050020F0040020BD
:10555000FC04002013B5044668B1006B01F0D3FED3
:10556000024640B12146054B0548DB68019302B075
:10557000BDE81040184702B010BD00BF647D200098
:10558000015620002DE9F0470D4614468B6806466B
:10559000D3E90078106B92F8289001F0BEFE68689D
:1055A000FFF7C6FBA968124801F00CFF2946114815
:1055B00001F008FF206B01F0A6FE60B10023204639
:1055C0002385FFF7E9FE4B46324641463846BDE8A3
:1055D000F04702F076BA04F10800FEF76FFE2146AC
:1055E000054801F09AFE2146044801F0EBFEEAE787
:1055F000F0040020080500206C0A0020FC040020B4
:105600002DE9F0410E461746044620B1006B01F02B
:105610007AFE054608B9BDE8F0810A21686802F003
:10562000E7F880460A20FFF7CDFC804546D02846A3
:1056300001F0A1FEEDE794F8282000203A4484F818
:1056400028202946224684F82900BDE8F041FFF7CA
:1056500099BF002384F8293094F82830DA19D2B29F
:1056600084F828200B7A93421CD82246294602202F
:10567000EBE794F82930DA19D2B2052A84F8292008
:1056800007D9002294F8283084F82920013384F8BF
:10569000283094F828200B7A9A4203D322462946D0
:1056A0000120D2E72046FFF777FE6868BDE8F041A9
:1056B00002F098B8224629463046C6E7A968002974
:1056C000A9D0032EF6D801A353F826F037562000B0
:1056D000735620005356200017562000014B1B6ABA
:1056E000184700BF447C20002DE9FF4B80468946C7
:1056F0001A203F49FFF76CFC01210B20FFF75AFCF1
:105700003C4B5B689847002870DBFFF759FB3A4D2C
:1057100090F802B06C68FFF753FB0646FFF7B2FB48
:1057200001463046A047FFF767FCAF690646B84719
:10573000044610B1012200240CE0A6B1AB6801932D
:10574000FFF7A0FB019B9847024688B1022814BFCF
:105750000422012240460123494602F0B2F92046C4
:1057600004B0BDE8F08BEB6998470028E2D1E5E78B
:10577000002E39D1FDF762F80446FDF7E3F9C4F1D4
:10578000FF2404F57F04F334FDF758F8C442FBD43A
:10579000B847EE69E8B1FDF751F80446FDF7D2F9D4
:1057A000C4F1FF2404F57F04EB34FDF747F8C4424D
:1057B000FBD4B0470446A0B103212B6903A8984746
:1057C000032803D19DF80E305B450CD00024012244
:1057D000C0E7B04704460028DDD16B699847002830
:1057E000D9D00222B6E700220124B3E70522A2E7BE
:1057F00012140020847D2000447C2000044B82B0E1
:1058000018B11B6A019302B018475B6AFAE700BF40
:10581000447C200007B5FFF7D7FA03281BD00F4BB5
:105820009B689847002816DB1B20FFF7DDFB0C491F
:1058300001F0E7FF58B1FFF703FC60B9FFF728FC60
:10584000084BDB68019303B05DF804EB1847FFF7E2
:10585000D3FB0028EFD103B05DF804FB847D20006A
:1058600012140020487D200008B5024B1B689847A1
:10587000023008BD3C7D200038B50C4B9B68984732
:10588000041E02DA4FF0FF3038BDFFF7D3FA037879
:105890000546002BF6D10220FFF778FA0028F1D058
:1058A0006878FFF787FAA01CEEE700BF3C7D200078
:1058B00070B50220FFF7F0FA10B94FF0FF3070BD5D
:1058C000FFF77EFA002606700446FFF77DFA607047
:1058D000FFF7D8FA0446FFF7C7FF20442A2812DC56
:1058E000C0F12B00C4B2FFF7A5FA0546FFF76CFA2A
:1058F00022463146284401F037FAFFF765FA204482
:1059000080B2FFF757FA044B5B689847041ED4DB5C
:10591000FFF76CFAA01CD2E73C7D2000014B9B688E
:10592000184700BF187D200070B504460D461420AE
:105930000121FFF73FFB034B29462046BDE870409D
:105940009B681847487D200070B5404B404D5B7800
:10595000832904460E462B7002D13E4801F0F8FE22
:105960002388002B4DD040F21912934269D13A4B53
:105970002A781B789A4251D1862E01D0882E4DD19B
:1059800000F010FC0646002852D00420FCF76CFD05
:1059900002F00FF9002846D03049314801F038FBB9
:1059A0000122304B1A6000F0A7FC002286212E480D
:1059B000FEF738FE0F212A48FFF7BEFA2548FFF709
:1059C000C9F803220E212948FEF71EF82449284869
:1059D000FEF71AF802F0EFF80646C1B2287800F098
:1059E00047FC2EB101221F4B22481A60FEF70CF82B
:1059F0004FF40071204801F058FC0420FCF73CFDF6
:105A00000CE01E4B0E21DD6A0120A8470321062071
:105A1000A84781211A4A0F48FFF78AF840F2191364
:105A20000120238070BD17490D4801F0F1FABCE751
:105A30001548FDF7E9FF324686211448FEF7F2FDCE
:105A4000ECE7002303202380ECE700BF12140020C2
:105A500057130020380B00208C050020EF7F20001A
:105A600097130020A00B0020440500200680200092
:105A70005380200059802000A40B0020447C20008B
:105A8000C07D2000FB7F20008C80200024050020AA
:105A9000832938B504460D4602D12C48FDF7B4FFE2
:105AA0002388FBB140F2B91293424BD1862D26D107
:105AB000274B187800F0ACFE0022264B00F02CFC9F
:105AC0000022254B00F028FC0022244B00F024FC8F
:105AD00000F008FF0146224801F0E7FB0220FCF736
:105AE000C3FC07E01F4B0E210120DD6AA8470321FC
:105AF0000620A84740F2B9130120238038BD882D25
:105B0000F8D10220FCF7B8FC154801F0D7FB0028BB
:105B1000F0D000F091FB0028ECD01348FDF774FFA3
:105B20000B4B00201A78114B1A7000F08BFB0020F1
:105B300000F050FB00F0E0FB002286210C48FEF74D
:105B400071FDD7E7002303202380D7E7B980200029
:105B5000571300200000E03F0000104000006040AC
:105B6000800B0020447C2000F28020008C05002067
:105B700064050020F7B5364A364F5278832904462B
:105B80000D463A7002D1344801F005FE2388F3B186
:105B9000BD2B58D1862D39D102F00DF82F4E054678
:105BA000336833B32E48FDF72FFF2E492E4801F0FE
:105BB0002FFA002333602D4B3A7800212C481A70BD
:105BC0005D7501F072FB0120FCF74EFC0CE0294BE7
:105BD0000E21DD6A0120A84703210620A847922153
:105BE000254A1D48FFF762F8BD230120238003B03A
:105BF000F0BD38B12148FDF707FF21491A4801F0EF
:105C000007FAD8E71F48FDF7FFFEEDE7882DEBD137
:105C1000174801F053FB0028E6D000238DF804302C
:105C2000194B64211B7811488DF80530FFF784F972
:105C300001A9094801F0B1FD1448FDF7E5FE012076
:105C4000FCF71AFCD0E7002303202380CFE700BF36
:105C50001214002057130020E00B0020B40B00208A
:105C60003B81200064812000C1130020C01300206C
:105C7000500B0020447C2000C87D20006B81200058
:105C8000998120009F8120008C050020C481200084
:105C900037B504200C46FCF7E7FBFFF7CBF801F023
:105CA00015FA05460420FFF78DF900B200906278DE
:105CB0002178134CEBB225461248FDF7A5FE20468D
:105CC000FFF7C0F815F8011B0F48FDF79DFE2946A8
:105CD0000E48FDF799FE617D0D48FDF795FE207891
:105CE00000F0BCFA2078617D00F0C2FA01220420A5
:105CF000084B1A6003B0BDE83040FCF7BDBB00BFE5
:105D000081130020E48120001E8220002F822000C9
:105D100043822000A00B0020832970B504460D4665
:105D200002D1314801F014FD238863B1B3F5C57F7A
:105D300056D1862D19D10320FCF796FB00212B4864
:105D400001F0B3FA0CE02A4B0E21DD6A0120A847CE
:105D500003210620A8478121264A2348FEF7E8FEB2
:105D60004FF4C5730120238070BD882DF8D11F48E2
:105D700001F0A4FA0028F3D01F4D204E20492846F8
:105D800001F046F9307800F03BFA1E4B02461978D4
:105D9000307088421BD085F828001B48FDF734FE80
:105DA00064212846FFF7C8F80F48FEF7D3FE032208
:105DB0000E211648FDF728FE002286211448FEF722
:105DC00031FC00F099FA0320FCF756FBC8E70020ED
:105DD00000F000FA002286210E48FEF723FCF2E7CD
:105DE000002303202380BFE7380B0020700B002026
:105DF000447C2000C07D2000971300208C050020EB
:105E000055822000571300205F82200095822000D9
:105E1000140500206405002038B50D460C4B0446DF
:105E200058780C4B187000F02BFA832D02D10A48D9
:105E3000FDF7EAFD25883DB90848FDF7E5FD2A464E
:105E400086210748FEF7EEFB00230320238038BDA0
:105E50001214002057130020C8822000F282200074
:105E60003405002083292DE9F34104460D4602D173
:105E70003E4801F090FC238853B1B3F5A97F70D15F
:105E8000862D19D14FF4C071394801F00EFA0CE09B
:105E9000384B0E21DD6A0120A84703210620A847C0
:105EA0009521354A3148FEF701FF4FF4A9730120CF
:105EB000238002B0BDE8F081882DF6D12C4801F096
:105EC000FDF90028F1D02D4F3A68002AEDD00120CD
:105ED000FCF7CAFA4FF4E0632948ADF80430002516
:105EE00000F0E0F9264EDFF8AC80404616F8011BC2
:105EF0000135FDF789FD062DF7D12248FDF784FD18
:105F00000025214EDFF88C80404656F8041B0135F1
:105F1000FDF77AFD062DF7D11A48FDF775FD00252E
:105F20001A4EDFF87080404616F8011B0135FDF768
:105F30006BFD062DF7D11348FDF766FD642110486F
:105F4000FEF7FAFF01A9094801F027FC1048FDF708
:105F50005BFD00233B6000F0C3F90120FCF78CFAE5
:105F6000A3E7002303202380A3E700BFE00B00206A
:105F7000600B0020447C2000C87D2000A00B002086
:105F8000B80B0020EE822000C00B0020D80B0020B0
:105F90001F8320001B832000034B1878034B1B78C2
:105FA000C31A584258417047571300208C050020EF
:105FB000832938B504460D4602D11D48FDF724FD5E
:105FC000238843B1F22B2FD1862D08D14FF4806165
:105FD000184801F06AF9F2230120238038BD882D8A
:105FE000F9D1144801F06AF90028F4D000F024F93E
:105FF0000028F0D100F020F918B9FFF7CDFF0546D1
:1060000018B10D48FDF700FDE5E7012000F01AF991
:10601000FF220A4B0A481A70FDF7F6FC2A46862131
:106020000848FEF7FFFAD6E7002303202380D5E7D0
:106030004E832000900B00207D8320008C050020E3
:10604000A783200034050020054B1B78834205D12F
:10605000044A1078C01A18BF01207047002070470A
:106060008C0500205713002037B502200C46FCF7A2
:10607000FBF9FEF7DFFE01F029F805460420FEF7E4
:10608000A1FF00B2009062782178EBB23548FDF7AD
:10609000BBFC0220FCF7F0F900F0CEF868B16278A2
:1060A000314B32481A70FDF7AFFC00228621304890
:1060B000FEF7B8FA002000F0C5F86078FFF7C4FFDB
:1060C00000284CD02B4C2046FEF7BCFE21462A4827
:1060D000FDF79AFC2046294900F0BCFE054660B950
:1060E0002A4686212248FEF79DFA2A468621244820
:1060F00003B0BDE83040FEF795BA2046214900F0D4
:10610000A9FE054618B901221F4B1A60E8E7204690
:106110001E4900F09FFE0546D8B902468621144864
:10612000FEF780FA94F828101948FDF76DFC94F8F2
:1061300028300D4A1370174A12789A420FD1164828
:10614000FDF762FC284600F045F82A4686211348F0
:10615000CEE7134803B0BDE83040FDF755BC03B0AF
:1061600030BD00BFD78320008C05002013842000A1
:10617000140500205813002053802000FB7F2000CE
:1061800074050020EF7F2000B40B00205582200012
:10619000458420005713002050842000640500200F
:1061A0005D84200010B5084B1C783CB1611EC9B25B
:1061B00006481970FDF728FC012010BD0448FDF7C2
:1061C00023FC2046F9E700BF8D0500205A852000FA
:1061D00096852000002805D10522054B05481A7038
:1061E000FDF712BCC9BF024B034818700348F7E71C
:1061F0008D050020CB85200014862000F28520002C
:1062000005280B490AD8034651F8232012B1094A40
:10621000D05C70470133DAB2062AF5D10023044A74
:1062200052F8041B0029F2D10133062BF8D1704734
:10623000FC0B002073862000014B1868704700BFDC
:1062400084050020012802D8024B186070470248DC
:10625000FDF7DABB84050020478620000122034BAE
:106260000138C0B243F82020704700BFFC0B00206B
:10627000024B0138C0B21954704700BF8E05002090
:106280000023074A0138A0EB030CDCF1000103F105
:10629000010341EB0C01062B42F8041BF3D17047BC
:1062A000140C0020F0B50B4A0B4D0C4C431E00F1B2
:1062B0000801461D15F8017B03F8017F54F8047BA3
:1062C000B34241F8047B12F8017B83F82070F1D1CE
:1062D000F0BD00BF8E05002073862000FC0B00205F
:1062E0000922044B1A705A709A70DA701A715A7136
:1062F000704700BF8E05002000230549054A51F86C
:10630000040B0133062B42F8040BF8D1704700BF91
:10631000140C0020FC0B002070B54FF0FF0C4CF467
:10632000E06C1CEA11541DBF1CEA135594EA0C0FD3
:1063300095EA0C0F00F0DEF82C4481EA030621EA0E
:106340004C5123EA4C5350EA013518BF52EA033549
:1063500041F4801143F4801338D0A0FB02CE4FF0FB
:106360000005E1FB02E506F00042E0FB03E54FF02B
:106370000006E1FB03569CF0000F18BF4EF0010E23
:10638000A4F1FF04B6F5007F64F5407404D25FEA1F
:106390004E0E6D4146EB060642EAC62141EA5551D2
:1063A0004FEAC52040EA5E504FEACE2EB4F1FD0C14
:1063B00088BFBCF5E06F1ED8BEF1004F08BF5FEA92
:1063C000500E50F1000041EB045170BD06F0004644
:1063D00046EA010140EA020081EA0301B4EB5C04F1
:1063E000C2BFD4EB0C0541EA045170BD41F48011E9
:1063F0004FF0000E013C00F3AB8014F1360FDEBF0E
:10640000002001F0004170BDC4F10004203C35DAE9
:106410000C341BDC04F11404C4F1200500FA05F36C
:1064200020FA04F001FA05F240EA020001F000420D
:1064300021F0004110EBD37021FA04F642EB060183
:106440005EEA430E08BF20EAD37070BDC4F10C04AD
:10645000C4F1200500FA04F320FA05F001FA04F271
:1064600040EA020001F0004110EBD37041F100015D
:106470005EEA430E08BF20EAD37070BDC4F1200568
:1064800000FA05F24EEA020E20FA04F301FA05F2D0
:1064900043EA020321FA04F001F0004121FA04F278
:1064A00020EA020000EBD3705EEA430E08BF20EA48
:1064B000D37070BD94F0000F0FD101F00046400082
:1064C00041EB010111F4801F08BF013CF7D041EA04
:1064D000060195F0000F18BF704703F00046520008
:1064E00043EB030313F4801F08BF013DF7D043EAD9
:1064F0000603704794EA0C0F0CEA135518BF95EA8F
:106500000C0F0CD050EA410618BF52EA4306D1D115
:1065100081EA030101F000414FF0000070BD50EA34
:10652000410606BF1046194652EA430619D094EABE
:106530000C0F02D150EA013613D195EA0C0F05D1A8
:1065400052EA03361CBF104619460AD181EA0301FC
:1065500001F0004141F0FE4141F470014FF00000B4
:1065600070BD41F0FE4141F4780170BD81F0004101
:1065700002E000BF83F0004330B54FEA41044FEA28
:10658000430594EA050F08BF90EA020F1FBF54EAC3
:10659000000C55EA020C7FEA645C7FEA655C00F05F
:1065A000E2804FEA5454D4EB5555B8BF6D420CDD30
:1065B0002C4480EA020281EA030382EA000083EAB3
:1065C000010180EA020281EA0303362D88BF30BD53
:1065D00011F0004F4FEA01314FF4801C4CEA1131A9
:1065E00002D0404261EB410113F0004F4FEA033308
:1065F0004CEA133302D0524263EB430394EA050F93
:1066000000F0A780A4F10104D5F1200E0DDB02FA01
:106610000EFC22FA05F2801841F1000103FA0EF295
:10662000801843FA05F359410EE0A5F120050EF15B
:10663000200E012A03FA0EFC28BF4CF0020C43FA8C
:1066400005F3C01851EBE37101F0004507D54FF099
:10665000000EDCF1000C7EEB00006EEB0101B1F5E9
:10666000801F1BD3B1F5001F0CD349085FEA30002F
:106670004FEA3C0C04F101044FEA445212F5800F3A
:1066800080F09A80BCF1004F08BF5FEA500C50F1D7
:10669000000041EB045141EA050130BD5FEA4C0CBA
:1066A000404141EB0101013C28BFB1F5801FE9D217
:1066B00091F0000F04BF01460020B1FA81F308BF3A
:1066C0002033A3F10B03B3F120020CDA0C3208DD06
:1066D00002F1140CC2F10C0201FA0CF021FA02F1E1
:1066E0000CE002F11402D8BFC2F1200C01FA02F151
:1066F00020FA0CFCDCBF41EA0C019040E41AA2BF76
:1067000001EB0451294330BD6FEA04041F3C1CDA3D
:106710000C340EDC04F11404C4F1200220FA04F05D
:1067200001FA02F340EA030021FA04F345EA030107
:1067300030BDC4F10C04C4F1200220FA02F001FAC9
:1067400004F340EA0300294630BD21FA04F029464B
:1067500030BD94F0000F83F4801306BF81F48011E4
:106760000134013D4EE77FEA645C18BF7FEA655C57
:1067700029D094EA050F08BF90EA020F05D054EA29
:10678000000C04BF1946104630BD91EA030F1EBF2E
:106790000021002030BD5FEA545C05D14000494132
:1067A00028BF41F0004130BD14F580043CBF01F525
:1067B000801130BD01F0004545F0FE4141F470010B
:1067C0004FF0000030BD7FEA645C1ABF19461046E6
:1067D0007FEA655C1CBF0B46024650EA013406BFE7
:1067E00052EA033591EA030F41F4002130BD00BFA6
:1067F00090F0000F04BF0021704730B54FF4806463
:1068000004F132044FF000054FF0000150E700BFE3
:1068100090F0000F04BF0021704730B54FF4806442
:1068200004F1320410F0004548BF40424FF000012F
:106830003EE700BF42004FEAE2014FEA31014FEA72
:1068400002701FBF12F07F4393F07F4F81F06051C1
:10685000704732F07F4208BF704793F07F4F04BF0C
:1068600041F40021704730B54FF4607401F00045E9
:1068700021F000411CE700BF50EA010208BF704749
:1068800030B54FF000050AE050EA010208BF70473A
:1068900030B511F0004502D5404261EB41014FF4A3
:1068A000806404F132045FEA915C3FF4D8AE4FF0AB
:1068B00003025FEADC0C18BF03325FEADC0C18BF8E
:1068C000033202EBDC02C2F1200300FA03FC20FADF
:1068D00002F001FA03FE40EA0E0021FA02F114442C
:1068E000BDE600BF4A0011D212F5001211D20DD53B
:1068F0006FF47873B3EB62520ED44FEAC12343F0C6
:10690000004343EA505323FA02F070474FF000006F
:10691000704750EA013002D14FF0FF3070474FF01E
:106920000000704753B94AB9002908BF00281CBFAE
:106930004FF0FF314FF0FF3000F06EB9ADF1080CB1
:106940006DE904CE00F006F8DDF804E0DDE902238D
:1069500004B070472DE9F047089E0D4604468E4668
:10696000002B40F083808A42174647D9B2FA82F35F
:106970004BB1C3F1200105FA03FE20FA01F19F405B
:1069800041EA0E0E9C404FEA1748BEFBF8FC1FFA86
:1069900087F908FB1CE20CFB09F0210C41EA0242DA
:1069A00090420AD9BA180CF1FF3180F01881904258
:1069B00040F21581ACF1020C3A44121AB2FBF8F025
:1069C00008FB102200FB09F1A4B244EA0244A142F0
:1069D00009D93C1900F1FF3280F00381A14240F255
:1069E000008102383C44641A002140EA0C401EB188
:1069F0000022DC40C6E90042BDE8F08702B9FFDEB4
:106A0000B2FA82F3002B4FD18D1A01214FEA124EB8
:106A10001FFA82F8B5FBFEFC0EFB1C5508FB0CF0C0
:106A2000220C42EA0545A84207D97D190CF1FF3234
:106A300002D2A84200F2E98094462D1AB5FBFEF07E
:106A40000EFB105508FB00F8A4B244EA0544A0452B
:106A500007D93C1900F1FF3202D2A04500F2D980DB
:106A60001046A4EB080440EA0C40C0E78B4208D96A
:106A7000002E00F0B1800021C6E900050846BDE8FF
:106A8000F087B3FA83F100294BD1AB4202D38242A3
:106A900000F2B980841A65EB030301209E46002EA4
:106AA000AAD0C6E9004EA7E79F40C3F12002D1401B
:106AB0004FEA174EB1FBFEF01FFA87F80EFB1011DC
:106AC00024FA02F29D4000FB08FC2A43150C45EA1B
:106AD0000145AC4504FA03F409D97D1900F1FF31F1
:106AE00080F08F80AC4540F28C8002383D44A5EBAD
:106AF0000C05B5FBFEF10EFB115C01FB08F995B22C
:106B000045EA0C45A94507D97D1901F1FF3274D238
:106B1000A94572D902393D44A5EB090541EA004176
:106B200078E7C1F120078B4022FA07FC4CEA030CFE
:106B300025FA07F44FEA1C4EB4FBFEF91FFA8CF855
:106B40000EFB194420FA07F309FB08FA8D401D4398
:106B50002B0C43EA0444A24502FA01F200FA01F3C5
:106B600009D91CEB040409F1FF3048D2A24546D9EB
:106B7000A9F102096444A4EB0A04B4FBFEF00EFB85
:106B8000104400FB08FAADB245EA0444A24508D916
:106B90001CEB040400F1FF352DD2A2452BD902389D
:106BA000644440EA0940A0FB0289A4EB0A044C4576
:106BB000C6464D4619D316D05EB1B3EB0E0264EB58
:106BC000050404FA07F722FA01F31F43CC40C6E993
:106BD00000740021BDE8F087314630460CE78C4652
:106BE000EBE61046FFE64345E6D2B8EB020E69EB52
:106BF0000C050138E0E72846D3E711468CE78146CB
:106C0000B9E7084673E7084649E7ACF1020C3D4492
:106C100013E702383C4424E7704700BF032A70B4EE
:106C200012D940EA0105AD0704460B4620D11946AA
:106C3000204653F8045B54F8046BAE4218D1043A72
:106C4000032A20461946F2D8541E72B103780A78F6
:106C50009A4208BF241806D00CE010F8013F11F842
:106C6000012F934206D1A042F7D1002070BC70479B
:106C7000541EEBE7981A70BC704700BF844641EA87
:106C8000000313F0030349D1403A23D30B68036098
:106C90004B6843608B688360CB68C3600B6903619A
:106CA0004B6943618B698361CB69C3610B6A036282
:106CB0004B6A43628B6A8362CB6AC3620B6B03636A
:106CC0004B6B43638B6B8363CB6BC363403040314F
:106CD000403ADBD230320BD30B6803604B68436021
:106CE0008B688360CB68C36010301031103AF3D2E8
:106CF0000C3205D351F8043B40F8043B043AF9D276
:106D0000043208D0D2071CBF11F8013B00F8013B48
:106D100001D30B8803806046704700BF082A13D355
:106D20008B07B1D010F00303AED0C3F10403D21A25
:106D3000DB071CBF11F8013B00F8013BA4D331F87D
:106D4000023B20F8023B9FE7043AD9D3013A11F8FD
:106D5000013B00F8013BF9D20B7803704B7843708C
:106D60008B78837060467047F0B4860746D0541E17
:106D7000002A3CD0CAB2034602E014F1FF3436D3F5
:106D800003F8012B9D07F8D1032C29D9CDB245EA90
:106D900005250F2C45EA054533D9A4F1100636091F
:106DA00003F1200707EB061703F1100242E904552F
:106DB00042E902551032BA42F8D1721C14F00C0F9D
:106DC00003EB021204F00F0613D0331F23F003036A
:106DD0000433134442F8045B9342FBD106F00304EE
:106DE0002CB1C9B21C4403F8011B9C42FBD1F0BC7E
:106DF000704734461346002CF3D1F8E71446034697
:106E0000C2E71A462646E0E70022024B1B68C3E9A8
:106E10002A027047400000200B4B0C48196810B440
:106E2000D1E92A2300FB02F0094C04FB0300A2FB7A
:106E3000043404445A1C44F10000C1E92A2010BC67
:106E400020F00040704700BF400000202DF4515852
:106E50002D7F954C80EA010C1CF0030F37D110F008
:106E6000030C20F0030021F0030150F8042B08BFAD
:106E700051F8043B0ED08CF0030C6FF07F434FEAC7
:106E8000CC0C23FA0CFC51F8043B42EA0C0243EA16
:106E90000C0300BFA2F1013C9A4201BF2CEA020C94
:106EA0001CF0803F50F8042B51F8043BF2D04FEA1D
:106EB00002604FEA1222012828BFB0EB036F08BF1F
:106EC0001B0AF4D003F0FF03000EC01A704710F045
:106ED000030F0AD010F8012B11F8013B012A28BF3B
:106EE0009A42F4D0A2EB030070474DF8045D50F8CD
:106EF000042B01F0030521F0030151F8043B022D9E
:106F000026D04DD822F07F45B5EB132FA2F1013CDE
:106F10002CEA020C0DD11CF0803C08BF51F8043B58
:106F20000AD185EA0205B5EB036F0CD150F8042BAA
:106F3000E8E74FEA13235BE03CF07F4C54D10B7839
:106F40004FEA126554E04FEA126503F0FF034FE089
:106F50004FEA0245A2F1013C4FEA15452CEA020C2A
:106F6000B5EB134F18D11CF0803C08BF51F8043B1F
:106F700007D185EA0205B5EB034F09D150F8042B80
:106F8000E6E75FEA0C4C2FD10B884FEA12452FE061
:106F90004FEA03434FEA12454FEA134328E000BF8C
:106FA00002F0FF05B5EB136FA2F1013C2CEA020CD5
:106FB0000DD11CF0803C08BF51F8043B0AD185EA92
:106FC0000205B5EB032F0AD150F8042BE8E74FEA8E
:106FD00013630DE012F0FF0F06D051F8043B4FEAA7
:106FE000122523F07F4303E04FF0000020BC7047E0
:106FF00005F0FF0203F0FF00012828BF904204BF04
:107000002D0A1B0AF4D0A2EB000020BC704700BF81
:1070100080EA0102844612F0030F4FD111F0030FF2
:1070200032D14DF8044D11F0040F51F8043B0BD050
:10703000A3F101329A4312F0803F04BF4CF8043BA5
:1070400051F8043B16D100BF51F8044BA3F10132B3
:107050009A4312F0803FA4F101320BD14CF8043B6B
:10706000A24312F0803F04BF51F8043B4CF8044B9C
:10707000EAD023460CF8013B13F0FF0F4FEA33230D
:10708000F8D15DF8044B704711F0010F06D011F8EC
:10709000012B0CF8012B002A08BF704711F0020FDA
:1070A000BFD031F8022B12F0FF0F16BF2CF8022BC5
:1070B0008CF8002012F47F4FB3D1704711F8012BE8
:1070C0000CF8012B002AF9D1704700BF20F0030112
:1070D00010F00300C0F1000051F8043B00F1040C73
:1070E0004FEACC0C6FF000021CBF22FA0CF21343E3
:1070F0004FF0010C4CEA0C2C4CEA0C4CA3EB0C02AC
:1071000022EA030212EACC1204BF51F8043B043015
:10711000F4D0C2F1000102EA0102B2FA82F2C2F135
:107120001F0200EBD2007047FEE708B5FBF7AEF890
:10713000F7B500240646254627463046FBF794F966
:107140000197019BAB4215DB3046FBF795F9C5F57E
:10715000C8750197019B9D4211DC0134B4F5487F4D
:1071600001D103B0F0BDB4F5C87FD4BF2546C4F546
:107170004875E2E700BF019B01330193E1E700BFDF
:10718000019B01330193E5E7FBF72EBAFBF7D8BA71
:1071900070470020FBF7B8BB0120FBF7B5BB002010
:1071A000FBF764BD0120FBF761BD0220FBF75EBD6C
:1071B0000320FBF75BBD10B50C46FCF739F8204601
:1071C000BDE81040FCF766B810B50446C1B2002017
:1071D000FBF79EFC204610BD70B50E460025441EF0
:1071E000631C02D014F8010F08B9284670BDB542DF
:1071F000FBD0FFF7E9FF0135F2E738B5054600247B
:10720000285D20B90A20FFF7DFFF204638BDFFF7D1
:10721000DBFF0134F4E7002070470120704710B510
:107220000446302200210E20FBF770FD6CB1012CCA
:107230000CD142F210730011A0F28E5058432A2351
:1072400090FBF3F000F5C340283010BD4FF0004034
:10725000FBE7002070470120704710B5044630223C
:1072600000210F20FBF752FD5CB1012C03BF40F65B
:10727000F253584347F6F0734FF0004008BF90FBBD
:10728000F3F010BD084608B511460AB1FFF7A4FF98
:10729000002008BD10B5041F54F8040F00B910BD3C
:1072A0000021FDF7E7F9F7E7704710B5044600F055
:1072B00012F82046BDE81040FDF792B8C068B0FA59
:1072C00080F040097047837BDB0701D5FDF7CAB822
:1072D0007047FFF75DBF10B541600446FBF780FAC9
:1072E000206010BD10B50446FBF77AFA2368C3F19D
:1072F00001030344606898422CBF0020012010BDA8
:1073000000230360704700687047006820B103469F
:1073100000680028FBD118467047036810B53BB1E0
:10732000002499421A6806D11CB9026000221A6032
:1073300010BD2260FAE71C46002AF9D01346F0E798
:1073400038B50546FFF7E9FF00230B60FFF7DDFFC7
:1073500008B9296038BD0160FCE738B5FFF7DDFFEB
:1073600003680B60016038BD0368002003B97047F3
:107370001B680130FAE700B10068704710B5044699
:10738000428800214068FFF7EFFC23886288A068EC
:107390000021BDE810405A43FFF7E6BC002310B5BA
:1073A0004188994201DC002009E04268D418D25C8F
:1073B00032B9012222700288806803FB020010BDEE
:1073C0000133EEE7002330B5826844889C4201DC3B
:1073D000FF2008E08A4207D14168CA5C0AB1013A3D
:1073E000CA544268D05C30BD058801332A44EDE7B9
:1073F00082688A4208D84388008800FB03208142C3
:107400002CBF002001207047002070470023013A64
:107410000160027143718371704710B542798379BD
:107420000479D31A34EA030308D0036899544379E2
:107430000279013313404371012010BD0020FCE7A5
:10744000837942790179D21A0A421FBF0268D25C5D
:1074500001330B401ABF837110464FF0FF30704765
:10746000831C002013F8022C023302B9704713F872
:10747000032C1044F6E7072B2DE9F84306460F4688
:1074800015461C4607DC1A4629463846FDF782FA9F
:107490003070BDE8F8834FEAE3087AB97B5D735535
:1074A0000135A845FADC14F00702F2D0002107EB01
:1074B0000800FDF76FFA06F80800EAE74FF0000948
:1074C00007EB090008222946FDF764FA06F80900CF
:1074D00009F10109C845F3DC14F00702D9D02946A7
:1074E000E5E72DE9F743FDF7A5FC04460220FDF78B
:1074F0004DFC20B90025284603B0BDE8F083637831
:10750000207800EB032080B2FDF776FB05460028CB
:10751000F0D0FDF78FFC0746287B10F0070318BF5B
:10752000012303EBD000FDF731FC0028E2D0002658
:10753000B146AC68023414F8023C002BDBD0192BA6
:1075400014F8018C07EBE60106F007020BD901A83D
:107550004346FFF790FF14F8020C01A9FDF738FD30
:1075600046440234E7E7434601A8ADF80490FFF72C
:1075700082FF9DF805109DF8043014F8020C43EAD0
:107580000121FDF717FDEBE7072B2DE9F0410FDC9B
:107590001478C1F11001CB1A04FA03F30178C3F394
:1075A00007220A43417802700B434370BDE8F08123
:1075B000DC10C9B9555C45540131A142FADB13F026
:1075C0000703F3D0125DC3F108052A41C3F110038C
:1075D000055D02FA03F3C3F307222A43011902559A
:1075E0004A7813434B70E1E705460026C1F1080EC7
:1075F000975D95F800C007FA0EF7C7F307284CEA25
:10760000080C05F801CB95F800C001364CEA0707D5
:10761000A6422F70ECDB13F00703C7D0125DC3F155
:10762000080631440A41D2B2C3F11003015D02FAE7
:1076300003F3C3F307220A43051902556A7813437B
:107640006B70B3E72DE9F743057B044615F007029D
:1076500018BF012202EBD505A81CFDF71DFCA8B13F
:10766000FDF7AEFBA3880370A3881B0A4370FDF7E8
:10767000A7FB2A460025861C00213046FFF774FB35
:10768000A468023414F8020C18B9012003B0BDE854
:10769000F083192814F8017C06EBE50805F00709CA
:1076A0000AD9FDF7A1FC3B46024649464046FFF792
:1076B0006BFF3D440234E5E7FDF784FC3B46ADF843
:1076C000040001AAF1E710B5FDF702FBFDF724FC69
:1076D000FDF74EFA00F04AF8BDE810404FF4E12300
:1076E0004FF4F0524FF400710220FDF709BA7047D1
:1076F000F8B50E46FDF79EFB07880446FDF764FBD0
:10770000BB000233834203D800250234AF4200DCC1
:10771000F8BD54F8041B30460A0C89B2FDF73AFA5A
:107720000135F3E743695B6803B11847704713B548
:1077300004461A20FDF758FC014601A800F05EF847
:1077400063691B6813B1204601A9984702B010BDB8
:1077500000F00EB838B50D46FDF74EFA044620B1DC
:1077600085602846FDF776FA207338BDFDF730BAFC
:10777000FDF73CBAFDF754B903691B6803B118471C
:10778000704703695B6803B11847704783695B689A
:1077900003B118477047FFF7DBBF10B504461B2045
:1077A000FDF716FC2046BDE81040FDF7D3B90EF0FA
:1077B0000F000D2808BF00F00EB800982DE9F04F1B
:1077C00000F1240181F3098890E8F08F0EF00F009A
:1077D0000D2818BF7047EFF3098020E9F04F09909A
:1077E000BDE8F08F006800F1B6018230FDF7BABB4A
:1077F000036803EB4103B3F8820070470B880380F2
:107800007047022208B5FFF709FAB0FA80F0400984
:1078100008BD30B530B3037A022B2CD1C579437A39
:1078200004792DB9002B4AD1012C48D1204615E00E
:1078300053EA04001DD0032D2FD1032B2FD1B4FA0E
:1078400084F04009002309E0181E18BF0120002C15
:10785000F8D1023B012B8CBF0023012301B10B6047
:1078600002B1106030BD023B012B8CBF002301230D
:10787000DCE701201BE00378022B22D0037953B907
:10788000437A13F0030318BF0123C07910F00300FB
:1078900018BF0120E2E70023F7E7022DD4D0A3F1BF
:1078A000020CDCF1000040EB0C00002CCAD1022DD0
:1078B000CFD0032DC6D19C1E63426341CEE7002C7E
:1078C000D1D000200346C9E7002337B50B608B8079
:1078D000437D0D46D9075CBF01232B70037E044610
:1078E000012B0BD8C37D9A072CD0437E9B0729D050
:1078F000C28B838B9A4225D101232375694601AA45
:1079000004F11000FFF785FF009B0BB10223EB7021
:10791000019B0BB102236B70E37D03F00303022B89
:1079200003D0032B14BF00230823AB70637E03F046
:107930000303022B03D0032B14BF002308232B7156
:1079400003B030BD0023D8E702280CBF0223082370
:107950000B448B4201D10120704713F8012DFF2AFF
:10796000F7D00020704707B56946FFF7ADFF9DF8D7
:1079700000309DF80100023303449DF802000344E7
:107980009DF8030003449DF8040003449DF805009E
:10799000184403B05DF804FB43788278DB001201E1
:1079A00002F0100203F008031343027802F007020A
:1079B0001343C278520102F020021343027992016C
:1079C00002F0400213430B704379427A03F0010343
:1079D00043EA82138279520002F002021343C27911
:1079E000920002F00C021343027A120102F03002FC
:1079F00013434B70704737B504460D466946FFF791
:107A000063FF294604F11000FFF7C6FF9DF8003020
:107A10009DF80120012B09BFA37E0223AB70032335
:107A2000022A08D1A18B5A1CE954A18BD2B202338D
:107A3000090ADBB2A9549DF802201344DBB2991A5B
:107A4000C9B2B2B99DF80320022A08D1E18B5A1CB1
:107A5000E954E18BD2B20233090ADBB2A9549DF892
:107A6000042008341344D8B2831ADBB22AB903B015
:107A700030BD013AA05C6854E1E7013AA15CE954E9
:107A8000F2E70278437802F007000870C2F3C00002
:107A90004870C2F300108870C2F34010C2F3801225
:107AA0000A7103F001024A71C3F340028A71C3F301
:107AB0008102CA71C3F301129B09C8700A724B722A
:107AC000704710B40446084611461A4614B12346BE
:107AD00010BC184710BC704730B591B0FDF7AAF93B
