:020000040020DA
:10200000D8160020CD232000AF6B2000AD6B200040
:10201000AD6B2000AD6B2000AD6B20000000000018
:1020200000000000000000000000000047722000D7
:10203000AD6B20000000000065722000316C2000B4
:10204000436C2000496C20004F6C2000556C200030
:1020500000000000376C20003D6C2000AD6B2000BC
:10206000AD6B200000000000000000000000000038
:102070000000000000000000AD6B20000000000028
:102080000000000000000000AD6B2000AD6B2000E0
:10209000AD6B2000AD6B2000AD6B2000AD6B200060
:1020A000AD6B2000AD6B2000AD6B2000AD6B200050
:1020B000AD6B2000AD6B2000AD6B2000AD6B200040
:1020C000AD6B2000AD6B2000AD6B2000AD6B200030
:1020D000AD6B2000000000000000000000000000C8
:1020E00000000000000000000000000000000000F0
:1020F0000000000000000000D1392000E13920007C
:1021000000000000000000000000000000000000CF
:1021100000000000000000000000000000000000BF
:1021200000000000000000000000000000000000AF
:10213000000000000000000000000000000000009F
:10214000000000000000000000000000000000008F
:10215000000000000000000000000000000000007F
:10216000000000000000000000000000000000006F
:10217000000000000000000000000000000000005F
:10218000000000000000000000000000000000004F
:10219000000000000000000000000000000000003F
:1021A000000000000000000000000000000000002F
:1021B000000000000000000000000000000000001F
:1021C000000000000000000000000000000000000F
:1021D00000000000000000000000000000000000FF
:1021E00000000000000000000000000000000000EF
:1021F00000000000000000000000000000000000DF
:1022000000000000000000000000000000000000CE
:1022100000000000000000000000000000000000BE
:1022200000000000000000000000000000000000AE
:10223000000000000000000000000000000000009E
:10224000000000000000000000000000000000008E
:10225000000000000000000000000000000000007E
:10226000000000000000000000000000000000006E
:10227000AD6B2000B1382000D5382000412F200060
:102280002D3B2000712A2000AD6B200000000000D3
:102290000823F0B583298DB005460C468DF808302B
:1022A000049302D13E4804F0C2FF2B88002B4BD090
:1022B000852B6AD1882C60D13A4B20205B689847E7
:1022C000394F3A4C3B680011122B44F8230059DD7A
:1022D000022000F065F90020234640F2DC5E04464F
:1022E000334E31681A46D3F804C012680134ACEB9F
:1022F00002027245C4BF01200131132C03F1040313
:10230000F0D100B13160306804F03EF922A3D3E986
:10231000002303F0BDFE04F0A1F9264B64211860F0
:102320004FF4E0638DF8280002A8ADF8043002F005
:10233000C5FE01A91A4804F07CFF022000F038F91C
:1023400000233B60336014E01B4801F041FC1B4854
:1023500001F03EFC1A4B0E21DB6A012098479521C3
:102360000F48184A02F06AFD0E4B202180209B681E
:1023700098471921144804F0EAFC852301202B809A
:102380000DB0F0BD01333B60F3E7002303202B8049
:10239000F6E700BFAFF30080333333333333E33F2B
:1023A000E806002040762000D00600200807002024
:1023B000D4060020040700206B7A20008F7A2000CA
:1023C000C87620002C782000D8060020FF220024A8
:1023D00008B5094B0948C3F8B420094A636E094996
:1023E000121A98470848094A2146236E121A98473C
:1023F00000F00EF8FEE700BF00200D404000002076
:10240000F8000020D07A2000F8000020D40E002030
:1024100073B500F073FC00F02DFD00F089FC00F0B6
:10242000B5FA01F071FB04F0A1FC00F01BFD00F017
:10243000ADF8012004F0BEFB02F050F900F04AFCB8
:10244000002000F06DFB012000F06AFB00203D49F8
:1024500000F02AFC02F088FA62B6042004F0AAFB1D
:10246000394804F01CFC394804F019FC00F02CFA3F
:10247000002002F021FB01F043FA0021344802F071
:10248000B9F902F059F804F0C3FB00F07DFD00F04B
:1024900099FD02F07BFE0821684601F05BFB2D4DA3
:1024A000BDF806402C482C8001F092FB2B4E297879
:1024B0002B4801F08DFB69782A4801F089FBF56A09
:1024C0004AF6CD310220A84761BA89B20320A84755
:1024D0001A210120A84708226946736B0B209847F0
:1024E000214801F075FB214B186804F0D8FB204807
:1024F00001F06EFB1F4B186804F0D1FB1E4801F081
:1025000067FB1E4B186804F0CAFB00211C4802F050
:1025100071F91C4B01219B688120984704F016FC3F
:10252000194804F009FC00F0DBFB022004F042FB38
:1025300000F0DCFB02F0EAF8C0B20028F8D101F0AC
:102540007BFAF5E721492000367820004878200002
:1025500068000020880D00206D782000C8762000DB
:102560008B78200091782000977820009C772000BD
:102570009E782000CC772000A5782000E877200006
:1025800098000020507620002478200008B500F044
:1025900043F90022014B1A7008BD00BF8E0D0020C8
:1025A000024B1A781043187000F058B98E0D0020B5
:1025B000034A137823EA0000107000F04FB900BFFF
:1025C0008E0D002008B50B4B1B7803420FD020283E
:1025D0000BD004280BD10220074B80211A7800F081
:1025E00073FC20EAE07000B208BD0520F4E74FF06C
:1025F0000040F9E7900D00208F0D0020802810B5D5
:102600000C4605D0B0F5807F2BD04FF0004027E07E
:102610008B1E222BF9D8194BD3F8202422EA010271
:10262000C3F82024D3F8002422EA0102C3F80024CE
:102630008A0604D501220521002000F029FC630749
:1026400004D501220221002000F022FC00F034FC1D
:1026500030220B4B1A700B4B187820431870002057
:1026600010BDC8B2202803D005D810F0EF0FCCD190
:10267000034B1870F4E73028FAD0C6E700900D40FD
:102680008F0D0020900D002018B1012804D00020EB
:102690007047034B186A7047024B1878704700BFA9
:1026A00000900D40920D002010B5094A00201378CB
:1026B00001331370074B197802F074F8BDE810402D
:1026C00005490023054A0968054801F06BBF00BFB2
:1026D000920D0020910D002030010020A92620003D
:1026E0001001002008B50346812B08462DD0B3F514
:1026F000807F3ED0802B26D101F0E8FF1E4B0321C6
:1027000018701E4B0020D3F8202422F00802C3F8D2
:102710002024D3F8002422F00802C3F80024D3F8C0
:10272000042422F00802C3F80424D3F8082442F059
:102730000802C3F80824042200F0AAFB03220021A7
:102740000F4800F049FB01200AE00C4B0D49D3F87B
:10275000102430B142F00802C3F8102401230B60AA
:1027600008BD22F00802C3F810240123C1F880300C
:10277000F6E7054B1960E6E7910D002000900D404B
:102780008D27200000E100E03001002008B50F484F
:1027900004F0F5FAC8B108210C4804F0E9FA0C4B32
:1027A000196849B100220B4B1A700B4B1B6A43B9D5
:1027B0000A4A0B4801F0F6FEBDE80840094802F05D
:1027C0004FB9074801F0F8FEF6E708BD0801002000
:1027D00030010020920D002000900D40A92620001D
:1027E0001001002050762000094BD3F8202422F05D
:1027F0000402C3F82024D3F8002442F00402C3F8F2
:10280000002400221A610122024B1A70704700BF97
:1028100000C00D40970D002000210F4BD3F820245D
:1028200022F0C002C3F82024D3F8002442F0C002F2
:10283000C3F80024C3F8001303F50053D3F8202491
:1028400022F01002C3F82024D3F8002442F0100232
:10285000C3F800241964704700A00D4010F0020274
:1028600018BFFF22084BC3F8002210F0040218BF63
:10287000FF2210F00100C3F8002118BFFF22034B14
:1028800014BF1A641864704700A00D4000C00D40CA
:10289000044BDB69C3F3072013F4704F04BF1030FF
:1028A000C0B2704700300D40064B5869C00910F0A7
:1028B000060F03BF00F00700C0F1020040034FF411
:1028C0000040704700300D402DE9F047002488B0EB
:1028D000FFF7DEFF164B0646DF69236D9847E36C72
:1028E000804698470446FFF7DFFF054600F05CFA94
:1028F000814600F065FA824600F010FAAD0A07F052
:102900000103A40AC7F34007CDE905A0039341469C
:10291000CDF8109002970195009406F00F03C6F3CE
:102920000712044801F054F908B0BDE8F08700BF71
:1029300000300D40C87820002DE9784800F064F898
:1029400010490246D1E900BC6646584538BF0CF133
:1029500001063346C1E900230B4ED6E90001B0EB76
:102960000B0461EB0C05A01845EB0301C6E900015F
:1029700001F082FD18B1BDE8784801F003BDBDE863
:10298000788800BF00010020F80000204FF0E0230D
:10299000E0210B4A5A610B4A82F8231000220721DA
:1029A0009A61196108498B6843F001038B60074BFA
:1029B000DA6004221A6001225A600F229A6370477B
:1029C00047E8010000ED00E000200D40000003405A
:1029D000034BD3E90023100A40EA0360704700BFAD
:1029E00000010020044B9862DA6842F00102DA60CC
:1029F000DA68D207FCD4704700000340014B186826
:102A0000704700BF34010020054A106C516C936C74
:102A10001B0443EA01230343D06C43EA0060704780
:102A200000500D4010B504460E4A136DDB07FCD56F
:102A300072B6FFF7E9FF231A062BD8BFC41D094B56
:102A4000220EDA64C4F307429A64C4F307225A647C
:102A5000E2B21A6462B64FF40032034B1C60034BBF
:102A60001A6110BD00500D403401002000E100E06B
:102A700008B500F0CDFF0022064B1A604FF400327B
:102A8000054BC3F89021C3F89020BDE8084001F041
:102A9000E7BE00BF3401002000E100E0064B9B6967
:102AA0001B075FBF054B986980F00800C0F3C000AA
:102AB00048BF0020704700BF00C0004000D0004069
:102AC0002C22154B70B502FB00334FF6BF72DC6849
:102AD0000546236C626413F050020DD00F4EA369BB
:102AE000DB0600D570BD56F825301BB12068C0B29A
:102AF0009847F4E72368F2E713F4D06FF2D04FF46D
:102B000040732363FF236360E36AE262E362236B43
:102B100043F001032363E5E76076200038010020DD
:102B200001282DE9F74F804600F2AD802C25454362
:102B3000564F7C1994F92090B9F1000FC0F2A38090
:102B400094F92260002EC0F29E80514800F0CAFF26
:102B5000504B79599A6A94F921A00A439A62DA6A29
:102B60006168E5680A43DA621A6BA168F0B20A4349
:102B70001A63002322690AEBC901C5F8C83F116036
:102B800094F82310227DCDE9000194F923B000F0E0
:102B900089F9DDE90001082200F07AF90122310308
:102BA0003D4E02FA0BFB88594FEA09394BEA000007
:102BB000885159F8061002FA0AFA4AEA010149F85E
:102BC00006105021A963A96B94F9240041F4D06147
:102BD000A963022169634FF440712963A169002848
:102BE0006962E169A9624FF07001E96216DB0023B6
:102BF00094F92510294C41EAC005C4F80451040396
:102C0000A5598A402A43A251C9B21A46C0B200F05F
:102C10003FF9234A136B43F4004313632C2303FB54
:102C2000087393F92640002C1ADB93F82790E5B23D
:102C300001224946284693F927A000F033F90123E1
:102C40002403A25903FA0AF31343A3510822494665
:102C5000284600F01DF9124A136B43F480431363B6
:102C60002C2000FB0877FA68136B43F00103136311
:102C7000012297F82830590903F01F0302FA03F3E1
:102C8000084A42F8213003B0BDE8F08F607620009A
:102C90009D2A200000200D4020940D4000400D4052
:102CA00000D0004000E100E001289CBF014B43F848
:102CB0002010704738010020012808D82C22044B2E
:102CC00002FB0030C3689A699206FCD41960704711
:102CD000607620000022014B1A60704700500D40C2
:102CE0000822014B1A60704700500D40A022024B91
:102CF0001A6050221A60704700500D40014A024B82
:102D00009A6070470020200000ED00E0024B5868F8
:102D1000C0F38150704700BF00200D4008B5FFF799
:102D2000F5FF024B53F8200008BD00BFB876200025
:102D300010B5194C0122D4F82034062123F04003A9
:102D4000C4F82034D4F80034032023F04003C4F83E
:102D5000003400F09DF8D4F82034012223F08003E1
:102D6000C4F82034D4F80034072123F08003C4F8D9
:102D70000034032000F08CF8084A094B1A60094A15
:102D800059681142FCD15A685201FCD4044A536874
:102D90005B01FCD510BD00BF00C00D400101020069
:102DA00000200D4000000101034B04485B6803F064
:102DB00007031841704700BF00200D400048E8019C
:102DC000034B04485B68C3F302231841704700BFFC
:102DD00000200D400048E801024B02EBC10243F81D
:102DE0002200704740010020F8B507460D46002438
:102DF000084E06EB411647FA04F3DB07E1B204D5AF
:102E000056F824300BB1284698470134082CF2D1EB
:102E1000F8BD00BF400100202DE9F8430546DFF86A
:102E2000388000F0F5FD0D4B2E03F75856F808409A
:102E30004FEAC50924FA09F447EA04002946C0B25A
:102E4000FFF7D2FFE4B2064BFFB204FA09F4F750E1
:102E500046F80840BDE8F88318970D4018940D40D7
:102E60001C940D4080220021014803F04DBE00BF9C
:102E700040010020034B044A1A60044B803A1A6058
:102E8000704700BFC001002080400D40C4010020F9
:102E9000034B01EBC0011B6843F82120704700BFC2
:102EA000C0010020034B01EBC0011B6843F8212047
:102EB000704700BFC4010020024A136843F030038A
:102EC0001360704700700D400E2870B506460DD196
:102ED000134B5C6B44F0020058631248D0F8F45670
:102EE00025F03F0343F00103C0F8F4360E48836831
:102EF00023F0FF031A4311433143816003681B062B
:102F0000FCD5C368006903F0FC0343EA00230E2EDE
:102F100018B201BF034BC3F8F456014B5C6370BD9C
:102F2000000001440080084000700D40034BD3F8BE
:102F30000007B0FA80F04009704700BF00B00840B9
:102F40004FF40042064B10B5064CC3F89021C3F86D
:102F50009020206818B101F065FC0023236010BDAB
:102F600000E100E0C8010020064B9A6C42F002022A
:102F70009A64DA6C42F00202DA641A6D42F00202DC
:102F80001A65704700200D4007B50C4800F0AAFDF7
:102F9000FFF7EAFF0A4B5A6D42F002025A6500221F
:102FA0000192019A0F2A06DD5A6D22F002025A653B
:102FB00003B05DF804FB019A0132F1E72D2F2000E8
:102FC00000200D40064B9A6C22F002029A64DA6CE3
:102FD00022F00202DA641A6D22F002021A657047CA
:102FE00000200D400D4BD3F84C269107FBD4D3F8AD
:102FF0004C2652065EBFED22C3F83828C3F83828A5
:10300000D3F82C2612B1EF22C3F83828044A012045
:10301000137803F07F031370704700BF00800840EF
:103020009A0D0020044BD3F84C0600F02200A0F1CA
:10303000200358425841704700800840024BD3F8A3
:103040004C0600F04000704700800840054BD3F864
:10305000002620B142F00102C3F80026704722F09A
:103060000102F9E700800840284B1870002841D081
:10307000274A53681B03FCD5264BD3F8042842F09B
:103080000202C3F80428D3F8042842F00102C3F86E
:103090000428D3F804285007FBD5D3F8042822F0DD
:1030A0000102C3F804281B4BD3F804285107FBD4B2
:1030B000D3F8042842F00202C3F80428D3F8042805
:1030C00042F00102C3F80428D3F804285207FBD5C4
:1030D000D3F88C2622F00402C3F88C26D3F83428C7
:1030E00022F00402C3F834284FF400520A4BC3F80C
:1030F00090207047074AD2F88C3643F00403C2F898
:103100008C364FF40052044B1A617047990D002021
:1031100000200D400080084000E100E0094B93F9D9
:103120000020002A0CDBED21074AC2F83818C2F84B
:103130003818E321C2F838181A7862F07F021A7042
:10314000012070479A0D00200080084070B5A0F162
:103150000B05EBB20F2B044614D80C4ED6F84836AC
:1031600013F03F0302D0FFF73DFF012305EB850578
:103170000B35C6F83C560BB1FFF7D0FF044B60B2DD
:103180001C7070BD4FF0FF30FBE700BF00800840AF
:10319000F600002038B50C46002900F09180102878
:1031A00000F29080DFE800F009111D252B434C60F0
:1031B000667D818E8E86885D8A00434BD3F82C36DF
:1031C000003B18BF012323602BE005223E4BD3F8C0
:1031D0003C3603F07F030B3B93FBF2F30B33DBB284
:1031E000F1E7394AD2F8CC15D2F8C83543EA0123C1
:1031F000E9E7354AD2F8D415D2F8D035F6E70023FE
:10320000314A0B60D2F8003603F001030B60D2F8AC
:103210002426900644BF43F002030B602B4B1B781F
:103220000BB900200BE00B6843F00403CBE7002050
:10323000274B08601B78002BF3D001230B6038BDAF
:10324000214B2449D3F840260023D2B201EBC3001E
:103250000079904202D851F83330B4E701330E2B95
:10326000F4D16FF01703AEE7174BD3F858365BB2C3
:10327000493BA8E7144DD5F8483699060FD1FFF71A
:103280004DFF0123D5F86426D207FBD5D5F860564B
:10329000493D6DB20BB1FFF7A5FE2560C1E70023E4
:1032A000F0E70D4B93F900308DE70C4B1B7803F0E2
:1032B0007F0388E70B2386E71A2384E7072382E747
:1032C0000220BCE70120BAE700800840990D0020E9
:1032D000F7000020007720009B0D0020980D0020B3
:1032E00010B50B4CD4F8483699060FD1FFF716FFEE
:1032F0000123D4F86426D207FBD5D4F84C46C4F396
:1033000000140BB1FFF76EFE204610BD0023F0E75E
:103310000080084010B50C46072865D8DFE800F0AB
:10332000040F1A232C444A5E012903D1FFF7F6FE4D
:1033300000203EE0002959D1FFF754FEF8E7A1F143
:103340000B030F2B52D8C8B2FFF700FF0130EFD1AB
:1033500003202EE0264BCAB2C1F30724C3F8C825C8
:10336000C3F8CC45E4E7224BCAB2C1F30724C3F843
:10337000D025C3F8D445DBE731F0070336D101F09F
:103380000100FFF763FE1A4B11F0020FD3F8242659
:10339000C1F3800014BF42F0200222F02002C3F8E3
:1033A0002426FFF761FEC3E731F001001ED1114B67
:1033B000197010BD01F118031F2B17D80D230E4AE9
:1033C00052F833108C4206DC02EBC3031A79084B27
:1033D000C3F84026ACE7013BF2D2A9E7044BCCB2DC
:1033E0004934C3F85846A3E70120E2E70220E0E7AA
:1033F00000800840F70000200077200070B50546E7
:103400000C46144ED6F84C369B07FBD4124B93F95E
:103410000030002B01DBFFF781FEEE23691EC6F8AA
:103420003838C6F83838A31CC6F82838214402209A
:1034300000F080FA0949013C41EA0411022000F041
:103440008BFA022000F092FA022000F0A7FA002086
:1034500070BD00BF008008409A0D002002C001C06E
:1034600070B5264B93F90030002B19DBFFF7CCFA2F
:103470000446FFF753FEC4F1FF2404F57F04F6343D
:10348000FFF7C2FAC442FBD401261D4B1B784BB98F
:103490001C4CD4F84C36990609D50224204670BD40
:1034A0000026F2E7FFF71CFF0028F1D1F5E7E9233A
:1034B0000425C4F83838D4F84C369A0703D4013DB3
:1034C00015F0FF050AD1D4F84C369B070AD50D4BF1
:1034D000D3F84C4614F00204FAD109E00620FFF7B5
:1034E00081FAE8E7EE23C4F83838C4F83838012404
:1034F000002ED3D0FFF776FDD0E700BF9A0D002055
:10350000F7000020008008400B280DD1082A0DD1BB
:1035100061B1074B074A083111F8010D43F8040B5C
:103520009342F9D100207047012070470220704774
:10353000A8850840C885084070B5384A0546D2F8C5
:103540004C0610F0400009D0D2F82808040606D531
:10355000ED23C2F83838C2F83838002070BDC0B248
:103560000428F5D902388842F2DCC4B2032C24D1F5
:10357000D2F828382B70D2F828386B70D2F8283857
:10358000AB70264D264BD5F82818264E493949B23E
:103590001970D5F828381806337026D589B204205A
:1035A00001F0CAFD3178032001F07F0101F0C4FD74
:1035B0001D4B1B78FBB12046D0E7291903200139A8
:1035C00000F0C0F91949631E032041EA031100F01D
:1035D000C3F9032000F0CAF9032000F0DFF903204B
:1035E00000F0E8F90028FAD1CBE7ED23C5F8383828
:1035F000C5F83838B1E7D5F84C365A06DBD5D5F8DA
:103600004C361B0603D50A4801F00CF9D3E7ED232D
:10361000C5F83838C5F83838CDE700BF0080084015
:103620009B0D0020980D0020990D002002C0010C78
:10363000500000202DE9F041294F3E7816F0010698
:103640004CD10125274B284CC3F8A850C3F8AC50E7
:10365000C3F8B050F823C4F858360923C4F8E83743
:1036600015230B22C4F8C836204B4FF07F085A6050
:103670004023C4F82436D4F8243643F02003C4F899
:103680002436D523C4F80866C4F85086C4F84036FA
:10369000174B1878FFF75AFD4FF48042154B022064
:1036A000C4F894861A6100F06DF91349022000F005
:1036B00049F9032000F066F90F49032000F03AF9B8
:1036C0000E4B1878FFF7D0FC0D48314601F092F808
:1036D00028463B782B433B70BDE8F0810020FBE798
:1036E0009A0D002000200D400080084000600D4031
:1036F000F600002000E100E028880840990D002035
:103700005000002038B50388044653B340F203420A
:10371000934233D11B4B1A7842BB822924D11B78A8
:1037200073B901F0BBFC01F04DFC8021FFF704FFF1
:10373000002805DD80B201F005FC134B1B6998479A
:10374000124B1A7852060CD500221A70104BD3F87F
:103750004856FFF747FCFFF76DFFAB0601D0FFF7B8
:10376000DDFC40F20343238001200AE01A78002A9E
:10377000FAD0064A12785006F6D5CEE70023038029
:10378000032038BD990D0020E87720009A0D002015
:10379000008008400B282DE9F8430D460FD1082A78
:1037A0007CD100297AD03E4B3E4A4D1E53F8041975
:1037B000934205F8011FF9D10020BDE8F8830C28D9
:1037C0006AD1042A6AD1002968D0374BD3F810286F
:1037D00022F00702C3F81028D3F8042842F00802A8
:1037E000C3F80428D3F81428D3F81818D3F810080D
:1037F000D2B220F07000C3F81008D3F82448D3F8F0
:103800002008090242EA006289B224040A4304F44F
:103810007F04D3F81C7842EA0408D3F81028FFB2DA
:1038200022F0070242F00102C3F81028D3F804285E
:1038300042F00802C3F80428D3F81448D3F8182833
:10384000D3F81018E4B221F0700141F01001C3F870
:103850001018D3F82418D3F82008120292B244EAC0
:1038600000640904144301F47F010C43D3F81C18CD
:103870005FFA81F9FFF7C8F8B8EB040467EB0907B2
:10388000FF0306460023094AE00347EA544102F0D9
:103890000DFF361A2E608FE701208EE702208CE79D
:1038A000C4850840A4850840008008400048E8011D
:1038B00008B5054B1B7813B9044800F0B3FF00228C
:1038C000034BC3F8342808BD990D00205000002098
:1038D00000800840074A0848D2F82C38042B1FBF44
:1038E00006490B7843F040030B700023C2F82C38D4
:1038F00000F098BF00800840500000209A0D002082
:1039000010B5094C40220021204603F0FDF80122A9
:10391000064B5A604FF480429C60054B5A604FF44E
:1039200000425A6010BD00BF0000002000F00F40B0
:1039300000E100E003289EBF014B000119507047D1
:103940000000002003289EBF024B03EB00104160E3
:10395000704700BF0000002003289EBF024B03EB0E
:1039600000108160704700BF00000020032806D8C7
:103970000123034A03FA00F0916A084390627047FA
:1039800000F00F40032806D80123034A03FA00F091
:10399000116A08431062704700F00F40032806D8F0
:1039A0000123034A03FA00F051690843506170474C
:1039B00000F00F4003289FBF044B03EB001080680A
:1039C00000F0070088BF0020704700BF0000002003
:1039D0004FF0FF32014BC3F80425704700F00F4051
:1039E0000122014BDA64704700F00F40074B5A6820
:1039F000D102FCD41A6822F480321A605A68D203C9
:103A0000FCD41A6842F400321A60704700200D405E
:103A100010B5084CA36D99070BD063685A01FCD40C
:103A200063685B01FCD503F0F5F8FFF7DFFF0023C7
:103A3000A36510BD00200D4070B5264BD3F8484655
:103A400014F03F0414D1244D55F8043B23B198479A
:103A500070B10134052CF7D1204E337843B1FEF715
:103A6000CDFF0446FEF7D0FF201A092800D90CB973
:103A700030BF26E01A4B1A6822F400321A605A68E6
:103A8000D202FCD41A68164D42F480321A606B6878
:103A9000DB03FCD5FEF7B8FF241A092C03D8BDE8D8
:103AA0007040FFF7A3BF632C0CD93378022B09D1E8
:103AB000AB6500F06DFE38B1FFF798FF0022084BB0
:103AC0009A6570BD0123F3E7FEF798FF0028F3D055
:103AD000CEE700BF00800840CC0100209C0D0020F4
:103AE00000200D40074A10B50023144652F8041B6D
:103AF000814202D011B944F8230010BD0133052BD7
:103B0000F4D1FAE7CC0100200022054B05499A6563
:103B10000B6943F004030B61034B1A70704700BF3D
:103B200000200D4000ED00E09C0D00204FF480329D
:103B3000064B10B5064CC3F89021C3F890202068BE
:103B400018B100F06FFE0023236010BD00E100E01B
:103B5000E00100204FF4201270B592F82B40431E74
:103B600054B101F52012194C2732A2421AD012F892
:103B7000015903F8015FF8E792F82A40122CF0D1BE
:103B800092F829204B2AECD14C0804F520120F4D55
:103B90002732AA420ED1002301F52012051927323F
:103BA000A3420CDB0823014401F8013C002301F887
:103BB000023C70BD12F8016903F8016FE9E7D61AFB
:103BC0003678013305F8016BEAE700BF27002800CB
:103BD0000FB407B504AA52F8041B0448019200F080
:103BE00021F803B05DF804EB04B0704760000020DA
:103BF00070B505460C460A4E102C07D874B1224603
:103C00002B6868680649BDE87040184710223146A5
:103C10002B686868984710B9103CEDE7204670BDE6
:103C2000E87920002DE9F04F8046154600278DB039
:103C30000491049B1B78002B00F07983049B1A7875
:103C40001C460133002A00F06183252AF7D1049B2A
:103C50009C4205D05DE323783744002B00F0678356
:103C60006278631C002A00F062830024184610F872
:103C7000012B19462B2A15D009D8202A15D0232A22
:103C800016D0A2F13106082E40D8002219E02D2AC4
:103C900004D0302AF5D144F0100401E044F00104CE
:103CA0000346E3E744F00604FAE744F00204F7E7CA
:103CB00044F00804F4E70A21019A01FB0299A9F1F2
:103CC0003002194613F8019B0192A9F13002092A2A
:103CD000F1D90B782E2B36D14A784B1CA2F130004B
:103CE000092828D84FF0000B1A781946A2F13000A5
:103CF000092803F1010318D90B786C2B6BD14B7891
:103D00006C2B23D144F08004023122E02A2A09D10D
:103D10002B680146002B019305F10405B8BF44F060
:103D20000104D6E700230193D3E70A2101FB0B2B03
:103D3000ABF1300BD8E72A2A04D1D5F800B0023114
:103D40000435D9E719464FF0FF3BD5E7013144F080
:103D500060040B78782B0CD8572B48D8472B08D801
:103D6000402B00F28D80002B00F0E182252B00F02B
:103D7000D0804B1C049304F4E063B3F5A06F00F013
:103D8000A28200F2C980B3F5407F00F06882B3F5EB
:103D9000806F00F02F82B3F5807F7FF44AAFBBF1D4
:103DA000000FACBF24F010044FF0010B14F40059C5
:103DB00004F0E00300F07A81402B00F0728100F201
:103DC000C280002B00F07081202B00F0CB800026F9
:103DD000B2460023D3E0682BBBD14B78682B02D1CD
:103DE00044F0200490E7013144F04004B1E7583B2F
:103DF000202BBED801A252F823F000BFC53E200000
:103E0000733D2000733D2000733D2000733D200072
:103E1000733D2000733D2000733D2000733D200062
:103E2000EF3E2000733D2000FB3E2000AD3E200011
:103E3000D73E2000CB3E2000E33E2000733D200013
:103E4000AD3E2000733D2000733D2000733D2000F7
:103E5000733D20000D3F2000B93E2000073F2000A9
:103E6000733D2000733D2000013F2000733D200082
:103E7000B33E2000733D2000733D2000BF3E200074
:103E8000413B062B3FF675AF01A252F823F000BF6D
:103E9000F53E2000733D2000733D2000733D20005F
:103EA000DD3E2000D13E2000E93E200044F42454B1
:103EB0005FE744F410645CE744F4885459E744F441
:103EC000C85456E744F4B24453E744F4007450E74E
:103ED00044F484444DE744F402444AE744F4424441
:103EE00047E744F4813444E744F4A13441E744F41F
:103EF000C1343EE744F4E1343BE744F4A06438E7DE
:103F000044F4806435E744F4407432E744F4E064F8
:103F10002FE744F4C0642CE7B3F5C06F07D0B3F5C6
:103F2000E06F7FF486AE2B6804351F6081E60122C6
:103F3000D8F80030A649D8F804009847002840F087
:103F4000F481013775E6602B00F0AE80802B7FF4A2
:103F50003EAFEA1D22F007021546D2F804A055F83C
:103F6000086B04E095F9006004354FEAE67ABAF18F
:103F7000000FBFF62EAF012376426AEB4A0A029386
:103F800004F4C053B3F5805F00F0E480B3F5C05F84
:103F900000F0E680B3F5006F00F0C6800DF12E034F
:103FA000009300230393039B41F608029B4588BFBF
:103FB000ABEB030B41F2080304EA020198BF4FF098
:103FC000000B994204D1BBF1010F38BF4FF0010B38
:103FD000039B91425B4440F0DF8056EA0A0200F006
:103FE000DB807C497C4A14F4804F4FF0020614BFFA
:103FF0008A469246B9F1000F0DD0029A002A40F08D
:10400000CE8004F00602022A00F0CD80062A734A10
:1040100004BF0126924606EB0309019B4B4594BF62
:104020004FF00009A3EB090914F00103019304D137
:10403000E20640F1BC80CB4499464EB1324651462F
:10404000D8F80030D8F804009847002840F06D8177
:104050005C46039BDFF888A11F44102CD8E9003090
:1040600000F2AD802CB122465D499847002840F00F
:104070005C81D8F80030039A0099D8F804003744DE
:104080009847002840F05181019B5F44002B00F0CD
:10409000E08049464046FFF7ABFD002800F0D9809C
:1040A00043E1B5F900605FE72E685DE7402B1BD068
:1040B00007D8DBB1202B11D04E46CA46CDF8089068
:1040C0005EE7602B12D0802BF6D1EA1D22F00702AA
:1040D0001546D2F804A055F8086B02E02E78CA46BF
:1040E0000435CDF808904BE72E88F8E72E68F6E700
:1040F000039805990A22002302F0D8FA009B303277
:1041000003F8012D0398059900930A22002302F079
:10411000CDFA03900591039B059A1343E8D1009AC9
:104120000DF12E039B1A3DE70DF12E030396CDF8FA
:1041300014A00093EFE7009803F00701303100F876
:10414000011DDB0843EA42730090D20853EA0201E2
:10415000F1D1E4E70DF12E01334652460091F5E727
:10416000204B14F4804F2049524608BF194633466D
:104170000DF12E00009053EA0200D0D003F00F00A2
:10418000DDF800C0085C1B090CF8010D43EA02735E
:10419000CDF800C01209EEE70026B2462AE7012654
:1041A000DFF848A037E70126DFF844A033E74946A7
:1041B0004046FFF71DFD00283FF43FAFB5E0102259
:1041C00051469847002840F0B080103C45E700BFBA
:1041D000E6792000D5792000D8792000DD7920000B
:1041E000F8792000C4792000B3792000DB79200021
:1041F000A37820002E6804356EB333469A469AF8A9
:1042000000200133002AF9D1AAEB060ABBF1000F06
:1042100002DBDA4528BFDA46019B534594BF4FF0D5
:104220000009A3EB0A0914F0010405D149464046F0
:10423000FFF7DEFC002878D152463146D8F800302E
:10424000D8F80400984700286FD15744002C7FF419
:1042500020AF4F44EDE44FF0060A374ED6E7374B18
:1042600014F4804F364808BF18460DF12B03002286
:104270009A462968043551EA02061AD1BAEB030AB4
:1042800004BF302203F8012C4FF0780208BF03F17D
:10429000FF3303F8012C4FF0300208BF4FF0010A42
:1042A00003F8022C2322DE1E03F8032C0AF1030A72
:1042B000B2E701F00F06865D090941EA027103F8D1
:1042C000016D1209D7E7DDF804902B68B9F1010FF1
:1042D00038BF4FF0010914F0010405F104058DF811
:1042E000183009F1FF3605D131464046FFF780FC12
:1042F000D8B937440122D8F80030D8F8040006A90C
:10430000984790B9002CA4D03146C3E6049B9C4248
:104310000DD0049B0499E61A3246D8F80030D8F83C
:104320000400984700283FF496AC4FF0FF3738461A
:104330000DB0BDE8F08F00BFDF792000C479200008
:10434000B379200010B50D4C236813B90C4A1360E3
:1043500010BDFEF73DFB2268D2E900310B441B1A69
:1043600092681AB91844064B1860F1E7D2E90014B4
:104370002144091A8B4228BF0B46F1E7E8010020CF
:10438000E4010020014800F04DBA00BF68000020A1
:104390002DE9F0410388054653B1592B46D18729B1
:1043A00021D1002023490B6863B918B10B6001E0EB
:1043B000204A1360592301202B80BDE8F0810120A1
:1043C0003346F1E7D3E902649442F8D000B10B60C0
:1043D00019460B4689680029ECD0C8689042F8D18C
:1043E00089689960F4E78229E4D14FF00008114F01
:1043F00000263C68002CDDD0204602F0C0FC90B1C5
:1044000022468821E06800F0CDF950B9A368E06049
:104410002EB1B360C4F80880FFF794FFE8E73B6073
:10442000F8E7FFF7AFFF2646A468E3E70023038021
:104430000320C2E7E801002010B50446FFF7A2FF01
:10444000E3680B4A0BB1136833B90A4B1B68E3608E
:1044500013681460A36004E0A34206D1054A126801
:10446000DA60BDE81040FFF76DBF9B68ECE700BF66
:10447000E801002070030020024B1868003818BFC4
:1044800001207047E801002010B50B4A044613686C
:10449000834208D183681360FFF754FF0023C4E907
:1044A000023310BD1346002BF8D09A68A242F9D10E
:1044B000A2689A60F0E700BFE8010020F8B5038821
:1044C00005461646CBB14A2B2BD188291FD1174858
:1044D00002F066FC0446C4B1231D9E421FD1214652
:1044E000124802F067FC124E636937683360A369B3
:1044F0000BB1E0699847376007E00C4802F050FCC8
:10450000044634B901220B4B1A704A232B80012038
:104510000AE0A168201D02F01AFC2468F1E7246873
:10452000D9E7002303800320F8BD00BFEC01002081
:10453000700300209D0D002010B50024054B064897
:104540001C7002F02AFC2146BDE81040034800F030
:1045500051B900BF9D0D0020EC0100207800002023
:1045600070B50446E3610B4B049D1B78C4E905520A
:104570006BB1094D094B2E68201D2B6002F0E7FB43
:104580002E602146BDE87040054802F026BCA160BF
:10459000F7E700BF9D0D0020700300207800002089
:1045A000EC01002013B5034C24680094FFF7D8FFFA
:1045B00002B010BD7003002010B5084B04461B78F4
:1045C00043B10430FFF760FF2146BDE810400448C6
:1045D00002F0F0BBC0E90333F6E700BF9D0D0020F9
:1045E000EC01002038B5836804460D469BB10A48AB
:1045F00004600220A07304F10C00984702380128DF
:1046000001D9832D05D121462046BDE8384000F070
:1046100005B80123A37338BD700300202DE9F843CA
:104620001C4F04463D6888462B46A34204D00BB974
:10463000BDE8F8831B68F8E7002CF9D0164EA37B81
:10464000D6F8009063B10023A3738DB9A3683BB182
:10465000444505D02A468321346004F10C00984774
:104660003B68A3420ED123683B60C6F80090DFE7A9
:10467000A54204D022468721284602F071FB2D680E
:10468000E3E71346002BF0D01A68A242F9D1226862
:104690001A60EAE77403002070030020002238B596
:1046A0000125084B1A70084B1C6804B938BDE37B20
:1046B0002BB1002282212046E581FFF793FF246879
:1046C000F3E700BFA10D002074030020024B18780F
:1046D000421C1A70704700BF9F0D00208A22064BB3
:1046E0001A700023054A1370054A1370054A1360B7
:1046F000054A1360704700BF9F0D00209E0D0020EB
:10470000A00D002074030020700300202DE9F0416B
:104710001A4E33780BB1FFF7C1FF194D2C7894B1C5
:104720000C221849184F0B78013C5A430133B81832
:1047300003F01F03BF5C0B702C70D0E9018090B9AF
:10474000124B1C6824B9337828781844BDE8F081EE
:1047500033780BB1FFF7A2FF20464246394602F0FC
:10476000FFFA2468EEE7812F08BF0123424639464D
:1047700008BF837302F0F4FAE5E700BFA10D002043
:10478000A00D00209E0D0020F001002074030020E9
:10479000024A034B10781B7818447047A00D002084
:1047A000A10D0020F0B50B4D2C78202C0FD00C263D
:1047B000094B0A4F1B78234403F01F037343FE1871
:1047C000C6E9012000200134F9542C70F0BD01200D
:1047D000FCE700BFA00D00209E0D0020F00100208E
:1047E00038B5034C256802F0BBFA256038BD00BF20
:1047F0007003002010B40A4609490C68234683421E
:104800000CD04BB950B104600860012110BC817319
:1048100083818121FFF7E4BF1B68F0E710BC70477C
:104820007403002038B1837B013B012B9FBF012320
:10483000014AC37313707047A10D00200246084659
:1048400010B5064953600C68029B106093600A60C3
:104850000CB9FEF7E7F8002010BD00BF7803002078
:1048600010B5084C206858B100232360D0E901310D
:104870009847236823B1BDE810401868FEF7D2B806
:1048800010BD00BF7803002070B505880446672D71
:1048900009D0792D2FD0002D33D1FFF717FF1B4BF7
:1048A00018701B4B1D601B4E194D08E00A282B6821
:1048B0000ED07E2B03DC5A1C2A60174AD054304697
:1048C00002F00BFB431CF1D16723238001201BE086
:1048D0005A1C2A600025104A2846D5540B4B1978DB
:1048E000FFF760FF0D4B2A4685211868FFF75AFF36
:1048F00018B97923E9E78529E8D10022044B1A6029
:10490000D1E700230380032070BD00BFA30E002069
:104910007C03002080030020A20D002070030020F3
:104920000D28014610B516D00C4C237853B90C480D
:1049300002F0C0FA08B9012323700A48FFF772FF9A
:10494000012010BD0A28F8D1054802F0B3FA00286A
:10495000F3D00023F0E70020F3E700BF220E002091
:10496000800300208800002008B505490548802202
:1049700002F099FABDE8084000210348FFF73ABF6A
:10498000230E002080030020880000202DE9F04144
:1049900005880446772D20D07E2D3DD0002D4ED1A8
:1049A000FFF794FE284E294B294FDFF8A880187096
:1049B0003560336857F823202AB9274A13707723C4
:1049C000238001203EE008F80350936800218020F6
:1049D0009847336801333360EBE700231F4A1360C5
:1049E000194A1360184B1C4A1B6812789A4204DC5F
:1049F0001A4B1B68002BF0D1E1E7164AD256002A69
:104A000019DA134A002052F82320104B1978FFF7C7
:104A1000C9FE28B97E23D3E70C4B1B788B42D0D13B
:104A2000094B0C491A688B5C03F07F038B540B4ACB
:104A3000136801331360044A13680133D1E700237C
:104A400003800320BDE8F0818C030020A50E002028
:104A500040000020930D0020A40E002088030020B9
:104A600010B40A4B0A4A197800238B4203DA52F831
:104A7000044BA04208D107490748CA5C62F07F0294
:104A8000CA5410BCFFF7CEBE0133EEE7A40E0020DF
:104A900040000020930D002098000020054B1A686C
:104AA00042F004021A6058699B6940EA032080B210
:104AB000704700BF00700D40184A136823F00C03C4
:104AC00013600122164BC3F8A820D3F8A820012AAE
:104AD000FBD10822134BC3F82426E322C3F838285D
:104AE000D3F86426D207FBD50E4810220023D0F855
:104AF0009C16013A01F0010143EA01034FEA430326
:104B00009BB2F4D1002BF0D0044A190A03F0FE0343
:104B100051615361EF23C0F83838704700700D4081
:104B200000200D40008008400088064B40BA80B24B
:104B30008840995CC2F1080201EA20201041C0B20D
:104B4000704700BF397A2000F8B506460A480D467E
:104B5000174602F025F9044630B93A462946304650
:104B6000BDE8F84002F033BBA3680BB12846984774
:104B7000204602F04DF9EEE79003002038B500F032
:104B800003F90546094802F00BF9044628B95DB15E
:104B90002846BDE8384002F015BB636803B198476A
:104BA000204602F035F9F0E738BD00BF9003002041
:104BB00010B5044600F0F6F838B100F0DFF9034B09
:104BC000034821469B689847012010BD14782000B7
:104BD000494B200070B50B4C0023616E0A4A04F16A
:104BE0003800FFF7DFFCFFF759FF656E0023B0FBCD
:104BF000F5F1064A01FB150104F11800BDE870400B
:104C0000FFF7D0BC94030020114C2000294C200059
:104C1000044B5A6E196E5200914294BF59665A66FF
:104C2000FFF7D8BF9403002010B500F037FA00F06A
:104C3000C9F900230380044600F05EF8228893003F
:104C400008B1017B51B9023398B200F07BF9238897
:104C500073B1BDE81040074800F0CCB88188234408
:104C60005980C18801329980228002F0D1F8E5E7AD
:104C700010BD00BF940300209DF80030012B04D12B
:104C8000024B9A6D5A66FFF7A5BF70479403002048
:104C9000F8B50F4616461D46064C0146064A204604
:104CA00000F096F8C4E9167625660448BDE8F84099
:104CB00000F01CB894030020A8772000794C200055
:104CC00070B505460C46164600F040F820462E61A9
:104CD0000249BDE8704002F07FBA00BF477A200069
:104CE000014802F05AB800BF00040020014B1860D0
:104CF000704700BF04040020014802F051B800BF13
:104D0000000400202DE9F04105460C480C461646EB
:104D100002F046F808B9BDE8F0818388A34209D1C2
:104D20008768002FF7D0334622462946BC46BDE8A7
:104D3000F041604702F06CF8ECE700BF000400208F
:104D4000014802F02AB800BF080400208180014613
:104D5000014802F042B800BF0804002001460148A3
:104D600002F028B80804002010B50446054802F0F7
:104D700017F800B910BD8388A342FBD002F048F8B1
:104D8000F7E700BF08040020054B10B51B689847E3
:104D9000044618B18188012000F0CEF9204610BDEC
:104DA0009077200038B5064B05465B689847044667
:104DB000A988012000F0C0F9201E18BF012038BDCD
:104DC00090772000014B9B68184700BF9077200028
:104DD00070B505460C461646044AFFF771FF20469B
:104DE0006E610349BDE8704002F0F6B9B07720006B
:104DF000497A200010B5044604491A2000F0AAF9A7
:104E00002046BDE8104002F0DBB900BF880D00204D
:104E100070B504461B200D4600F0A8F9064902F0C3
:104E20004AFA38B1A3691B6823B129462046BDE878
:104E30007040184770BD00BF880D002070B5054652
:104E40000C461646044AFFF7C3FF2046AE610349ED
:104E5000BDE8704002F0C0B9B87720004D7A20005C
:104E600008B5044801F0D7FFBDE80840024801F04A
:104E7000D2BF00BFB4000020A800002038B50E4803
:104E800001F0D9FF054650B10C4801F0D4FF0446AB
:104E9000286030B92946084801F0E1FF2546284638
:104EA00038BD00F097F804F1B601A4F8800004F1D1
:104EB000820000F019F9F2E7A8000020B4000020F9
:104EC00010B501460446074801F0DFFF48B12168EC
:104ED000054801F0C4FF2146BDE81040014801F03B
:104EE000BEBF10BDA8000020B400002010B50146D0
:104EF0000446094801F0C9FF68B12468B4F880107D
:104F0000204600F0DBF804F1B60104F18200BDE8B0
:104F1000104000F0FDB810BDA800002010B50749F2
:104F20000B88834208DB064C80B222880244181AA0
:104F300008800120228010BD0020FCE7480D0020E1
:104F40004A0D0020014B1880704700BF480D00201B
:104F5000004870472C040020014B1888704700BFA0
:104F6000480D0020034A044B10781B881844C0B237
:104F7000704700BFB60E00204A0D00202DE9F04119
:104F80000C4E338873B100240B4B0C4FB3F80080E8
:104F90000B4B1D783D4421B2414504F1010403DB74
:104FA00000233380BDE8F081FFF7DCFF3844435C29
:104FB0006B54F0E74A0D0020480D00202C0400201F
:104FC000B60E002008B5FFF7CDFF014B184408BD11
:104FD0002C040020F8B50C4B04461E780B4B1F88A0
:104FE000F519802D0DDC3246094901F017FDFFF758
:104FF000E9FF344401463A46204601F00FFD2846B9
:10500000F8BD0025FBE700BFB60E0020480D0020CC
:105010002C04002008B5FFF7A5FF024B1B8818449D
:1050200080B208BD480D002010B50146FFF7F2FF21
:105030004318802B12DC431E094A1BB21A44481C39
:10504000002B05DA074B187801440120197010BDB8
:1050500012F80149013B14541BB2F1E70020F6E7B6
:105060002C040020B60E002070B534220021084820
:1050700001F04AFD0024074D074E28463146013411
:1050800002F016F9042C05F10205F6D170BD00BF3F
:10509000540D00204C0D0020347820000023044AD9
:1050A0001380044A1380044A1370FFF7DDBF00BF6A
:1050B0004A0D0020480D0020B60E002038B50C46E1
:1050C0000546FFF7EBFF802C28BF802429462246A7
:1050D000034801F0A3FC034B20461C8038BD00BFF1
:1050E0002C040020480D002010B5074B03F13402BA
:1050F00053F8044B934240F8044BF9D1034A136828
:105100000B6053684B6010BD540D00204C0D002007
:1051100010B5074B00F1340250F8044B904243F8AD
:10512000044BF9D10B68034A13604B68536010BD00
:10513000540D00204C0D0020024B23F810100120CC
:10514000704700BF540D0020014B33F8100070472A
:10515000540D002008B5044B1A3803EB400002F050
:10516000A7F8012008BD00BF4C0D0020024B1A38E3
:1051700003EB4000704700BF4C0D0020014902487E
:1051800002F099B8347820004E0D0020084B10B57D
:105190001B689847074B5B689847074B5B689847C5
:1051A000064B5B689847BDE81040054B5B681847A5
:1051B000C8762000E877200014782000CC77200003
:1051C0009C772000F8B5FDF703FC114D074600243D
:1051D0002E461A20FFF7CAFF294602F06CF880B16C
:1051E0000A20FFF7B1FF0C2303FB0464237A8342F8
:1051F0000CD16068381AB0F5206F8CBF00200120F8
:10520000F8BD0134102C05F10C05E2D10020F7E7C0
:10521000AC04002070B5194D00242E461A20FFF76B
:10522000A5FF294602F047F8013418B9102C05F102
:105230000C05F3D10C23621E03FB0464A4F10C05DE
:105240007AB90A20FFF780FF3072FDF7C1FB70606A
:105250001A20FFF78BFFBDE870400146074802F0B7
:1052600027B82B4654F8180C54F8141C013A03C301
:1052700054F8100C2C461860E0E700BFAC04002086
:10528000014B1888704700BFF40000202DE9F04161
:10529000012906460F46144686B003DC002006B0FE
:1052A000BDE8F08103A902F046F90B4603CB1B8849
:1052B000206123839DF811306161002B45D0B51C1E
:1052C00002AA01A903A801F0FEFF9DF81380B8F11E
:1052D000000F4DD0029B2BB16A7815F8023B03EB0F
:1052E00002239BB2B8F1020FA38332D12046314989
:1052F00001F0DEFF6B78237015F8023B63709DF8B8
:105300001580B8F1000F4DD0019B002B37D06A7883
:1053100015F8023B03EB0223029A9BB2E38302B926
:10532000A383B8F1020F2DD1224904F1080001F046
:10533000BFFF6B78237215F8023B6372A81B3B1A00
:105340008742C4E90E53A9DBA9E7B378F51CA3761D
:10535000B6E7B8F1030FD2D105F108021346611E7A
:1053600013F8010D9D4201F8010FF9D11546C6E76A
:105370002046104901F09CFFA4F81C80BFE7A38BD6
:10538000E383CEE7B8F1030FD8D105F10802134645
:1053900004F1080113F8010DAB4201F8010BF9D13A
:1053A0001546CBE7034904F1080001F081FFA4F89A
:1053B0001E80C3E73478200030B591B00546FFF772
:1053C0005FFF4FF6FF73984204D14FF0FF34204641
:1053D00011B030BD40220021684601F095FB404BE2
:1053E0001A782AB901221A70FFF758FB3D4B187042
:1053F0001420FFF7A9FE8DF810001320FFF7A4FE7C
:105400008DF81200FFF7BAFE0446002848D00023AA
:105410008DF813308DF81530002301248DF81430E9
:105420008DF818404DB10A20FFF78EFE00283FD0BE
:105430000A20FFF789FE8DF81A0002248DF8194022
:10544000FFF71EFFADF81C00FFF798FE00283CD0C8
:105450004FF6FF738DF81740ADF80030FFF710FFDF
:10546000ADF81E001A20FFF781FE014602A801F0E8
:105470001FFFFFF7A7FD0E90FFF76EFD0F90684628
:1054800001F0CBFF0446002DA1D0FFF7CDFD002891
:105490009BD0FFF75DFD0146684602F006F896E7EF
:1054A0000B20FFF751FE8DF815408DF81300B3E780
:1054B0000C4B1A7802B91C7019780A204A1C1A7011
:1054C0008DF81A10FFF738FEB7E71B20FFF74EFEE6
:1054D0000146684601F0ECFE8DF81740BEE700BFBC
:1054E000B70E0020B80E0020014BDB68184700BF44
:1054F00014782000014B5B69184700BFE877200053
:10550000014B9B69184700BFE8772000024BD86920
:1055100000B10047704700BFE877200070B590F8F1
:1055200029400F4B042C214628BF04210124DB69AC
:105530008C4005469847012838BF0120013C444370
:1055400005D0FFF7ABFAB0FBF4F303FB14042B46D2
:10555000214605F10800034ABDE87040FFF722B874
:10556000E8772000D95620002DE9F04106461B209F
:105570000F46FFF7FBFD494B05461A78484C22B908
:1055800001221A70FFF78AFA208023880BB90123C1
:10559000238021880A204B1C2380FFF7CDFD414842
:1055A00001F0FEFB0446002847D13F4801F043FCD0
:1055B0000446002868D02946201D01F079FE00230A
:1055C00004F12C00C4E90B30238501F0E6FB2146F1
:1055D000344801F002FC206B01F013FC072853DC77
:1055E000324801F028FC0546002841D0304801F03F
:1055F00022FCA860C0B3FFF741FC686080B30920BB
:10560000D5F80880FFF7A0FD08BB082388F808300C
:105610000D20C8E90067FFF797FD01282946206B98
:105620001BD101F0E7FB206B01F0BAFB854233D1BF
:105630002046BDE8F041FFF771BF2946201D01F06B
:105640003AFE0028C7D1204601F0E2FBAAE7092074
:10565000FFF77AFD88F80800DAE701F0BEFBE2E721
:10566000A968134801F0FBFB2946104801F0F7FB3D
:10567000206B01F0C6FB38B921460A4801F09AFBBD
:105680002146094801F0EBFB39463046BDE8F041C0
:105690000123042201F06FBFBDE8F081B90E0020A4
:1056A0008A0D0020CC050020CC000020D80000206E
:1056B000C000002008B5054801F0ADFB044801F02A
:1056C000AAFBBDE80840034801F0A5BBD8000020B4
:1056D000C0000020CC00002013B5044668B1006B68
:1056E00001F05EFB024640B12146054B0548DB68F0
:1056F000019302B0BDE81040184702B010BD00BFD2
:10570000E8772000855720002DE9F0470D46144624
:105710008B680646D3E90078106B92F8289001F068
:1057200049FB6868FFF7CCFBA968124801F097FBBA
:105730002946114801F093FB206B01F031FB60B169
:10574000002320462385FFF7E9FE4B4632464146BB
:105750003846BDE8F04701F00EBF04F10800FEF73F
:105760002BFF2146054801F025FB2146044801F0A6
:1057700076FBEAE7C0000020D8000020CC0500201E
:10578000CC0000202DE9F0410E461746044620B11A
:10579000006B01F005FB054608B9BDE8F0810A2160
:1057A000686801F07FFD80460A20FFF7CDFC804548
:1057B00046D0284601F02CFBEDE794F82820002085
:1057C0003A4484F828202946224684F82900BDE876
:1057D000F041FFF799BF002384F8293094F828306E
:1057E000DA19D2B284F828200B7A93421CD82246C8
:1057F00029460220EBE794F82930DA19D2B2052ABB
:1058000084F8292007D9002294F8283084F8292028
:10581000013384F8283094F828200B7A9A4203D375
:10582000224629460120D2E72046FFF777FE686826
:10583000BDE8F04101F022BD224629463046C6E7C8
:10584000A9680029A9D0032EF6D801A353F826F0A1
:10585000BB572000F7572000D75720009B57200048
:1058600013B50024094B1C70094B1C80FDF7CCF8C4
:10587000012200F58051074B00940748FEF7DEFF38
:105880000122064B1A7002B010BD00BFD10E0020DD
:105890008C0D0020AD5C2000BC060020CC0E00204A
:1058A000074B82B01B784BB1064B1A7832B90122F4
:1058B0001A70054B1B6A019302B0184702B070477B
:1058C000CC0E0020D10E0020C8762000094B82B0FB
:1058D0001B786BB1084B1A7852B1084A127802F063
:1058E000FF012AB91970064B5B6A019302B0184791
:1058F00002B07047CC0E0020D10E0020CD0E00204B
:10590000C876200008B5FFF7E1FF0022014B1A60BE
:1059100008BD00BFCC060020044B1B7823B9044B04
:105920001B680BB9FFF7D2BF704700BFD30E002032
:10593000CC0600200022094B82B01A70084BC2B27C
:105940001A70084A084B28B101211B6A1170019393
:1059500002B018475B6A1070F9E700BFCC0E002058
:10596000CD0E0020D10E0020C876200037B50B4B9D
:105970001A7802F0FF056AB901241C70084B1D70EB
:10598000FDF742F8224600F58051064B0648009587
:10599000FEF754FF012003B030BD00BFCC0E002045
:1059A000CD0E0020AD5C2000BC06002037B50B4BAF
:1059B00005461B780C4673B1FDF726F8231A022B17
:1059C0004FF0000348BF841C009301222146284663
:1059D000034BFEF733FF03B030BD00BFCC0E0020F9
:1059E000AD5C200013B5224C23680BB9FFF76EFFA6
:1059F000FFF7B2FA032823D0FFF70CFB00B31D4BCF
:105A00009B68984700281BDBFFF7A6FAC0B1FFF799
:105A100001FBA8B11B20FFF7A9FB174901F04BFCC4
:105A200050B11320FFF790FB206058B9FFF74EFFED
:105A30001248FEF7C1FD0DE0FFF7A0FB0028F0D1F2
:105A400002B010BDFFF72CFF002304210C4A0B48C5
:105A5000FEF7A8FDFFF7B6FB0028F1D1FFF7DAFB50
:105A6000084BDB68019302B0BDE81040184700BF47
:105A7000CC06002008782000880D00209806002021
:105A800005592000CC7720002DE9F04F89B07049EE
:105A900003901A20FFF75EFBFFF770FB04460C2013
:105AA000FFF752FBA8B1FFF7B5FA80464FF00109A6
:105AB000684D6E68FFF74CFA4146B047664EAB69D9
:105AC00086F800900093984770B10023337001244A
:105AD000A1E001210B20FFF72FFB604B5B6898478B
:105AE0000028E0DA052496E0EB6901939847002846
:105AF000EBD15B4FFFF7EAFE3B7887F80090DBB213
:105B00000293039B7BBB4FF006096FF0030A6FF013
:105B10000F0BFCF779FF0490FFF7C2FE0498AAEB85
:105B200000030493FCF770FF049BC342F9D46B6934
:105B3000984748B90090FFF7C9FE00983070FFF70A
:105B4000C5FE029B3B70C2E7FFF7C0FEFCF75CFF9F
:105B5000ABEB00030493FCF757FF049BC342F9D45B
:105B6000B9F10109D5D10CB9FFF79AFE0A20FFF768
:105B7000EBFAC3B20493FDF7B9F8FCF745FF814691
:105B8000DFF8E0B0ABEB000BDFF8DCA0AAEB090A12
:105B9000FCF73AFF1AEB000F49D5FDF7A7F8002CE8
:105BA0003DD0AB6840469847FCF72EFF6FF00C03E2
:105BB0001B1A0593FCF728FF059BC342F9D4002C60
:105BC000E6D1009B9847002835D0FCF71DFF6FF009
:105BD0001408A8EB0008FCF717FF18EB000FFAD425
:105BE00003212B6907A8984703282DD19DF81E3063
:105BF000049A934228D100254FF00108FFF766FE72
:105C0000029B3B7000233370002D7FF460AFECB932
:105C1000984508BF0224204609B0BDE8F08F039BD9
:105C2000002BBED0FCF7F0FE1BEB000FB9D4002513
:105C30004FF00008E2E7019B98470028C5D16B6947
:105C400098470028A0D1C0E70125F1E72C46E2E7FC
:105C5000880D0020C8762000D30E00200878200090
:105C6000CC0E0020DEFDFFFFB0EFFFFF70B50D4B47
:105C700004461B780D4653B90B4B1B783BB90522E4
:105C800029462046BDE87040012301F074BCFFF7AF
:105C9000C1F90028F3D00020FFF7F6FE03280246E2
:105CA000EED170BDCC0E0020CD0E002040F2E312EC
:105CB0002DE9F3476E4E0446338893423AD0B3F54C
:105CC000F27F08D2002B00F0888040F2B11293429C
:105CD0000BD0002391E040F202229342F9D100233D
:105CE000644A1370644A137007E0634A13780133FF
:105CF000DBB2012B137000F28480604B1A78002A0B
:105D000072D15F4A1268002A6ED11B780BB9FFF777
:105D1000C7FD5C4B5B699847002863D10122554B56
:105D20001A70FCF771FE584B584A18600023137024
:105D3000574A1370514BDFF85C811B7803F0FF0565
:105D4000002B7BD198F80030002B77D0FCF75CFE5D
:105D50006FF4CC724C4B1B68C01A104400286DDAEB
:105D6000DFF82091494FD9F81430984710B13D78A9
:105D70000135EDB23D70464DD9F818A02B780133AE
:105D80002B70D047002854D000233B702B78D9F8D3
:105D90001C700A2B04D9D04710B9B84700284BD043
:105DA000B84700284AD13C4B1B789BB12568FCF7CB
:105DB0002BFE2B1A13F1120F4FF0000348BF811C6A
:105DC00000934FF001022046344B58BF05F11401F7
:105DD000FEF734FD40F2E3130FE0FCF715FE304B05
:105DE00018607CE7FFF798FDFCF70EFE00F110014C
:105DF0002046FFF7DBFD40F2B113338002B0BDE86F
:105E0000F0871C4B1B78002B8BD1254D2B6803F59D
:105E100080532B60FCF7F8FD2B68C3F1A003C3424D
:105E20007FF55DAF20462968FFF7C0FD40F20223F1
:105E3000E3E73B78052BA9D9FFF76EFD98F8003012
:105E4000002BE2D00F4DAB69984760B1FCF7DCFD49
:105E50000D4B1B68C01A6FF4CC7318440028D4DBB8
:105E6000FFF75AFDD1E7EB6998470028EED1F7E735
:105E70008C0D0020CF0E0020CE0E0020D30E00206F
:105E8000CC060020C8762000C8060020D20E0020D4
:105E9000D00E0020D10E0020CC0E0020AD5C2000E2
:105EA000B80600202DE9F14F06460F461446002A99
:105EB00071D03A4BD3F800B0BBF1000F0BD0506853
:105EC000FFF714F801231A463946304601B0BDE801
:105ED000F04F01F050BB1546DFF8C490DFF8C4A0C6
:105EE000284600F095FFA8460546D8F80400FEF7BE
:105EF000FDFF0C20FFF728F9E0B91DB101211320A7
:105F0000FFF71AF949461A20FFF724F901210B205F
:105F1000FFF712F9DAF804309847002802DA012373
:105F20000522D1E701210C20FFF706F9D8F804007B
:105F300001F0AAF9002DD3D1DFF86C90DFF86CA046
:105F4000204600F065FF254604466868FEF7CEFF50
:105F50001320FFF7F9F899F8003080468BB99AF8CA
:105F6000003073B9052501232A463946304601F031
:105F700002FB85B97CB14FF0010BB8F1000FDFD106
:105F800009E0FFF747F80028ECD05846FFF77CFD02
:105F900003280546E7D101B0BDE8F08FCC0600200C
:105FA000880D002008782000CC0E0020CD0E0020A7
:105FB00008B5024B1B689847023008BDC077200027
:105FC00038B50C4B9B689847041E02DA4FF0FF303F
:105FD00038BDFEF7F7FF03780546002BF6D1022007
:105FE000FEF79CFF0028F1D06878FEF7ABFFA01CFD
:105FF000EEE700BFC077200070B50220FFF714F86D
:1060000010B94FF0FF3070BDFEF7A2FF00260670FA
:106010000446FEF7A1FF6070FEF7FCFF0446FFF7A1
:10602000C7FF20442A2812DCC0F12B00C4B2FEF7BF
:10603000C9FF0546FEF790FF22463146284400F08E
:1060400063FDFEF789FF204480B2FEF77BFF044B1F
:106050005B689847041ED4DBFEF790FFA01CD2E7D4
:10606000C0772000014B9B68184700BF9C77200039
:1060700070B504460D4614200121FFF75DF8034B6F
:1060800029462046BDE870409B681847CC77200021
:1060900070B54FF0FF0C4CF4E06C1CEA11541DBFBE
:1060A0001CEA135594EA0C0F95EA0C0F00F0DEF889
:1060B0002C4481EA030621EA4C5123EA4C5350EA6E
:1060C000013518BF52EA033541F4801143F48013BF
:1060D00038D0A0FB02CE4FF00005E1FB02E506F050
:1060E0000042E0FB03E54FF00006E1FB03569CF0A5
:1060F000000F18BF4EF0010EA4F1FF04B6F5007FAB
:1061000064F5407404D25FEA4E0E6D4146EB06061C
:1061100042EAC62141EA55514FEAC52040EA5E50A5
:106120004FEACE2EB4F1FD0C88BFBCF5E06F1ED84F
:10613000BEF1004F08BF5FEA500E50F1000041EB86
:10614000045170BD06F0004646EA010140EA020033
:1061500081EA0301B4EB5C04C2BFD4EB0C0541EA55
:10616000045170BD41F480114FF0000E013C00F36A
:10617000AB8014F1360FDEBF002001F0004170BD8E
:10618000C4F10004203C35DA0C341BDC04F11404A7
:10619000C4F1200500FA05F320FA04F001FA05F233
:1061A00040EA020001F0004221F0004110EBD37000
:1061B00021FA04F642EB06015EEA430E08BF20EA2C
:1061C000D37070BDC4F10C04C4F1200500FA04F3CF
:1061D00020FA05F001FA04F240EA020001F0004161
:1061E00010EBD37041F100015EEA430E08BF20EAD4
:1061F000D37070BDC4F1200500FA05F24EEA020E1C
:1062000020FA04F301FA05F243EA020321FA04F04A
:1062100001F0004121FA04F220EA020000EBD37001
:106220005EEA430E08BF20EAD37070BD94F0000F01
:106230000FD101F00046400041EB010111F4801F35
:1062400008BF013CF7D041EA060195F0000F18BFE6
:10625000704703F00046520043EB030313F4801F22
:1062600008BF013DF7D043EA0603704794EA0C0FDC
:106270000CEA135518BF95EA0C0F0CD050EA4106F2
:1062800018BF52EA4306D1D181EA030101F000416F
:106290004FF0000070BD50EA410606BF1046194697
:1062A00052EA430619D094EA0C0F02D150EA0136A3
:1062B00013D195EA0C0F05D152EA03361CBF1046E4
:1062C00019460AD181EA030101F0004141F0FE4183
:1062D00041F470014FF0000070BD41F0FE4141F407
:1062E000780170BD81F0004102E000BF83F00043FF
:1062F00030B54FEA41044FEA430594EA050F08BF61
:1063000090EA020F1FBF54EA000C55EA020C7FEA24
:10631000645C7FEA655C00F0E2804FEA5454D4EBA1
:106320005555B8BF6D420CDD2C4480EA020281EA6B
:10633000030382EA000083EA010180EA020281EAA3
:106340000303362D88BF30BD11F0004F4FEA0131F5
:106350004FF4801C4CEA113102D0404261EB410104
:1063600013F0004F4FEA03334CEA133302D052428A
:1063700063EB430394EA050F00F0A780A4F1010446
:10638000D5F1200E0DDB02FA0EFC22FA05F2801880
:1063900041F1000103FA0EF2801843FA05F3594166
:1063A0000EE0A5F120050EF1200E012A03FA0EFCE5
:1063B00028BF4CF0020C43FA05F3C01851EBE3710F
:1063C00001F0004507D54FF0000EDCF1000C7EEB2C
:1063D00000006EEB0101B1F5801F1BD3B1F5001F6A
:1063E0000CD349085FEA30004FEA3C0C04F1010489
:1063F0004FEA445212F5800F80F09A80BCF1004FB2
:1064000008BF5FEA500C50F1000041EB045141EA33
:10641000050130BD5FEA4C0C404141EB0101013CFC
:1064200028BFB1F5801FE9D291F0000F04BF0146EB
:106430000020B1FA81F308BF2033A3F10B03B3F1BD
:1064400020020CDA0C3208DD02F1140CC2F10C024D
:1064500001FA0CF021FA02F10CE002F11402D8BFAB
:10646000C2F1200C01FA02F120FA0CFCDCBF41EA77
:106470000C019040E41AA2BF01EB0451294330BD46
:106480006FEA04041F3C1CDA0C340EDC04F1140423
:10649000C4F1200220FA04F001FA02F340EA0300FA
:1064A00021FA04F345EA030130BDC4F10C04C4F140
:1064B000200220FA02F001FA04F340EA0300294620
:1064C00030BD21FA04F0294630BD94F0000F83F46A
:1064D000801306BF81F480110134013D4EE77FEA4D
:1064E000645C18BF7FEA655C29D094EA050F08BF99
:1064F00090EA020F05D054EA000C04BF194610467A
:1065000030BD91EA030F1EBF0021002030BD5FEABD
:10651000545C05D14000494128BF41F0004130BDE5
:1065200014F580043CBF01F5801130BD01F0004539
:1065300045F0FE4141F470014FF0000030BD7FEAAC
:10654000645C1ABF194610467FEA655C1CBF0B46A7
:10655000024650EA013406BF52EA033591EA030FBE
:1065600041F4002130BD00BF90F0000F04BF0021B6
:10657000704730B54FF4806404F132044FF00005E9
:106580004FF0000150E700BF90F0000F04BF002162
:10659000704730B54FF4806404F1320410F00045C8
:1065A00048BF40424FF000013EE700BF42004FEAC3
:1065B000E2014FEA31014FEA02701FBF12F07F4340
:1065C00093F07F4F81F06051704732F07F4208BFF7
:1065D000704793F07F4F04BF41F40021704730B5FE
:1065E0004FF4607401F0004521F000411CE700BF4A
:1065F00050EA010208BF704730B54FF000050AE0CD
:1066000050EA010208BF704730B511F0004502D5CD
:10661000404261EB41014FF4806404F132045FEACF
:10662000915C3FF4D8AE4FF003025FEADC0C18BF78
:1066300003325FEADC0C18BF033202EBDC02C2F16A
:10664000200300FA03FC20FA02F001FA03FE40EAFC
:106650000E0021FA02F11444BDE600BF4FEA4102E8
:1066600012F5001215D211D56FF47873B3EB6252A4
:1066700012D94FEAC12343F0004343EA505311F0CB
:10668000004F23FA02F018BF404270474FF000005D
:10669000704750EA013005D111F0004008BF6FF09B
:1066A000004070474FF00000704700BF53B94AB92F
:1066B000002908BF00281CBF4FF0FF314FF0FF300A
:1066C00000F076B9ADF1080C6DE904CE00F006F8E3
:1066D000DDF804E0DDE9022304B070472DE9F0475E
:1066E000089E0D4604468846002B4DD18A429446AA
:1066F00068D9B2FA82F252B101FA02F3C2F1200172
:1067000020FA01F10CFA02FC41EA030894404FEA36
:106710001C41B8FBF1F71FFA8CFE01FB178807FB41
:106720000EF0230C43EA084398420AD91CEB0303FA
:1067300007F1FF3580F01E81984240F21B81023F35
:1067400063441B1AB3FBF1F001FB103300FB0EFE98
:10675000A4B244EA0344A6450AD91CEB040400F1A0
:10676000FF3380F00981A64540F206816444023877
:106770000021A4EB0E0440EA07401EB10023D440E0
:10678000C6E90043BDE8F0878B4208D9002E00F02F
:10679000EE800021C6E900050846BDE8F087B3FA9F
:1067A00083F100294AD1AB4202D3824200F2FC803D
:1067B000841A65EB030301209846002EE2D0C6E957
:1067C0000048DFE702B9FFDEB2FA82F2002A40F0A9
:1067D0009180A1EB0C0001214FEA1C471FFA8CFEAF
:1067E000B0FBF7F307FB1300250C45EA00450EFB51
:1067F00003F0A84208D91CEB050503F1FF3802D2CB
:10680000A84200F2CE8043462D1AB5FBF7F007FBF5
:1068100010550EFB00FEA4B244EA0544A64508D973
:106820001CEB040400F1FF3502D2A64500F2B6804D
:106830002846A4EB0E0440EA03409EE7C1F120077E
:106840008B4022FA07FC4CEA030C25FA07FA4FEAC0
:106850001C49BAFBF9F820FA07F309FB18AA8D4086
:106860001FFA8CFE1D4300FA01F308FB0EF02C0CFE
:1068700044EA0A44A04202FA01F20BD91CEB0404D8
:1068800008F1FF3A80F08880A04240F28580A8F1AC
:1068900002086444241AB4FBF9F009FB104400FB1D
:1068A0000EFEADB245EA0444A64508D91CEB04042B
:1068B00000F1FF356CD2A6456AD90238644440EA3B
:1068C0000840A0FB0295A4EB0E04AC42C846AE46BD
:1068D00056D353D0002E69D0B3EB080264EB0E04FC
:1068E00022FA01F304FA07F71F43CC40C6E900740B
:1068F000002147E70CFA02FCC2F1200125FA01F35E
:106900004FEA1C4720FA01F195400D43B3FBF7F124
:1069100007FB11331FFA8CFE280C40EA034001FBF1
:106920000EF3834204FA02F408D91CEB000001F1D3
:10693000FF382FD283422DD902396044C01AB0FBF0
:10694000F7F307FB1300ADB245EA004503FB0EF079
:10695000A84208D91CEB050503F1FF3816D2A8425E
:1069600014D9023B6544281A43EA014138E731460D
:10697000304607E72F46E4E61846F9E64B45A9D22C
:10698000B9EB020865EB0C0E0138A3E74346EAE7D2
:10699000284694E74146D1E7D0467BE76444023875
:1069A00047E7023B65442FE7084606E73146E9E63C
:1069B000704700BF032A10B516D940EA010C1CF03D
:1069C000030F04460B4622D119462046D1F800E0B9
:1069D000D0F800C00433F44504F1040417D1043A9C
:1069E000032A20461946EFD8541EA2B100F1FF3CFD
:1069F000013901E0C3180CD01CF801EF11F8012F88
:106A0000A4EB0C039645F5D0AEEB020010BD541E6E
:106A1000ECE7184610BD104610BD00BF844641EAA1
:106A2000000313F0030349D1403A23D30B680360FA
:106A30004B6843608B688360CB68C3600B690361FC
:106A40004B6943618B698361CB69C3610B6A0362E4
:106A50004B6A43628B6A8362CB6AC3620B6B0363CC
:106A60004B6B43638B6B8363CB6BC36340304031B1
:106A7000403ADBD230320BD30B6803604B68436083
:106A80008B688360CB68C36010301031103AF3D24A
:106A90000C3205D351F8043B40F8043B043AF9D2D8
:106AA000043208D0D2071CBF11F8013B00F8013BAB
:106AB00001D30B8803806046704700BF082A13D3B8
:106AC0008B07B1D010F00303AED0C3F10403D21A88
:106AD000DB071CBF11F8013B00F8013BA4D331F8E0
:106AE000023B20F8023B9FE7043AD9D3013A11F860
:106AF000013B00F8013BF9D20B7803704B784370EF
:106B00008B78837060467047830730B548D0541E39
:106B1000002A3FD00346CAB201E0013C3AD303F851
:106B2000012B9D07F9D1032C2DD9CDB245EA0525BE
:106B30000F2C45EA054536D9A4F1100222F00F0CBE
:106B400003F1200EE6444FEA121C03F1100242E961
:106B5000045542E9025510327245F8D10CF1010298
:106B600014F00C0F03EB021204F00F0C13D0ACF175
:106B7000040323F003030433134442F8045B9342F9
:106B8000FBD10CF003042CB1CAB21C4403F8012B56
:106B90009C42FBD130BD64461346002CF4D1F9E78A
:106BA00003461446BFE71A46A446E0E7FEE708B5E9
:106BB000FBF70CFCF7B50024064625462746304671
:106BC000FBF7EEFC0197019BAB4215DB3046FBF770
:106BD000EFFCC5F5C8750197019B9D4211DC01349E
:106BE000B4F5487F01D103B0F0BDB4F5C87FD4BF80
:106BF0002546C4F54875E2E700BF019B01330193C8
:106C0000E1E700BF019B01330193E5E701207047F5
:106C1000FBF7EABD10B54FF0E024236923F0010330
:106C20002361FBF789FE236943F00103236110BD53
:106C3000FBF782BE70470020FBF742BF0120FBF745
:106C40003FBF0020FCF7E8B80120FCF7E5B80220C0
:106C5000FCF7E2B80320FCF7DFB810B50C46FCF7F0
:106C6000CDFB2046BDE81040FCF7FABB10B504464A
:106C7000C1B20020FCF720F8204610BD70B50E46CA
:106C80000025441E631C02D014F8010F08B92846E1
:106C900070BDB542FBD0FFF7E9FF0135F2E738B52B
:106CA00005460024285D20B90A20FFF7DFFF2046B3
:106CB00038BDFFF7DBFF0134F4E700207047012007
:106CC000704710B50446302200210E20FCF7FCF876
:106CD0006CB1012C0CD142F210730011A0F28E5055
:106CE00058432A2390FBF3F000F5C340283010BD31
:106CF0004FF00040FBE7002070470120704710B5BF
:106D00000446302200210F20FCF7DEF85CB1012C94
:106D100003BF40F6F253584347F6F0734FF000407C
:106D200008BF90FBF3F010BD084608B511460AB144
:106D3000FFF7A4FF002008BD10B5041F54F8040F8E
:106D400000B910BD0021FDF755FDF7E7704710B5FC
:106D5000044600F00DF82046BDE81040FDF76CBB7E
:106D6000837BDB0701D5FDF73DBC7047FFF762BFB2
:106D700010B541600446FBF72BFE206010BD10B536
:106D80000446FBF725FE2368C3F101030344606852
:106D900098422CBF0020012010BD002303607047E3
:106DA00000687047006820B1034600680028FBD1E6
:106DB00018467047036810B53BB1002499421A6821
:106DC00006D11CB9026000221A6010BD2260FAE7E9
:106DD0001C46002AF9D01346F0E738B5FFF7EAFF62
:106DE00000230B600546FFF7DDFF08B9296038BDB9
:106DF0000160FCE738B5FFF7DDFF03680B60016059
:106E000038BD0368002003B970471B680130FAE7FA
:106E100000B10068704710B5044642880021406800
:106E2000FFF772FE23886288A0680021BDE8104049
:106E30005A43FFF769BE002310B54188994201DC2F
:106E4000002009E04268D418D25C32B901222270D5
:106E50000288806803FB020010BD0133EEE70023C7
:106E600030B5826844889C4201DCFF2008E08A42F9
:106E700007D14168CA5C0AB1013ACA544268D05C81
:106E800030BD058801332A44EDE783688B4208D87A
:106E90004288008800FB023081422CBF0020012084
:106EA0007047002070470023013A0160027143716E
:106EB0008371704710B5427983790479D31A34EA23
:106EC000030308D0036899544379027901331340CE
:106ED0004371012010BD0020FCE7837942790179DC
:106EE000D21A0A421FBF0268D25C01330B401ABF9C
:106EF000837110464FF0FF307047831C002013F859
:106F0000022C023302B9704713F8032C1044F6E741
:106F1000072B2DE9F84306460F4615461C4607DCAD
:106F20001A4629463846FDF7FFFD3070BDE8F88364
:106F30004FEAE3087AB97B5D735501354545FADBC5
:106F400014F00702F2D0002107EB0800FDF7ECFD7A
:106F500006F80800EAE74FF0000907EB09000822ED
:106F60002946FDF7E1FD06F8090009F10109C145CF
:106F7000F3DB14F00702D9D02946E5E72DE9F74302
:106F8000FEF720F804460220FDF7C8FF20B90025CF
:106F9000284603B0BDE8F0836378207800EB032037
:106FA00080B2FDF7E1FE05460028F0D0FEF70AF8B2
:106FB0000746287B10F0070318BF012303EBD0001E
:106FC000FDF7ACFF0028E2D00026B146AC680234E1
:106FD00014F8023C002BDBD0192B14F8018C07EBC2
:106FE000E60106F007020BD901A84346FFF790FF20
:106FF00014F8020C01A9FEF7ADF846440234E7E7A5
:1070000001A84346ADF80490FFF782FFBDF80410D5
:1070100014F8020CFEF790F8EFE7072B2DE9F0418A
:107020000FDC1478C1F11001CB1A04FA03F30178D4
:10703000C3F307220A43417802700B434370BDE853
:10704000F081DC10C9B9555C45540131A142FADB2D
:1070500013F00703F3D0125DC3F108052A41C3F111
:107060001003055D02FA03F3C3F307222A43011953
:1070700002554A7813434B70E1E705460026C1F1FB
:10708000080E975D95F800C007FA0EF7C7F30728BA
:107090004CEA080C05F801CB95F800C001364CEA23
:1070A0000707A6422F70ECDB13F00703C7D0125D71
:1070B000C3F1080631440A41D2B2C3F11003015DA5
:1070C00002FA03F3C3F307220A43051902556A784B
:1070D00013436B70B3E72DE9F743057B044615F0C6
:1070E000070218BF012202EBD505A81CFDF79CFF83
:1070F000A8B1FDF72DFFA3880370A3881B0A437076
:10710000FDF726FF2A460025861C00213046FFF7A2
:10711000FBFCA468023414F8020C18B9012003B077
:10712000BDE8F083192814F8017C06EBE50805F0AA
:1071300007090AD9FEF71AF83B4602464946404677
:10714000FFF76BFF3D440234E5E7FDF7FDFF8DF8E7
:107150000400000A3B468DF8050001AAEEE710B5D1
:10716000FDF77EFEFDF79AFFFDF7BAFD00F040F84F
:10717000BDE810404FF4E1234FF4F0524FF400719A
:107180000220FDF785BD7047F8B50E46FDF71AFFE2
:1071900007880446FDF7E0FEBB000233834203D8B4
:1071A00000250234AF4200DCF8BD54F8041B304621
:1071B0000A0C89B2FDF7A6FD0135F3E7FDF7CEBD58
:1071C000FDF7F6BC03691B6803B1184770470369F4
:1071D0005B6803B11847704738B50D46FDF7C4FD2D
:1071E000044620B185602846FDF7ECFD207338BDCC
:1071F000FDF7A6BD43695B6803B11847704713B537
:1072000004461A20FDF7B2FF014601A800F050F82D
:1072100063691B6813B1204601A9984702B010BDED
:10722000FFF7CCBF83695B6803B118477047FFF76E
:10723000F7BF10B504461B20FDF78CFF2046BDE8C4
:107240001040FDF7D7BD0EF00F000D2808BF00F06D
:107250000EB800982DE9F04F00F1240181F3098860
:1072600090E8F08F0EF00F000D2818BF7047EFF375
:10727000098020E9F04F0990BDE8F08F006800F127
:10728000B6018230FDF730BF10B5046804F1B601D5
:1072900004F18200FDF728FF2046FDF79BFEA4F8CD
:1072A000800010BD036803EB4103B3F88200704710
:1072B0000B8803807047022208B5FFF77BFBB0FA0A
:1072C00080F0400908BD30B530B3037A022B2CD1D1
:1072D000C579437A04792DB9002B4AD1012C48D1C4
:1072E000204615E053EA04001DD0032D2FD1032BB7
:1072F0002FD1B4FA84F04009002309E0181E18BF0A
:107300000120002CF8D1023B012B8CBF002301236C
:1073100001B10B6002B1106030BD023B012B8CBF8C
:1073200000230123DCE701201BE00378022B22D09D
:10733000037953B9437A13F0030318BF0123C079CB
:1073400010F0030018BF0120E2E70023F7E7022D49
:10735000D4D0A3F1020CDCF1000040EB0C00002CB7
:10736000CAD1022DCFD0032DC6D19C1E63426341EA
:10737000CEE7002CD1D000200346C9E7002337B563
:107380000B608B80437D0D46D9075CBF01232B70BA
:10739000037E0446012B0BD8C37D9A072CD0437E75
:1073A0009B0729D0C28B838B9A4225D10123237559
:1073B000694601AA04F11000FFF785FF009B0BB19D
:1073C0000223EB70019B0BB102236B70E37D03F092
:1073D0000303022B03D0032B14BF00230823AB703D
:1073E000637E03F00303022B03D0032B14BF00239F
:1073F00008232B7103B030BD0023D8E702280CBF4F
:10740000022308230B448B4201D10120704713F85B
:10741000012DFF2AF7D00020704707B56946FFF716
:10742000ADFF9DF800309DF80100023303449DF844
:10743000020003449DF8030003449DF80400034444
:107440009DF80500184403B05DF804FB437882788A
:10745000DB00120102F0100203F00803134302786C
:1074600002F007021343C278520102F020021343D4
:107470000279920102F0400213430B704379427A81
:1074800003F0010343EA82138279520002F0020200
:107490001343C279920002F00C021343027A1201E4
:1074A00002F0300213434B70704737B504460D4667
:1074B0006946FFF763FF294604F11000FFF7C6FF96
:1074C0009DF800309DF80120012B09BFA37E022307
:1074D000AB700323022A08D1A18B5A1CE954A18B5B
:1074E000D2B20233090ADBB2A9549DF80220134438
:1074F000DBB2991AC9B2B2B99DF80320022A08D1A9
:10750000E18B5A1CE954E18BD2B20233090ADBB297
:10751000A9549DF8042008341344D8B2831ADBB26E
:107520002AB903B030BD013AA05C6854E1E7013AE2
:10753000A15CE954F2E70278437802F00700087092
:10754000C2F3C0004870C2F300108870C2F340104C
:10755000C2F380120A7103F001024A71C3F34002C0
:107560008A71C3F38102CA71C3F301129B09C87007
:107570000A724B72704710B40446084611461A4608
:1075800014B1234610BC184710BC704730B591B0F9
:10759000FDF718FD0446FDF7DFFC6A46014620466C
:1075A000FDF774FE044620B94FF0FF34204611B0B9
:1075B00030BDFDF7B3FC0028F6D014209DF8101064
:1075C000FDF7BAFD9DF81730ABB1BDF81C50FDF7C3
:1075D00057FE854205D04FF6FF73BDF81C209A4236
:1075E000E2D169469DF81700FFF708FF18B9694610
:1075F0001B20FDF7AFFD02A91A20FDF7ABFD1320FC
:107600009DF81210FDF798FD9DF8153053B99DF8BF
:107610001A100A20FDF790FD9DF81A100E20FDF7B4
:107620008BFDC3E74FF6FF71F3E70020FDF7C4BE03
:107630000120FDF7C1BE1020704770477047000061
:10764000AC782000C5252000FD2520000D6C200011
:10765000C178200089262000E526200000000000D7
:1076600001000000010000000100000000C0004017
:1076700000410D4000000000080000002C00000048
:1076800000000001FFFFFFFF0500000002000000F6
:10769000020000000200000000D0004008410D4040
:1076A00002000000080000002C000000020102009F
:1076B000FFFFFFFF060000005C79200060792000DA
:1076C0006F7920007379200035362000FD332000CB
:1076D000613420005B6C200039352000E13220004D
:1076E000253020003D3020001D312000E52F2000F6
:1076F00095312000153320009537200009352000F2
:1077000007000000FF00000005000000ED00000081
:1077100003000000D500000001000000C5000000CB
:1077200000000000B6000000FFFFFFFFB0000000F7
:10773000FDFFFFFFA1000000FBFFFFFF9100000025
:10774000F9FFFFFF88000000F7FFFFFF7200000055
:10775000F5FFFFFF62000000F3FFFFFF580000008D
:10776000F1FFFFFF42000000E8FFFFFF0000000004
:107770009A792000C36C2000BB6C2000BF6C2000F5
:10778000AE792000FF6C2000F76C2000FB6C20001D
:107790007D6F2000D7702000FB6E2000427A200011
:1077A0005F7120007D4B20008971200087712000CF
:1077B000FF712000F5712000114E2000257220007D
:1077C0002B762000317620008D752000537A200022
:1077D000B556200069552000E9542000F5542000DA
:1077E000015520000D552000587A200061582000D6
:1077F0006D5C2000A55E2000E55920006D59200039
:107800003559200037762000B15F2000F95F200055
:10781000C15F2000637A20003B7620007160200069
:1078200065602000E4000020000000003D7620009C
:10783000000000000000436F6E74696B692D3864AE
:1078400038633237333135005A6F6C657274696151
:107850002052452D4D6F7465207265766973696F8E
:107860006E204220706C6174666F726D0052696D9B
:107870006520636F6E6669677572656420776974E9
:107880006820616464726573732000253032783A31
:1078900000253032780A00204E65743A2000204DD1
:1078A00041433A2000205244433A200041444320BF
:1078B00073656E736F7220696E746572666163655D
:1078C00000427574746F6E004343323533383A208A
:1078D00049443A2030782530346C782C2072657613
:1078E0002E3A20504725642E25642C20466C617367
:1078F000683A20256C75204B69422C205352414D2B
:107900003A20256C75204B69422C204145532F535A
:1079100048413A2025752C204543432F5253413A84
:107920002025750A53797374656D20636C6F636BE2
:107930003A20256C7520487A0A492F4F20636C6FD6
:10794000636B3A20256C7520487A0A52657365741A
:107950002063617573653A2025730A00504F520009
:1079600045787465726E616C20726573657400573A
:10797000445400434C44206F7220736F66747761E7
:107980007265207265736574006363323533382025
:10799000524620647269766572004F6E2D436869A5
:1079A000702054656D70657261747572650056441F
:1079B000443300303132333435363738394142437D
:1079C0004445460030313233343536373839616218
:1079D00063646566003058003078002D002B002865
:1079E0006E756C6C2900250020202020202020208E
:1079F0002020202020202020303030303030303007
:107A000030303030303030304576656E74207469F7
:107A10006D6572004374696D65722070726F636585
:107A200073730053657269616C2064726976657264
:107A30000053656E736F7273000080C0E0F0F8FC55
:107A4000FEFF52696D650000001A1000001B101A3D
:107A500010000043534D4100436F6E74696B694DD4
:107A60004143006E756C6C736563000D0A5A6F6C50
:107A700065727469612052452D4D6F74652065787B
:107A80007465726E616C2073656E736F7273000D36
:107A90000A3D3D3D3D3D3D3D3D3D3D3D3D3D3D3D49
:107AA0003D3D3D3D3D3D3D3D3D3D3D3D3D3D3D3D06
:107AB0003D3D3D3D3D0045787465726E616C2053DF
:0F7AC000656E736F72732070726F6365737300FE
:107AD00080772000507620007077200000000000A2
