:020000040020DA
:10200000B81700208D222000D36D2000D16D200054
:10201000D16D2000D16D2000D16D200000000000A6
:1020200000000000000000000000000041742000DB
:10203000D16D2000000000005F742000556E20006C
:10204000676E20006D6E2000736E2000796E200098
:10205000000000005B6E2000616E2000D16D20004A
:10206000D16D200000000000000000000000000012
:102070000000000000000000D16D20000000000002
:102080000000000000000000D16D2000D16D200094
:10209000D16D2000D16D2000D16D2000D16D2000C8
:1020A000D16D2000D16D2000D16D2000D16D2000B8
:1020B000D16D2000D16D2000D16D2000D16D2000A8
:1020C000D16D2000D16D2000D16D2000D16D200098
:1020D000D16D2000000000000000000000000000A2
:1020E00000000000000000000000000000000000F0
:1020F000000000000000000091382000A1382000FE
:1021000000000000000000000000000000000000CF
:1021100000000000000000000000000000000000BF
:1021200000000000000000000000000000000000AF
:10213000000000000000000000000000000000009F
:10214000000000000000000000000000000000008F
:10215000000000000000000000000000000000007F
:10216000000000000000000000000000000000006F
:10217000000000000000000000000000000000005F
:10218000000000000000000000000000000000004F
:10219000000000000000000000000000000000003F
:1021A000000000000000000000000000000000002F
:1021B000000000000000000000000000000000001F
:1021C000000000000000000000000000000000000F
:1021D00000000000000000000000000000000000FF
:1021E00000000000000000000000000000000000EF
:1021F00000000000000000000000000000000000DF
:1022000000000000000000000000000000000000CE
:1022100000000000000000000000000000000000BE
:1022200000000000000000000000000000000000AE
:10223000000000000000000000000000000000009E
:10224000000000000000000000000000000000008E
:10225000000000000000000000000000000000007E
:10226000000000000000000000000000000000006E
:10227000D16D20007137200095372000012E2000FD
:10228000ED39200031292000D16D2000FF220024EB
:1022900008B5094B0948C3F8B420094A636E0949D7
:1022A000121A98470848094A2146236E121A98477D
:1022B00000F00EF8FEE700BF00200D4040000020B7
:1022C000F8000020347D2000F8000020B80F002026
:1022D00073B500F073FC00F02DFD00F089FC00F0F8
:1022E000B5FA01F071FB04F053FE00F01BFD00F0A5
:1022F000ADF8012004F070FD02F048F900F04AFC4E
:10230000002000F06DFB012000F06AFB00203D4939
:1023100000F02AFC02F080FA62B6042004F05CFDB2
:10232000394804F0CEFD394804F0CBFD00F02CFA1A
:10233000002002F019FB01F043FA0021344802F0BA
:10234000B1F902F051F804F075FD00F07DFD00F0E8
:1023500099FD02F045FE0821684601F05BFB2D4D1A
:10236000BDF806402C482C8001F08AFB2B4E2978C2
:102370002B4801F085FB69782A4801F081FBF56A5A
:102380004AF6CD310220A84761BA89B20320A84796
:102390001A210120A84708226946736B0B20984731
:1023A000214801F06DFB214B186804F08AFD20489C
:1023B00001F066FB1F4B186804F083FD1E4801F016
:1023C0005FFB1E4B186804F07CFD00211C4802F0E6
:1023D00069F91C4B01219B688120984704F0C8FDD6
:1023E000194804F0BBFD00F0DBFB022004F0F4FC14
:1023F00000F0DCFB02F0E2F8C0B20028F8D101F0F6
:102400007BFAF5E7D1472000267A2000387A2000B1
:10241000680000206C0E00205D7A2000C07820004B
:102420007B7A2000817A2000877A2000947920002E
:102430008E7A2000BC792000957A2000D87920007F
:102440009800002048782000147A200008B500F099
:1024500043F90022014B1A7008BD00BF720E002024
:10246000024B1A781043187000F058B9720E002011
:10247000034A137823EA0000107000F04FB900BF40
:10248000720E002008B50B4B1B7803420FD020289A
:102490000BD004280BD10220074B80211A7800F0C2
:1024A00073FC20EAE07000B208BD0520F4E74FF0AD
:1024B0000040F9E7740E0020730E0020802810B54C
:1024C0000C4605D0B0F5807F2BD04FF0004027E0C0
:1024D0008B1E222BF9D8194BD3F8202422EA0102B3
:1024E000C3F82024D3F8002422EA0102C3F8002410
:1024F0008A0604D501220521002000F029FC63078B
:1025000004D501220221002000F022FC00F034FC5E
:1025100030220B4B1A700B4B187820431870002098
:1025200010BDC8B2202803D005D810F0EF0FCCD1D1
:10253000034B1870F4E73028FAD0C6E700900D403E
:10254000730E0020740E002018B1012804D0002062
:102550007047034B186A7047024B1878704700BFEA
:1025600000900D40760E002010B5094A0020137827
:1025700001331370074B197802F06CF8BDE8104076
:1025800005490023054A0968054801F063BF00BFFB
:10259000760E0020750E00207002002069252000B4
:1025A0005002002008B50346812B08462DD0B3F514
:1025B000807F3ED0802B26D101F0E0FF1E4B03210F
:1025C00018701E4B0020D3F8202422F00802C3F814
:1025D0002024D3F8002422F00802C3F80024D3F802
:1025E000042422F00802C3F80424D3F8082442F09B
:1025F0000802C3F80824042200F0AAFB03220021E9
:102600000F4800F049FB01200AE00C4B0D49D3F8BC
:10261000102430B142F00802C3F8102401230B60EB
:1026200008BD22F00802C3F810240123C1F880304D
:10263000F6E7054B1960E6E7750E002000900D40A7
:102640004D26200000E100E07002002008B50F4890
:1026500004F0A7FCC8B108210C4804F09BFC0C4B0B
:10266000196849B100220B4B1A700B4B1B6A43B916
:102670000A4A0B4801F0EEFEBDE80840094802F0A6
:1026800047B9074801F0F0FEF6E708BD4802002010
:1026900070020020760E002000900D406925200079
:1026A0005002002048782000094BD3F8202422F063
:1026B0000402C3F82024D3F8002442F00402C3F833
:1026C000002400221A610122024B1A70704700BFD9
:1026D00000C00D407B0E002000210F4BD3F82024BA
:1026E00022F0C002C3F82024D3F8002442F0C00234
:1026F000C3F80024C3F8001303F50053D3F82024D3
:1027000022F01002C3F82024D3F8002442F0100273
:10271000C3F800241964704700A00D4010F00202B5
:1027200018BFFF22084BC3F8002210F0040218BFA4
:10273000FF2210F00100C3F8002118BFFF22034B55
:1027400014BF1A641864704700A00D4000C00D400B
:10275000044BDB69C3F3072013F4704F04BF103040
:10276000C0B2704700300D40064B5869C00910F0E8
:10277000060F03BF00F00700C0F1020040034FF452
:102780000040704700300D402DE9F047002488B02C
:10279000FFF7DEFF164B0646DF69236D9847E36CB3
:1027A000804698470446FFF7DFFF054600F05CFAD5
:1027B000814600F065FA824600F010FAAD0A07F093
:1027C0000103A40AC7F34007CDE905A003934146DE
:1027D000CDF8109002970195009406F00F03C6F310
:1027E0000712044801F04CF908B0BDE8F08700BFBB
:1027F00000300D40B87A20002DE9784800F064F8E8
:1028000010490246D1E900BC6646584538BF0CF174
:1028100001063346C1E900230B4ED6E90001B0EBB7
:102820000B0461EB0C05A01845EB0301C6E90001A0
:1028300001F07AFD18B1BDE8784801F0FBBCBDE8B5
:10284000788800BF00010020F80000204FF0E0234E
:10285000E0210B4A5A610B4A82F82310002207211B
:102860009A61196108498B6843F001038B60074B3B
:10287000DA6004221A6001225A600F229A637047BC
:1028800047E8010000ED00E000200D40000003409B
:10289000034BD3E90023100A40EA0360704700BFEE
:1028A00000010020044B9862DA6842F00102DA600D
:1028B000DA68D207FCD4704700000340014B186867
:1028C000704700BF74020020054A106C516C936C75
:1028D0001B0443EA01230343D06C43EA00607047C2
:1028E00000500D4010B504460E4A136DDB07FCD5B1
:1028F00072B6FFF7E9FF231A062BD8BFC41D094B98
:10290000220EDA64C4F307429A64C4F307225A64BD
:10291000E2B21A6462B64FF40032034B1C60034B00
:102920001A6110BD00500D407402002000E100E06B
:1029300008B500F0CDFF0022064B1A604FF40032BC
:10294000054BC3F89021C3F89020BDE8084001F082
:10295000DFBE00BF7402002000E100E0064B9B696F
:102960001B075FBF054B986980F00800C0F3C000EB
:1029700048BF0020704700BF00C0004000D00040AA
:102980002C22154B70B502FB00334FF6BF72DC688A
:102990000546236C626413F050020DD00F4EA369FC
:1029A000DB0600D570BD56F825301BB12068C0B2DB
:1029B0009847F4E72368F2E713F4D06FF2D04FF4AE
:1029C00040732363FF236360E36AE262E362236B85
:1029D00043F001032363E5E75878200078020020E4
:1029E00001282DE9F74F804600F2AD802C254543A4
:1029F000564F7C1994F92090B9F1000FC0F2A380D2
:102A000094F92260002EC0F29E80514800F0CAFF67
:102A1000504B79599A6A94F921A00A439A62DA6A6A
:102A20006168E5680A43DA621A6BA168F0B20A438A
:102A30001A63002322690AEBC901C5F8C83F116077
:102A400094F82310227DCDE9000194F923B000F021
:102A500089F9DDE90001082200F07AF90122310349
:102A60003D4E02FA0BFB88594FEA09394BEA000048
:102A7000885159F8061002FA0AFA4AEA010149F89F
:102A800006105021A963A96B94F9240041F4D06188
:102A9000A963022169634FF440712963A169002889
:102AA0006962E169A9624FF07001E96216DB0023F7
:102AB00094F92510294C41EAC005C4F804510403D7
:102AC000A5598A402A43A251C9B21A46C0B200F0A1
:102AD0003FF9234A136B43F4004313632C2303FB96
:102AE000087393F92640002C1ADB93F82790E5B27F
:102AF00001224946284693F927A000F033F9012323
:102B00002403A25903FA0AF31343A35108224946A6
:102B1000284600F01DF9124A136B43F480431363F7
:102B20002C2000FB0877FA68136B43F00103136352
:102B3000012297F82830590903F01F0302FA03F322
:102B4000084A42F8213003B0BDE8F08F58782000E1
:102B50005D29200000200D4020940D4000400D40D4
:102B600000D0004000E100E001289CBF014B43F889
:102B70002010704778020020012808D82C22044B2E
:102B800002FB0030C3689A699206FCD41960704752
:102B9000587820000022014B1A60704700500D4009
:102BA0000822014B1A60704700500D40A022024BD2
:102BB0001A6050221A60704700500D40014A024BC3
:102BC0009A6070470020200000ED00E0024B58683A
:102BD000C0F38150704700BF00200D4008B5FFF7DB
:102BE000F5FF024B53F8200008BD00BFB07820006D
:102BF00010B5194C0122D4F82034062123F04003EB
:102C0000C4F82034D4F80034032023F04003C4F87F
:102C1000003400F09DF8D4F82034012223F0800322
:102C2000C4F82034D4F80034072123F08003C4F81A
:102C30000034032000F08CF8084A094B1A60094A56
:102C400059681142FCD15A685201FCD4044A5368B5
:102C50005B01FCD510BD00BF00C00D4001010200AA
:102C600000200D4000000101034B04485B6803F0A5
:102C700007031841704700BF00200D400048E801DD
:102C8000034B04485B68C3F302231841704700BF3D
:102C900000200D400048E801024B02EBC10243F85E
:102CA0002200704780020020F8B507460D46002438
:102CB000084E06EB411647FA04F3DB07E1B204D5F0
:102CC00056F824300BB1284698470134082CF2D12D
:102CD000F8BD00BF800200202DE9F8430546DFF86B
:102CE000388000F0F5FD0D4B2E03F75856F80840DC
:102CF0004FEAC50924FA09F447EA04002946C0B29C
:102D0000FFF7D2FFE4B2064BFFB204FA09F4F75022
:102D100046F80840BDE8F88318970D4018940D4018
:102D20001C940D4080220021014803F0D1BF00BF58
:102D300080020020034B044A1A60044B803A1A6058
:102D4000704700BF0003002080400D4004030020B6
:102D5000034B01EBC0011B6843F82120704700BF03
:102D600000030020034B01EBC0011B6843F8212046
:102D7000704700BF04030020024A136843F0300389
:102D80001360704700700D400E2870B506460DD1D7
:102D9000134B5C6B44F0020058631248D0F8F456B1
:102DA00025F03F0343F00103C0F8F4360E48836872
:102DB00023F0FF031A4311433143816003681B066C
:102DC000FCD5C368006903F0FC0343EA00230E2E20
:102DD00018B201BF034BC3F8F456014B5C6370BDDE
:102DE000000001440080084000700D40034BD3F800
:102DF0000007B0FA80F04009704700BF00B00840FB
:102E00004FF40042064B10B5064CC3F89021C3F8AE
:102E10009020206818B101F05DFC0023236010BDF4
:102E200000E100E008030020064B9A6C42F0020229
:102E30009A64DA6C42F00202DA641A6D42F002021D
:102E40001A65704700200D4007B50C4800F0AAFD38
:102E5000FFF7EAFF0A4B5A6D42F002025A65002260
:102E60000192019A0F2A06DD5A6D22F002025A657C
:102E700003B05DF804FB019A0132F1E7ED2D20006B
:102E800000200D40064B9A6C22F002029A64DA6C24
:102E900022F00202DA641A6D22F002021A6570470B
:102EA00000200D400D4BD3F84C269107FBD4D3F8EE
:102EB0004C2652065EBFED22C3F83828C3F83828E6
:102EC000D3F82C2612B1EF22C3F83828044A012087
:102ED000137803F07F031370704700BF0080084031
:102EE0007E0E0020044BD3F84C0600F02200A0F127
:102EF000200358425841704700800840024BD3F8E5
:102F00004C0600F04000704700800840054BD3F8A5
:102F1000002620B142F00102C3F80026704722F0DB
:102F20000102F9E700800840284B1870002841D0C2
:102F3000274A53681B03FCD5264BD3F8042842F0DC
:102F40000202C3F80428D3F8042842F00102C3F8AF
:102F50000428D3F804285007FBD5D3F8042822F01E
:102F60000102C3F804281B4BD3F804285107FBD4F3
:102F7000D3F8042842F00202C3F80428D3F8042846
:102F800042F00102C3F80428D3F804285207FBD505
:102F9000D3F88C2622F00402C3F88C26D3F8342808
:102FA00022F00402C3F834284FF400520A4BC3F84D
:102FB00090207047074AD2F88C3643F00403C2F8D9
:102FC0008C364FF40052044B1A6170477D0E00207E
:102FD00000200D400080084000E100E0094B93F91B
:102FE0000020002A0CDBED21074AC2F83818C2F88D
:102FF0003818E321C2F838181A7862F07F021A7084
:10300000012070477E0E00200080084070B5A0F1BE
:103010000B05EBB20F2B044614D80C4ED6F84836ED
:1030200013F03F0302D0FFF73DFF012305EB8505B9
:103030000B35C6F83C560BB1FFF7D0FF044B60B21E
:103040001C7070BD4FF0FF30FBE700BF00800840F0
:10305000F600002038B50C46002900F091801028B9
:1030600000F29080DFE800F009111D252B434C6031
:10307000667D818E8E86885D8A00434BD3F82C3620
:10308000003B18BF012323602BE005223E4BD3F801
:103090003C3603F07F030B3B93FBF2F30B33DBB2C5
:1030A000F1E7394AD2F8CC15D2F8C83543EA012302
:1030B000E9E7354AD2F8D415D2F8D035F6E700233F
:1030C000314A0B60D2F8003603F001030B60D2F8EE
:1030D0002426900644BF43F002030B602B4B1B7861
:1030E0000BB900200BE00B6843F00403CBE7002092
:1030F000274B08601B78002BF3D001230B6038BDF1
:10310000214B2449D3F840260023D2B201EBC3005F
:103110000079904202D851F83330B4E701330E2BD6
:10312000F4D16FF01703AEE7174BD3F858365BB204
:10313000493BA8E7144DD5F8483699060FD1FFF75B
:103140004DFF0123D5F86426D207FBD5D5F860568C
:10315000493D6DB20BB1FFF7A5FE2560C1E7002325
:10316000F0E70D4B93F900308DE70C4B1B7803F023
:103170007F0388E70B2386E71A2384E7072382E788
:103180000220BCE70120BAE7008008407D0E002045
:10319000F7000020F87820007F0E00207C0E002031
:1031A00010B50B4CD4F8483699060FD1FFF716FF2F
:1031B0000123D4F86426D207FBD5D4F84C46C4F3D7
:1031C00000140BB1FFF76EFE204610BD0023F0E7A0
:1031D0000080084010B50C46072865D8DFE800F0ED
:1031E000040F1A232C444A5E012903D1FFF7F6FE8F
:1031F00000203EE0002959D1FFF754FEF8E7A1F185
:103200000B030F2B52D8C8B2FFF700FF0130EFD1EC
:1032100003202EE0264BCAB2C1F30724C3F8C82509
:10322000C3F8CC45E4E7224BCAB2C1F30724C3F884
:10323000D025C3F8D445DBE731F0070336D101F0E0
:103240000100FFF763FE1A4B11F0020FD3F824269A
:10325000C1F3800014BF42F0200222F02002C3F824
:103260002426FFF761FEC3E731F001001ED1114BA8
:10327000197010BD01F118031F2B17D80D230E4A2A
:1032800052F833108C4206DC02EBC3031A79084B68
:10329000C3F84026ACE7013BF2D2A9E7044BCCB21D
:1032A0004934C3F85846A3E70120E2E70220E0E7EB
:1032B00000800840F7000020F878200070B505462F
:1032C0000C46144ED6F84C369B07FBD4124B93F9A0
:1032D0000030002B01DBFFF781FEEE23691EC6F8EC
:1032E0003838C6F83838A31CC6F8283821440220DC
:1032F00000F080FA0949013C41EA0411022000F083
:103300008BFA022000F092FA022000F0A7FA0020C7
:1033100070BD00BF008008407E0E002002C001C0CA
:1033200070B5264B93F90030002B19DBFFF7CCFA70
:103330000446FFF753FEC4F1FF2404F57F04F6347E
:10334000FFF7C2FAC442FBD401261D4B1B784BB9D0
:103350001C4CD4F84C36990609D50224204670BD81
:103360000026F2E7FFF71CFF0028F1D1F5E7E9237B
:103370000425C4F83838D4F84C369A0703D4013DF4
:1033800015F0FF050AD1D4F84C369B070AD50D4B32
:10339000D3F84C4614F00204FAD109E00620FFF7F6
:1033A00081FAE8E7EE23C4F83838C4F83838012445
:1033B000002ED3D0FFF776FDD0E700BF7E0E0020B1
:1033C000F7000020008008400B280DD1082A0DD1FD
:1033D00061B1074B074A083111F8010D43F8040B9E
:1033E0009342F9D1002070470120704702207047B6
:1033F000A8850840C885084070B5384A0546D2F807
:103400004C0610F0400009D0D2F82808040606D572
:10341000ED23C2F83838C2F83838002070BDC0B289
:103420000428F5D902388842F2DCC4B2032C24D136
:10343000D2F828382B70D2F828386B70D2F8283898
:10344000AB70264D264BD5F82818264E493949B27F
:103450001970D5F828381806337026D589B204209B
:1034600001F094FD3178032001F07F0101F08EFD21
:103470001D4B1B78FBB12046D0E7291903200139E9
:1034800000F0C0F91949631E032041EA031100F05E
:10349000C3F9032000F0CAF9032000F0DFF903208C
:1034A00000F0E8F90028FAD1CBE7ED23C5F8383869
:1034B000C5F83838B1E7D5F84C365A06DBD5D5F81B
:1034C0004C361B0603D50A4801F004F9D3E7ED2377
:1034D000C5F83838C5F83838CDE700BF0080084057
:1034E0007F0E00207C0E00207D0E002002C0010C0B
:1034F000500000202DE9F041294F3E7816F00106DA
:103500004CD10125274B284CC3F8A850C3F8AC5028
:10351000C3F8B050F823C4F858360923C4F8E83784
:1035200015230B22C4F8C836204B4FF07F085A6091
:103530004023C4F82436D4F8243643F02003C4F8DA
:103540002436D523C4F80866C4F85086C4F840363B
:10355000174B1878FFF75AFD4FF48042154B0220A5
:10356000C4F894861A6100F06DF91349022000F046
:1035700049F9032000F066F90F49032000F03AF9F9
:103580000E4B1878FFF7D0FC0D48314601F08AF851
:1035900028463B782B433B70BDE8F0810020FBE7D9
:1035A0007E0E002000200D400080084000600D408D
:1035B000F600002000E100E0288808407D0E002091
:1035C0005000002038B50388044653B340F203424C
:1035D000934233D11B4B1A7842BB822924D11B78EA
:1035E00073B901F085FC01F017FC8021FFF704FF9F
:1035F000002805DD80B201F0CFFB134B1B69984713
:10360000124B1A7852060CD500221A70104BD3F8C0
:103610004856FFF747FCFFF76DFFAB0601D0FFF7F9
:10362000DDFC40F20343238001200AE01A78002ADF
:10363000FAD0064A12785006F6D5CEE7002303806A
:10364000032038BD7D0E0020D87920007E0E00209A
:10365000008008400B282DE9F8430D460FD1082AB9
:103660007CD100297AD03E4B3E4A4D1E53F80419B6
:10367000934205F8011FF9D10020BDE8F8830C281A
:103680006AD1042A6AD1002968D0374BD3F81028B0
:1036900022F00702C3F81028D3F8042842F00802E9
:1036A000C3F80428D3F81428D3F81818D3F810084E
:1036B000D2B220F07000C3F81008D3F82448D3F831
:1036C0002008090242EA006289B224040A4304F491
:1036D0007F04D3F81C7842EA0408D3F81028FFB21C
:1036E00022F0070242F00102C3F81028D3F80428A0
:1036F00042F00802C3F80428D3F81448D3F8182875
:10370000D3F81018E4B221F0700141F01001C3F8B1
:103710001018D3F82418D3F82008120292B244EA01
:1037200000640904144301F47F010C43D3F81C180E
:103730005FFA81F9FFF7C8F8B8EB040467EB0907F3
:10374000FF0306460023094AE00347EA544103F019
:1037500091F8361A2E608FE701208EE702208CE761
:10376000C4850840A4850840008008400048E8015E
:1037700008B5054B1B7813B9044800F0ABFF0022D5
:10378000034BC3F8342808BD7D0E002050000020F4
:1037900000800840074A0848D2F82C38042B1FBF85
:1037A00006490B7843F040030B700023C2F82C3815
:1037B00000F090BF00800840500000207E0E0020E6
:1037C00010B5094C40220021204603F081FA012265
:1037D000064B5A604FF480429C60054B5A604FF490
:1037E00000425A6010BD00BF0000002000F00F40F2
:1037F00000E100E003289EBF014B00011950704713
:103800000000002003289EBF024B03EB0010416024
:10381000704700BF0000002003289EBF024B03EB4F
:1038200000108160704700BF00000020032806D808
:103830000123034A03FA00F0916A0843906270473B
:1038400000F00F40032806D80123034A03FA00F0D2
:10385000116A08431062704700F00F40032806D831
:103860000123034A03FA00F051690843506170478D
:1038700000F00F4003289FBF044B03EB001080684B
:1038800000F0070088BF0020704700BF0000002044
:103890004FF0FF32014BC3F80425704700F00F4092
:1038A0000122014BDA64704700F00F40074B5A6861
:1038B000D102FCD41A6822F480321A605A68D2030A
:1038C000FCD41A6842F400321A60704700200D40A0
:1038D00010B5084CA36D99070BD063685A01FCD44E
:1038E00063685B01FCD503F0A7FAFFF7DFFF002355
:1038F000A36510BD00200D4070B5264BD3F8484697
:1039000014F03F0414D1244D55F8043B23B19847DB
:1039100070B10134052CF7D1204E337843B1FEF756
:10392000CDFF0446FEF7D0FF201A092800D90CB9B4
:1039300030BF26E01A4B1A6822F400321A605A6827
:10394000D202FCD41A68164D42F480321A606B68B9
:10395000DB03FCD5FEF7B8FF241A092C03D8BDE819
:103960007040FFF7A3BF632C0CD93378022B09D129
:10397000AB6500F065FE38B1FFF798FF0022084BF9
:103980009A6570BD0123F3E7FEF798FF0028F3D096
:10399000CEE700BF008008400C030020800E00200E
:1039A00000200D40074A10B50023144652F8041BAE
:1039B000814202D011B944F8230010BD0133052B18
:1039C000F4D1FAE70C0300200022054B05499A6563
:1039D0000B6943F004030B61034B1A70704700BF7F
:1039E00000200D4000ED00E0800E00204FF48032FA
:1039F000064B10B5064CC3F89021C3F89020206800
:103A000018B100F067FE0023236010BD00E100E064
:103A1000200300204FF4201270B592F82B40431E73
:103A200054B101F52011154A273191421AD011F8ED
:103A3000010903F8010FF8E792F82A40122CF0D19F
:103A400092F829204B2AECD14C0804F520120B4D9A
:103A50002732AA4207D1002301F520112044273143
:103A6000A34205DB70BD12F8016903F8016FF0E7AE
:103A7000CA1A1278013300F8012BF1E72700280059
:103A80000FB407B504AA52F8041B0448019200F0D1
:103A900021F803B05DF804EB04B07047600000202B
:103AA00070B505460C460A4E102C07D874B1224654
:103AB0002B6868680649BDE87040184710223146F7
:103AC0002B686868984710B9103CEDE7204670BD38
:103AD000D87B20002DE9F04F8046154600278DB099
:103AE0000491049B1B78002B00F07983049B1A78C7
:103AF0001C460133002A00F06183252AF7D1049B7C
:103B00009C4205D05DE323783744002B00F06783A7
:103B10006278631C002A00F062830024184610F8C3
:103B2000012B19462B2A15D009D8202A15D0232A73
:103B300016D0A2F13106082E40D8002219E02D2A15
:103B400004D0302AF5D144F0100401E044F001041F
:103B50000346E3E744F00604FAE744F00204F7E71B
:103B600044F00804F4E70A21019A01FB0299A9F143
:103B70003002194613F8019B0192A9F13002092A7B
:103B8000F1D90B782E2B36D14A784B1CA2F130009C
:103B9000092828D84FF0000B1A781946A2F13000F6
:103BA000092803F1010318D90B786C2B6BD14B78E2
:103BB0006C2B23D144F08004023122E02A2A09D15F
:103BC0002B680146002B019305F10405B8BF44F0B2
:103BD0000104D6E700230193D3E70A2101FB0B2B55
:103BE000ABF1300BD8E72A2A04D1D5F800B0023166
:103BF0000435D9E719464FF0FF3BD5E7013144F0D2
:103C000060040B78782B0CD8572B48D8472B08D852
:103C1000402B00F28D80002B00F0E182252B00F07C
:103C2000D0804B1C049304F4E063B3F5A06F00F064
:103C3000A28200F2C980B3F5407F00F06882B3F53C
:103C4000806F00F02F82B3F5807F7FF44AAFBBF125
:103C5000000FACBF24F010044FF0010B14F4005916
:103C600004F0E00300F07A81402B00F0728100F252
:103C7000C280002B00F07081202B00F0CB8000264A
:103C8000B2460023D3E0682BBBD14B78682B02D11E
:103C900044F0200490E7013144F04004B1E7583B80
:103CA000202BBED801A252F823F000BF753D2000A2
:103CB000233C2000233C2000233C2000233C200008
:103CC000233C2000233C2000233C2000233C2000F8
:103CD0009F3D2000233C2000AB3D20005D3D2000A7
:103CE000873D20007B3D2000933D2000233C2000A9
:103CF0005D3D2000233C2000233C2000233C20008D
:103D0000233C2000BD3D2000693D2000B73D200040
:103D1000233C2000233C2000B13D2000233C200018
:103D2000633D2000233C2000233C20006F3D200009
:103D3000413B062B3FF675AF01A252F823F000BFBE
:103D4000A53D2000233C2000233C2000233C2000F4
:103D50008D3D2000813D2000993D200044F42454F5
:103D60005FE744F410645CE744F4885459E744F492
:103D7000C85456E744F4B24453E744F4007450E79F
:103D800044F484444DE744F402444AE744F4424492
:103D900047E744F4813444E744F4A13441E744F470
:103DA000C1343EE744F4E1343BE744F4A06438E72F
:103DB00044F4806435E744F4407432E744F4E0644A
:103DC0002FE744F4C0642CE7B3F5C06F07D0B3F518
:103DD000E06F7FF486AE2B6804351F6081E6012218
:103DE000D8F80030A649D8F804009847002840F0D9
:103DF000F481013775E6602B00F0AE80802B7FF4F4
:103E00003EAFEA1D22F007021546D2F804A055F88D
:103E1000086B04E095F9006004354FEAE67ABAF1E0
:103E2000000FBFF62EAF012376426AEB4A0A0293D7
:103E300004F4C053B3F5805F00F0E480B3F5C05FD5
:103E400000F0E680B3F5006F00F0C6800DF12E03A0
:103E5000009300230393039B41F608029B4588BF10
:103E6000ABEB030B41F2080304EA020198BF4FF0E9
:103E7000000B994204D1BBF1010F38BF4FF0010B89
:103E8000039B91425B4440F0DF8056EA0A0200F057
:103E9000DB807C497C4A14F4804F4FF0020614BF4B
:103EA0008A469246B9F1000F0DD0029A002A40F0DE
:103EB000CE8004F00602022A00F0CD80062A734A62
:103EC00004BF0126924606EB0309019B4B4594BFB4
:103ED0004FF00009A3EB090914F00103019304D189
:103EE000E20640F1BC80CB4499464EB13246514681
:103EF000D8F80030D8F804009847002840F06D81C9
:103F00005C46039BDFF888A11F44102CD8E90030E1
:103F100000F2AD802CB122465D499847002840F060
:103F20005C81D8F80030039A0099D8F8040037442F
:103F30009847002840F05181019B5F44002B00F01E
:103F4000E08049464046FFF7ABFD002800F0D980ED
:103F500043E1B5F900605FE72E685DE7402B1BD0B9
:103F600007D8DBB1202B11D04E46CA46CDF80890B9
:103F70005EE7602B12D0802BF6D1EA1D22F00702FB
:103F80001546D2F804A055F8086B02E02E78CA4610
:103F90000435CDF808904BE72E88F8E72E68F6E751
:103FA000039805990A22002302F064FC009B30323A
:103FB00003F8012D0398059900930A22002302F0CB
:103FC00059FC03900591039B059A1343E8D1009A8D
:103FD0000DF12E039B1A3DE70DF12E030396CDF84C
:103FE00014A00093EFE7009803F00701303100F8C8
:103FF000011DDB0843EA42730090D20853EA020134
:10400000F1D1E4E70DF12E01334652460091F5E778
:10401000204B14F4804F2049524608BF19463346BE
:104020000DF12E00009053EA0200D0D003F00F00F3
:10403000DDF800C0085C1B090CF8010D43EA0273AF
:10404000CDF800C01209EEE70026B2462AE70126A5
:10405000DFF848A037E70126DFF844A033E74946F8
:104060004046FFF71DFD00283FF43FAFB5E01022AA
:1040700051469847002840F0B080103C45E700BF0B
:10408000D67B2000C57B2000C87B2000CD7B200094
:10409000E87B2000B47B2000A37B2000CB7B2000AA
:1040A000937A20002E6804356EB333469A469AF808
:1040B00000200133002AF9D1AAEB060ABBF1000F58
:1040C00002DBDA4528BFDA46019B534594BF4FF027
:1040D0000009A3EB0A0914F0010405D14946404642
:1040E000FFF7DEFC002878D152463146D8F8003080
:1040F000D8F80400984700286FD15744002C7FF46B
:1041000020AF4F44EDE44FF0060A374ED6E7374B69
:1041100014F4804F364808BF18460DF12B030022D7
:104120009A462968043551EA02061AD1BAEB030A05
:1041300004BF302203F8012C4FF0780208BF03F1CE
:10414000FF3303F8012C4FF0300208BF4FF0010A93
:1041500003F8022C2322DE1E03F8032C0AF1030AC3
:10416000B2E701F00F06865D090941EA027103F822
:10417000016D1209D7E7DDF804902B68B9F1010F42
:1041800038BF4FF0010914F0010405F104058DF862
:10419000183009F1FF3605D131464046FFF780FC63
:1041A000D8B937440122D8F80030D8F8040006A95D
:1041B000984790B9002CA4D03146C3E6049B9C429A
:1041C0000DD0049B0499E61A3246D8F80030D8F88E
:1041D0000400984700283FF496AC4FF0FF3738466C
:1041E0000DB0BDE8F08F00BFCF7B2000B47B200076
:1041F000A37B200010B50D4C236813B90C4A136043
:1042000010BDFEF745FB2268D2E900310B441B1AB2
:1042100092681AB91844064B1860F1E7D2E9001405
:104220002144091A8B4228BF0B46F1E728030020DE
:1042300024030020014800F04DBA00BF68000020B0
:104240002DE9F0410388054653B1592B46D1872902
:1042500021D1002023490B6863B918B10B6001E03C
:10426000204A1360592301202B80BDE8F0810120F2
:104270003346F1E7D3E902649442F8D000B10B6011
:1042800019460B4689680029ECD0C8689042F8D1DD
:1042900089689960F4E78229E4D14FF00008114F52
:1042A00000263C68002CDDD0204602F07AFE90B15A
:1042B00022468821E06800F0CDF950B9A368E0609B
:1042C0002EB1B360C4F80880FFF794FFE8E73B60C5
:1042D000F8E7FFF7AFFF2646A468E3E70023038073
:1042E0000320C2E72803002010B50446FFF7A2FF11
:1042F000E3680B4A0BB1136833B90A4B1B68E360E0
:1043000013681460A36004E0A34206D1054A126852
:10431000DA60BDE81040FFF76DBF9B68ECE700BFB7
:1043200028030020B0040020024B1868003818BF92
:10433000012070472803002010B50B4A044613687B
:10434000834208D183681360FFF754FF0023C4E958
:10435000023310BD1346002BF8D09A68A242F9D15F
:10436000A2689A60F0E700BF28030020F8B5038830
:1043700005461646CBB14A2B2BD188291FD11748A9
:1043800002F020FE0446C4B1231D9E421FD12146E7
:10439000124802F021FE124E636937683360A36948
:1043A0000BB1E0699847376007E00C4802F00AFE5D
:1043B000044634B901220B4B1A704A232B8001208A
:1043C0000AE0A168201D02F0D4FD2468F1E724680A
:1043D000D9E7002303800320F8BD00BF2C03002091
:1043E000B0040020810E002010B50024054B0648C3
:1043F0001C7002F0E4FD2146BDE81040034800F0C7
:1044000051B900BF810E00202C030020780000204D
:1044100070B50446E3610B4B049D1B78C4E905525B
:104420006BB1094D094B2E68201D2B6002F0A1FDD8
:104430002E602146BDE87040054802F0E0BDA16055
:10444000F7E700BF810E0020B004002078000020B4
:104450002C03002013B5034C24680094FFF7D8FF09
:1044600002B010BDB004002010B5084B04461B7804
:1044700043B10430FFF760FF2146BDE81040044817
:1044800002F0AABDC0E90333F6E700BF810E0020A9
:104490002C03002038B5836804460D469BB10A48BA
:1044A00004600220A07304F10C0098470238012830
:1044B00001D9832D05D121462046BDE8384000F0C2
:1044C00005B80123A37338BDB00400202DE9F843DB
:1044D0001C4F04463D6888462B46A34204D00BB9C6
:1044E000BDE8F8831B68F8E7002CF9D0164EA37BD3
:1044F000D6F8009063B10023A3738DB9A3683BB1D4
:10450000444505D02A468321346004F10C009847C5
:104510003B68A3420ED123683B60C6F80090DFE7FA
:10452000A54204D022468721284602F02BFD2D68A3
:10453000E3E71346002BF0D01A68A242F9D12268B3
:104540001A60EAE7B4040020B0040020002238B565
:104550000125084B1A70084B1C6804B938BDE37B71
:104560002BB1002282212046E581FFF793FF2468CA
:10457000F3E700BF850E0020B4040020024B18783A
:10458000421C1A70704700BF830E00208A22064B1F
:104590001A700023054A1370054A1370054A136008
:1045A000054A1360704700BF830E0020820E002072
:1045B000840E0020B4040020B00400202DE9F04156
:1045C0001A4E33780BB1FFF7C1FF194D2C7894B117
:1045D0000C221849184F0B78013C5A430133B81884
:1045E00003F01F03BF5C0B702C70D0E9018090B901
:1045F000124B1C6824B9337828781844BDE8F08140
:1046000033780BB1FFF7A2FF20464246394602F04D
:10461000B9FC2468EEE7812F08BF012342463946E2
:1046200008BF837302F0AEFCE5E700BF850E0020F3
:10463000840E0020820E002030030020B4040020ED
:10464000024A034B10781B7818447047840E0020F0
:10465000850E0020F0B50B4D2C78202C0FD00C26A9
:10466000094B0A4F1B78234403F01F037343FE18C2
:10467000C6E9012000200134F9542C70F0BD01205E
:10468000FCE700BF840E0020820E002030030020D3
:1046900038B5034C256802F075FC256038BD00BFB5
:1046A000B004002010B40A4609490C68234683422E
:1046B0000CD04BB950B104600860012110BC81736B
:1046C00083818121FFF7E4BF1B68F0E710BC7047CE
:1046D000B404002038B1837B013B012B9FBF012331
:1046E000014AC37313707047850E002002460846C6
:1046F00010B5064953600C68029B106093600A6015
:104700000CB9FEF7EFF8002010BD00BFB804002080
:1047100010B5084C206858B100232360D0E901315E
:104720009847236823B1BDE810401868FEF7DAB84F
:1047300010BD00BFB804002070B505880446672D81
:1047400009D0792D2FD0002D33D1FFF717FF1B4B48
:1047500018701B4B1D601B4E194D08E00A282B6872
:104760000ED07E2B03DC5A1C2A60174AD0543046E8
:1047700002F0C5FC431CF1D16723238001201BE01C
:104780005A1C2A600025104A2846D5540B4B19782C
:10479000FFF760FF0D4B2A4685211868FFF75AFF87
:1047A00018B97923E9E78529E8D10022044B1A607A
:1047B000D1E700230380032070BD00BF870F0020D6
:1047C000BC040020C0040020860E0020B00400209D
:1047D0000D28014610B516D00C4C237853B90C485F
:1047E00002F07AFC08B9012323700A48FFF772FF30
:1047F000012010BD0A28F8D1054802F06DFC002800
:10480000F3D00023F0E70020F3E700BF060F0020FD
:10481000C00400208800002008B505490548802212
:1048200002F053FCBDE8084000210348FFF73ABFFF
:10483000070F0020C0040020880000202DE9F0416F
:1048400005880446772D20D07E2D3DD0002D4ED1F9
:10485000FFF794FE284E294B294FDFF8A8801870E7
:104860003560336857F823202AB9274A1370772315
:10487000238001203EE008F8035093680021802047
:104880009847336801333360EBE700231F4A136016
:10489000194A1360184B1C4A1B6812789A4204DCB0
:1048A0001A4B1B68002BF0D1E1E7164AD256002ABA
:1048B00019DA134A002052F82320104B1978FFF719
:1048C000C9FE28B97E23D3E70C4B1B788B42D0D18D
:1048D000094B0C491A688B5C03F07F038B540B4A1D
:1048E000136801331360044A13680133D1E70023CE
:1048F00003800320BDE8F081CC040020890F002054
:1049000040000020770E0020880F0020C8040020FF
:1049100010B40A4B0A4A197800238B4203DA52F882
:10492000044BA04208D107490748CA5C62F07F02E5
:10493000CA5410BCFFF7CEBE0133EEE7880F00204B
:1049400040000020770E002098000020054B1A68D8
:1049500042F004021A6058699B6940EA032080B261
:10496000704700BF00700D40184A136823F00C0315
:1049700013600122164BC3F8A820D3F8A820012AFF
:10498000FBD10822134BC3F82426E322C3F83828AE
:10499000D3F86426D207FBD50E4810220023D0F8A6
:1049A0009C16013A01F0010143EA01034FEA430377
:1049B0009BB2F4D1002BF0D0044A190A03F0FE0395
:1049C00051615361EF23C0F83838704700700D40D3
:1049D00000200D40008008400088064B40BA80B29D
:1049E0008840995CC2F1080201EA20201041C0B25F
:1049F000704700BF297C2000F8B506460A480D46DE
:104A0000174602F0DFFA044630B93A4629463046E6
:104A1000BDE8F84002F0EBBCA3680BB1284698470C
:104A2000204602F007FBEEE7D004002038B500F086
:104A3000FDF80546094802F0C5FA044628B95DB1FB
:104A40002846BDE8384002F0CDBC636803B1984702
:104A5000204602F0EFFAF0E738BD00BFD004002096
:104A600010B5044600F0F0F838B100F0B1F9034B8E
:104A7000034821469B689847012010BD047A200016
:104A8000F949200070B50B4C0023616E0A4A04F10D
:104A90003800FFF7DFFCFFF759FF656E0023B0FB1E
:104AA000F5F1064A01FB150104F11800BDE870405C
:104AB000FFF7D0BCD4040020C14A2000D94A20000E
:104AC000044B5A6E196E5200914294BF59665A6651
:104AD000FFF7D8BFD404002010B500F009FA00F0A9
:104AE0009BF900230380044600F05EF822889300BF
:104AF00008B1017B51B9023398B200F04DF9238817
:104B000073B1BDE81040074800F0C6B8818823445F
:104B10005980C18801329980228002F08BFAE5E742
:104B200010BD00BFD40400209DF80030012B04D13B
:104B3000024B9A6D5A66FFF7A5BF7047D404002058
:104B4000F8B50F4616461D46064C0146064A204655
:104B500000F090F8C4E9167625660448BDE8F840F0
:104B600000F01CB8D4040020A0792000294B2000BC
:104B700070B505460C46164600F040F820462E61FA
:104B80000249BDE8704002F037BC00BF377C20000E
:104B9000014802F014BA00BF40050020014B186024
:104BA000704700BF44050020014802F00BBA00BF67
:104BB000400500202DE9F04105460C480C461646FC
:104BC00002F000FA08B9BDE8F0818388A34209D158
:104BD0008768002FF7D0334622462946BC46BDE8F9
:104BE000F041604702F026FAECE700BF40050020E4
:104BF000014802F0E4B900BF480500208180014669
:104C0000014802F0FCB900BF4805002010B5044679
:104C1000054802F0D7F900B910BD8388A342FBD044
:104C200002F008FAF7E700BF48050020054B10B571
:104C30001B689847044618B18188012000F0A6F946
:104C4000204610BD8879200038B5064B05465B68C4
:104C500098470446A988012000F098F9201E18BF43
:104C6000012038BD88792000014B9B68184700BFA0
:104C70008879200070B505460C461646044AFFF7B1
:104C800077FF20466E610349BDE8704002F0B4BB77
:104C9000A8792000397C200010B5044604491A2068
:104CA00000F082F92046BDE8104002F099BB00BF39
:104CB0006C0E002008B5044802F0BFF9BDE80840BA
:104CC000024802F0BAB900BFB4000020A8000020DA
:104CD00038B50E4802F0C1F9054650B10C4802F053
:104CE000BCF90446286030B92946084802F0C9F9E1
:104CF0002546284638BD00F097F804F1B601A4F81F
:104D0000800004F1820000F019F9F2E7A800002009
:104D1000B400002010B501460446074802F0C7F968
:104D200048B12168054802F0ACF92146BDE81040C1
:104D3000014802F0A6B910BDA8000020B400002070
:104D400010B501460446094802F0B1F968B124687B
:104D5000B4F88010204600F0DBF804F1B60104F14D
:104D60008200BDE8104000F0FDB810BDA800002092
:104D700010B507490B88834208DB064C80B22288B5
:104D80000244181A08800120228010BD0020FCE790
:104D90002C0E00202E0E0020014B1880704700BF03
:104DA0002C0E0020004870476C050020014B18882D
:104DB000704700BF2C0E0020034A044B10781B885C
:104DC0001844C0B2704700BF9A0F00202E0E00207A
:104DD0002DE9F0410C4E338873B100240B4B0C4F7E
:104DE000B3F800800B4B1D783D4421B2414504F1DE
:104DF000010403DB00233380BDE8F081FFF7DCFF13
:104E00003844435C6B54F0E72E0E00202C0E00203B
:104E10006C0500209A0F002008B5FFF7CDFF014B6D
:104E2000184408BD6C050020F8B50C4B04461E78EC
:104E30000B4B1F88F519802D0DDC3246094901F016
:104E4000D1FEFFF7E9FF344401463A46204601F01F
:104E5000C9FE2846F8BD0025FBE700BF9A0F0020D9
:104E60002C0E00206C05002008B5FFF7A5FF024BB3
:104E70001B88184480B208BD2C0E002010B50146D6
:104E8000FFF7F2FF4318802B12DC431E094A1BB2C6
:104E90001A44481C002B05DA074B187801440120FE
:104EA000197010BD12F80149013B14541BB2F1E70F
:104EB0000020F6E76C0500209A0F002070B5342220
:104EC0000021084801F004FF0024074D074E284642
:104ED0003146013402F0E9FA042C05F10205F6D15D
:104EE00070BD00BF380E0020300E0020247A200054
:104EF0000023044A1380044A1380044A1370FFF706
:104F0000DDBF00BF2E0E00202C0E00209A0F0020C7
:104F100038B50C460546FFF7EBFF802C28BF8024F0
:104F200029462246034801F05DFE034B20461C80C3
:104F300038BD00BF6C0500202C0E002010B5074BBB
:104F400003F1340253F8044B934240F8044BF9D177
:104F5000034A13680B6053684B6010BD380E002085
:104F6000300E002010B5074B00F1340250F8044B0E
:104F7000904243F8044BF9D10B68034A13604B6825
:104F8000536010BD380E0020300E0020024B23F875
:104F900010100120704700BF380E0020014B33F87D
:104FA00010007047380E002008B5044B1A3803EB88
:104FB000400002F07AFA012008BD00BF300E002048
:104FC000024B1A3803EB4000704700BF300E002040
:104FD0000149024802F06CBA247A2000320E002007
:104FE000084B10B51B689847074B5B689847074B01
:104FF0005B689847064B5B689847BDE81040054BD7
:105000005B681847C0782000D8792000047A200017
:10501000BC79200094792000F8B5FDF739FC114DDA
:10502000074600242E461A20FFF7CAFF294602F041
:105030003FFA80B10A20FFF7B1FF0C2303FB0464A1
:10504000237A83420CD16068381AB0F5206F8CBF88
:1050500000200120F8BD0134102C05F10C05E2D12F
:105060000020F7E7EC05002070B5194D00242E460E
:105070001A20FFF7A5FF294602F01AFA013418B9E1
:10508000102C05F10C05F3D10C23621E03FB046404
:10509000A4F10C057AB90A20FFF780FF3072FDF702
:1050A000F7FB70601A20FFF78BFFBDE870400146E8
:1050B000074802F0FAB92B4654F8180C54F8141C9F
:1050C000013A03C354F8100C2C461860E0E700BF07
:1050D000EC050020014B1888704700BFF400002049
:1050E0002DE9F041012906460F46144686B003DC3F
:1050F000002006B0BDE8F08103A902F019FB0B46C1
:1051000003CB1B88206123839DF811306161002B44
:1051100045D0B51C02AA01A903A802F0D1F99DF857
:105120001380B8F1000F4DD0029B2BB16A7815F8AF
:10513000023B03EB02239BB2B8F1020FA38332D1EF
:105140002046314902F0B1F96B78237015F8023B23
:1051500063709DF81580B8F1000F4DD0019B002BB6
:1051600037D06A7815F8023B03EB0223029A9BB210
:10517000E38302B9A383B8F1020F2DD1224904F1D0
:10518000080002F092F96B78237215F8023B637203
:10519000A81B3B1A8742C4E90E53A9DBA9E7B378E1
:1051A000F51CA376B6E7B8F1030FD2D105F10802DA
:1051B0001346611E13F8010D9D4201F8010FF9D14C
:1051C0001546C6E72046104902F06FF9A4F81C8086
:1051D000BFE7A38BE383CEE7B8F1030FD8D105F186
:1051E0000802134604F1080113F8010DAB4201F85F
:1051F000010BF9D11546CBE7034904F1080002F091
:1052000054F9A4F81E80C3E7247A200030B591B089
:105210000546FFF75FFF4FF6FF73984204D14FF04A
:10522000FF34204611B030BD40220021684601F015
:105230004FFD404B1A782AB901221A70FFF786FBFE
:105240003D4B18701420FFF7A9FE8DF810001320B5
:10525000FFF7A4FE8DF81200FFF7BAFE04460028FF
:1052600048D000238DF813308DF815300023012429
:105270008DF814308DF818404DB10A20FFF78EFEDE
:1052800000283FD00A20FFF789FE8DF81A0002247B
:105290008DF81940FFF71EFFADF81C00FFF798FED0
:1052A00000283CD04FF6FF738DF81740ADF8003062
:1052B000FFF710FFADF81E001A20FFF781FE014630
:1052C00002A802F0F2F8FFF7A7FD0E90FFF76EFDBF
:1052D0000F90684602F09EF90446002DA1D0FFF71A
:1052E000CDFD00289BD0FFF75DFD0146684602F02A
:1052F000D9F996E70B20FFF751FE8DF815408DF890
:105300001300B3E70C4B1A7802B91C7019780A2005
:105310004A1C1A708DF81A10FFF738FEB7E71B20E9
:10532000FFF74EFE0146684602F0BFF88DF81740C1
:10533000BEE700BF9B0F00209C0F0020014BDB68E5
:10534000184700BF047A2000014B5B69184700BF73
:10535000D8792000014B9B69184700BFD8792000FD
:10536000024BD86900B10047704700BFD8792000D0
:1053700070B590F829400F4B042C214628BF04211A
:105380000124DB698C4005469847012838BF01207D
:10539000013C444305D0FFF7D9FAB0FBF4F303FB1B
:1053A00014042B46214605F10800034ABDE870406D
:1053B000FFF750B8D87920002D5520002DE9F04195
:1053C00006461B200F46FFF7FBFD494B05461A78A2
:1053D000484C22B901221A70FFF7B8FA20802388BE
:1053E0000BB90123238021880A204B1C2380FFF75F
:1053F000CDFD414801F0E6FD0446002847D13F4875
:1054000001F02BFE0446002868D02946201D02F03A
:105410004CF8002304F12C00C4E90B30238501F083
:10542000CEFD2146344801F0EAFD206B01F0FBFD82
:10543000072853DC324801F010FE0546002841D011
:10544000304801F00AFEA860C0B3FFF741FC686075
:1054500080B30920D5F80880FFF7A0FD08BB08231A
:1054600088F808300D20C8E90067FFF797FD01288C
:105470002946206B1BD101F0CFFD206B01F0A2FD6E
:10548000854233D12046BDE8F041FFF771BF294680
:10549000201D02F00DF80028C7D1204601F0CAFDFA
:1054A000AAE70920FFF77AFD88F80800DAE701F09B
:1054B000A6FDE2E7A968134801F0E3FD294610487C
:1054C00001F0DFFD206B01F0AEFD38B921460A483E
:1054D00001F082FD2146094801F0D3FD39463046EE
:1054E000BDE8F0410123042202F042B9BDE8F08199
:1054F0009D0F00206E0E00200C070020CC00002025
:10550000D8000020C000002008B5054801F095FD36
:10551000044801F092FDBDE80840034801F08DBD4C
:10552000D8000020C0000020CC00002013B50446A5
:1055300068B1006B01F046FD024640B12146054BC3
:105540000548DB68019302B0BDE81040184702B07F
:1055500010BD00BFD8792000D95520002DE9F047B3
:105560000D4614468B680646D3E90078106B92F816
:10557000289001F031FD6868FFF7CCFBA96812485C
:1055800001F07FFD2946114801F07BFD206B01F001
:1055900019FD60B1002320462385FFF7E9FE4B4645
:1055A000324641463846BDE8F04702F0E1B804F122
:1055B0000800FEF759FF2146054801F00DFD214680
:1055C000044801F05EFDEAE7C0000020D80000209A
:1055D0000C070020CC0000202DE9F0410E461746B4
:1055E000044620B1006B01F0EDFC054608B9BDE8AA
:1055F000F0810A21686801F052FF80460A20FFF717
:10560000CDFC804546D0284601F014FDEDE794F826
:10561000282000203A4484F828202946224684F88D
:105620002900BDE8F041FFF799BF002384F8293035
:1056300094F82830DA19D2B284F828200B7A9342F1
:105640001CD8224629460220EBE794F82930DA19C3
:10565000D2B2052A84F8292007D9002294F82830EC
:1056600084F82920013384F8283094F828200B7A14
:105670009A4203D3224629460120D2E72046FFF76B
:1056800077FE6868BDE8F04101F0F5BE2246294684
:105690003046C6E7A9680029A9D0032EF6D801A391
:1056A00053F826F00F5620004B5620002B562000B2
:1056B000EF55200013B50024094B1C70094B1C80CA
:1056C000FDF702F9012200F58051074B00940748CD
:1056D000FFF70CF80122064B1A7002B010BD00BF94
:1056E000B50F0020700E0020015B2000FC07002099
:1056F000B00F0020074B82B01B784BB1064B1A78D5
:1057000032B901221A70054B1B6A019302B0184787
:1057100002B07047B00F0020B50F0020C078200005
:10572000094B82B01B786BB1084B1A7852B1084A0A
:10573000127802F0FF012AB91970064B5B6A0193D7
:1057400002B0184702B07047B00F0020B50F00201C
:10575000B10F0020C078200008B5FFF7E1FF00225C
:10576000014B1A6008BD00BF0C080020044B1B78D9
:1057700023B9044B1B680BB9FFF7D2BF704700BFBA
:10578000B70F00200C0800200022094B82B01A70CD
:10579000084BC2B21A70084A084B28B101211B6A93
:1057A0001170019302B018475B6A1070F9E700BFEF
:1057B000B00F0020B10F0020B50F0020C0782000EE
:1057C00037B50B4B1A7802F0FF056AB901241C703B
:1057D000084B1D70FDF778F8224600F58051064B06
:1057E00006480095FEF782FF012003B030BD00BFE0
:1057F000B00F0020B10F0020015B2000FC0700204B
:1058000037B50B4B05461B780C4673B1FDF75CF8BA
:10581000231A022B4FF0000348BF841C009301227F
:1058200021462846034BFEF761FF03B030BD00BFA1
:10583000B00F0020015B200013B5224C23680BB988
:10584000FFF76EFFFFF7B2FA032823D0FFF70CFB38
:1058500000B31D4B9B68984700281BDBFFF7A6FA97
:10586000C0B1FFF701FBA8B11B20FFF7A9FB174947
:1058700001F01EFE50B11320FFF790FB206058B9D5
:10588000FFF74EFF1248FEF7EFFD0DE0FFF7A0FB1C
:105890000028F0D102B010BDFFF72CFF0023042137
:1058A0000C4A0B48FEF7D6FDFFF7B6FB0028F1D1F6
:1058B000FFF7DAFB084BDB68019302B0BDE810404C
:1058C000184700BF0C080020F87920006C0E00205B
:1058D000D807002059572000BC7920002DE9F04F4F
:1058E00089B0704903901A20FFF75EFBFFF770FB49
:1058F00004460C20FFF752FBA8B1FFF7B5FA80462B
:105900004FF00109684D6E68FFF74CFA4146B04709
:10591000664EAB6986F800900093984770B10023FB
:1059200033700124A1E001210B20FFF72FFB604B16
:105930005B6898470028E0DA052496E0EB6901935C
:1059400098470028EBD15B4FFFF7EAFE3B7887F8DA
:105950000090DBB20293039B7BBB4FF006096FF014
:10596000030A6FF00F0BFCF7AFFF0490FFF7C2FEC6
:105970000498AAEB00030493FCF7A6FF049BC34220
:10598000F9D46B69984748B90090FFF7C9FE0098B1
:105990003070FFF7C5FE029B3B70C2E7FFF7C0FE09
:1059A000FCF792FFABEB00030493FCF78DFF049B25
:1059B000C342F9D4B9F10109D5D10CB9FFF79AFE68
:1059C0000A20FFF7EBFAC3B20493FDF7EFF8FCF7F8
:1059D0007BFF8146DFF8E0B0ABEB000BDFF8DCA02B
:1059E000AAEB090AFCF770FF1AEB000F49D5FDF787
:1059F000DDF8002C3DD0AB6840469847FCF764FFCB
:105A00006FF00C031B1A0593FCF75EFF059BC34266
:105A1000F9D4002CE6D1009B9847002835D0FCF73C
:105A200053FF6FF01408A8EB0008FCF74DFF18EBCC
:105A3000000FFAD403212B6907A8984703282DD11A
:105A40009DF81E30049A934228D100254FF001089A
:105A5000FFF766FE029B3B7000233370002D7FF43E
:105A600060AFECB9984508BF0224204609B0BDE8F4
:105A7000F08F039B002BBED0FCF726FF1BEB000F23
:105A8000B9D400254FF00008E2E7019B98470028B1
:105A9000C5D16B6998470028A0D1C0E70125F1E77F
:105AA0002C46E2E76C0E0020C0782000B70F0020E3
:105AB000F8792000B00F0020DEFDFFFFB0EFFFFF00
:105AC00070B50D4B04461B780D4653B90B4B1B7834
:105AD0003BB9052229462046BDE87040012301F06C
:105AE00047BEFFF7C1F90028F3D00020FFF7F6FE0C
:105AF00003280246EED170BDB00F0020B10F002088
:105B000040F2E3122DE9F3476E4E04463388934288
:105B10003AD0B3F5F27F08D2002B00F0888040F233
:105B2000B11293420BD0002391E040F20222934243
:105B3000F9D10023644A1370644A137007E0634A82
:105B400013780133DBB2012B137000F28480604BB9
:105B50001A78002A72D15F4A1268002A6ED11B7827
:105B60000BB9FFF7C7FD5C4B5B699847002863D111
:105B70000122554B1A70FCF7A7FE584B584A186083
:105B800000231370574A1370514BDFF85C811B7868
:105B900003F0FF05002B7BD198F80030002B77D065
:105BA000FCF792FE6FF4CC724C4B1B68C01A104489
:105BB00000286DDADFF82091494FD9F81430984762
:105BC00010B13D780135EDB23D70464DD9F818A0C1
:105BD0002B7801332B70D047002854D000233B7022
:105BE0002B78D9F81C700A2B04D9D04710B9B847C4
:105BF00000284BD0B84700284AD13C4B1B789BB1BA
:105C00002568FCF761FE2B1A13F1120F4FF0000309
:105C100048BF811C00934FF001022046344B58BF0F
:105C200005F11401FEF762FD40F2E3130FE0FCF70B
:105C30004BFE304B18607CE7FFF798FDFCF744FE05
:105C400000F110012046FFF7DBFD40F2B113338075
:105C500002B0BDE8F0871C4B1B78002B8BD1254D83
:105C60002B6803F580532B60FCF72EFE2B68C3F1E5
:105C7000A003C3427FF55DAF20462968FFF7C0FD52
:105C800040F20223E3E73B78052BA9D9FFF76EFD2D
:105C900098F80030002BE2D00F4DAB69984760B107
:105CA000FCF712FE0D4B1B68C01A6FF4CC7318443E
:105CB0000028D4DBFFF75AFDD1E7EB6998470028AD
:105CC000EED1F7E7700E0020B30F0020B20F0020D6
:105CD000B70F00200C080020C07820000808002022
:105CE000B60F0020B40F0020B50F0020B00F002029
:105CF000015B2000F80700202DE9F14F06460F4612
:105D00001446002A71D03A4BD3F800B0BBF1000F13
:105D10000BD05068FFF714F801231A463946304675
:105D200001B0BDE8F04F01F023BD1546DFF8C49087
:105D3000DFF8C4A0284601F07DF9A8460546D8F84A
:105D40000400FEF7FDFF0C20FFF728F9E0B91DB1B4
:105D500001211320FFF71AF949461A20FFF724F909
:105D600001210B20FFF712F9DAF8043098470028D8
:105D700002DA01230522D1E701210C20FFF706F901
:105D8000D8F8040001F07DFB002DD3D1DFF86C9032
:105D9000DFF86CA0204601F04DF9254604466868FE
:105DA000FEF7CEFF1320FFF7F9F899F80030804690
:105DB0008BB99AF8003073B9052501232A46394674
:105DC000304601F0D5FC85B97CB14FF0010BB8F13C
:105DD000000FDFD109E0FFF747F80028ECD0584664
:105DE000FFF77CFD03280546E7D101B0BDE8F08F41
:105DF0000C0800206C0E0020F8792000B00F002065
:105E0000B10F002008B5024B1B689847023008BD4F
:105E1000B079200038B50C4B9B689847041E02DA15
:105E20004FF0FF3038BDFEF7F7FF03780546002B33
:105E3000F6D10220FEF79CFF0028F1D06878FEF72B
:105E4000ABFFA01CEEE700BFB079200070B50220C8
:105E5000FFF714F810B94FF0FF3070BDFEF7A2FF46
:105E6000002606700446FEF7A1FF6070FEF7FCFFF7
:105E70000446FFF7C7FF20442A2812DCC0F12B009C
:105E8000C4B2FEF7C9FF0546FEF790FF2246314631
:105E9000284400F01DFFFEF789FF204480B2FEF782
:105EA0007BFF044B5B689847041ED4DBFEF790FF32
:105EB000A01CD2E7B0792000014B9B68184700BFB7
:105EC0009479200070B504460D4614200121FFF797
:105ED0005DF8034B29462046BDE870409B68184793
:105EE000BC79200037B502200C46FCF7B9FAFEF762
:105EF00093FF00F03FFF05460420FFF74FF800B284
:105F0000009062782178EBB20448FDF7B9FD0220D9
:105F100003B0BDE83040FCF7ABBA00BF557C2000B1
:105F20002DE9F84F03880546002B70D0A72B40F0D1
:105F30008C80882940F084800520FCF791FA454B3D
:105F400020205B689847001100F0F0F90B460246EC
:105F5000DFF804A1414CDAF80010414804EBC1011C
:105F6000C1E90023FDF78CFDDAF800300133262B60
:105F7000CAF8003047DDA146002600274FF0000890
:105F8000F9E802233046394600F084F808F10108A8
:105F9000B8F1280F06460F46F2D10022314B00F02F
:105FA00059FB00268046894600274FF0000BF4E895
:105FB000020142464B4600F06BF802460B4600F0E9
:105FC0001FFA0022274B00F045FB02460B463046E5
:105FD000394600F05FF80BF1010BBBF1280F0646C4
:105FE0000F46E4D100F01EFC48F6B8039842044680
:105FF00002DD1D48FDF744FD21461C48FDF740FD2C
:106000000023CAF800300520FCF732FA14E01848E3
:10601000FDF736FD1748FDF733FD174B0E21DB6A00
:106020000120984781211548154AFEF723FE094BA8
:10603000242180209B6898470621124800F099FF90
:10604000A72301202B80BDE8F88F002303800320C5
:10605000F9E700BF38782000280800200801002058
:10606000DC7C200000004440ED7C2000047D20000A
:10607000917C2000B57C2000C07820001008002012
:106080001C7A20002C08002081F0004102E000BFB3
:1060900083F0004330B54FEA41044FEA430594EAE8
:1060A000050F08BF90EA020F1FBF54EA000C55EA23
:1060B000020C7FEA645C7FEA655C00F0E2804FEAF4
:1060C0005454D4EB5555B8BF6D420CDD2C4480EAD6
:1060D000020281EA030382EA000083EA010180EA06
:1060E000020281EA0303362D88BF30BD11F0004F54
:1060F0004FEA01314FF4801C4CEA113102D040428A
:1061000061EB410113F0004F4FEA03334CEA1333C4
:1061100002D0524263EB430394EA050F00F0A780DC
:10612000A4F10104D5F1200E0DDB02FA0EFC22FAD7
:1061300005F2801841F1000103FA0EF2801843FACB
:1061400005F359410EE0A5F120050EF1200E012ABC
:1061500003FA0EFC28BF4CF0020C43FA05F3C018FA
:1061600051EBE37101F0004507D54FF0000EDCF173
:10617000000C7EEB00006EEB0101B1F5801F1BD31C
:10618000B1F5001F0CD349085FEA30004FEA3C0C20
:1061900004F101044FEA445212F5800F80F09A8016
:1061A000BCF1004F08BF5FEA500C50F1000041EB1A
:1061B000045141EA050130BD5FEA4C0C404141EB1E
:1061C0000101013C28BFB1F5801FE9D291F0000F19
:1061D00004BF01460020B1FA81F308BF2033A3F1C8
:1061E0000B03B3F120020CDA0C3208DD02F1140CBF
:1061F000C2F10C0201FA0CF021FA02F10CE002F1FA
:106200001402D8BFC2F1200C01FA02F120FA0CFCF2
:10621000DCBF41EA0C019040E41AA2BF01EB04513B
:10622000294330BD6FEA04041F3C1CDA0C340EDC39
:1062300004F11404C4F1200220FA04F001FA02F37C
:1062400040EA030021FA04F345EA030130BDC4F13A
:106250000C04C4F1200220FA02F001FA04F340EA2F
:106260000300294630BD21FA04F0294630BD94F0E0
:10627000000F83F4801306BF81F480110134013DC7
:106280004EE77FEA645C18BF7FEA655C29D094EA38
:10629000050F08BF90EA020F05D054EA000C04BFB6
:1062A0001946104630BD91EA030F1EBF00210020A1
:1062B00030BD5FEA545C05D14000494128BF41F040
:1062C000004130BD14F580043CBF01F5801130BDA4
:1062D00001F0004545F0FE4141F470014FF000002F
:1062E00030BD7FEA645C1ABF194610467FEA655CE0
:1062F0001CBF0B46024650EA013406BF52EA033582
:1063000091EA030F41F4002130BD00BF90F0000F6F
:1063100004BF0021704730B54FF4806404F13204AB
:106320004FF000054FF0000150E700BF90F0000F64
:1063300004BF0021704730B54FF4806404F132048B
:1063400010F0004548BF40424FF000013EE700BF5B
:1063500042004FEAE2014FEA31014FEA02701FBFEB
:1063600012F07F4393F07F4F81F06051704732F01D
:106370007F4208BF704793F07F4F04BF41F4002174
:10638000704730B54FF4607401F0004521F00041D2
:106390001CE700BF50EA010208BF704730B54FF05C
:1063A00000050AE050EA010208BF704730B511F05D
:1063B000004502D5404261EB41014FF4806404F195
:1063C00032045FEA915C3FF4D8AE4FF003025FEA1B
:1063D000DC0C18BF03325FEADC0C18BF033202EB9F
:1063E000DC02C2F1200300FA03FC20FA02F001FAF9
:1063F00003FE40EA0E0021FA02F11444BDE600BF9C
:1064000070B54FF0FF0C4CF4E06C1CEA11541DBF4A
:106410001CEA135594EA0C0F95EA0C0F00F0DEF815
:106420002C4481EA030621EA4C5123EA4C5350EAFA
:10643000013518BF52EA033541F4801143F480134B
:1064400038D0A0FB02CE4FF00005E1FB02E506F0DC
:106450000042E0FB03E54FF00006E1FB03569CF031
:10646000000F18BF4EF0010EA4F1FF04B6F5007F37
:1064700064F5407404D25FEA4E0E6D4146EB0606A9
:1064800042EAC62141EA55514FEAC52040EA5E5032
:106490004FEACE2EB4F1FD0C88BFBCF5E06F1ED8DC
:1064A000BEF1004F08BF5FEA500E50F1000041EB13
:1064B000045170BD06F0004646EA010140EA0200C0
:1064C00081EA0301B4EB5C04C2BFD4EB0C0541EAE2
:1064D000045170BD41F480114FF0000E013C00F3F7
:1064E000AB8014F1360FDEBF002001F0004170BD1B
:1064F000C4F10004203C35DA0C341BDC04F1140434
:10650000C4F1200500FA05F320FA04F001FA05F2BF
:1065100040EA020001F0004221F0004110EBD3708C
:1065200021FA04F642EB06015EEA430E08BF20EAB8
:10653000D37070BDC4F10C04C4F1200500FA04F35B
:1065400020FA05F001FA04F240EA020001F00041ED
:1065500010EBD37041F100015EEA430E08BF20EA60
:10656000D37070BDC4F1200500FA05F24EEA020EA8
:1065700020FA04F301FA05F243EA020321FA04F0D7
:1065800001F0004121FA04F220EA020000EBD3708E
:106590005EEA430E08BF20EAD37070BD94F0000F8E
:1065A0000FD101F00046400041EB010111F4801FC2
:1065B00008BF013CF7D041EA060195F0000F18BF73
:1065C000704703F00046520043EB030313F4801FAF
:1065D00008BF013DF7D043EA0603704794EA0C0F69
:1065E0000CEA135518BF95EA0C0F0CD050EA41067F
:1065F00018BF52EA4306D1D181EA030101F00041FC
:106600004FF0000070BD50EA410606BF1046194623
:1066100052EA430619D094EA0C0F02D150EA01362F
:1066200013D195EA0C0F05D152EA03361CBF104670
:1066300019460AD181EA030101F0004141F0FE410F
:1066400041F470014FF0000070BD41F0FE4141F493
:10665000780170BD70B54FF0FF0C4CF4E06C1CEA93
:1066600011541DBF1CEA135594EA0C0F95EA0C0F48
:1066700000F0A7F8A4EB050481EA030E52EA033503
:106680004FEA013100F088804FEA03334FF0805524
:1066900045EA131343EA12634FEA022245EA111551
:1066A00045EA10654FEA00260EF000419D4208BF02
:1066B000964244F1FD0404F5407402D25B084FEAAF
:1066C0003202B61A65EB03055B084FEA32024FF45B
:1066D00080104FF4002CB6EB020E75EB030E22BFB8
:1066E000B61A754640EA0C005B084FEA3202B6EB78
:1066F000020E75EB030E22BFB61A754640EA5C0027
:106700005B084FEA3202B6EB020E75EB030E22BFB6
:10671000B61A754640EA9C005B084FEA3202B6EBB7
:10672000020E75EB030E22BFB61A754640EADC0076
:1067300055EA060E18D04FEA051545EA16754FEAD8
:1067400006164FEAC30343EA52734FEAC2025FEAF6
:106750001C1CC0D111F4801F0BD141EA00014FF085
:1067600000004FF0004CB6E711F4801F04BF014356
:106770000020B4F1FD0C88BFBCF5E06F3FF6AFAE72
:10678000B5EB030C04BFB6EB020C5FEA500C50F102
:10679000000041EB045170BD0EF0004E4EEA113185
:1067A00014EB5C04C2BFD4EB0C0541EA045170BD8C
:1067B00041F480114FF0000E013C90E645EA060ED0
:1067C0008DE60CEA135594EA0C0F08BF95EA0C0FFE
:1067D0003FF43BAF94EA0C0F0AD150EA01347FF446
:1067E00034AF95EA0C0F7FF425AF104619462CE71D
:1067F00095EA0C0F06D152EA03353FF4FDAE104680
:10680000194622E750EA410618BF52EA43067FF4D0
:10681000C5AE50EA41047FF40DAF52EA43057FF460
:10682000EBAE12E74FEA410212F5001215D211D574
:106830006FF47873B3EB625212D94FEAC12343F07D
:10684000004343EA505311F0004F23FA02F018BFFF
:10685000404270474FF00000704750EA013005D1C8
:1068600011F0004008BF6FF0004070474FF000008B
:10687000704700BF53B94AB9002908BF00281CBFA0
:106880004FF0FF314FF0FF3000F076B9ADF1080C5A
:106890006DE904CE00F006F8DDF804E0DDE902233E
:1068A00004B070472DE9F047089E0D46044688461F
:1068B000002B4DD18A42944668D9B2FA82F252B185
:1068C00001FA02F3C2F1200120FA01F10CFA02FCF4
:1068D00041EA030894404FEA1C41B8FBF1F71FFA64
:1068E0008CFE01FB178807FB0EF0230C43EA0843DC
:1068F00098420AD91CEB030307F1FF3580F01E8193
:10690000984240F21B81023F63441B1AB3FBF1F033
:1069100001FB103300FB0EFEA4B244EA0344A6457B
:106920000AD91CEB040400F1FF3380F00981A6456D
:1069300040F20681644402380021A4EB0E0440EAD0
:1069400007401EB10023D440C6E90043BDE8F087EC
:106950008B4208D9002E00F0EE800021C6E9000528
:106960000846BDE8F087B3FA83F100294AD1AB426B
:1069700002D3824200F2FC80841A65EB03030120FB
:106980009846002EE2D0C6E90048DFE702B9FFDEF4
:10699000B2FA82F2002A40F09180A1EB0C000121B2
:1069A0004FEA1C471FFA8CFEB0FBF7F307FB1300FE
:1069B000250C45EA00450EFB03F0A84208D91CEB64
:1069C000050503F1FF3802D2A84200F2CE8043460B
:1069D0002D1AB5FBF7F007FB10550EFB00FEA4B215
:1069E00044EA0544A64508D91CEB040400F1FF3530
:1069F00002D2A64500F2B6802846A4EB0E0440EA77
:106A000003409EE7C1F120078B4022FA07FC4CEAC5
:106A1000030C25FA07FA4FEA1C49BAFBF9F820FAE9
:106A200007F309FB18AA8D401FFA8CFE1D4300FADC
:106A300001F308FB0EF02C0C44EA0A44A04202FACF
:106A400001F20BD91CEB040408F1FF3A80F08880B6
:106A5000A04240F28580A8F102086444241AB4FBE5
:106A6000F9F009FB104400FB0EFEADB245EA044408
:106A7000A64508D91CEB040400F1FF356CD2A645ED
:106A80006AD90238644440EA0840A0FB0295A4EBAE
:106A90000E04AC42C846AE4656D353D0002E69D041
:106AA000B3EB080264EB0E0422FA01F304FA07F7D1
:106AB0001F43CC40C6E90074002147E70CFA02FCF2
:106AC000C2F1200125FA01F34FEA1C4720FA01F137
:106AD00095400D43B3FBF7F107FB11331FFA8CFE12
:106AE000280C40EA034001FB0EF3834204FA02F44F
:106AF00008D91CEB000001F1FF382FD283422DD9B9
:106B000002396044C01AB0FBF7F307FB1300ADB2C3
:106B100045EA004503FB0EF0A84208D91CEB050529
:106B200003F1FF3816D2A84214D9023B6544281A53
:106B300043EA014138E73146304607E72F46E4E6AD
:106B40001846F9E64B45A9D2B9EB020865EB0C0EE5
:106B50000138A3E74346EAE7284694E74146D1E7F0
:106B6000D0467BE76444023847E7023B65442FE7A1
:106B7000084606E73146E9E6704700BF032A10B52C
:106B800016D940EA010C1CF0030F04460B4622D133
:106B900019462046D1F800E0D0F800C00433F4458F
:106BA00004F1040417D1043A032A20461946EFD809
:106BB000541EA2B100F1FF3C013901E0C3180CD012
:106BC0001CF801EF11F8012FA4EB0C039645F5D04A
:106BD000AEEB020010BD541EECE7184610BD104687
:106BE00010BD00BF844641EA000313F0030349D1FE
:106BF000403A23D30B6803604B6843608B68836023
:106C0000CB68C3600B6903614B6943618B69836126
:106C1000CB69C3610B6A03624B6A43628B6A83620E
:106C2000CB6AC3620B6B03634B6B43638B6B8363F6
:106C3000CB6BC36340304031403ADBD230320BD3B0
:106C40000B6803604B6843608B688360CB68C360EC
:106C500010301031103AF3D20C3205D351F8043B06
:106C600040F8043B043AF9D2043208D0D2071CBFE2
:106C700011F8013B00F8013B01D30B88038060460B
:106C8000704700BF082A13D38B07B1D010F003035D
:106C9000AED0C3F10403D21ADB071CBF11F8013BCD
:106CA00000F8013BA4D331F8023B20F8023B9FE7F8
:106CB000043AD9D3013A11F8013B00F8013BF9D26B
:106CC0000B7803704B7843708B7883706046704705
:106CD000830730B548D0541E002A3FD00346CAB2BD
:106CE00001E0013C3AD303F8012B9D07F9D1032CB5
:106CF0002DD9CDB245EA05250F2C45EA054536D9F3
:106D0000A4F1100222F00F0C03F1200EE6444FEA2A
:106D1000121C03F1100242E9045542E902551032F7
:106D20007245F8D10CF1010214F00C0F03EB0212C2
:106D300004F00F0C13D0ACF1040323F0030304336D
:106D4000134442F8045B9342FBD10CF003042CB1D2
:106D5000CAB21C4403F8012B9C42FBD130BD6446EF
:106D60001346002CF4D1F9E703461446BFE71A4650
:106D7000A446E0E720F0030110F00300C0F100009A
:106D800051F8043B00F1040C4FEACC0C6FF0000208
:106D90001CBF22FA0CF213434FF0010C4CEA0C2CEE
:106DA0004CEA0C4CA3EB0C0222EA030212EACC12CE
:106DB00004BF51F8043B0430F4D0C2F1000102EAF0
:106DC0000102B2FA82F2C2F11F0200EBD200704758
:106DD000FEE708B5FBF75AFAF7B500240646254644
:106DE00027463046FBF73CFB0197019BAB4215DB86
:106DF0003046FBF73DFBC5F5C8750197019B9D42E9
:106E000011DC0134B4F5487F01D103B0F0BDB4F515
:106E1000C87FD4BF2546C4F54875E2E700BF019B93
:106E200001330193E1E700BF019B01330193E5E7E3
:106E300001207047FBF738BC10B54FF0E024236900
:106E400023F001032361FBF7D7FC236943F001031F
:106E5000236110BDFBF7D0BC70470020FBF790BD4D
:106E60000120FBF78DBD0020FBF736BF0120FBF7AB
:106E700033BF0220FBF730BF0320FBF72DBF10B557
:106E80000C46FCF71BFA2046BDE81040FCF748BA58
:106E900010B50446C1B20020FBF76EFE204610BDBF
:106EA00070B50E460025441E631C02D014F8010F75
:106EB00008B9284670BDB542FBD0FFF7E9FF0135A0
:106EC000F2E738B505460024285D20B90A20FFF70F
:106ED000DFFF204638BDFFF7DBFF0134F4E7002079
:106EE00070470120704710B50446302200210E2063
:106EF000FBF74AFF6CB1012C0CD142F21073001168
:106F0000A0F28E5058432A2390FBF3F000F5C340C3
:106F1000283010BD4FF00040FBE7002070470120F3
:106F2000704710B50446302200210F20FBF72CFFDC
:106F30005CB1012C03BF40F6F253584347F6F0739F
:106F40004FF0004008BF90FBF3F010BD084608B5B5
:106F500011460AB1FFF7A4FF002008BD10B5041FB9
:106F600054F8040F00B910BD0021FDF79BFBF7E7B3
:106F7000704710B5044600F00DF82046BDE81040FB
:106F8000FDF7B2B9837BDB0701D5FDF783BA704704
:106F9000FFF762BF10B541600446FBF779FC206043
:106FA00010BD10B50446FBF773FC2368C3F1010361
:106FB0000344606898422CBF0020012010BD0023CC
:106FC0000360704700687047006820B1034600689E
:106FD0000028FBD118467047036810B53BB1002468
:106FE00099421A6806D11CB9026000221A6010BDCD
:106FF0002260FAE71C46002AF9D01346F0E738B5BC
:10700000FFF7EAFF00230B600546FFF7DDFF08B935
:10701000296038BD0160FCE738B5FFF7DDFF036884
:107020000B60016038BD0368002003B970471B681E
:107030000130FAE700B10068704710B50446428895
:1070400000214068FFF744FE23886288A068002181
:10705000BDE810405A43FFF73BBE002310B54188FE
:10706000994201DC002009E04268D418D25C32B9B0
:10707000012222700288806803FB020010BD0133E8
:10708000EEE7002330B5826844889C4201DCFF2093
:1070900008E08A4207D14168CA5C0AB1013ACA5481
:1070A0004268D05C30BD058801332A44EDE783682F
:1070B0008B4208D84288008800FB023081422CBFF6
:1070C000002001207047002070470023013A016032
:1070D000027143718371704710B5427983790479E5
:1070E000D31A34EA030308D0036899544379027928
:1070F000013313404371012010BD0020FCE7837968
:1071000042790179D21A0A421FBF0268D25C013368
:107110000B401ABF837110464FF0FF307047831C3D
:10712000002013F8022C023302B9704713F8032C25
:107130001044F6E7072B2DE9F84306460F4615469F
:107140001C4607DC1A4629463846FDF745FC3070D8
:10715000BDE8F8834FEAE3087AB97B5D73550135E2
:107160004545FADB14F00702F2D0002107EB0800D6
:10717000FDF732FC06F80800EAE74FF0000907EBDC
:10718000090008222946FDF727FC06F8090009F145
:107190000109C145F3DB14F00702D9D02946E5E720
:1071A0002DE9F743FDF738FE04460220FDF7E0FD28
:1071B00020B90025284603B0BDE8F0836378207825
:1071C00000EB032080B2FDF721FD05460028F0D03A
:1071D000FDF722FE0746287B10F0070318BF0123A6
:1071E00003EBD000FDF7C4FD0028E2D00026B14635
:1071F000AC68023414F8023C002BDBD0192B14F8D5
:10720000018C07EBE60106F007020BD901A8434603
:10721000FFF790FF14F8020C01A9FDF7C5FE4644E4
:107220000234E7E701A84346ADF80490FFF782FF78
:10723000BDF8041014F8020CFDF7A8FEEFE7072BC9
:107240002DE9F0410FDC1478C1F11001CB1A04FADA
:1072500003F30178C3F307220A43417802700B431A
:107260004370BDE8F081DC10C9B9555C455401316B
:10727000A142FADB13F00703F3D0125DC3F1080556
:107280002A41C3F11003055D02FA03F3C3F3072299
:107290002A43011902554A7813434B70E1E705462A
:1072A0000026C1F1080E975D95F800C007FA0EF7A9
:1072B000C7F307284CEA080C05F801CB95F800C085
:1072C00001364CEA0707A6422F70ECDB13F00703E8
:1072D000C7D0125DC3F1080631440A41D2B2C3F1EE
:1072E0001003015D02FA03F3C3F307220A430519F1
:1072F00002556A7813436B70B3E72DE9F743057BBA
:10730000044615F0070218BF012202EBD505A81CA0
:10731000FDF7B4FDA8B1FDF745FDA3880370A38870
:107320001B0A4370FDF73EFD2A460025861C0021FE
:107330003046FFF7CDFCA468023414F8020C18B9EB
:10734000012003B0BDE8F083192814F8017C06EB96
:10735000E50805F007090AD9FDF732FE3B4602466B
:1073600049464046FFF76BFF3D440234E5E7FDF731
:1073700015FE8DF80400000A3B468DF8050001AAB1
:10738000EEE710B5FDF796FCFDF7B2FDFDF700FC4A
:1073900000F03EF8BDE810404FF4E1234FF4F05206
:1073A0004FF400710220FDF7CBBB7047F8B50E46D5
:1073B000FDF732FD07880446FDF7F8FCBB000233F9
:1073C000834203D800250234AF4200DCF8BD54F8F4
:1073D000041B30460A0C89B2FDF7ECFB0135F3E7DC
:1073E000FDF73EBB03691B6803B11847704703698B
:1073F0005B6803B11847704738B50D46FDF706FCCA
:10740000044620B185602846FDF72EFC207338BD68
:10741000FDF7EEBB43695B6803B11847704713B5CE
:1074200004461A20FDF7CCFD014601A800F03DF806
:1074300063691B6813B1204601A9984702B010BDCB
:107440000EF00F000D2808BF00F00EB800982DE9CF
:10745000F04F00F1240181F3098890E8F08F0EF0DD
:107460000F000D2818BF7047EFF3098020E9F04F97
:107470000990BDE8F08F006800F1B6018230FDF799
:107480005DBD10B5046804F1B60104F18200FDF79A
:1074900055FD2046FDF7C8FCA4F8800010BD036828
:1074A00003EB4103B3F8820070470B8803807047F9
:1074B000022208B5FFF762FBB0FA80F0400908BD70
:1074C00030B530B3037A022B2CD1C579437A0479D5
:1074D0002DB9002B4AD1012C48D1204615E053EAA2
:1074E00004001DD0032D2FD1032B2FD1B4FA84F02B
:1074F0004009002309E0181E18BF0120002CF8D114
:10750000023B012B8CBF0023012301B10B6002B1B0
:10751000106030BD023B012B8CBF00230123DCE750
:1075200001201BE00378022B22D0037953B9437A60
:1075300013F0030318BF0123C07910F0030018BF34
:107540000120E2E70023F7E7022DD4D0A3F1020CDB
:10755000DCF1000040EB0C00002CCAD1022DCFD092
:10756000032DC6D19C1E63426341CEE7002CD1D0CF
:1075700000200346C9E7002337B50B608B80437DAD
:107580000D46D9075CBF01232B70037E0446012BF7
:107590000BD8C37D9A072CD0437E9B0729D0C28B82
:1075A000838B9A4225D101232375694601AA04F1F0
:1075B0001000FFF785FF009B0BB10223EB70019BCE
:1075C0000BB102236B70E37D03F00303022B03D0A6
:1075D000032B14BF00230823AB70637E03F0030367
:1075E000022B03D0032B14BF002308232B7103B0FD
:1075F00030BD0023D8E702280CBF022308230B4428
:107600008B4201D10120704713F8012DFF2AF7D0DA
:107610000020704707B56946FFF7ADFF9DF80030C1
:107620009DF80100023303449DF8020003449DF8D5
:10763000030003449DF8040003449DF8050018442A
:1076400003B05DF804FB43788278DB00120102F09E
:10765000100203F008031343027802F007021343F9
:10766000C278520102F0200213430279920102F023
:10767000400213430B704379427A03F0010343EA5B
:1076800082138279520002F002021343C2799200FF
:1076900002F00C021343027A120102F0300213438B
:1076A0004B70704737B504460D466946FFF763FFD8
:1076B000294604F11000FFF7C6FF9DF800309DF841
:1076C0000120012B09BFA37E0223AB700323022AF2
:1076D00008D1A18B5A1CE954A18BD2B20233090AFA
:1076E000DBB2A9549DF802201344DBB2991AC9B247
:1076F000B2B99DF80320022A08D1E18B5A1CE95443
:10770000E18BD2B20233090ADBB2A9549DF80420FE
:1077100008341344D8B2831ADBB22AB903B030BD9F
:10772000013AA05C6854E1E7013AA15CE954F2E750
:107730000278437802F007000870C2F3C000487076
:10774000C2F300108870C2F34010C2F380120A71B5
:1077500003F001024A71C3F340028A71C3F381024C
:10776000CA71C3F301129B09C8700A724B72704749
:1077700010B40446084611461A4614B1234610BCFC
:10778000184710BC704730B591B0FDF745FB044673
:10779000FDF70CFB6A4601462046FDF7A1FC0446B6
:1077A00020B94FF0FF34204611B030BDFDF7E0FAAC
:1077B0000028F6D014209DF81010FDF7E7FB9DF887
:1077C0001730ABB1BDF81C50FDF784FC854205D0E5
:1077D0004FF6FF73BDF81C209A42E2D169469DF82E
:1077E0001700FFF708FF18B969461B20FDF7DCFBFF
:1077F00002A91A20FDF7D8FB13209DF81210FDF7FF
:10780000C5FB9DF8153053B99DF81A100A20FDF7F5
:10781000BDFB9DF81A100E20FDF7B8FBC3E74FF62D
:10782000FF71F3E70020FDF7F1BC0120FDF7EEBC8E
:1078300010207047704700009C7A200085242000AB
:10784000BD242000316E2000B17A2000492520009F
:10785000A52520000000000001000000010000003C
:107860000100000000C0004000410D400000000089
:10787000080000002C00000000000001FFFFFFFFD7
:1078800005000000020000000200000002000000ED
:1078900000D0004008410D40020000000800000038
:1078A0002C00000002010200FFFFFFFF06000000A5
:1078B0004C7B2000507B20005F7B2000637B2000FE
:1078C000F5342000BD322000213320007F6E2000DF
:1078D000F9332000A1312000E52E2000FD2E2000EC
:1078E000DD2F2000A52E200055302000D5312000AE
:1078F00055362000C933200007000000FF000000BB
:1079000005000000ED00000003000000D5000000AD
:1079100001000000C500000000000000B6000000EB
:10792000FFFFFFFFB0000000FDFFFFFFA100000010
:10793000FBFFFFFF91000000F9FFFFFF8800000040
:10794000F7FFFFFF72000000F5FFFFFF620000007D
:10795000F3FFFFFF58000000F1FFFFFF42000000AF
:10796000E8FFFFFF000000008A7B2000E76E200098
:10797000DF6E2000E36E20009E7B2000236F20003E
:107980001B6F20001F6F2000A1712000FB722000E0
:107990001F712000327C2000837320002D4A2000BC
:1079A000AD732000AB7320001F74200015742000FD
:1079B000257820002B782000877720003D7C200050
:1079C00009552000BD5320003D532000495320009D
:1079D0005553200061532000427C2000B556200002
:1079E000C15A2000F95C200039582000C1572000FE
:1079F0008957200031782000055E20004D5E200070
:107A0000155E20004D7C200035782000C55E2000EA
:107A1000B95E2000E400002000000000E55E2000C8
:107A2000000000000000436F6E74696B692D3864BC
:107A300038633237333135005A6F6C65727469615F
:107A40002052452D4D6F7465207265766973696F9C
:107A50006E204220706C6174666F726D0052696DA9
:107A60006520636F6E6669677572656420776974F7
:107A70006820616464726573732000253032783A3F
:107A800000253032780A00204E65743A2000204DDF
:107A900041433A2000205244433A200041444320CD
:107AA00073656E736F7220696E746572666163656B
:107AB00000427574746F6E004343323533383A2098
:107AC00049443A2030782530346C782C2072657621
:107AD0002E3A20504725642E25642C20466C617375
