:020000040020DA
:10200000C0160020A1232000636D2000616D200018
:10201000616D2000616D2000616D200000000000F6
:10202000000000000000000000000000E17320003C
:10203000616D200000000000FF732000C56D2000CE
:10204000D76D2000DD6D2000E36D2000E96D2000DC
:1020500000000000CB6D2000D16D2000616D2000DC
:10206000616D200000000000000000000000000082
:102070000000000000000000616D20000000000072
:102080000000000000000000616D2000616D200074
:10209000616D2000616D2000616D2000616D200088
:1020A000616D2000616D2000616D2000616D200078
:1020B000616D2000616D2000616D2000616D200068
:1020C000616D2000616D2000616D2000616D200058
:1020D000616D200000000000000000000000000012
:1020E00000000000000000000000000000000000F0
:1020F0000000000000000000FD3820000D39200025
:1021000000000000000000000000000000000000CF
:1021100000000000000000000000000000000000BF
:1021200000000000000000000000000000000000AF
:10213000000000000000000000000000000000009F
:10214000000000000000000000000000000000008F
:10215000000000000000000000000000000000007F
:10216000000000000000000000000000000000006F
:10217000000000000000000000000000000000005F
:10218000000000000000000000000000000000004F
:10219000000000000000000000000000000000003F
:1021A000000000000000000000000000000000002F
:1021B000000000000000000000000000000000001F
:1021C000000000000000000000000000000000000F
:1021D00000000000000000000000000000000000FF
:1021E00000000000000000000000000000000000EF
:1021F00000000000000000000000000000000000DF
:1022000000000000000000000000000000000000CE
:1022100000000000000000000000000000000000BE
:1022200000000000000000000000000000000000AE
:10223000000000000000000000000000000000009E
:10224000000000000000000000000000000000008E
:10225000000000000000000000000000000000007E
:10226000000000000000000000000000000000006E
:10227000616D2000E137200005382000A12E2000EC
:10228000713A2000CD292000616D2000000000007F
:102290008329F7B5044602D1374805F083F825882D
:1022A000002D2ED06D2D58D1344804F02CFE00287E
:1022B00050D0334E012000F061F90621314802F080
:1022C000A7FE314D3268314F55F82210FB6A0620C7
:1022D0009847294802F0D2FCBB6A01A9062098471A
:1022E00001992B4801F012FC33682A4855F8231055
:1022F00001F00CFC214804F0FDFD012000F046F93E
:1023000026E0224B0E21DE6A0120B0471E4B06203C
:102310001968B047204A81211748019502F09CFCBA
:1023200002F07EFB03F0E0FF0FA3D3E9002304F0EB
:1023300045F80FA3D3E9002304F06AF90022174BF4
:1023400003F086FE04F04CFA01460C4804F0C9FD87
:102350006D232380012003B0F0BD002303202380E0
:10236000F9E700BFAFF300809A9999999999B93F1D
:1023700000000000E0FFEF401807002030070020B9
:1023800040070020F47B2000F4000020707820003B
:10239000FA7B20000A7C2000D079200000006040F9
:1023A000FF22482408B5084B08481A60084AE36928
:1023B0000849121A98470848084A0021A369121AC6
:1023C000984700F00DF8FEE7B4200D4040000020D3
:1023D00040010020A47C200040010020BF0E00200E
:1023E00073B500F041FC00F0F9FC00F057FC00F080
:1023F0005BFA01F02BFB04F091FD00F0E7FC00F02C
:10240000B3F8012004F0B0FC02F02AF900F018FC47
:10241000002000F033FB012000F030FB0020404999
:1024200000F0F8FB02F062FA62B6042004F09CFCB3
:102430003C4804F0FEFC3C4804F0FBFC00F0D2F900
:10244000002002F0FFFA01F0F1F90021374802F014
:1024500093F901F075FF04F0B3FC00F045FD00F0C6
:1024600061FD02F03DFE0821684601F015FB9DF874
:1024700006309DF807502E4C45EA0325BDF806307E
:102480002C48238001F042FB2B4E21782B4801F091
:102490003DFB61782A4801F039FBF46A4AF6CD31F8
:1024A0000220A04729460320A0471A210120A04767
:1024B00008226946736B0B209847224801F026FBDF
:1024C000214B186804F0B5FC204801F01FFB204B9D
:1024D000186804F0AEFC1F4801F018FB1E4B18688A
:1024E00004F0A7FC00211D4802F046F91C4B012115
:1024F0009B688120984704F0F3FC1A4804F0E6FC3E
:1025000000F0A4FB022004F02FFC00F0A5FB02F079
:10251000BFF810F0FF0FF8D101F02CFAF5E700BF7B
:10252000A5482000DA792000EC792000780000200E
:10253000B60E0020117A2000707820002F7A20003B
:10254000357A20003B7A200044792000427A20002E
:102550006C792000497A20008879200098000020BA
:10256000F8772000C479200008B500F0DFF80022D9
:10257000014B1A7008BD00BF3C0D0020024B1A78B9
:102580001043187000F0F6B83C0D0020034A137891
:1025900023EA0000107000F0EDB800BF3C0D0020F1
:1025A00018B1012804D000207047034B1868704709
:1025B000024B1878704700BF20900D403D0D002061
:1025C00010B5094A0020137801331370074B1978AE
:1025D00002F0AAF8BDE8104005490023054A096841
:1025E000054801F0E3BE00BF3D0D0020B80E0020FD
:1025F00078010020C12520005801002008B50346BD
:10260000812B08462BD0B3F5807F39D0802B24D185
:1026100002F01EF81C4B1D4A18701368032123F0AA
:102620000803136052F8203C002023F0080342F80E
:10263000203C52F81C3C23F0080342F81C3C52F8A2
:10264000183C43F0080342F8183C042200F0D4FB85
:10265000032200210E4800F073FB012008E00D4B1F
:102660000D491A6828B142F008021A6001230B6074
:1026700008BD22F008021A600123C1F88030F7E794
:10268000064B1960E9E700BFB80E002020940D400A
:10269000A126200010940D4000E100E07801002008
:1026A00008B50F4804F048FCC8B108210C4804F0F4
:1026B00037FC0C4B196849B100220B4B1A700B4BBD
:1026C0001B6843B90A4A0B4801F070FEBDE8084098
:1026D000094802F087B9074801F072FEF6E708BD25
:1026E00050010020780100203D0D002020900D4079
:1026F000C125200058010020F8772000084A1368FF
:1027000023F00403136052F8203C43F0040342F822
:10271000203C0022034B1A600122034B1A707047C1
:1027200020C40D4010C00D403E0D00200D4A0E4942
:10273000136823F0C003136052F8203C43F0C00339
:1027400042F8203C0022094B1A600B6823F010036A
:102750000B6051F8203C43F0100341F8203C044B3F
:102760001A60704720A40D4020C40D4000A30D4006
:1027700040C00D4010F0020218BFFF22084B1A6043
:1027800010F0040218BFFF22064B10F001001A607F
:1027900018BFFF22044B14BF1A601860704700BFB7
:1027A00000A20D4000A10D4040C00D40044B1B682D
:1027B000C3F3072013F4704F04BF1030C0B270474A
:1027C0001C300D40064B1868C00910F0060F03BFFF
:1027D00000F00700C0F1020040034FF400407047D2
:1027E00014300D402DE9F047482488B0FFF7DEFF94
:1027F000164B06461F68A36898476368804698474B
:102800000446FFF7DFFF054600F082FA814600F03C
:102810008BFA824600F038FAAD0A07F00103A40AE9
:10282000C7F34007CDE905A003934146CDF81090CA
:1028300002970195009406F00F03C6F307120448AF
:1028400001F064F908B0BDE8F08700BF1C300D400E
:10285000577A20002DE9F84300F07AF81049024633
:10286000D1E90045AC46A04238BF05F1010C6346F2
:10287000C1E900230B48D0E90089B8EB040169EBFA
:1028800005048E1844EB0C07C0E9006701F04AFE0E
:1028900018B1BDE8F84301F0C9BDBDE8F88300BF39
:1028A0004801002040010020E0210D4B0D4A5A60F4
:1028B0000D4A82F82310002207219A6019600B4903
:1028C0000B6843F001030B60094B1A60042243F8C4
:1028D0000C2C012243F8082C0F22DA62704700BF4B
:1028E00010E000E047E8010000ED00E008200D40A6
:1028F0000C000340034BD3E90023100A40EA0360B5
:10290000704700BF48010020054B186053F81C2C8D
:102910001C3B42F001021A601A68D207FCD47047CF
:102920002800034010B5064C236823F00103236000
:10293000FFF790FF236843F00103236010BD00BF41
:1029400010E000E0014B1868704700BF7C010020D8
:10295000064B18685A6808331B681B0443EA0223B5
:10296000034A0343106843EA0060704740500D403B
:102970004C500D40014608B5104A1368DB07FCD5E2
:1029800072B6FFF7E5FF0B1A062BD8BFC11D0C4B23
:102990000A0E1A60C1F3074243F8042CC1F3072260
:1029A00043F8082CCAB243F80C2C62B64FF400323C
:1029B000044B1960044B1A6108BD00BF50500D4014
:1029C0004C500D407C01002000E100E008B500F013
:1029D000B9FF0022064B1A604FF40032054BC3F8D2
:1029E0009021C3F89020BDE8084001F0FBBE00BF75
:1029F0007C01002000E100E0064B1B681B075FBF65
:102A0000054B186880F00800C0F3C00048BF0020E4
:102A1000704700BF18C0004018D000402C23154A52
:102A200070B503FB00234FF6BF72DC680546236CCC
:102A3000626413F050020DD00F4EA369DB0600D57F
:102A400070BD56F825301BB12068C0B29847F4E736
:102A50002368F2E713F4D06FF2D04FF4407323638E
:102A6000FF236360E36AE262E362236B43F00103E6
:102A70002363E5E708782000800100202DE9F04F6E
:102A80000128064685B000F2B4802C2545435A4FF4
:102A90007C1994F92090B9F1000FC0F2AA8094F942
:102AA00022B0BBF1000FC0F2A4804FF000085348E1
:102AB00000F0BAFF524978590A6894F921A00243FC
:102AC0000A604A686068E56802434A608A68A068EC
:102AD00094F9233002438A6022690AEBC901C5F8E0
:102AE000C88F116094F823105FFA8BF0227D019358
:102AF000CDE9020100F08AF9DDE90201082200F0C7
:102B00007BF901233F494FEA0B32019852F801C08B
:102B100003FA00FB4BEA0C0050504FEA093959F810
:102B2000012003FA0AFA4AEA020249F80120502277
:102B3000AA63AA6B94F9240042F4D062AA63022229
:102B40006A634FF440722A63A26940456A62E2698F
:102B5000AA624FF07002EA620D4614DB94F9251068
:102B6000294A41EAC0041460020354598B402343AC
:102B70005351C9B24246C0B200F03EF9234A13682D
:102B800043F4004313602C2303FB067393F92640A0
:102B9000002C1BDB93F827905FFA84F8012249464A
:102BA000404693F927A000F031F90123240362592C
:102BB00003FA0AF31343635108224946404600F0E2
:102BC0001BF9124A136843F4804313602C2000FB66
:102BD0000676F268136B43F001031363012296F843
:102BE0002830590903F01F0302FA03F3084A42F898
:102BF000213005B0BDE8F08F08782000F9292000C9
:102C000028200D4020940D4004410D4030D000405C
:102C100000E100E001289CBF014B43F82010704701
:102C200080010020012808D82C22044B02FB003030
:102C3000C3689A699206FCD419607047087820002E
:102C40000022014B1A60704700500D400822014BD2
:102C50001A60704700500D40A022024B1A605022AB
:102C60001A60704700500D40014A024B9A6070474D
:102C70000020200000ED00E0024B1868C0F38150F6
:102C8000704700BF04200D4008B5FFF7F5FF024B69
:102C900053F8200008BD00BF6078200038B5164DFD
:102CA000164C2B68012223F040032B602368062179
:102CB00023F040030320236000F09EF82B680122DC
:102CC00023F080032B602368072123F08003236017
:102CD000032000F091F80A4B0A4A0B491A600B4A8C
:102CE000134610680842FCD11A685101FCD41A68D6
:102CF0005201FCD538BD00BF20C40D4000C40D40BA
:102D000000200D40010102000000010104200D40DF
:102D1000034B04481B6803F007031841704700BFCA
:102D200004200D400048E801034B04481B68C3F32E
:102D300002231841704700BF04200D400048E801FD
:102D4000024B02EBC10243F82200704788010020C9
:102D5000F8B507460D460024084E06EB411647FA23
:102D600004F3DB07E1B204D556F824300BB1284652
:102D700098470134082CF2D1F8BD00BF880100202B
:102D80002DE9F8430546DFF8408000F0DBFD0C4BF1
:102D90002E03F75856F808404FEAC50924FA09F4FB
:102DA00047EA04002946C0B2FFF7D2FFE4B2054B60
:102DB000FFB204FA09F4F75046F80840BDE8F8837A
:102DC00018940D401C940D4018970D40802200214E
:102DD000014803F047BF00BF88010020034B044AAD
:102DE0001A60044B803A1A60704700BF0802002046
:102DF00080400D400C020020034B01EBC0011B681A
:102E000043F82120704700BF08020020034B01EB6C
:102E1000C0011B6843F82120704700BF0C0200204E
:102E20000E2870B506460BD1134B1C6844F0020007
:102E300018601248056825F03F0343F00103036062
:102E40000F48036823F0FF031A43114331430D4A2F
:102E5000016013681B06FCD50B4B0C4A1B681068FD
:102E600003F0FC0343EA00230E2E18B201BF034B0C
:102E70001D60014B1C6070BD34000144F4860840A5
:102E800008700D4000700D400C700D4010700D402A
:102E9000024B1868B0FA80F04009704700B708404C
:102EA0004FF40042064B10B5064CC3F89021C3F80E
:102EB0009020206818B101F077FC0023236010BD3A
:102EC00000E100E010020020064A136843F002030C
:102ED0001360536843F002035360936843F00203A6
:102EE0009360704748200D4007B50C4800F09CFDEA
:102EF000FFF7EAFF0A4B1A6842F002021A6000224A
:102F00000192019A0F2A06DD1A6822F002021A6065
:102F100003B05DF804FB019A0132F1E7912E200025
:102F200054200D40064A136823F0020313605368CF
:102F300023F002035360936823F002039360704709
:102F400048200D400B4B1A689207FCD41B685B06A7
:102F50005FBFED22084B1A601A60084B1B6813B163
:102F6000EF22054B1A60064A0120137803F07F0315
:102F7000137070474C860840388808402C860840FB
:102F8000410D0020044B186800F02200A0F120033E
:102F900058425841704700BF4C860840024B1868A1
:102FA00000F04000704700BF4C860840204B18706E
:102FB000002832D01F4A13681B03FCD51E4B1A6829
:102FC00042F002021A601A6842F001021A601A689E
:102FD0005007FCD51A6822F001021A601A685107DE
:102FE000FCD41A6842F002021A601A6842F0010228
:102FF0001A601A685207FCD5104A136823F00403BC
:103000001360D2F8A83123F00403C2F8A8314FF4BA
:1030100000520B4BC3F890207047084A136843F0E6
:10302000040313604FF40052054B1A61704700BF50
:10303000400D002004200D40048808408C86084084
:1030400000E100E0084B93F90020002A09DBED21A4
:10305000064A11601160E32111601A7862F07F0264
:103060001A700120704700BF410D002038880840C9
:10307000A0F10B01CBB20F2B10B5044613D80B4BAC
:103080001B6813F03F0302D0FFF75CFF0123084ADF
:1030900001EB81010B3111600BB1FFF7D3FF054B41
:1030A00060B21C7010BD4FF0FF30FBE7488608404F
:1030B0003C8608403E01002010B50C46002900F077
:1030C0008680102800F28580DFE800F009101B22BE
:1030D000243B44575C727683837B7D547F003E4B58
:1030E0001B68003B18BF0123236024E005223B4BF3
:1030F0001B6803F07F030B3B93FBF2F30B33DBB254
:10310000F2E7374B1A68043B1B6843EA0223EBE7FC
:10311000344BF7E700230B60334B344A1B6803F052
:1031200001030B601268900644BF43F002030B607A
:103130002F4B1B780BB900200BE00B6843F0040306
:10314000D2E700202B4B08601B78002BF3D0012323
:103150000B6010BD284B29491A680023D2B201EB3D
:10316000C3000079904202D851F83330BCE70133F4
:103170000E2BF4D16FF01703B6E7214B1B685BB23F
:10318000493BB1E71F4B1B6899060FD1FFF75AFF68
:1031900001231D490A68D207FCD51C4A1168493928
:1031A00049B20BB1FFF7CEFE2160C4E70023F0E780
:1031B000174B93F9003097E7164B1B7803F07F030A
:1031C00092E70B2390E71A238EE707238CE7022070
:1031D000BFE70120BDE700BF2C8608403C860840C1
:1031E000CC850840D48508400086084024860840E5
:1031F000400D00203F01002040860840A8782000B4
:103200005886084048860840648608406086084022
:10321000420D00203F0D002008B50B4B1B6899069E
:103220000FD1FFF70FFF012308490A68D207FCD529
:10323000074A1168C1F300110BB1FFF783FE08467E
:1032400008BD0023F0E700BF4886084064860840B8
:103250004C86084008B507285FD8DFE800F0040F67
:103260001A2124404659012903D1FFF7EBFE002023
:103270003AE0002953D1FFF765FEF8E7A1F10B030F
:103280000F2B4CD8C8B2FFF7F3FE0130EFD103206B
:103290002AE0244BCAB2C1F307211A605960E6E75D
:1032A000214BCAB2F7E731F0070338D11F4B11F0B9
:1032B000010F1A68C1F3800014BF42F0010222F02E
:1032C00001021A601A4B11F0020F1A6814BF42F083
:1032D000200222F020021A60FFF768FEC7E731F0F3
:1032E00001001CD1134B197008BD01F118031F2BED
:1032F00015D80D23104A52F83300814205DC02EB49
:10330000C3031A790D4B1A60B1E7013BF3D2AEE764
:103310000B4BC9B249311960A9E70120E4E702204B
:10332000E2E700BFC8850840D08508400086084015
:10333000248608403F010020A878200040860840ED
:103340005886084038B505460C46134A13689B0753
:10335000FCD4124B93F90030002B01DBFFF772FE17
:10336000EE220F4B691E1A601A60A21C43F8102C43
:103370002144022000F074FA0A49013C41EA041198
:10338000022000F07FFA022000F086FA022000F00E
:103390009BFA002038BD00BF4C860840410D00203C
:1033A0003888084002C001C0F8B5224B93F90030BC
:1033B000002B18DBFFF7CCFA0446FFF743FEC4F1FD
:1033C000FF2404F57F04F634FFF7C2FAC442FBD4AD
:1033D0000126194B1B7843B9184C2368990609D567
:1033E00002210846F8BD0026F3E7FFF715FF002885
:1033F000F2D1F5E7E9230427114D2B6023689A07E2
:1034000003D4013F17F0FF070BD123689B070CD4AF
:10341000EE2301212B602B60002EE2D0FFF792FDFE
:10342000DFE70620FFF770FAE8E7216811F00201F4
:10343000FBD1F1E7410D00203F0100204C86084000
:10344000388808400B280DD1082A0DD161B1074BEF
:10345000074A083111F8010D43F8040B9342F9D1E2
:10346000002070470120704702207047A88508405F
:10347000C885084070B52F4E0246306810F04000F5
:1034800008D02D4D2868040605D5ED2200202B4BD1
:103490001A601A6070BDC0B20428F6D9023888429A
:1034A000F3DCC4B2032C1ED12B6813702B6853704D
:1034B0002B6893702968224B493949B219702B68DF
:1034C000204D18062B70E0D589B2042001F0DEFDF6
:1034D0002978032001F07F0101F0D8FD1A4B1B78F9
:1034E000CBB12046D6E711190320013900F0C0F90D
:1034F000164B611E032043EA011100F0C3F90320BB
:1035000000F0CAF9032000F0DFF9032000F0E8F929
:103510000028FAD1CEE733685A06E2D533681B0695
:1035200003D50B4801F040F9DBE7ED22034B1A60AD
:103530001A60D6E74C86084028880840388808403A
:10354000420D00203F0D0020400D002002C0010C64
:1035500050000020F8B52A4F3D7815F001054CD1F8
:103560000124F822274B7F261C605C609C60A3F539
:103570009323A3F514731A600922C3F8902115222E
:103580001A670B22703303F59B23C3F83C214022BA
:1035900003F59E73A3F59B23A3F5F0731A601A68D5
:1035A00042F020021A60D52243F81C5CDE62DA6128
:1035B000154B1878FFF75CFD4FF48042134B022047
:1035C0001E60134B1A6100F073F91249022000F0DB
:1035D0004FF9032000F06CF90E49032000F040F988
:1035E0000D4B1878FFF7E2FC0C48294601F0C4F8AF
:1035F00020463B7823433B70F8BD0020FCE700BF2A
:10360000410D0020A8200D403E0100209486084076
:1036100000E100E028880840400D00205000002014
:1036200038B50388044653B340F20342934233D182
:103630001B4B18781A4638BB822923D1137873B9EB
:1036400001F0D6FC01F062FC8021FFF713FF002897
:1036500005DD80B201F01AFC124B1B699847124B32
:103660001A7852060BD500221A70104B1D68FFF70E
:1036700069FCFFF76FFFAB0601D0FFF7E3FC40F2F8
:103680000343238001200AE01B78002BFAD0064B6D
:103690001B785806F6D5CFE700230380032038BDFA
:1036A000400D002088792000410D00204886084008
:1036B0000B282DE9F0470C460FD1082A79D10029B3
:1036C00077D03D4B3D4A4C1E53F80419934204F801
:1036D000011FF9D10020BDE8F0870C2867D1042A2A
:1036E00067D1002965D0364B36491A68DFF8E48087
:1036F00022F007021A600A68334F42F008020A609B
:10370000D8F800003A681D68DFF8CCE0DFF8CCC0DC
:1037100025F070051D60DEF80050DCF80060C0B2D6
:10372000120240EA066092B202434FEA0549274876
:1037300009F47F09D0F800A042EA09061A685FFA86
:103740008AF522F0070242F001021A600A6842F08C
:1037500008020A60D8F800203F68196821F070015B
:1037600041F010011960DEF80010DCF800C0D3B29F
:103770003A0243EA0C6392B213430A04016802F46A
:103780007F0243EA02085FFA81F9FFF7E1F8B6EB3E
:10379000080165EB0905ED0307460023C8030C4A41
:1037A00045EA514103F03CF83F1A276092E70120B7
:1037B00091E702208FE700BFC4850840A485084038
:1037C0001088084004880840188808401C88084071
:1037D0000048E801148808402488084020880840F0
:1037E00008B5054B1B7813B9044800F0DDFF002233
:1037F000034B1A6008BD00BF400D002050000020A0
:1038000034880840064B07481A68042A1FBF064937
:103810000A7842F040020A7000221A6000F0C4BF29
:103820002C88084050000020410D002008B5094BAD
:1038300040220021184603F015FA0121064A074BE1
:10384000116050604FF480425A604FF400425A6059
:1038500008BD00BF0000002004F00F4000E100E0C0
:1038600003289EBF014B0001195070470000002043
:1038700003289EBF024B03EB00104160704700BF5E
:103880000000002003289EBF024B03EB0010816064
:10389000704700BF00000020032806D80123034A18
:1038A00003FA00F0116808431060704728F00F40D9
:1038B000032806D80123034A03FA00F011680843DD
:1038C0001060704720F00F40032806D80123034AF8
:1038D00003FA00F0116808431060704714F00F40BD
:1038E00003289FBF044B03EB0010806800F0070023
:1038F00088BF0020704700BF000000204FF0FF325B
:10390000014B1A60704700BF04F50F400122014BC4
:103910001A6070474CF00F40084B19461A68D002E5
:10392000FCD4074B1A6822F480321A600A68D2036A
:10393000FCD41A6842F400321A60704704200D402B
:1039400000200D4010B5094C226890070DD0084B9F
:103950001A4619684901FCD413685B01FCD5FEF7CF
:10396000E1FFFFF7D9FF0023236010BD58200D4071
:1039700004200D4038B5264B1C6814F03F0414D1C8
:10398000244D55F8043B23B1984770B10134052C00
:10399000F7D1214D2B7843B1FEF7D4FF0446FEF753
:1039A000D7FF201A092800D90CB930BF27E01B4BDC
:1039B0001A6822F400321A60194A11461068C002CF
:1039C000FCD41A6842F480321A600B68DB03FCD521
:1039D000FEF7BEFF241A092C03D8BDE83840FFF7D4
:1039E0009BBF632C0F4C0BD92B78022B08D1236083
:1039F00000F090FE30B1FFF78FFF0023236038BD49
:103A00000123F4E7FEF79EFF0028F4D0CDE700BFC6
:103A10004886084014020020430D002000200D407D
:103A200004200D4058200D40074A10B500231446CD
:103A300052F8041B814202D011B944F8230010BD92
:103A40000133052BF4D1FAE7140200200022054BC4
:103A500005491A600B6943F004030B61034B1A70AC
:103A6000704700BF58200D4000ED00E0430D0020DE
:103A70004FF48032064B10B5064CC3F89021C3F8C2
:103A80009020206818B100F08FFE0023236010BD45
:103A900000E100E02802002070B5184B1A78431EA0
:103AA00052B101F52011164A273191421AD011F86E
:103AB000010903F8010FF8E7124A1278122AF0D12F
:103AC000114A12784B2AECD14C0804F520120C4D07
:103AD0002732AA4207D1002301F5201120442731C3
:103AE000A34205DB70BD12F8016903F8016FF0E72E
:103AF000CA1A1278013300F8012BF1E72B002800D5
:103B0000270028002A002800290028000FB407B544
:103B100004AA52F8041B0448019200F021F803B0F3
:103B20005DF804EB04B070476000002070B50546F6
:103B30000C460A4E102C07D874B122462B686868D0
:103B40000649BDE870401847102231462B68686866
:103B5000984710B9103CEDE7204670BD777B2000F8
:103B60002DE9F04F0746154600268FB00791079BB9
:103B70001B78002B00F09C83079B1A781C460133AE
:103B8000002A00F08583252AF7D1079B9C4205D0A7
:103B900081E323784644002B00F08A836278631C1B
:103BA000002A00F085830024184610F8012B1946DE
:103BB0002B2A17D00BD8202A17D0232A18D0A2F1ED
:103BC000310CBCF1080F3FD84FF0000A18E02D2A45
:103BD00004D0302AF3D144F0100401E044F0010491
:103BE0000346E1E744F00604FAE744F00204F7E78D
:103BF00044F00804F4E70A2101FB0A2AAAF1300A7A
:103C0000194613F8012BA2F130000928F3D90B78DB
:103C10002E2B37D14A784B1CA2F13000092829D825
:103C20004FF000081A781946A2F13000092803F174
:103C3000010319D90B786C2B6FD14B786C2B24D1E5
:103C400044F08004023123E02A2A0AD1D5F800A0EA
:103C50000146BAF1000F05F10405B8BF44F00104B4
:103C6000D5E74FF0000AD2E70A2101FB0828A8F1A6
:103C70003008D7E72A2A04D1D5F80080023104356C
:103C8000D8E719464FF0FF38D4E7013144F060041B
:103C90000B78782B0CD8572B4BD8472B08D8402BB8
:103CA00000F29080002B00F00383252B00F0D380DE
:103CB0004B1C079304F4E063B3F5A06F00F0C982D6
:103CC00000F2CC80B3F5407F00F07282B3F5806FD4
:103CD00000F03682B3F5807F7FF449AFB8F1000F72
:103CE000ACBF24F010044FF0010814F4005204F0AB
:103CF000E003069200F0EA80402B00F0E08000F242
:103D0000C280002B00F0DE80202B00F0C780002254
:103D10000023CDE900230023CFE0682BB8D14B78F6
:103D2000682B02D144F020048CE7013144F04004B8
:103D3000AEE7583B202BBBD801A252F823F000BFBE
:103D4000093E2000B13C2000B13C2000B13C2000E5
:103D5000B13C2000B13C2000B13C2000B13C20002F
:103D6000B13C2000333E2000B13C20003F3E20000B
:103D7000F13D20001B3E20000F3E2000273E20008A
:103D8000B13C2000F13D2000B13C2000B13C2000BE
:103D9000B13C2000B13C2000513E2000FD3D200000
:103DA0004B3E2000B13C2000B13C2000453E2000AD
:103DB000B13C2000F73D2000B13C2000B13C200088
:103DC000033E2000413B062B3FF672AF01A252F8A2
:103DD00023F000BF393E2000B13C2000B13C200060
:103DE000B13C2000213E2000153E20002D3E200049
:103DF00044F424545CE744F4106459E744F48854D0
:103E000056E744F4C85453E744F4B24450E744F44A
:103E100000744DE744F484444AE744F4024447E71D
:103E200044F4424444E744F4813441E744F4A13487
:103E30003EE744F4C1343BE744F4E13438E744F46A
:103E4000A06435E744F4806432E744F440742FE71B
:103E500044F4E0642CE744F4C06429E7B3F5C06F90
:103E600007D0B3F5E06F7FF482AE2B6804351E6097
:103E70007DE601223B68A94978689847002840F010
:103E80001582013673E6602B1CD0802B7FF43FAF88
:103E9000073525F00705F5E8022303E095F9002032
:103EA000D3170435002A73F10001BFF632AF524236
:103EB00063EB4303CDE900230123039317E0B5F936
:103EC0000020EDE72A680435D317EBE7402B00F01C
:103ED000B08000F29A80002B00F0AD80202B00F023
:103EE000A180069B002203930023CDE9002304F464
:103EF000C053B3F5805F00F0D580B3F5C05F00F02C
:103F0000D680B3F5006F00F0B78000230DF1360BBB
:103F10000493049B41F20802984588BFA8EB03086C
:103F200041F6080304EA030198BF4FF000089142EC
:103F30001A4604D1B8F1010F38BF4FF00108049BB5
:103F4000914203EB080040F0CC80DDE900231343ED
:103F500000F0C780724914F4804F724B4FF0020991
:103F600018BF0B46069A72B1039A002A40F0BD8032
:103F700004F00602022A00F0BC80062A6A4A04BF46
:103F80004FF00109134609EB0002924594BF4FF030
:103F9000000AAAEB020A14F00102009204D1E10621
:103FA00040F1AB80D0449246B9F1000F07D04A46A9
:103FB00019463C687868A047002840F0778144465D
:103FC000049B1E44102C5949D7E9003000F29F8011
:103FD0002CB1224655499847002840F06781594640
:103FE0003B68049A78684E449847002840F05E8108
:103FF000009B4644002B00F0D48051463846FFF722
:1040000095FD002800F0CD8050E1602B13D0802B6F
:104010007FF467AF073525F00705F5E80223CDE902
:10402000002304E02A780023CDE900230435069B11
:1040300043E72A88F7E72B68002219460435CDE9C3
:104040000012F4E7DDE904010A22002302F0E8FB94
:10405000DDE9040130320BF8012D00230A2202F0C1
:10406000DFFBCDE90401DDE904231343EAD10DF1BF
:104070003603A3EB0B034BE7DDE900230DF1360B11
:10408000CDE90423EFE702F0070130310BF8011D01
:10409000D10841EA4371D8080A46034652EA0301AF
:1040A000F1D1E4E70DF1360BDDE90023F6E7204B13
:1040B00014F4804F0DF1360B1E4908BF1946DDE997
:1040C000002352EA0300D2D002F00F00085C4FEA4E
:1040D000131C0BF8010D100940EA037002466346F9
:1040E000EFE74FF000094B463CE74FF00109124B58
:1040F00049E74FF00109114B45E751463846039314
:10410000FFF714FD039B00283FF44EAFCEE01022D2
:104110009847002840F0CA80103C53E7757B200088
:10412000647B2000677B20006C7B2000877B200065
:10413000537B2000427B20006A7B2000477A2000CE
:10414000D5F800900435B9F1000F2CD04B469B46B2
:104150009BF800200133002AF9D1ABEB090BB8F131
:10416000000F02DBC34528BFC346DA4594BF4FF0BA
:10417000000AAAEB0B0A14F0010406D15146384696
:10418000FFF7D4FC002840F091805A4649463B682E
:1041900078689847002840F089805E44002C7FF4BE
:1041A0002CAF5644E3E44FF0060BDFF81491D6E74A
:1041B000414B424A14F4804F08BF9C460DF1330333
:1041C00018BF944600211A462868043550EA010EAB
:1041D00030D1D21A08BF30224FF0780104BF03F863
:1041E000012C03F1FF3303F8011C4FF0300108BF2D
:1041F000012203F8021C232102F10309CA4594BFDE
:104200004FF0000AAAEB090A14F00104A3F1030815
:1042100003F8031C05D151463846FFF787FC0028F8
:1042200044D14A4641463B687868984700283DD1CA
:104230004E44B3E700F00F0E1CF80EE04FEA1118E1
:1042400003F801ED4FEA101E4EEA017E704641462A
:10425000BCE7BAF1010F38BF4FF0010A2B6814F028
:10426000010405F104058DF820300AF1FF3805D16D
:1042700041463846FFF75AFCC0B9464401223B6824
:10428000786808A9984788B9002C8AD04146B5E6D5
:10429000079B9C420CD0079B0799A4EB030842465E
:1042A0003B687868984700283FF473AC4FF0FF36BE
:1042B00030460FB0BDE8F08F537B2000427B2000DA
:1042C0006E7B2000F8B5038805461646CBB14A2B15
:1042D0002BD188291FD1174802F03FFE0446C4B1F4
:1042E000231D9E421FD12146124802F040FE124E6D
:1042F000626937683260A2690AB1E0699047376045
:1043000007E00C4802F029FE044634B901220B4BA9
:104310001A704A232B8001200AE0A168201D02F0B8
:10432000E0FD2468F1E72468D9E700230380032037
:10433000F8BD00BF2C020020B8030020440D00206F
:1043400010B50024054B06481C7002F003FE214600
:10435000BDE81040034800F00FBA00BF440D002034
:104360002C0200206800002070B50446E3610B4B6E
:10437000049D1B78C4E905526BB1094D094B2E68A9
:10438000201D2B6002F0ADFD2E602146BDE870407F
:10439000054802F0FFBDA160F7E700BF440D002013
:1043A000B8030020680000202C02002013B5034C45
:1043B00024680094FFF7D8FF02B010BDB8030020B6
:1043C00010B5084B04461B7843B1043000F0B2F836
:1043D0002146BDE81040044802F0C9BDC0E90333DE
:1043E000F6E700BF440D00202C02002010B50D4C54
:1043F000236813B90C4A136010BDFEF77BFA2268DC
:10440000D2E900310B441B1A92681AB91844064BC2
:104410001860F1E7D2E900142144091A8B4228BF41
:104420000B46F1E73402002030020020014800F082
:10443000BBB900BF780000202DE9F843038805468A
:1044400053B1592B48D1872921D1002024490B6829
:1044500063B918B10B6001E0214A136059230120B0
:104460002B80BDE8F88301203346F1E7D3E90264ED
:104470009442F8D000B10B6019460B4689680029B8
:10448000ECD0C8689042F8D189689960F4E7822935
:10449000E4D1134F4FF00009B84600263C68002CC9
:1044A000DCD0204602F048FD98B122468821E06821
:1044B00000F03AF958B9A368E0602EB1B360C4F8CF
:1044C0000890FFF793FFE8E7C8F80030F7E7FFF739
:1044D000ADFF2646A468E2E7002303800320C0E77F
:1044E0003402002010B50446FFF7A0FFE3680B4A32
:1044F0000BB1136833B90A4B1B68E360136814608F
:10450000A36004E0A34206D1054A1268DA60BDE860
:104510001040FFF76BBF9B68ECE700BF3402002040
:10452000B8030020024B1868003818BF01207047FC
:104530003402002010B50B4A04461368834208D1A8
:1045400083681360FFF752FF0023C4E9023310BDF4
:104550001346002BF8D09A68A242F9D1A2689A605B
:10456000F0E700BF3402002038B5836804460D46EA
:104570009BB10A4804600220A07304F10C00984724
:104580000238012801D9832D05D121462046BDE8F6
:10459000384000F005B80123A37338BDB8030020EC
:1045A0002DE9F8431C4F04463D6888462B46A3423C
:1045B00004D00BB9BDE8F8831B68F8E7002CF9D0EC
:1045C000164EA37BD6F8009063B10023A3738DB978
:1045D000A3683BB1444505D02A468321346004F1E9
:1045E0000C0098473B68A3420ED123683B60C6F895
:1045F0000090DFE7A54204D022468721284602F03A
:1046000087FC2D68E3E71346002BF0D01A68A2421E
:10461000F9D122681A60EAE7BC030020B803002041
:10462000002238B50125084B1A70084B1C6804B9E4
:1046300038BDE37B2BB1002282212046E581FFF7C4
:1046400093FF2468F3E700BF480D0020BC0300205F
:10465000024B1878421C1A70704700BF460D0020AC
:104660008A22064B1A700023054A1370054A1370FC
:10467000054A1360054A1360704700BF460D0020CD
:10468000450D0020470D0020BC030020B80300208A
:104690002DE9F0411A4D2B780BB1FFF7C1FF194CF2
:1046A000267896B10C221849184F0B78013E5A43D0
:1046B0000133B81803F01F03BF5C0B702670D0E9FC
:1046C000018090B9124B1E6826B92B7820781844C7
:1046D000BDE8F0812B780BB1FFF7A2FF30464246D0
:1046E000394602F015FC3668EEE7812F08BF01233A
:1046F0004246394608BF837302F00AFCE5E700BF73
:10470000480D0020470D0020450D002038020020F4
:10471000BC030020024A034B10781B7818447047F2
:10472000470D0020480D0020F0B50B4E3378202BAC
:104730000FD00C25094C0A4F24781C4404F01F04A8
:104740006C433D19C5E90120002001333955337010
:10475000F0BD0120FCE700BF470D0020450D002003
:104760003802002038B5034C256802F0D1FB2560E3
:1047700038BD00BFB803002010B40A4C0A462168B7
:104780000B4683420CD04BB950B10160012120602F
:10479000817310BC81218381FFF7E4BF1B68F0E7C0
:1047A00010BC7047BC03002038B1837B013B012B58
:1047B0009FBF0123014AC37313707047480D002047
:1047C0000246084610B5064953600C68029B10600B
:1047D00093600A600CB9FEF7CDF8002010BD00BF51
:1047E000C003002010B5084C206858B10023236096
:1047F000D0E901319847236823B1BDE8104018681B
:10480000FEF7B8B810BD00BFC003002070B5058822
:104810000446672D09D0792D2FD0002D33D1FFF715
:1048200017FF1B4B18701B4B1D601B4E194D08E0EA
:104830000A282B680ED07E2B03DC5A1C2A60174AEC
:10484000D054304602F026FC431CF1D1672323806C
:1048500001201BE05A1C2A600025104A2846D55426
:104860000B4B1978FFF760FF0D4B2A46852118681E
:10487000FFF75AFF18B97923E9E78529E8D1002223
:10488000044B1A60D1E700230380032070BD00BFF2
:10489000BD0E0020C4030020C8030020490D0020E5
:1048A000B80300200D28014610B516D00C4C237813
:1048B00053B90C4802F0DBFB08B9012323700A4806
:1048C000FFF772FF012010BD0A28F8D1054802F059
:1048D000CEFB0028F3D00023F0E70020F3E700BF71
:1048E000C90D0020C80300208800002008B5054934
:1048F0000548802202F0B4FBBDE8084000210348CF
:10490000FFF73ABFCA0D0020C8030020880000202E
:104910002DE9F04104880546772C20D07E2C3DD02F
:10492000002C4ED1FFF794FE284E294B294FDFF87B
:10493000B08018703460336857F823202AB9264AAB
:10494000137077232B8001203EE008F80340936822
:10495000002180209847336801333360EBE7002360
:104960001E4A1360194A1360184B1B4A1B681278C1
:104970009A4204DC194B1B68002BF0D1E1E7184A7E
:10498000D256002A19DA134A002052F82320104B7D
:104990001978FFF7C9FE28B97E23D3E70C4B1B78A3
:1049A0008B42D0D1094B0E491A688B5C03F07F0310
:1049B0008B540A4A136801331360044A13680133A5
:1049C000D1E7002303800320BDE8F081D403002059
:1049D000BE0E0020400000204A0E0020D003002020
:1049E000B90E002010B40A4B0A4A197800238B42F2
:1049F00003DA52F8044BA04208D107490748CA5CC1
:104A000062F07F02CA5410BCFFF7CEBE0133EEE75E
:104A10004A0E002040000020B90E0020980000201F
:104A2000064A136843F004031360054B1868043307
:104A30001B6840EA032080B2704700BF00700D4041
:104A400014700D4010B5174A136823F00C0313605F
:104A50000122154B1A601A68012AFCD10822134B57
:104A600013491A60E32203F505731A601A460B68AE
:104A7000DB07FCD50F4C102100232068013900F022
:104A8000010043EA00034FEA43039BB2F5D1002B38
:104A9000F1D00949180A03F0FE0308600B60EF2308
:104AA000136010BD00700D40A8200D402486084002
:104AB000648608409C86084014700D400378407856
:104AC00040EA0320054B00FA01F1985CC2F10802AC
:104AD00000EA21201041C0B2704700BFC87B20000F
:104AE000F8B506460A480D46174602F036FA04465F
:104AF00030B93A4629463046BDE8F84002F06BBC72
:104B0000A3680BB128469847204602F05EFAEEE70C
:104B1000D803002038B500F013F90546094802F023
:104B20001CFA044628B95DB12846BDE8384002F0B9
:104B30004DBC636803B19847204602F046FAF0E79F
:104B400038BD00BFD803002010B5044600F006F9B8
:104B500038B100F0B7F9034B034821469B689847EA
:104B6000012010BDB4792000E14A200070B50B4C43
:104B70000023616E0A4A04F13800FFF717FCFFF7C3
:104B80004FFF656E0023B0FBF5F1064A01FB1501EE
:104B900004F11800BDE87040FFF708BCDC030020FA
:104BA000A94B2000C14B2000044B5A6E196E5200D5
:104BB000914294BF59665A66FFF7D8BFDC030020C4
:104BC00010B500F015FA00F0A1F9002303800446A7
:104BD00000F06EF82288930008B1017B51B90233CE
:104BE00098B200F053F9238873B1BDE8104007482C
:104BF00000F044B8818823445980C18801329980EB
:104C0000228002F0E2F9E5E710BD00BFDC030020DE
:104C10009DF80030012B04D1024B9A6D5A66FFF7C4
:104C2000A5BF7047DC030020F8B50F4616461D46A9
:104C3000064C0146064A204600F00EF8C4E91676F6
:104C400025660448BDE8F84000F02CB8DC030020DD
:104C500050792000114C200070B505460C461646D0
:104C6000044A00F091F820466E610349BDE87040A7
:104C700002F09ABB58792000D67B200010B504467C
:104C800004491A2000F010FA2046BDE8104002F056
:104C90009BBB00BFB60E0020014802F05BB900BF0D
:104CA00048040020014B1860704700BF4C040020EE
:104CB000014802F052B900BF480400202DE9F0413C
:104CC00005460C480C46164602F047F908B9BDE8FF
:104CD000F0818388A34209D18768002FF7D033463B
:104CE00022462946BC46BDE8F041604702F06DF916
:104CF000ECE700BF48040020014802F02BB900BFD8
:104D00005004002081800146014802F043B900BFF1
:104D1000500400200146014802F029B95004002047
:104D200010B50446054802F018F900B910BD838893
:104D3000A342FBD002F049F9F7E700BF500400207E
:104D4000054B10B51B689847044618B181880120AF
:104D500000F09CF9204610BD3879200038B5064B8C
:104D600005465B6898470446A988012000F08EF943
:104D7000201E18BF012038BD38792000014B9B68E8
:104D8000184700BF3879200070B505460C46164616
:104D9000FFF7B8FF20462E610249BDE8704002F0DF
:104DA00003BB00BFDA7B200008B5044802F010F90D
:104DB000BDE80840024802F00BB900BFB400002073
:104DC000A800002038B50E4802F012F9054650B18F
:104DD0000C4802F00DF90446286030B9294608480D
:104DE00002F01AF92546284638BD00F097F804F17C
:104DF000B601A4F8800004F1820000F01FF9F2E788
:104E0000A8000020B400002010B501460446074861
:104E100002F018F948B12168054802F0FDF8214672
:104E2000BDE81040014802F0F7B810BDA80000200E
:104E3000B400002010B501460446094802F002F90A
:104E400068B12468B4F88010204600F0E1F804F15D
:104E5000B60104F18200BDE8104000F003B910BDB6
:104E6000A800002010B507490B88834208DB064CD8
:104E700080B222880244181A08800120228010BDC6
:104E80000020FCE7340D0020360D0020014B188077
:104E9000704700BF340D00200048704774040020A4
:104EA000014B1888704700BF340D0020034A044BA3
:104EB00010781B781844C0B2704700BF5B0E00200A
:104EC000360D00202DE9F0410C4F3A8872B10024D4
:104ED0000B4B0C4EB3F800800B4B1D78354421B2C0
:104EE000414504F1010403DB00233B80BDE8F08170
:104EF000FFF7DCFF3044435C6B54F0E7360D0020D5
:104F0000340D0020740400205B0E002008B5FFF76C
:104F1000CDFF014B184408BD74040020F8B50C4BBC
:104F200004461E780B4B1F88F519802D0DDC324688
:104F3000094901F021FEFFF7E9FF344401463A46F2
:104F4000204601F019FE2846F8BD0025FBE700BF0A
:104F50005B0E0020340D00207404002008B5FFF71C
:104F6000A5FF024B1B88184480B208BD340D0020F9
:104F700010B50146FFF7F2FF4318802B12DC431EE9
:104F8000094A1BB21A44481C002B05DA074B187853
:104F900001440120197010BD12F80149013B14545D
:104FA0001BB2F1E70020F6E7740400205B0E00203E
:104FB00038B50C4D0C4C342200210C4801F052FE47
:104FC0002946204602F041FA2946A01C02F03DFA8B
:104FD0002946201D02F039FA2946A01DBDE83840B7
:104FE00002F033BAD87920007A0E0020820E002019
:104FF0000023044A1380044A1380044A1370FFF705
:10500000D7BF00BF360D0020340D00205B0E0020FE
:1050100038B50C460546FFF7EBFF802C28BF8024EF
:1050200029462246034801F0A7FD034B20461C8079
:1050300038BD00BF74040020340D002010B5074BAC
:1050400003F1340253F8044B934240F8044BF9D176
:10505000034A13680B6053684B6010BD820E00203A
:105060007A0E002010B5074B00F1340250F8044BC3
:10507000904243F8044BF9D10B68034A13604B6824
:10508000536010BD820E00207A0E0020024B23F8E0
:1050900010100120704700BF820E0020014B33F832
:1050A00010007047820E002008B5044B1A3803EB3D
:1050B000400002F0CAF9012008BD00BF7A0E0020AE
:1050C000024B1A3803EB4000704700BF7A0E0020F5
:1050D0000149024802F0BCB9D87920007C0E0020BA
:1050E000084B10B51B689847074B5B689847074B00
:1050F0005B689847064B5B689847BDE81040054BD6
:105100005B6818477078200088792000B479200007
:105110006C79200044792000F8B5FDF7EBFB114DC8
:10512000064600242F461A20FFF7CAFF294602F040
:105130008FF980B10A20FFF7B1FF0C2303FB047441
:10514000237A83420CD16068301AB0F5206F8CBF8F
:1051500000200120F8BD0134102C05F10C05E2D12E
:105160000020F7E7F404002070B5184D00242E4607
:105170001A20FFF7A5FF294602F06AF9013418B991
:10518000102C05F10C05F3D10C23621E03FB046403
:10519000A4F10C057AB90A20FFF780FF3072FDF701
:1051A000A9FB70601A20FFF78BFFBDE87040014635
:1051B000064802F04AB92B4654F8180D013A6168C6
:1051C00003C3A0682C461860E2E700BFF404002087
:1051D000014B1888704700BF3C0100202DE9F043C7
:1051E000012906468846144687B003DC002007B034
:1051F000BDE8F08303A902F06BFA03AB03CB1B8875
:10520000206123839DF811306161002B47D0B71CCA
:1052100002AA01A903A802F023F99DF81350002D5A
:105220004ED0029B2BB17A7817F8023B03EB022396
:105230009BB2022DA38336D13D462046324902F06F
:1052400004F97B78237015F8023B63709DF8159084
:10525000B9F1000F4ED0019B002B38D02F466A7851
:1052600017F8023B03EB0223029A9BB2E38302B9D5
:10527000A383B9F1020F2ED13D46234904F1080062
:1052800002F0E3F87B78237215F8023B6372A81BE7
:10529000A8EB00038045C4E90E53A7DBA7E7B3786A
:1052A000F71CA376B4E7032D0FD107F108052B46B1
:1052B000621E13F8011D9F4202F8011FF9D1C5E7D4
:1052C0002046114902F0C1F8A5833D46BEE7A38BF5
:1052D0002F46E383CDE7B9F1030F13D107F108059A
:1052E0002B4604F1080213F8011DBB4202F8011B12
:1052F000F9D1CCE7044904F1080002F0A6F8A4F8BB
:105300001E90C4E73D46C2E7D879200030B591B081
:105310000546FFF75DFF4FF6FF73984204D14FF04B
:10532000FF34204611B030BD40220021684601F014
:1053300099FC404B1A782AB901221A70FFF770FBCA
:105340003D4B18701420FFF7A9FE8DF810001320B4
:10535000FFF7A4FE8DF81200FFF7BAFE04460028FE
:1053600048D000238DF813308DF815300023012428
:105370008DF814308DF818404DB10A20FFF78EFEDD
:1053800000283FD00A20FFF789FE8DF81A0002247A
:105390008DF81940FFF71CFFADF81C00FFF798FED1
:1053A00000283CD04FF6FF738DF81740ADF8003061
:1053B000FFF70EFFADF81E001A20FFF781FE014631
:1053C00002A802F042F8FFF7A1FD0E90FFF768FD7A
:1053D0000F90684602F0EEF80446002DA1D0FFF7CA
:1053E000C7FD00289BD0FFF757FD0146684602F035
:1053F00029F996E70B20FFF751FE8DF815408DF83F
:105400001300B3E70C4B1A7802B91C7019780A2004
:105410004A1C1A708DF81A10FFF738FEB7E71B20E8
:10542000FFF74EFE0146684602F00FF88DF8174070
:10543000BEE700BF5C0E00205D0E0020014BDB6864
:10544000184700BFB4792000014B5B69184700BFC3
:1054500088792000014B9B69184700BF887920009C
:10546000024BD86900B10047704700BF887920001F
:1054700070B590F829400F4B042C214628BF042119
:105480000124DB698C4005469847012838BF01207C
:10549000013C444305D0FFF7C3FAB0FBF4F303FB30
:1054A00014042B46214605F10800034ABDE870406C
:1054B000FEF77CBF887920002D5620002DE9F041B1
:1054C00006461B200F46FFF7FBFD494B05461A78A1
:1054D000484C22B901221A70FFF7A2FA20802388D3
:1054E0000BB90123238021880A204B1C2380FFF75E
:1054F000CDFD414801F031FD0446002847D13F4829
:1055000001F076FD0446002868D02946201D01F0F0
:105510009CFF002304F12C00C4E90B30238501F02B
:1055200019FD2146344801F035FD206B01F046FDA0
:10553000072853DC324801F05BFD0546002841D0C6
:10554000304801F055FDA860C0B3FFF73BFC686030
:1055500080B30920D5F80880FFF7A0FD08BB082319
:1055600088F808300D20C8E90067FFF797FD01288B
:105570002946206B1BD101F01AFD206B01F0EDFCD8
:10558000854233D12046BDE8F041FFF771BF29467F
:10559000201D01F05DFF0028C7D1204601F015FD58
:1055A000AAE70920FFF77AFD88F80800DAE701F09A
:1055B000F1FCE2E7A968134801F02EFD29461048E6
:1055C00001F02AFD206B01F0F9FC38B921460A48A8
:1055D00001F0CDFC2146094801F01EFD3946304658
:1055E000BDE8F0410123042202F092B8BDE8F08149
:1055F0005E0E0020380D002014060020CC00002094
:10560000D8000020C000002008B5054801F0E0FCEB
:10561000044801F0DDFCBDE80840034801F0D8BCB7
:10562000D8000020C0000020CC00002013B50446A4
:1056300068B1006B01F091FC024640B12146054B78
:105640000548DB68019302B0BDE81040184702B07E
:1056500010BD00BF88792000D95620002DE9F04701
:105660000D4614468B680646D3E90078106B92F815
:10567000289001F07CFC6868FFF7C6FBA968124817
:1056800001F0CAFC2946114801F0C6FC206B01F06C
:1056900064FC60B1002320462385FFF7E9FE4B46FA
:1056A000324641463846BDE8F04702F031B804F1D1
:1056B0000800FEF785FE2146054801F058FC21460A
:1056C000044801F0A9FCEAE7C0000020D80000204F
:1056D00014060020CC0000202DE9F0410E461746AC
:1056E000044620B1006B01F038FC054608B9BDE85E
:1056F000F0810A21686801F0A2FE80460A20FFF7C7
:10570000CDFC804546D0284601F05FFCEDE794F8DB
:10571000282000203A4484F828202946224684F88C
:105720002900BDE8F041FFF799BF002384F8293034
:1057300094F82830DA19D2B284F828200B7A9342F0
:105740001CD8224629460220EBE794F82930DA19C2
:10575000D2B2052A84F8292007D9002294F82830EB
:1057600084F82920013384F8283094F828200B7A13
:105770009A4203D3224629460120D2E72046FFF76A
:1057800077FE6868BDE8F04101F045BE2246294633
:105790003046C6E7A9680029A9D0032EF6D801A390
:1057A00053F826F00F5720004B5720002B572000AE
:1057B000EF56200013B50024094B1C70094B1C80C8
:1057C000FDF7C6F8012200F58051074B0094074809
:1057D000FEF7F6FF0122064B1A7002B010BD00BFA3
:1057E000760E00203A0D0020C95C2000040700203E
:1057F000710E0020074B82B01B784BB1064B1A7814
:1058000032B901221A70054B1B6A019302B0184786
:1058100002B07047710E0020760E002070782000D4
:10582000094B82B01B786BB1084B1A7852B1084A09
:10583000127802F0FF012AB91970064B5B6A0193D6
:1058400002B0184702B07047710E0020760E00209B
:10585000720E00207078200008B5FFF7E1FF0022EB
:10586000014B1A6008BD00BF14070020044B1B78D1
:1058700023B9044B1B680BB9FFF7D2BF704700BFB9
:10588000780E0020140700200022094B82B01A7005
:10589000084BC2B21A70084A084B28B101211B6A92
:1058A0001170019302B018475B6A1070F9E700BFEE
:1058B000710E0020720E0020760E002070782000FD
:1058C00037B50B4B1A7802F0FF056AB901241C703A
:1058D000084B1D70FDF73CF8224600F58051064B41
:1058E00006480095FEF76CFF012003B030BD00BFF5
:1058F000710E0020720E0020C95C200004070020F9
:1059000037B50B4B05461B780C4673B1FDF720F8F5
:10591000231A022B4FF0000348BF841C009301227E
:1059200021462846034BFEF74BFF03B030BD00BFB6
:10593000710E0020C95C200013B5224C22680AB900
:10594000FFF76EFFFFF7ACFA032823D0FFF706FB43
:1059500000B31D4B9B68984700281BDBFFF7A0FA9C
:10596000C0B1FFF7FBFAA8B11B20FFF7A9FB17494D
:1059700001F06EFD50B11320FFF790FB206058B985
:10598000FFF74EFF1248FEF71BFD0DE0FFF7A0FBEF
:105990000028F0D102B010BDFFF72CFF0023042136
:1059A0000C4A0B48FEF702FDFFF7B6FB0028F1D1C9
:1059B000FFF7DAFB084BDB68019302B0BDE810404B
:1059C000184700BF14070020A8792000B60E002059
:1059D000E0060020595820006C7920002DE9F04F96
:1059E000784E8BB0337805903BB9774B1B7823B951
:1059F000052420460BB0BDE8F08FFFF7AFFA002872
:105A0000F6D072491A20FFF74FFBFFF761FB0746FC
:105A10000C20FFF743FBB8B1FFF7A0FA80464FF028
:105A200001096B4D6C68FFF737FA4146A047694C96
:105A3000AB6984F8009002939847019470B10023F9
:105A4000019A13700124D4E701210B20FFF71EFBFC
:105A5000614B5B6898470028DEDAC9E7EB6903937E
:105A6000984704460028EAD1FFF7DAFE337886F833
:105A70000090DBB20493059B83BB4FF006096FF0E7
:105A8000030A6FF00F0BFCF763FF0690FFF7B2FEFF
:105A90000698AAEB00030693FCF75AFF069BC34245
:105AA000F9D46B69984750B90290FFF7B9FEDDE968
:105AB00001301870FFF7B4FE049B3370C2E7FFF7A4
:105AC000AFFEFCF745FFABEB00030693FCF740FF8E
:105AD000069BC342F9D4B9F10109D4D10FB9FFF73C
:105AE00089FE0A20FFF7DAFAC3B20693FDF7B4F88D
:105AF000FCF72EFF8146DFF8E4B0ABEB000BDFF8DC
:105B0000E0A0AAEB090AFCF723FF1AEB000F4AD525
:105B1000FDF7A2F8002F3ED0AB6840469847FCF74F
:105B200017FF6FF00C031B1A0793FCF711FF079B7D
:105B3000C342F9D4002FE6D1029B9847002836D003
:105B4000FCF706FF6FF01408A8EB0008FCF700FF55
:105B500018EB000FFAD403212B6909A898470328F2
:105B60002ED19DF82630069A934229D100254FF078
:105B70000108FFF755FE049B019A33700023137050
:105B8000002D7FF45FAF002F7FF433AF984514BF33
:105B90001C4602242DE7059B002BBDD0FCF7D8FE48
:105BA0001BEB000FB8D400254FF00008E1E7039B82
:105BB00098470028C4D16B69984700289FD1BFE758
:105BC0000125F1E7710E0020720E0020B60E0020B4
:105BD00070782000780E0020A8792000DEFDFFFFFD
:105BE000B0EFFFFF2DE9F14F06460F461446002A9D
:105BF00061D0324BD3F80090B9F1000F0BD0506850
:105C0000FFF718F901231A463946304601B0BDE8BE
:105C1000F04F01F07DBD1546DFF8A4A0DFF8A4B079
:105C2000284601F0D2F9A8460546D8F80400FFF747
:105C300001F90C20FFF732FAE0B91DB10121132060
:105C4000FFF724FA51461A20FFF72EFA01210B2004
:105C5000FFF71CFADBF804309847002802DA01232A
:105C60000522D1E701210C20FFF710FAD8F8040033
:105C700001F0D7FB002DD3D1204601F0A6F925462F
:105C800004466868FFF7D6F81320FFF707FA804646
:105C90004846FFF7A3FE032805460CD00246012321
:105CA0003946304601F034FD2DB924B14FF00109D9
:105CB000B8F1000FE0D101B0BDE8F08F140700206B
:105CC000B60E0020A879200040F2E3122DE9F34738
:105CD0006F4C0546238893423AD0B3F5F27F08D241
:105CE000002B00F08A8040F2B11293420BD00023C7
:105CF00093E040F202229342F9D10023654A1370E7
:105D0000654A137007E0644A13780133DBB2012B54
:105D1000137000F28680614B1A78002A74D1604AB1
:105D20001268002A70D11B780BB9FFF763FD5D4B39
:105D30005B699847002865D10122564B1A70FCF721
:105D400007FE594B594A186000231370584A1370C4
:105D5000524B584F1B7803F0FF06002B7FD13B7846
:105D6000002B7CD0FCF7F4FD6FF4CC724E4B1B681B
:105D7000C01A1044002872DADFF82881DFF82C916D
:105D8000D8F81430984718B199F800600136F6B287
:105D900089F80060464ED8F818A033780133337084
:105DA000D047002855D0002389F800303378D8F840
:105DB0001C800A2B04D9D04710B9C04700284CD00A
:105DC000C04700284BD13C4B1B789BB12E68FCF799
:105DD000BFFD331A13F1120F4FF0000348BF811CAF
:105DE00000934FF001022846344B58BF06F11401CE
:105DF000FEF7E6FC40F2E3130FE0FCF7A9FD304BA1
:105E000018607AE7FFF732FDFCF7A2FD00F1100100
:105E10002846FFF775FD40F2B113238002B0BDE8BC
:105E2000F0871C4B1B78002B89D1254E336803F576
:105E300080533360FCF78CFD3368C3F1A003C34289
:105E40007FF55BAF28463168FFF75AFD40F2022329
:105E5000E3E799F80030052BA8D9FFF707FD3B7859
:105E6000002BE2D00F4EB369984760B1FCF770FD8C
:105E70000D4B1B68C01A6FF4CC7318440028D4DB98
:105E8000FFF7F4FCD1E7F36998470028EED1F7E774
:105E90003A0D0020740E0020730E0020780E0020B2
:105EA000140700207078200010070020770E0020D3
:105EB000750E0020760E0020710E0020C95C2000B7
:105EC0000007002008B5024B1B689847023008BD48
:105ED0006079200038B50C4B9B689847041E02DAA5
:105EE0004FF0FF3038BDFFF711F803780546002B5F
:105EF000F6D10220FEF7B6FF0028F1D06878FEF751
:105F0000C5FFA01CEEE700BF6079200070B502203D
:105F1000FFF72EF810B94FF0FF3070BDFEF7BCFF51
:105F2000002606700446FEF7BBFF6070FFF716F808
:105F30000446FFF7C7FF20442A2812DCC0F12B00DB
:105F4000C4B2FEF7E3FF0546FEF7AAFF224631463C
:105F5000284400F087FEFEF7A3FF204480B2FEF73E
:105F600095FF044B5B689847041ED4DBFEF7AAFF3D
:105F7000A01CD2E760792000014B9B68184700BF46
:105F80004479200070B504460D4614200121FFF726
:105F90007DF8034B29462046BDE870409B681847B2
:105FA0006C79200038B5038804462BB1942B21D19D
:105FB000124B1B788B4203D094230120238038BDE1
:105FC0000F4B9A42F8D100205568A84718B9022013
:105FD000FCF7D4FAF0E70020A8470828ECD102200B
:105FE000FCF7D4FA074A136801330D2BC8BF00230E
:105FF0001360E1E7002303800320E0E7BE0E0020EA
:10600000F87720004007002037B502200C46FCF747
:10601000B5FAFEF77BFF00F075FE05460420FFF79A
:106020003DF800B2009062782178EBB20448FDF7A9
:106030006DFD022003B0BDE83040FCF7A7BA00BFF9
:10604000327C200081F0004102E000BF83F0004379
:1060500030B54FEA41044FEA430594EA050F08BF03
:1060600090EA020F1FBF54EA000C55EA020C7FEAC7
:10607000645C7FEA655C00F0E2804FEA5454D4EB44
:106080005555B8BF6D420CDD2C4480EA020281EA0E
:10609000030382EA000083EA010180EA020281EA46
:1060A0000303362D88BF30BD11F0004F4FEA013198
:1060B0004FF4801C4CEA113102D0404261EB4101A7
:1060C00013F0004F4FEA03334CEA133302D052422D
:1060D00063EB430394EA050F00F0A780A4F10104E9
:1060E000D5F1200E0DDB02FA0EFC22FA05F2801823
:1060F00041F1000103FA0EF2801843FA05F3594109
:106100000EE0A5F120050EF1200E012A03FA0EFC87
:1061100028BF4CF0020C43FA05F3C01851EBE371B1
:1061200001F0004507D54FF0000EDCF1000C7EEBCE
:1061300000006EEB0101B1F5801F1BD3B1F5001F0C
:106140000CD349085FEA30004FEA3C0C04F101042B
:106150004FEA445212F5800F80F09A80BCF1004F54
:1061600008BF5FEA500C50F1000041EB045141EAD6
:10617000050130BD5FEA4C0C404141EB0101013C9F
:1061800028BFB1F5801FE9D291F0000F04BF01468E
:106190000020B1FA81F308BF2033A3F10B03B3F160
:1061A00020020CDA0C3208DD02F1140CC2F10C02F0
:1061B00001FA0CF021FA02F10CE002F11402D8BF4E
:1061C000C2F1200C01FA02F120FA0CFCDCBF41EA1A
:1061D0000C019040E41AA2BF01EB0451294330BDE9
:1061E0006FEA04041F3C1CDA0C340EDC04F11404C6
:1061F000C4F1200220FA04F001FA02F340EA03009D
:1062000021FA04F345EA030130BDC4F10C04C4F1E2
:10621000200220FA02F001FA04F340EA03002946C2
:1062200030BD21FA04F0294630BD94F0000F83F40C
:10623000801306BF81F480110134013D4EE77FEAEF
:10624000645C18BF7FEA655C29D094EA050F08BF3B
:1062500090EA020F05D054EA000C04BF194610461C
:1062600030BD91EA030F1EBF0021002030BD5FEA60
:10627000545C05D14000494128BF41F0004130BD88
:1062800014F580043CBF01F5801130BD01F00045DC
:1062900045F0FE4141F470014FF0000030BD7FEA4F
:1062A000645C1ABF194610467FEA655C1CBF0B464A
:1062B000024650EA013406BF52EA033591EA030F61
:1062C00041F4002130BD00BF90F0000F04BF002159
:1062D000704730B54FF4806404F132044FF000058C
:1062E0004FF0000150E700BF90F0000F04BF002105
:1062F000704730B54FF4806404F1320410F000456B
:1063000048BF40424FF000013EE700BF42004FEA65
:10631000E2014FEA31014FEA02701FBF12F07F43E2
:1063200093F07F4F81F06051704732F07F4208BF99
:10633000704793F07F4F04BF41F40021704730B5A0
:106340004FF4607401F0004521F000411CE700BFEC
:1063500050EA010208BF704730B54FF000050AE06F
:1063600050EA010208BF704730B511F0004502D570
:10637000404261EB41014FF4806404F132045FEA72
:10638000915C3FF4D8AE4FF003025FEADC0C18BF1B
:1063900003325FEADC0C18BF033202EBDC02C2F10D
:1063A000200300FA03FC20FA02F001FA03FE40EA9F
:1063B0000E0021FA02F11444BDE600BF70B54FF0A3
:1063C000FF0C4CF4E06C1CEA11541DBF1CEA135581
:1063D00094EA0C0F95EA0C0F00F0DEF82C4481EAE9
:1063E000030621EA4C5123EA4C5350EA013518BF09
:1063F00052EA033541F4801143F4801338D0A0FBF6
:1064000002CE4FF00005E1FB02E506F00042E0FBA2
:1064100003E54FF00006E1FB03569CF0000F18BFA8
:106420004EF0010EA4F1FF04B6F5007F64F5407450
:1064300004D25FEA4E0E6D4146EB060642EAC621E3
:1064400041EA55514FEAC52040EA5E504FEACE2E50
:10645000B4F1FD0C88BFBCF5E06F1ED8BEF1004F53
:1064600008BF5FEA500E50F1000041EB045170BDCF
:1064700006F0004646EA010140EA020081EA030113
:10648000B4EB5C04C2BFD4EB0C0541EA045170BD0F
:1064900041F480114FF0000E013C00F3AB8014F189
:1064A000360FDEBF002001F0004170BDC4F10004D2
:1064B000203C35DA0C341BDC04F11404C4F1200553
:1064C00000FA05F320FA04F001FA05F240EA0200AE
:1064D00001F0004221F0004110EBD37021FA04F6E4
:1064E00042EB06015EEA430E08BF20EAD37070BD9E
:1064F000C4F10C04C4F1200500FA04F320FA05F0FD
:1065000001FA04F240EA020001F0004110EBD370FE
:1065100041F100015EEA430E08BF20EAD37070BD6E
:10652000C4F1200500FA05F24EEA020E20FA04F347
:1065300001FA05F243EA020321FA04F001F00041F6
:1065400021FA04F220EA020000EBD3705EEA430E67
:1065500008BF20EAD37070BD94F0000F0FD101F096
:106560000046400041EB010111F4801F08BF013CCF
:10657000F7D041EA060195F0000F18BF704703F00D
:106580000046520043EB030313F4801F08BF013D94
:10659000F7D043EA0603704794EA0C0F0CEA135550
:1065A00018BF95EA0C0F0CD050EA410618BF52EA0A
:1065B0004306D1D181EA030101F000414FF0000010
:1065C00070BD50EA410606BF1046194652EA43061E
:1065D00019D094EA0C0F02D150EA013613D195EA92
:1065E0000C0F05D152EA03361CBF104619460AD1DA
:1065F00081EA030101F0004141F0FE4141F47001E4
:106600004FF0000070BD41F0FE4141F4780170BDD3
:1066100070B54FF0FF0C4CF4E06C1CEA11541DBF38
:106620001CEA135594EA0C0F95EA0C0F00F0A7F83A
:10663000A4EB050481EA030E52EA03354FEA013167
:1066400000F088804FEA03334FF0805545EA13137A
:1066500043EA12634FEA022245EA111545EA106542
:106660004FEA00260EF000419D4208BF964244F1D9
:10667000FD0404F5407402D25B084FEA3202B61AF8
:1066800065EB03055B084FEA32024FF480104FF4CC
:10669000002CB6EB020E75EB030E22BFB61A754640
:1066A00040EA0C005B084FEA3202B6EB020E75EBD3
:1066B000030E22BFB61A754640EA5C005B084FEA3B
:1066C0003202B6EB020E75EB030E22BFB61A754608
:1066D00040EA9C005B084FEA3202B6EB020E75EB13
:1066E000030E22BFB61A754640EADC0055EA060ED4
:1066F00018D04FEA051545EA16754FEA06164FEA17
:10670000C30343EA52734FEAC2025FEA1C1CC0D1C2
:1067100011F4801F0BD141EA00014FF000004FF04F
:10672000004CB6E711F4801F04BF01430020B4F110
:10673000FD0C88BFBCF5E06F3FF6AFAEB5EB030CC8
:1067400004BFB6EB020C5FEA500C50F1000041EBC5
:10675000045170BD0EF0004E4EEA113114EB5C0492
:10676000C2BFD4EB0C0541EA045170BD41F4801165
:106770004FF0000E013C90E645EA060E8DE60CEA6D
:10678000135594EA0C0F08BF95EA0C0F3FF43BAF8A
:1067900094EA0C0F0AD150EA01347FF434AF95EA41
:1067A0000C0F7FF425AF104619462CE795EA0C0F25
:1067B00006D152EA03353FF4FDAE1046194622E7F2
:1067C00050EA410618BF52EA43067FF4C5AE50EACC
:1067D00041047FF40DAF52EA43057FF4EBAE12E7BC
:1067E0004A0011D212F5001211D20DD56FF4787350
:1067F000B3EB62520ED44FEAC12343F0004343EAA5
:10680000505323FA02F070474FF00000704750EAEF
:10681000013002D14FF0FF3070474FF00000704759
:1068200053B94AB9002908BF00281CBF4FF0FF31F7
:106830004FF0FF3000F06EB9ADF1080C6DE904CEF9
:1068400000F006F8DDF804E0DDE9022304B070474B
:106850002DE9F047089E0D4604468E46002B40F079
:1068600083808A42174647D9B2FA82F34BB1C3F10B
:10687000200105FA03FE20FA01F19F4041EA0E0EC5
:106880009C404FEA1748BEFBF8FC1FFA87F908FB4B
:106890001CE20CFB09F0210C41EA024290420AD9A9
:1068A000BA180CF1FF3180F01881904240F2158146
:1068B000ACF1020C3A44121AB2FBF8F008FB1022B9
:1068C00000FB09F1A4B244EA0244A14209D93C19EF
:1068D00000F1FF3280F00381A14240F200810238D2
:1068E0003C44641A002140EA0C401EB10022DC4006
:1068F000C6E90042BDE8F08702B9FFDEB2FA82F3D2
:10690000002B4FD18D1A01214FEA124E1FFA82F847
:10691000B5FBFEFC0EFB1C5508FB0CF0220C42EAFA
:106920000545A84207D97D190CF1FF3202D2A842D1
:1069300000F2E98094462D1AB5FBFEF00EFB1055CF
:1069400008FB00F8A4B244EA0544A04507D93C1965
:1069500000F1FF3202D2A04500F2D9801046A4EB2C
:10696000080440EA0C40C0E78B4208D9002E00F032
:10697000B1800021C6E900050846BDE8F087B3FAFA
:1069800083F100294BD1AB4202D3824200F2B9809D
:10699000841A65EB030301209E46002EAAD0C6E9A7
:1069A000004EA7E79F40C3F12002D1404FEA174EA7
:1069B000B1FBFEF01FFA87F80EFB101124FA02F269
:1069C0009D4000FB08FC2A43150C45EA0145AC45F7
:1069D00004FA03F409D97D1900F1FF3180F08F80AA
:1069E000AC4540F28C8002383D44A5EB0C05B5FB6C
:1069F000FEF10EFB115C01FB08F995B245EA0C456E
:106A0000A94507D97D1901F1FF3274D2A94572D980
:106A100002393D44A5EB090541EA004178E7C1F19F
:106A200020078B4022FA07FC4CEA030C25FA07F4F6
:106A30004FEA1C4EB4FBFEF91FFA8CF80EFB19440A
:106A400020FA07F309FB08FA8D401D432B0C43EA9B
:106A50000444A24502FA01F200FA01F309D91CEB41
:106A6000040409F1FF3048D2A24546D9A9F1020930
:106A70006444A4EB0A04B4FBFEF00EFB104400FBDC
:106A800008FAADB245EA0444A24508D91CEB040457
:106A900000F1FF352DD2A2452BD90238644440EADB
:106AA0000940A0FB0289A4EB0A044C45C6464D46AA
:106AB00019D316D05EB1B3EB0E0264EB050404FAF1
:106AC00007F722FA01F31F43CC40C6E90074002106
:106AD000BDE8F087314630460CE78C46EBE61046C1
:106AE000FFE64345E6D2B8EB020E69EB0C05013830
:106AF000E0E72846D3E711468CE78146B9E7084628
:106B000073E7084649E7ACF1020C3D4413E702384D
:106B10003C4424E7704700BF032A70B412D940EA0E
:106B20000105AD0704460B4620D11946204653F80F
:106B3000045B54F8046BAE4218D1043A032A204691
:106B40001946F2D8541E72B103780A789A4208BFE7
:106B5000241806D00CE010F8013F11F8012F9342E1
:106B600006D1A042F7D1002070BC7047541EEBE75D
:106B7000981A70BC704700BF844641EA000313F0C6
:106B8000030349D1403A23D30B6803604B68436049
:106B90008B688360CB68C3600B6903614B69436199
:106BA0008B698361CB69C3610B6A03624B6A436281
:106BB0008B6A8362CB6AC3620B6B03634B6B436369
:106BC0008B6B8363CB6BC36340304031403ADBD285
:106BD00030320BD30B6803604B6843608B68836073
:106BE000CB68C36010301031103AF3D20C3205D3A9
:106BF00051F8043B40F8043B043AF9D2043208D07F
:106C0000D2071CBF11F8013B00F8013B01D30B88F0
:106C100003806046704700BF082A13D38B07B1D0AA
:106C200010F00303AED0C3F10403D21ADB071CBF7C
:106C300011F8013B00F8013BA4D331F8023B20F8E6
:106C4000023B9FE7043AD9D3013A11F8013B00F81F
:106C5000013BF9D20B7803704B7843708B788370CB
:106C600060467047F0B4860746D0541E002A3CD0D8
:106C7000CAB2034602E014F1FF3436D303F8012B05
:106C80009D07F8D1032C29D9CDB245EA05250F2C53
:106C900045EA054533D9A4F11006360903F120076A
:106CA00007EB061703F1100242E9045542E90255C9
:106CB0001032BA42F8D1721C14F00C0F03EB02121E
:106CC00004F00F0613D0331F23F0030304331344DF
:106CD00042F8045B9342FBD106F003042CB1C9B225
:106CE0001C4403F8011B9C42FBD1F0BC70473446A6
:106CF0001346002CF3D1F8E714460346C2E71A46C0
:106D00002646E0E720F0030110F00300C0F1000088
:106D100051F8043B00F1040C4FEACC0C6FF0000278
:106D20001CBF22FA0CF213434FF0010C4CEA0C2C5E
:106D30004CEA0C4CA3EB0C0222EA030212EACC123E
:106D400004BF51F8043B0430F4D0C2F1000102EA60
:106D50000102B2FA82F2C2F11F0200EBD2007047C8
:106D6000FEE708B5FBF71CFBF7B5002406462546F1
:106D700027463046FBF702FC0197019BAB4215DB2F
:106D80003046FBF703FCC5F5C8750197019B9D4292
:106D900011DC0134B4F5487F01D103B0F0BDB4F586
:106DA000C87FD4BF2546C4F54875E2E700BF019B04
:106DB00001330193E1E700BF019B01330193E5E754
:106DC000FBF79CBCFBF746BD70470020FBF726BED7
:106DD0000120FBF723BE0020FBF7D2BF0120FBF709
:106DE000CFBF0220FBF7CCBF0320FBF7C9BF10B514
:106DF0000C46FCF7A7FA2046BDE81040FCF7D4BAD1
:106E000010B50446C1B20020FBF70CFF204610BDB0
:106E100070B50E460025441E631C02D014F8010F05
:106E200008B9284670BDB542FBD0FFF7E9FF013530
:106E3000F2E738B505460024285D20B90A20FFF79F
:106E4000DFFF204638BDFFF7DBFF0134F4E7002009
:106E500070470120704710B50446302200210E20F3
:106E6000FBF7DEFF6CB1012C0CD142F21073001164
:106E7000A0F28E5058432A2390FBF3F000F5C34054
:106E8000283010BD4FF00040FBE700207047012084
:106E9000704710B50446302200210F20FBF7C0FFD9
:106EA0005CB1012C03BF40F6F253584347F6F07330
:106EB0004FF0004008BF90FBF3F010BD084608B546
:106EC00011460AB1FFF7A4FF002008BD10B5041F4A
:106ED00054F8040F00B910BD0021FDF74DFCF7E791
:106EE000704710B5044600F01BF82046BDE810407E
:106EF000FDF7F8BA10B5044600F019F82046BDE8D1
:106F00001040FDF7EFBAC068B0FA80F04009704752
:106F1000837BDB0701D5FDF727BB7047FFF754BF25
:106F200010B541600446FBF7E5FC206010BDD0E9D8
:106F3000003213440360704710B50446FBF7DAFCD7
:106F40002368C3F101030344606898422CBF00200A
:106F5000012010BD0023036070470068704700687F
:106F600020B1034600680028FBD11846704703682B
:106F700010B53BB1002499421A6806D11CB90260D1
:106F800000221A6010BD2260FAE71C46002AF9D0E0
:106F90001346F0E738B50546FFF7E9FF00230B601D
:106FA000FFF7DDFF08B9296038BD0160FCE738B59F
:106FB000FFF7DDFF03680B60016038BD0368002048
:106FC00003B970471B680130FAE700B100687047E9
:106FD00010B50446428800214068FFF743FE23882D
:106FE0006288A0680021BDE810405A43FFF73ABE0E
:106FF000002310B54188994201DC002009E0426875
:10700000D418D25C32B9012222700288806803FB56
:10701000020010BD0133EEE7002330B582684488DA
:107020009C4201DCFF2008E08A4207D14168CA5C2B
:107030000AB1013ACA544268D05C30BD05880133B8
:107040002A44EDE782688A4208D84388008800FB1A
:10705000032081422CBF0020012070470020704790
:107060000023013A0160027143718371704710B5CA
:10707000427983790479D31A34EA030308D0036888
:10708000995443790279013313404371012010BDB3
:107090000020FCE7837942790179D21A0A421FBFA6
:1070A0000268D25C01330B401ABF837110464FF067
:1070B000FF307047831C002013F8022C023302B902
:1070C000704713F8032C1044F6E7072B2DE9F8431B
:1070D00006460F4615461C4607DC1A462946384622
:1070E000FDF7ECFC3070BDE8F8834FEAE3087AB9AD
:1070F0007B5D73550135A845FADC14F00702F2D028
:10710000002107EB0800FDF7D9FC06F80800EAE7C4
:107110004FF0000907EB090008222946FDF7CEFCD5
:1071200006F8090009F10109C845F3DC14F007026B
:10713000D9D02946E5E72DE9F743FDF7E7FE0446F8
:107140000220FDF78FFE20B90025284603B0BDE8D8
:10715000F0836378207800EB032080B2FDF7E0FD38
:1071600005460028F0D0FDF7D1FE0746287B10F039
:10717000070318BF012303EBD000FDF773FE0028BF
:10718000E2D00026B146AC68023414F8023C002B71
:10719000DBD0192B14F8018C07EBE60106F007028F
:1071A0000BD901A84346FFF790FF14F8020C01A980
:1071B000FDF77AFF46440234E7E7434601A8ADF8FD
:1071C0000490FFF782FF9DF805109DF8043014F835
:1071D000020C43EA0121FDF759FFEBE7072B2DE9EC
:1071E000F0410FDC1478C1F11001CB1A04FA03F35B
:1071F0000178C3F307220A43417802700B434370BE
:10720000BDE8F081DC10C9B9555C45540131A1429B
:10721000FADB13F00703F3D0125DC3F108052A412E
:10722000C3F11003055D02FA03F3C3F307222A43F7
:10723000011902554A7813434B70E1E705460026D1
:10724000C1F1080E975D95F800C007FA0EF7C7F375
:1072500007284CEA080C05F801CB95F800C0013668
:107260004CEA0707A6422F70ECDB13F00703C7D0E8
:10727000125DC3F1080631440A41D2B2C3F11003D2
:10728000015D02FA03F3C3F307220A43051902550D
:107290006A7813436B70B3E72DE9F743057B044627
:1072A00015F0070218BF012202EBD505A81CFDF757
:1072B0005FFEA8B1FDF7F0FDA3880370A3881B0A49
:1072C0004370FDF7E9FD2A460025861C0021304663
:1072D000FFF7C8FCA468023414F8020C18B90120A6
:1072E00003B0BDE8F083192814F8017C06EBE5082B
:1072F00005F007090AD9FDF7E3FE3B460246494679
:107300004046FFF76BFF3D440234E5E7FDF7C6FE5C
:107310003B46ADF8040001AAF1E710B5FDF744FDC6
:10732000FDF766FEFDF7B8FC00F04AF8BDE8104036
:107330004FF4E1234FF4F0524FF400710220FDF7B7
:1073400073BC7047F8B50E46FDF7E0FD07880446AC
:10735000FDF7A6FDBB000233834203D800250234AB
:10736000AF4200DCF8BD54F8041B30460A0C89B269
:10737000FDF7A4FC0135F3E743695B6803B11847E7
:10738000704713B504461A20FDF79AFE014601A87E
:1073900000F05BF863691B6813B1204601A99847A8
:1073A00002B010BD00F00EB838B50D46FDF7B8FCC0
:1073B000044620B185602846FDF7E0FC207338BD07
:1073C000FDF79ABCFDF7A6BCFDF7BEBB03691B68C1
:1073D00003B11847704703695B6803B118477047EA
:1073E0000EF00F000D2808BF00F00EB800982DE930
:1073F000F04F00F1240181F3098890E8F08F0EF03E
:107400000F000D2818BF7047EFF3098020E9F04FF7
:107410000990BDE8F08F006800F1B6018230FDF7F9
:107420000DBE10B5046804F1B60104F18200FDF749
:1074300005FE2046FDF772FDA4F8800010BD03682C
:1074400003EB4103B3F8820070470B880380704759
:10745000022208B5FFF760FBB0FA80F0400908BDD2
:1074600030B530B3037A022B2CD1C579437A047935
:107470002DB9002B4AD1012C48D1204615E053EA02
:1074800004001DD0032D2FD1032B2FD1B4FA84F08B
:107490004009002309E0181E18BF0120002CF8D174
:1074A000023B012B8CBF0023012301B10B6002B111
:1074B000106030BD023B012B8CBF00230123DCE7B1
:1074C00001201BE00378022B22D0037953B9437AC1
:1074D00013F0030318BF0123C07910F0030018BF95
:1074E0000120E2E70023F7E7022DD4D0A3F1020C3C
:1074F000DCF1000040EB0C00002CCAD1022DCFD0F3
:10750000032DC6D19C1E63426341CEE7002CD1D02F
:1075100000200346C9E7002337B50B608B80437D0D
:107520000D46D9075CBF01232B70037E0446012B57
:107530000BD8C37D9A072CD0437E9B0729D0C28BE2
:10754000838B9A4225D101232375694601AA04F150
:107550001000FFF785FF009B0BB10223EB70019B2E
:107560000BB102236B70E37D03F00303022B03D006
:10757000032B14BF00230823AB70637E03F00303C7
:10758000022B03D0032B14BF002308232B7103B05D
:1075900030BD0023D8E702280CBF022308230B4488
:1075A0008B4201D10120704713F8012DFF2AF7D03B
:1075B0000020704707B56946FFF7ADFF9DF8003022
:1075C0009DF80100023303449DF8020003449DF836
:1075D000030003449DF8040003449DF8050018448B
:1075E00003B05DF804FB43788278DB00120102F0FF
:1075F000100203F008031343027802F0070213435A
:10760000C278520102F0200213430279920102F083
:10761000400213430B704379427A03F0010343EABB
:1076200082138279520002F002021343C27992005F
:1076300002F00C021343027A120102F030021343EB
:107640004B70704737B504460D466946FFF763FF38
:10765000294604F11000FFF7C6FF9DF800309DF8A1
:107660000120012B09BFA37E0223AB700323022A52
:1076700008D1A18B5A1CE954A18BD2B20233090A5A
:10768000DBB2A9549DF802201344DBB2991AC9B2A7
:10769000B2B99DF80320022A08D1E18B5A1CE954A3
:1076A000E18BD2B20233090ADBB2A9549DF804205F
:1076B00008341344D8B2831ADBB22AB903B030BD00
:1076C000013AA05C6854E1E7013AA15CE954F2E7B1
:1076D0000278437802F007000870C2F3C0004870D7
:1076E000C2F300108870C2F34010C2F380120A7116
:1076F00003F001024A71C3F340028A71C3F38102AD
:10770000CA71C3F301129B09C8700A724B727047A9
:1077100010B40446084611461A4614B1234610BC5C
:10772000184710BC704730B591B0FDF7EFFB044629
:10773000FDF7B6FB6A4601462046FDF74FFD0446BD
:1077400020B94FF0FF34204611B030BDFDF78AFB61
:107750000028F6D014209DF81010FDF797FC9DF836
:107760001730ABB1BDF81C50FDF732FD854205D096
:107770004FF6FF73BDF81C209A42E2D169469DF88E
:107780001700FFF708FF18B969461B20FDF78CFCAE
:1077900002A91A20FDF788FC13209DF81210FDF7AE
:1077A00075FC9DF8153053B99DF81A100A20FDF7A5
:1077B0006DFC9DF81A100E20FDF768FCC3E74FF62C
:1077C000FF71F3E70120FDF7A1BD0020FDF79EBD8D
:1077D0001020704770B5044600200D46FEF7FEF8F5
:1077E0000328024606D029462046BDE87040012302
:1077F000FFF78EBF70BD7047507A2000A125200092
:10780000FD25200000000000010000000100000034
:107810000100000000C0004000410D4000000000D9
:10782000080000002C00000000000001FFFFFFFF27
:10783000050000000200000002000000020000003D
:1078400000D0004008410D40020000000800000088
:107850002C00000002010200FFFFFFFF06000000F5
:10786000EB7A2000EF7A2000FE7A2000027B2000D5
:107870005535200045332000A9332000EF6D20004E
:107880007534200019322000852F20009D2F200004
:1078900045302000452F2000B9302000553220000F
:1078A000B13620004534200007000000FF00000032
:1078B00005000000ED00000003000000D5000000FE
:1078C00001000000C500000000000000B60000003C
:1078D000FFFFFFFFB0000000FDFFFFFFA100000061
:1078E000FBFFFFFF91000000F9FFFFFF8800000091
:1078F000F7FFFFFF72000000F5FFFFFF62000000CE
:10790000F3FFFFFF58000000F1FFFFFF42000000FF
:10791000E8FFFFFF00000000297B2000576E2000D9
:107920004F6E2000536E20003D7B2000936E2000A0
:107930008B6E20008F6E200037712000997220001E
:10794000B5702000D17B20001B732000154B200058
:107950004573200043732000837320007973200057
:10796000CB772000C577200027772000DC7B200024
:1079700009562000BD5420003D54200049542000E9
:107980005554200061542000E17B2000B5572000B1
:10799000D5772000E55B200039592000C158200030
:1079A00089582000D1772000C55E20000D5F20009F
:1079B000D55E2000EC7B2000F7772000855F20005B
:1079C000795F20002C010020E4000020000000006E
:1079D00009602000000000000000436F6E74696BB6
:1079E000692D386438633237333135005A6F6C652E
:1079F000727469612052452D4D6F746520726576F1
:107A00006973696F6E204220706C6174666F726D6D
:107A10000052696D6520636F6E6669677572656493
:107A2000207769746820616464726573732000252F
:107A30003032783A00253032780A00204E65743AA8
:107A40002000204D41433A2000205244433A200078
:107A5000427574746F6E004343323533383A2049AF
:107A6000443A2030782530346C782C207265762E9C
:107A70003A20504725642E25642C20466C6173689B
:107A80003A20256C75204B69422C205352414D3AC7
:107A900020256C75204B69422C204145532F5348BB
:107AA000413A2025752C204543432F5253413A201B
:107AB00025750A53797374656D20636C6F636B3A37
:107AC00020256C7520487A0A492F4F20636C6F631C
:107AD0006B3A20256C7520487A0A526573657420CC
